{
  "contractName": "ActivityContract",
  "abi": [
    {
      "anonymous": false,
      "inputs": [
        {
          "indexed": false,
          "internalType": "bytes32",
          "name": "objId",
          "type": "bytes32"
        }
      ],
      "name": "ActivityCreated",
      "type": "event"
    },
    {
      "anonymous": false,
      "inputs": [
        {
          "indexed": false,
          "internalType": "bytes32",
          "name": "objId",
          "type": "bytes32"
        }
      ],
      "name": "ActivityUpdated",
      "type": "event"
    },
    {
      "inputs": [
        {
          "internalType": "uint256",
          "name": "",
          "type": "uint256"
        }
      ],
      "name": "activityIds",
      "outputs": [
        {
          "internalType": "bytes32",
          "name": "",
          "type": "bytes32"
        }
      ],
      "stateMutability": "view",
      "type": "function"
    },
    {
      "inputs": [
        {
          "internalType": "bytes32",
          "name": "",
          "type": "bytes32"
        }
      ],
      "name": "activityMap",
      "outputs": [
        {
          "internalType": "bytes32",
          "name": "activityId",
          "type": "bytes32"
        },
        {
          "internalType": "string",
          "name": "name",
          "type": "string"
        },
        {
          "internalType": "bytes32",
          "name": "organizationTypeId",
          "type": "bytes32"
        },
        {
          "internalType": "bool",
          "name": "isActive",
          "type": "bool"
        },
        {
          "internalType": "string",
          "name": "customJsonData",
          "type": "string"
        }
      ],
      "stateMutability": "view",
      "type": "function"
    },
    {
      "inputs": [
        {
          "internalType": "string",
          "name": "_name",
          "type": "string"
        },
        {
          "internalType": "bytes32",
          "name": "_organizationTypeId",
          "type": "bytes32"
        },
        {
          "internalType": "string",
          "name": "_customJsonData",
          "type": "string"
        }
      ],
      "name": "createActivity",
      "outputs": [
        {
          "internalType": "bytes32",
          "name": "objId",
          "type": "bytes32"
        }
      ],
      "stateMutability": "nonpayable",
      "type": "function"
    },
    {
      "inputs": [
        {
          "internalType": "bytes32",
          "name": "objId",
          "type": "bytes32"
        },
        {
          "internalType": "string",
          "name": "_name",
          "type": "string"
        },
        {
          "internalType": "bytes32",
          "name": "_organizationTypeId",
          "type": "bytes32"
        },
        {
          "internalType": "string",
          "name": "_customJsonData",
          "type": "string"
        },
        {
          "internalType": "bool",
          "name": "_isActive",
          "type": "bool"
        }
      ],
      "name": "updateActivity",
      "outputs": [],
      "stateMutability": "nonpayable",
      "type": "function"
    },
    {
      "inputs": [
        {
          "internalType": "bytes32",
          "name": "objId",
          "type": "bytes32"
        }
      ],
      "name": "getActivityById",
      "outputs": [
        {
          "internalType": "bytes32",
          "name": "id",
          "type": "bytes32"
        },
        {
          "internalType": "string",
          "name": "name",
          "type": "string"
        },
        {
          "internalType": "bytes32",
          "name": "organizationTypeId",
          "type": "bytes32"
        },
        {
          "internalType": "bool",
          "name": "isActive",
          "type": "bool"
        },
        {
          "internalType": "string",
          "name": "customJsonData",
          "type": "string"
        }
      ],
      "stateMutability": "view",
      "type": "function"
    }
  ],
  "bytecode": "0x608060405234801561001057600080fd5b50610b9e806100206000396000f3fe608060405234801561001057600080fd5b50600436106100575760003560e01c806351a729331461005c5780636c72bcb314610186578063b59d5cfd146102f8578063e85bf15714610422578063e8d7226914610464575b600080fd5b6100886004803603602081101561007257600080fd5b81019080803590602001909291905050506105d4565b6040518086815260200180602001858152602001841515815260200180602001838103835287818151815260200191508051906020019080838360005b838110156100e05780820151818401526020810190506100c5565b50505050905090810190601f16801561010d5780820380516001836020036101000a031916815260200191505b50838103825284818151815260200191508051906020019080838360005b8381101561014657808201518184015260208101905061012b565b50505050905090810190601f1680156101735780820380516001836020036101000a031916815260200191505b5097505050505050505060405180910390f35b6102f6600480360360a081101561019c57600080fd5b8101908080359060200190929190803590602001906401000000008111156101c357600080fd5b8201836020820111156101d557600080fd5b803590602001918460018302840111640100000000831117156101f757600080fd5b91908080601f016020809104026020016040519081016040528093929190818152602001838380828437600081840152601f19601f820116905080830192505050505050509192919290803590602001909291908035906020019064010000000081111561026457600080fd5b82018360208201111561027657600080fd5b8035906020019184600183028401116401000000008311171561029857600080fd5b91908080601f016020809104026020016040519081016040528093929190818152602001838380828437600081840152601f19601f820116905080830192505050505050509192919290803515159060200190929190505050610763565b005b6103246004803603602081101561030e57600080fd5b810190808035906020019092919050505061080f565b6040518086815260200180602001858152602001841515815260200180602001838103835287818151815260200191508051906020019080838360005b8381101561037c578082015181840152602081019050610361565b50505050905090810190601f1680156103a95780820380516001836020036101000a031916815260200191505b50838103825284818151815260200191508051906020019080838360005b838110156103e25780820151818401526020810190506103c7565b50505050905090810190601f16801561040f5780820380516001836020036101000a031916815260200191505b5097505050505050505060405180910390f35b61044e6004803603602081101561043857600080fd5b8101908080359060200190929190505050610982565b6040518082815260200191505060405180910390f35b6105be6004803603606081101561047a57600080fd5b810190808035906020019064010000000081111561049757600080fd5b8201836020820111156104a957600080fd5b803590602001918460018302840111640100000000831117156104cb57600080fd5b91908080601f016020809104026020016040519081016040528093929190818152602001838380828437600081840152601f19601f820116905080830192505050505050509192919290803590602001909291908035906020019064010000000081111561053857600080fd5b82018360208201111561054a57600080fd5b8035906020019184600183028401116401000000008311171561056c57600080fd5b91908080601f016020809104026020016040519081016040528093929190818152602001838380828437600081840152601f19601f8201169050808301925050505050505091929192905050506109a6565b6040518082815260200191505060405180910390f35b6000606060008060606000806000888152602001908152602001600020905080600001548160010182600201548360030160009054906101000a900460ff1684600401838054600181600116156101000203166002900480601f0160208091040260200160405190810160405280929190818152602001828054600181600116156101000203166002900480156106ac5780601f10610681576101008083540402835291602001916106ac565b820191906000526020600020905b81548152906001019060200180831161068f57829003601f168201915b50505050509350808054600181600116156101000203166002900480601f0160208091040260200160405190810160405280929190818152602001828054600181600116156101000203166002900480156107485780601f1061071d57610100808354040283529160200191610748565b820191906000526020600020905b81548152906001019060200180831161072b57829003601f168201915b50505050509050955095509550955095505091939590929450565b600080600087815260200190815260200160002090508381600201819055508481600101908051906020019061079a929190610abd565b50818160030160006101000a81548160ff021916908315150217905550828160040190805190602001906107cf929190610abd565b507f8a3906be51b7d1f5c0fde5bcd51a0f4c663bafa8250b79158f62136c0d00f237866040518082815260200191505060405180910390a1505050505050565b6000602052806000526040600020600091509050806000015490806001018054600181600116156101000203166002900480601f0160208091040260200160405190810160405280929190818152602001828054600181600116156101000203166002900480156108c15780601f10610896576101008083540402835291602001916108c1565b820191906000526020600020905b8154815290600101906020018083116108a457829003601f168201915b5050505050908060020154908060030160009054906101000a900460ff1690806004018054600181600116156101000203166002900480601f0160208091040260200160405190810160405280929190818152602001828054600181600116156101000203166002900480156109785780601f1061094d57610100808354040283529160200191610978565b820191906000526020600020905b81548152906001019060200180831161095b57829003601f168201915b5050505050905085565b6001818154811061099257600080fd5b906000526020600020016000915090505481565b600080424460405160200180838152602001828152602001925050506040516020818303038152906040528051906020012090506000806000838152602001908152602001600020905081816000018190555085816001019080519060200190610a11929190610abd565b5084816002018190555060018160030160006101000a81548160ff02191690831515021790555083816004019080519060200190610a50929190610abd565b5060018290806001815401808255809150506001900390600052602060002001600090919091909150557f8c7030962ef212931d701bb102293b6046a82938c9fa09296a6ee14c53f14ee6826040518082815260200191505060405180910390a181925050509392505050565b828054600181600116156101000203166002900490600052602060002090601f016020900481019282610af35760008555610b3a565b82601f10610b0c57805160ff1916838001178555610b3a565b82800160010185558215610b3a579182015b82811115610b39578251825591602001919060010190610b1e565b5b509050610b479190610b4b565b5090565b5b80821115610b64576000816000905550600101610b4c565b509056fea264697066735822122050cc56e6858d62ceb38a6c11ded6842757af4220c34f1304864e298c40fc2c2064736f6c63430007040033",
  "immutableReferences": {},
  "source": "pragma solidity ^0.7.4;\n\ncontract ActivityContract {\n    struct Activity {\n        bytes32 activityId;\n        string name;\n        bytes32 organizationTypeId;\n        bool isActive;\n        string customJsonData;\n    }\n\n    mapping(bytes32 => Activity) public activityMap;\n    bytes32[] public activityIds;\n\n        event ActivityCreated(bytes32 objId);\n    event ActivityUpdated(bytes32 objId);\n\n    function createActivity(\n        string memory _name,\n        bytes32 _organizationTypeId,\n        string memory _customJsonData\n    ) public returns (bytes32 objId) {\n        bytes32 newId =\n            keccak256(abi.encodePacked(block.timestamp, block.difficulty));\n\n        Activity storage obj = activityMap[newId];\n        obj.activityId = newId;\n        obj.name = _name;\n        obj.organizationTypeId = _organizationTypeId;\n        obj.isActive = true;\n        obj.customJsonData = _customJsonData;\n\n        activityIds.push(newId);\n\n        emit ActivityCreated(newId);\n        return (newId);\n    }\n\n    function updateActivity(\n        bytes32 objId,\n        string memory _name,\n        bytes32 _organizationTypeId,\n        string memory _customJsonData,\n        bool _isActive\n    ) public {\n        Activity storage obj = activityMap[objId];\n        obj.organizationTypeId = _organizationTypeId;\n        obj.name = _name;\n        obj.isActive = _isActive;\n        obj.customJsonData = _customJsonData;\n\n        emit ActivityUpdated(objId);\n    }\n\n    function getActivityById(bytes32 objId)\n        public\n        view\n        returns (\n            bytes32 id,\n            string memory name,\n            bytes32 organizationTypeId,\n            bool isActive,\n            string memory customJsonData\n        )\n    {\n        Activity storage obj = activityMap[objId];\n        return (\n            obj.activityId,\n            obj.name,\n            obj.organizationTypeId,\n            obj.isActive,\n            obj.customJsonData\n        );\n    }\n\n}\n",
  "sourcePath": "/home/fakhrul/experiment/supplychain_blockchain/tat_contract/contracts/ActivityContract.sol",
  "compiler": {
    "name": "solc",
    "version": "0.7.4+commit.3f05b770.Emscripten.clang"
  },
  "schemaVersion": "3.3.4",
  "updatedAt": "2021-03-04T14:59:37.258Z",
  "devdoc": {
    "kind": "dev",
    "methods": {},
    "version": 1
  },
  "userdoc": {
    "kind": "user",
    "methods": {},
    "version": 1
  }
}