{
  "contractName": "AreaContract",
  "abi": [
    {
      "anonymous": false,
      "inputs": [
        {
          "indexed": false,
          "internalType": "bytes32",
          "name": "objId",
          "type": "bytes32"
        }
      ],
      "name": "AreaCreated",
      "type": "event"
    },
    {
      "anonymous": false,
      "inputs": [
        {
          "indexed": false,
          "internalType": "bytes32",
          "name": "objId",
          "type": "bytes32"
        }
      ],
      "name": "AreaUpdated",
      "type": "event"
    },
    {
      "inputs": [
        {
          "internalType": "uint256",
          "name": "",
          "type": "uint256"
        }
      ],
      "name": "areaIds",
      "outputs": [
        {
          "internalType": "bytes32",
          "name": "",
          "type": "bytes32"
        }
      ],
      "stateMutability": "view",
      "type": "function"
    },
    {
      "inputs": [
        {
          "internalType": "bytes32",
          "name": "",
          "type": "bytes32"
        }
      ],
      "name": "areaMap",
      "outputs": [
        {
          "internalType": "bytes32",
          "name": "areaId",
          "type": "bytes32"
        },
        {
          "internalType": "string",
          "name": "name",
          "type": "string"
        },
        {
          "internalType": "bytes32",
          "name": "organizationId",
          "type": "bytes32"
        },
        {
          "internalType": "bool",
          "name": "isActive",
          "type": "bool"
        },
        {
          "internalType": "string",
          "name": "customJsonData",
          "type": "string"
        }
      ],
      "stateMutability": "view",
      "type": "function"
    },
    {
      "inputs": [
        {
          "internalType": "string",
          "name": "_name",
          "type": "string"
        },
        {
          "internalType": "bytes32",
          "name": "_organizationId",
          "type": "bytes32"
        },
        {
          "internalType": "string",
          "name": "_customJsonData",
          "type": "string"
        }
      ],
      "name": "createArea",
      "outputs": [
        {
          "internalType": "bytes32",
          "name": "objId",
          "type": "bytes32"
        }
      ],
      "stateMutability": "nonpayable",
      "type": "function"
    },
    {
      "inputs": [
        {
          "internalType": "bytes32",
          "name": "objId",
          "type": "bytes32"
        },
        {
          "internalType": "string",
          "name": "_name",
          "type": "string"
        },
        {
          "internalType": "bytes32",
          "name": "_organizationId",
          "type": "bytes32"
        },
        {
          "internalType": "string",
          "name": "_customJsonData",
          "type": "string"
        },
        {
          "internalType": "bool",
          "name": "_isActive",
          "type": "bool"
        }
      ],
      "name": "updateArea",
      "outputs": [],
      "stateMutability": "nonpayable",
      "type": "function"
    },
    {
      "inputs": [
        {
          "internalType": "bytes32",
          "name": "objId",
          "type": "bytes32"
        }
      ],
      "name": "getAreaById",
      "outputs": [
        {
          "internalType": "bytes32",
          "name": "id",
          "type": "bytes32"
        },
        {
          "internalType": "string",
          "name": "name",
          "type": "string"
        },
        {
          "internalType": "bytes32",
          "name": "organizationId",
          "type": "bytes32"
        },
        {
          "internalType": "bool",
          "name": "isActive",
          "type": "bool"
        },
        {
          "internalType": "string",
          "name": "customJsonData",
          "type": "string"
        }
      ],
      "stateMutability": "view",
      "type": "function"
    }
  ],
  "bytecode": "0x608060405234801561001057600080fd5b50610b9d806100206000396000f3fe608060405234801561001057600080fd5b50600436106100565760003560e01c80621f5bd21461005b57806371491640146101855780637bcb20b0146102af57806386ed1913146102f157806398ed240c14610463575b600080fd5b6100876004803603602081101561007157600080fd5b81019080803590602001909291905050506105d3565b6040518086815260200180602001858152602001841515815260200180602001838103835287818151815260200191508051906020019080838360005b838110156100df5780820151818401526020810190506100c4565b50505050905090810190601f16801561010c5780820380516001836020036101000a031916815260200191505b50838103825284818151815260200191508051906020019080838360005b8381101561014557808201518184015260208101905061012a565b50505050905090810190601f1680156101725780820380516001836020036101000a031916815260200191505b5097505050505050505060405180910390f35b6101b16004803603602081101561019b57600080fd5b8101908080359060200190929190505050610762565b6040518086815260200180602001858152602001841515815260200180602001838103835287818151815260200191508051906020019080838360005b838110156102095780820151818401526020810190506101ee565b50505050905090810190601f1680156102365780820380516001836020036101000a031916815260200191505b50838103825284818151815260200191508051906020019080838360005b8381101561026f578082015181840152602081019050610254565b50505050905090810190601f16801561029c5780820380516001836020036101000a031916815260200191505b5097505050505050505060405180910390f35b6102db600480360360208110156102c557600080fd5b81019080803590602001909291905050506108d5565b6040518082815260200191505060405180910390f35b610461600480360360a081101561030757600080fd5b81019080803590602001909291908035906020019064010000000081111561032e57600080fd5b82018360208201111561034057600080fd5b8035906020019184600183028401116401000000008311171561036257600080fd5b91908080601f016020809104026020016040519081016040528093929190818152602001838380828437600081840152601f19601f82011690508083019250505050505050919291929080359060200190929190803590602001906401000000008111156103cf57600080fd5b8201836020820111156103e157600080fd5b8035906020019184600183028401116401000000008311171561040357600080fd5b91908080601f016020809104026020016040519081016040528093929190818152602001838380828437600081840152601f19601f8201169050808301925050505050505091929192908035151590602001909291905050506108f9565b005b6105bd6004803603606081101561047957600080fd5b810190808035906020019064010000000081111561049657600080fd5b8201836020820111156104a857600080fd5b803590602001918460018302840111640100000000831117156104ca57600080fd5b91908080601f016020809104026020016040519081016040528093929190818152602001838380828437600081840152601f19601f820116905080830192505050505050509192919290803590602001909291908035906020019064010000000081111561053757600080fd5b82018360208201111561054957600080fd5b8035906020019184600183028401116401000000008311171561056b57600080fd5b91908080601f016020809104026020016040519081016040528093929190818152602001838380828437600081840152601f19601f8201169050808301925050505050505091929192905050506109a5565b6040518082815260200191505060405180910390f35b6000606060008060606000806000888152602001908152602001600020905080600001548160010182600201548360030160009054906101000a900460ff1684600401838054600181600116156101000203166002900480601f0160208091040260200160405190810160405280929190818152602001828054600181600116156101000203166002900480156106ab5780601f10610680576101008083540402835291602001916106ab565b820191906000526020600020905b81548152906001019060200180831161068e57829003601f168201915b50505050509350808054600181600116156101000203166002900480601f0160208091040260200160405190810160405280929190818152602001828054600181600116156101000203166002900480156107475780601f1061071c57610100808354040283529160200191610747565b820191906000526020600020905b81548152906001019060200180831161072a57829003601f168201915b50505050509050955095509550955095505091939590929450565b6000602052806000526040600020600091509050806000015490806001018054600181600116156101000203166002900480601f0160208091040260200160405190810160405280929190818152602001828054600181600116156101000203166002900480156108145780601f106107e957610100808354040283529160200191610814565b820191906000526020600020905b8154815290600101906020018083116107f757829003601f168201915b5050505050908060020154908060030160009054906101000a900460ff1690806004018054600181600116156101000203166002900480601f0160208091040260200160405190810160405280929190818152602001828054600181600116156101000203166002900480156108cb5780601f106108a0576101008083540402835291602001916108cb565b820191906000526020600020905b8154815290600101906020018083116108ae57829003601f168201915b5050505050905085565b600181815481106108e557600080fd5b906000526020600020016000915090505481565b6000806000878152602001908152602001600020905083816002018190555084816001019080519060200190610930929190610abc565b50818160030160006101000a81548160ff02191690831515021790555082816004019080519060200190610965929190610abc565b507f45b26663d51e9e501c400d7363e3289b674ae39502c715178017fd129d69fe37866040518082815260200191505060405180910390a1505050505050565b600080424460405160200180838152602001828152602001925050506040516020818303038152906040528051906020012090506000806000838152602001908152602001600020905081816000018190555085816001019080519060200190610a10929190610abc565b5084816002018190555060018160030160006101000a81548160ff02191690831515021790555083816004019080519060200190610a4f929190610abc565b5060018290806001815401808255809150506001900390600052602060002001600090919091909150557f7994ff4618f2947c574817607d7facebfdf8912b3656ac7f8d441caf7c555c9a826040518082815260200191505060405180910390a181925050509392505050565b828054600181600116156101000203166002900490600052602060002090601f016020900481019282610af25760008555610b39565b82601f10610b0b57805160ff1916838001178555610b39565b82800160010185558215610b39579182015b82811115610b38578251825591602001919060010190610b1d565b5b509050610b469190610b4a565b5090565b5b80821115610b63576000816000905550600101610b4b565b509056fea2646970667358221220c66c37502fc1f9d3619a7bf2aa56976b424f2bbb99465cd42ceb7b8cd15d270864736f6c63430007040033",
  "immutableReferences": {},
  "source": "pragma solidity ^0.7.4;\n\ncontract AreaContract {\n    struct Area {\n        bytes32 areaId;\n        string name;\n        bytes32 organizationId;\n        bool isActive;\n        string customJsonData;\n    }\n\n    mapping(bytes32 => Area) public areaMap;\n    bytes32[] public areaIds;\n\n        event AreaCreated(bytes32 objId);\n    event AreaUpdated(bytes32 objId);\n\n    function createArea(\n        string memory _name,\n        bytes32 _organizationId,\n        string memory _customJsonData\n    ) public returns (bytes32 objId) {\n        bytes32 newId =\n            keccak256(abi.encodePacked(block.timestamp, block.difficulty));\n\n        Area storage obj = areaMap[newId];\n        obj.areaId = newId;\n        obj.name = _name;\n        obj.organizationId = _organizationId;\n        obj.isActive = true;\n        obj.customJsonData = _customJsonData;\n\n        areaIds.push(newId);\n\n        emit AreaCreated(newId);\n        return (newId);\n    }\n\n    function updateArea(\n        bytes32 objId,\n        string memory _name,\n        bytes32 _organizationId,\n        string memory _customJsonData,\n        bool _isActive\n    ) public {\n        Area storage obj = areaMap[objId];\n        obj.organizationId = _organizationId;\n        obj.name = _name;\n        obj.isActive = _isActive;\n        obj.customJsonData = _customJsonData;\n\n        emit AreaUpdated(objId);\n    }\n\n    function getAreaById(bytes32 objId)\n        public\n        view\n        returns (\n            bytes32 id,\n            string memory name,\n            bytes32 organizationId,\n            bool isActive,\n            string memory customJsonData\n        )\n    {\n        Area storage obj = areaMap[objId];\n        return (\n            obj.areaId,\n            obj.name,\n            obj.organizationId,\n            obj.isActive,\n            obj.customJsonData\n        );\n    }\n\n}\n",
  "sourcePath": "/home/fakhrul/experiment/supplychain_blockchain/tat_contract/contracts/AreaContract.sol",
  "compiler": {
    "name": "solc",
    "version": "0.7.4+commit.3f05b770.Emscripten.clang"
  },
  "schemaVersion": "3.3.4",
  "updatedAt": "2021-03-04T14:59:37.261Z",
  "devdoc": {
    "kind": "dev",
    "methods": {},
    "version": 1
  },
  "userdoc": {
    "kind": "user",
    "methods": {},
    "version": 1
  }
}