{
  "contractName": "OrganizationTypeContract",
  "abi": [
    {
      "anonymous": false,
      "inputs": [
        {
          "indexed": false,
          "internalType": "bytes32",
          "name": "objId",
          "type": "bytes32"
        }
      ],
      "name": "OrganizationTypeCreated",
      "type": "event"
    },
    {
      "anonymous": false,
      "inputs": [
        {
          "indexed": false,
          "internalType": "bytes32",
          "name": "objId",
          "type": "bytes32"
        }
      ],
      "name": "OrganizationTypeUpdated",
      "type": "event"
    },
    {
      "inputs": [
        {
          "internalType": "uint256",
          "name": "",
          "type": "uint256"
        }
      ],
      "name": "organizationTypeIds",
      "outputs": [
        {
          "internalType": "bytes32",
          "name": "",
          "type": "bytes32"
        }
      ],
      "stateMutability": "view",
      "type": "function"
    },
    {
      "inputs": [
        {
          "internalType": "bytes32",
          "name": "",
          "type": "bytes32"
        }
      ],
      "name": "organizationTypeMap",
      "outputs": [
        {
          "internalType": "bytes32",
          "name": "organizationTypeId",
          "type": "bytes32"
        },
        {
          "internalType": "string",
          "name": "name",
          "type": "string"
        },
        {
          "internalType": "bool",
          "name": "isActive",
          "type": "bool"
        },
        {
          "internalType": "string",
          "name": "customJsonData",
          "type": "string"
        }
      ],
      "stateMutability": "view",
      "type": "function"
    },
    {
      "inputs": [
        {
          "internalType": "string",
          "name": "_name",
          "type": "string"
        },
        {
          "internalType": "string",
          "name": "_customJsonData",
          "type": "string"
        }
      ],
      "name": "createOrganizationType",
      "outputs": [
        {
          "internalType": "bytes32",
          "name": "objId",
          "type": "bytes32"
        }
      ],
      "stateMutability": "nonpayable",
      "type": "function"
    },
    {
      "inputs": [
        {
          "internalType": "bytes32",
          "name": "objId",
          "type": "bytes32"
        },
        {
          "internalType": "string",
          "name": "_name",
          "type": "string"
        },
        {
          "internalType": "string",
          "name": "_customJsonData",
          "type": "string"
        },
        {
          "internalType": "bool",
          "name": "_isActive",
          "type": "bool"
        }
      ],
      "name": "updateOrganizationType",
      "outputs": [],
      "stateMutability": "nonpayable",
      "type": "function"
    },
    {
      "inputs": [
        {
          "internalType": "bytes32",
          "name": "objId",
          "type": "bytes32"
        }
      ],
      "name": "getOrganizationTypeById",
      "outputs": [
        {
          "internalType": "bytes32",
          "name": "id",
          "type": "bytes32"
        },
        {
          "internalType": "string",
          "name": "name",
          "type": "string"
        },
        {
          "internalType": "string",
          "name": "customJsonData",
          "type": "string"
        }
      ],
      "stateMutability": "view",
      "type": "function"
    }
  ],
  "bytecode": "0x608060405234801561001057600080fd5b50610b38806100206000396000f3fe608060405234801561001057600080fd5b50600436106100575760003560e01c8063037f6ab41461005c5780630a1bb26a146101c25780632499c6a6146102045780638599e25e1461036c578063b156129914610486575b600080fd5b6101ac6004803603604081101561007257600080fd5b810190808035906020019064010000000081111561008f57600080fd5b8201836020820111156100a157600080fd5b803590602001918460018302840111640100000000831117156100c357600080fd5b91908080601f016020809104026020016040519081016040528093929190818152602001838380828437600081840152601f19601f8201169050808301925050505050505091929192908035906020019064010000000081111561012657600080fd5b82018360208201111561013857600080fd5b8035906020019184600183028401116401000000008311171561015a57600080fd5b91908080601f016020809104026020016040519081016040528093929190818152602001838380828437600081840152601f19601f8201169050808301925050505050505091929192905050506105a9565b6040518082815260200191505060405180910390f35b6101ee600480360360208110156101d857600080fd5b81019080803590602001909291905050506106b6565b6040518082815260200191505060405180910390f35b61036a6004803603608081101561021a57600080fd5b81019080803590602001909291908035906020019064010000000081111561024157600080fd5b82018360208201111561025357600080fd5b8035906020019184600183028401116401000000008311171561027557600080fd5b91908080601f016020809104026020016040519081016040528093929190818152602001838380828437600081840152601f19601f820116905080830192505050505050509192919290803590602001906401000000008111156102d857600080fd5b8201836020820111156102ea57600080fd5b8035906020019184600183028401116401000000008311171561030c57600080fd5b91908080601f016020809104026020016040519081016040528093929190818152602001838380828437600081840152601f19601f8201169050808301925050505050505091929192908035151590602001909291905050506106da565b005b6103986004803603602081101561038257600080fd5b810190808035906020019092919050505061077c565b604051808481526020018060200180602001838103835285818151815260200191508051906020019080838360005b838110156103e25780820151818401526020810190506103c7565b50505050905090810190601f16801561040f5780820380516001836020036101000a031916815260200191505b50838103825284818151815260200191508051906020019080838360005b8381101561044857808201518184015260208101905061042d565b50505050905090810190601f1680156104755780820380516001836020036101000a031916815260200191505b509550505050505060405180910390f35b6104b26004803603602081101561049c57600080fd5b81019080803590602001909291905050506108ea565b6040518085815260200180602001841515815260200180602001838103835286818151815260200191508051906020019080838360005b838110156105045780820151818401526020810190506104e9565b50505050905090810190601f1680156105315780820380516001836020036101000a031916815260200191505b50838103825284818151815260200191508051906020019080838360005b8381101561056a57808201518184015260208101905061054f565b50505050905090810190601f1680156105975780820380516001836020036101000a031916815260200191505b50965050505050505060405180910390f35b600080424460405160200180838152602001828152602001925050506040516020818303038152906040528051906020012090506000806000838152602001908152602001600020905081816000018190555060018160020160006101000a81548160ff02191690831515021790555084816001019080519060200190610631929190610a57565b508381600301908051906020019061064a929190610a57565b5060018290806001815401808255809150506001900390600052602060002001600090919091909150557f419c23ff814e3967d54e8426b09e6bb4cfe5682b082e396c591e97bcad447ba9826040518082815260200191505060405180910390a1819250505092915050565b600181815481106106c657600080fd5b906000526020600020016000915090505481565b6000806000868152602001908152602001600020905083816001019080519060200190610708929190610a57565b50818160020160006101000a81548160ff0219169083151502179055508281600301908051906020019061073d929190610a57565b507f4c9c025c66604acf9c898ba08849a696a99176a0d78bdf6ac5111e11e14b59aa856040518082815260200191505060405180910390a15050505050565b60006060806000806000868152602001908152602001600020905080600001548160010182600301818054600181600116156101000203166002900480601f0160208091040260200160405190810160405280929190818152602001828054600181600116156101000203166002900480156108395780601f1061080e57610100808354040283529160200191610839565b820191906000526020600020905b81548152906001019060200180831161081c57829003601f168201915b50505050509150808054600181600116156101000203166002900480601f0160208091040260200160405190810160405280929190818152602001828054600181600116156101000203166002900480156108d55780601f106108aa576101008083540402835291602001916108d5565b820191906000526020600020905b8154815290600101906020018083116108b857829003601f168201915b50505050509050935093509350509193909250565b6000602052806000526040600020600091509050806000015490806001018054600181600116156101000203166002900480601f01602080910402602001604051908101604052809291908181526020018280546001816001161561010002031660029004801561099c5780601f106109715761010080835404028352916020019161099c565b820191906000526020600020905b81548152906001019060200180831161097f57829003601f168201915b5050505050908060020160009054906101000a900460ff1690806003018054600181600116156101000203166002900480601f016020809104026020016040519081016040528092919081815260200182805460018160011615610100020316600290048015610a4d5780601f10610a2257610100808354040283529160200191610a4d565b820191906000526020600020905b815481529060010190602001808311610a3057829003601f168201915b5050505050905084565b828054600181600116156101000203166002900490600052602060002090601f016020900481019282610a8d5760008555610ad4565b82601f10610aa657805160ff1916838001178555610ad4565b82800160010185558215610ad4579182015b82811115610ad3578251825591602001919060010190610ab8565b5b509050610ae19190610ae5565b5090565b5b80821115610afe576000816000905550600101610ae6565b509056fea2646970667358221220b053d4d7f1ee8ff88fe628c85380bcdd13c7e46e1c843c23b6cc40b0849621f564736f6c63430007040033",
  "immutableReferences": {},
  "source": "pragma solidity ^0.7.4;\n\ncontract OrganizationTypeContract {\n\n    struct OrganizationType {\n        bytes32 organizationTypeId;\n        string name;\n        bool isActive;\n        string customJsonData;\n    }\n    mapping(bytes32 => OrganizationType) public organizationTypeMap;\n\n    event OrganizationTypeCreated(bytes32 objId);\n    event OrganizationTypeUpdated(bytes32 objId);\n\n    bytes32[] public organizationTypeIds;\n\n        function createOrganizationType(\n        string memory _name,\n        string memory _customJsonData\n    ) public returns (bytes32 objId) {\n        bytes32 newId =\n            keccak256(abi.encodePacked(block.timestamp, block.difficulty));\n\n        OrganizationType storage obj = organizationTypeMap[newId];\n        obj.organizationTypeId = newId;\n        obj.isActive = true;\n        obj.name = _name;\n        obj.customJsonData = _customJsonData;\n\n        organizationTypeIds.push(newId);\n\n        emit OrganizationTypeCreated(newId);\n        return (newId);\n    }\n\n    function updateOrganizationType(\n        bytes32 objId,\n        string memory _name,\n        string memory _customJsonData,\n        bool _isActive\n    ) public {\n        OrganizationType storage obj = organizationTypeMap[objId];\n        obj.name = _name;\n        obj.isActive = _isActive;\n        obj.customJsonData = _customJsonData;\n\n        emit OrganizationTypeUpdated(objId);\n    }\n\n    function getOrganizationTypeById(bytes32 objId)\n        public\n        view\n        returns (\n            bytes32 id,\n            string memory name,\n            string memory customJsonData\n        )\n    {\n        OrganizationType storage obj = organizationTypeMap[objId];\n        return (obj.organizationTypeId, obj.name, obj.customJsonData);\n    }\n\n}\n",
  "sourcePath": "/home/fakhrul/experiment/supplychain_blockchain/tat_contract/contracts/OrganizationTypeContract.sol",
  "compiler": {
    "name": "solc",
    "version": "0.7.4+commit.3f05b770.Emscripten.clang"
  },
  "schemaVersion": "3.3.4",
  "updatedAt": "2021-03-04T14:59:37.270Z",
  "devdoc": {
    "kind": "dev",
    "methods": {},
    "version": 1
  },
  "userdoc": {
    "kind": "user",
    "methods": {},
    "version": 1
  }
}