{
  "contractName": "Organization",
  "abi": [
    {
      "anonymous": false,
      "inputs": [
        {
          "indexed": false,
          "internalType": "bytes32",
          "name": "objId",
          "type": "bytes32"
        }
      ],
      "name": "OrganizationCreated",
      "type": "event"
    },
    {
      "anonymous": false,
      "inputs": [
        {
          "indexed": false,
          "internalType": "bytes32",
          "name": "objId",
          "type": "bytes32"
        }
      ],
      "name": "OrganizationUpdated",
      "type": "event"
    },
    {
      "inputs": [
        {
          "internalType": "uint256",
          "name": "",
          "type": "uint256"
        }
      ],
      "name": "organizationIds",
      "outputs": [
        {
          "internalType": "bytes32",
          "name": "",
          "type": "bytes32"
        }
      ],
      "stateMutability": "view",
      "type": "function"
    },
    {
      "inputs": [
        {
          "internalType": "bytes32",
          "name": "",
          "type": "bytes32"
        }
      ],
      "name": "organizationMap",
      "outputs": [
        {
          "internalType": "bytes32",
          "name": "organizationId",
          "type": "bytes32"
        },
        {
          "internalType": "string",
          "name": "name",
          "type": "string"
        },
        {
          "internalType": "string",
          "name": "organizationAddress",
          "type": "string"
        },
        {
          "internalType": "bool",
          "name": "isActive",
          "type": "bool"
        },
        {
          "internalType": "string",
          "name": "customJsonData",
          "type": "string"
        }
      ],
      "stateMutability": "view",
      "type": "function"
    },
    {
      "inputs": [],
      "name": "version",
      "outputs": [
        {
          "internalType": "uint8",
          "name": "",
          "type": "uint8"
        }
      ],
      "stateMutability": "view",
      "type": "function"
    },
    {
      "inputs": [
        {
          "internalType": "string",
          "name": "_name",
          "type": "string"
        },
        {
          "internalType": "bytes32[]",
          "name": "_organizationTypeIdList",
          "type": "bytes32[]"
        },
        {
          "internalType": "string",
          "name": "_organizationAddress",
          "type": "string"
        },
        {
          "internalType": "string",
          "name": "_customJsonData",
          "type": "string"
        }
      ],
      "name": "createOrganization",
      "outputs": [
        {
          "internalType": "bytes32",
          "name": "objId",
          "type": "bytes32"
        }
      ],
      "stateMutability": "nonpayable",
      "type": "function"
    },
    {
      "inputs": [
        {
          "internalType": "bytes32",
          "name": "objId",
          "type": "bytes32"
        },
        {
          "internalType": "string",
          "name": "_name",
          "type": "string"
        },
        {
          "internalType": "bytes32[]",
          "name": "_organizationTypeIdList",
          "type": "bytes32[]"
        },
        {
          "internalType": "string",
          "name": "_organizationAddress",
          "type": "string"
        },
        {
          "internalType": "string",
          "name": "_customJsonData",
          "type": "string"
        },
        {
          "internalType": "bool",
          "name": "_isActive",
          "type": "bool"
        }
      ],
      "name": "updateOrganization",
      "outputs": [],
      "stateMutability": "nonpayable",
      "type": "function"
    },
    {
      "inputs": [
        {
          "internalType": "bytes32",
          "name": "objId",
          "type": "bytes32"
        }
      ],
      "name": "getOrganizationById",
      "outputs": [
        {
          "internalType": "bytes32",
          "name": "id",
          "type": "bytes32"
        },
        {
          "internalType": "string",
          "name": "name",
          "type": "string"
        },
        {
          "internalType": "bytes32[]",
          "name": "organizationTypeIdList",
          "type": "bytes32[]"
        },
        {
          "internalType": "bool",
          "name": "isActive",
          "type": "bool"
        },
        {
          "internalType": "string",
          "name": "customJsonData",
          "type": "string"
        }
      ],
      "stateMutability": "view",
      "type": "function"
    }
  ],
  "bytecode": "0x608060405260016000806101000a81548160ff021916908360ff16021790555034801561002b57600080fd5b5061106d8061003b6000396000f3fe608060405234801561001057600080fd5b50600436106100625760003560e01c8063111c47791461006757806350b33f80146102fa57806354fd4d501461033c5780639a017e0a1461035d578063ab1a607c146104c8578063e02ed02814610759575b600080fd5b6102f8600480360360c081101561007d57600080fd5b8101908080359060200190929190803590602001906401000000008111156100a457600080fd5b8201836020820111156100b657600080fd5b803590602001918460018302840111640100000000831117156100d857600080fd5b91908080601f016020809104026020016040519081016040528093929190818152602001838380828437600081840152601f19601f8201169050808301925050505050505091929192908035906020019064010000000081111561013b57600080fd5b82018360208201111561014d57600080fd5b8035906020019184602083028401116401000000008311171561016f57600080fd5b919080806020026020016040519081016040528093929190818152602001838360200280828437600081840152601f19601f820116905080830192505050505050509192919290803590602001906401000000008111156101cf57600080fd5b8201836020820111156101e157600080fd5b8035906020019184600183028401116401000000008311171561020357600080fd5b91908080601f016020809104026020016040519081016040528093929190818152602001838380828437600081840152601f19601f8201169050808301925050505050505091929192908035906020019064010000000081111561026657600080fd5b82018360208201111561027857600080fd5b8035906020019184600183028401116401000000008311171561029a57600080fd5b91908080601f016020809104026020016040519081016040528093929190818152602001838380828437600081840152601f19601f8201169050808301925050505050505091929192908035151590602001909291905050506108e8565b005b6103266004803603602081101561031057600080fd5b81019080803590602001909291905050506109bf565b6040518082815260200191505060405180910390f35b6103446109e3565b604051808260ff16815260200191505060405180910390f35b6103896004803603602081101561037357600080fd5b81019080803590602001909291905050506109f4565b604051808681526020018060200180602001851515815260200180602001848103845288818151815260200191508051906020019080838360005b838110156103df5780820151818401526020810190506103c4565b50505050905090810190601f16801561040c5780820380516001836020036101000a031916815260200191505b50848103835287818151815260200191508051906020019060200280838360005b8381101561044857808201518184015260208101905061042d565b50505050905001848103825285818151815260200191508051906020019080838360005b8381101561048757808201518184015260208101905061046c565b50505050905090810190601f1680156104b45780820380516001836020036101000a031916815260200191505b509850505050505050505060405180910390f35b610743600480360360808110156104de57600080fd5b81019080803590602001906401000000008111156104fb57600080fd5b82018360208201111561050d57600080fd5b8035906020019184600183028401116401000000008311171561052f57600080fd5b91908080601f016020809104026020016040519081016040528093929190818152602001838380828437600081840152601f19601f8201169050808301925050505050505091929192908035906020019064010000000081111561059257600080fd5b8201836020820111156105a457600080fd5b803590602001918460208302840111640100000000831117156105c657600080fd5b919080806020026020016040519081016040528093929190818152602001838360200280828437600081840152601f19601f8201169050808301925050505050505091929192908035906020019064010000000081111561062657600080fd5b82018360208201111561063857600080fd5b8035906020019184600183028401116401000000008311171561065a57600080fd5b91908080601f016020809104026020016040519081016040528093929190818152602001838380828437600081840152601f19601f820116905080830192505050505050509192919290803590602001906401000000008111156106bd57600080fd5b8201836020820111156106cf57600080fd5b803590602001918460018302840111640100000000831117156106f157600080fd5b91908080601f016020809104026020016040519081016040528093929190818152602001838380828437600081840152601f19601f820116905080830192505050505050509192919290505050610bd5565b6040518082815260200191505060405180910390f35b6107856004803603602081101561076f57600080fd5b8101908080359060200190929190505050610d17565b604051808681526020018060200180602001851515815260200180602001848103845288818151815260200191508051906020019080838360005b838110156107db5780820151818401526020810190506107c0565b50505050905090810190601f1680156108085780820380516001836020036101000a031916815260200191505b50848103835287818151815260200191508051906020019080838360005b83811015610841578082015181840152602081019050610826565b50505050905090810190601f16801561086e5780820380516001836020036101000a031916815260200191505b50848103825285818151815260200191508051906020019080838360005b838110156108a757808201518184015260208101905061088c565b50505050905090810190601f1680156108d45780820380516001836020036101000a031916815260200191505b509850505050505050505060405180910390f35b600060016000888152602001908152602001600020905084816002019080519060200190610917929190610f22565b5083816003019080519060200190610930929190610f6f565b5085816001019080519060200190610949929190610f6f565b50818160040160006101000a81548160ff0219169083151502179055508281600501908051906020019061097e929190610f6f565b507f81cd5cff107d9c8214b96b0fd16f800e4a820213e366cd2b3bec86e730dbcfc6876040518082815260200191505060405180910390a150505050505050565b600281815481106109cf57600080fd5b906000526020600020016000915090505481565b60008054906101000a900460ff1681565b6000606080600060606000600160008881526020019081526020016000209050806000015481600101826002018360040160009054906101000a900460ff1684600501838054600181600116156101000203166002900480601f016020809104026020016040519081016040528092919081815260200182805460018160011615610100020316600290048015610acc5780601f10610aa157610100808354040283529160200191610acc565b820191906000526020600020905b815481529060010190602001808311610aaf57829003601f168201915b5050505050935082805480602002602001604051908101604052809291908181526020018280548015610b1e57602002820191906000526020600020905b815481526020019060010190808311610b0a575b50505050509250808054600181600116156101000203166002900480601f016020809104026020016040519081016040528092919081815260200182805460018160011615610100020316600290048015610bba5780601f10610b8f57610100808354040283529160200191610bba565b820191906000526020600020905b815481529060010190602001808311610b9d57829003601f168201915b50505050509050955095509550955095505091939590929450565b60008042446040516020018083815260200182815260200192505050604051602081830303815290604052805190602001209050600060016000838152602001908152602001600020905081816000018190555085816002019080519060200190610c41929190610f22565b5060018160040160006101000a81548160ff02191690831515021790555084816003019080519060200190610c77929190610f6f565b5086816001019080519060200190610c90929190610f6f565b5083816005019080519060200190610ca9929190610f6f565b5060028290806001815401808255809150506001900390600052602060002001600090919091909150557f0e7857bfbd020070a2c8d2fe38c788de1e6adc88cb46f60cf6ec7cd385e81db1826040518082815260200191505060405180910390a18192505050949350505050565b6001602052806000526040600020600091509050806000015490806001018054600181600116156101000203166002900480601f016020809104026020016040519081016040528092919081815260200182805460018160011615610100020316600290048015610dc95780601f10610d9e57610100808354040283529160200191610dc9565b820191906000526020600020905b815481529060010190602001808311610dac57829003601f168201915b505050505090806003018054600181600116156101000203166002900480601f016020809104026020016040519081016040528092919081815260200182805460018160011615610100020316600290048015610e675780601f10610e3c57610100808354040283529160200191610e67565b820191906000526020600020905b815481529060010190602001808311610e4a57829003601f168201915b5050505050908060040160009054906101000a900460ff1690806005018054600181600116156101000203166002900480601f016020809104026020016040519081016040528092919081815260200182805460018160011615610100020316600290048015610f185780601f10610eed57610100808354040283529160200191610f18565b820191906000526020600020905b815481529060010190602001808311610efb57829003601f168201915b5050505050905085565b828054828255906000526020600020908101928215610f5e579160200282015b82811115610f5d578251825591602001919060010190610f42565b5b509050610f6b9190610ffd565b5090565b828054600181600116156101000203166002900490600052602060002090601f016020900481019282610fa55760008555610fec565b82601f10610fbe57805160ff1916838001178555610fec565b82800160010185558215610fec579182015b82811115610feb578251825591602001919060010190610fd0565b5b509050610ff9919061101a565b5090565b5b80821115611016576000816000905550600101610ffe565b5090565b5b8082111561103357600081600090555060010161101b565b509056fea26469706673582212202a6e6e8a6d401248db19d25423d8ffa2f522cc9d57ccaf2b74f644069a3f81cf64736f6c63430007040033",
  "immutableReferences": {},
  "source": "pragma solidity ^0.7.4;\r\n\r\ncontract Organization{\r\n    uint8 public version = 1;\r\n\r\n    event OrganizationCreated(bytes32 objId);\r\n    event OrganizationUpdated(bytes32 objId);\r\n\r\n    struct Organization {\r\n        bytes32 organizationId;\r\n        string name;\r\n        bytes32[] organizationTypeIdList;\r\n        string organizationAddress;\r\n        bool isActive;\r\n        string customJsonData;\r\n    }\r\n    mapping(bytes32 => Organization) public organizationMap;\r\n    bytes32[] public organizationIds;\r\n\r\n    /*\r\n        Organization\r\n    */\r\n    function createOrganization(\r\n        string memory _name,\r\n        bytes32[] memory _organizationTypeIdList,\r\n        string memory _organizationAddress,\r\n        string memory _customJsonData\r\n    ) public returns (bytes32 objId) {\r\n        bytes32 newId =\r\n            keccak256(abi.encodePacked(block.timestamp, block.difficulty));\r\n\r\n        Organization storage obj = organizationMap[newId];\r\n        obj.organizationId = newId;\r\n        obj.organizationTypeIdList = _organizationTypeIdList;\r\n        obj.isActive = true;\r\n        obj.organizationAddress = _organizationAddress;\r\n        obj.name = _name;\r\n        obj.customJsonData = _customJsonData;\r\n\r\n        organizationIds.push(newId);\r\n\r\n        emit OrganizationCreated(newId);\r\n        return (newId);\r\n    }\r\n\r\n    function updateOrganization(\r\n        bytes32 objId,\r\n        string memory _name,\r\n        bytes32[] memory _organizationTypeIdList,\r\n        string memory _organizationAddress,\r\n        string memory _customJsonData,\r\n        bool _isActive\r\n    ) public {\r\n        Organization storage obj = organizationMap[objId];\r\n        obj.organizationTypeIdList = _organizationTypeIdList;\r\n        obj.organizationAddress = _organizationAddress;\r\n        obj.name = _name;\r\n        obj.isActive = _isActive;\r\n        obj.customJsonData = _customJsonData;\r\n\r\n        emit OrganizationUpdated(objId);\r\n    }\r\n\r\n    function getOrganizationById(bytes32 objId)\r\n        public\r\n        view\r\n        returns (\r\n            bytes32 id,\r\n            string memory name,\r\n            bytes32[] memory organizationTypeIdList,\r\n            bool isActive,\r\n            string memory customJsonData\r\n        )\r\n    {\r\n        Organization storage obj = organizationMap[objId];\r\n        return (\r\n            obj.organizationId,\r\n            obj.name,\r\n            obj.organizationTypeIdList,\r\n            obj.isActive,\r\n            obj.customJsonData\r\n        );\r\n    }\r\n}\r\n",
  "sourcePath": "D:/GitHub/supplychain_blockchain/tat_contract/contracts/Organziation.sol",
  "compiler": {
    "name": "solc",
    "version": "0.7.4+commit.3f05b770.Emscripten.clang"
  },
  "schemaVersion": "3.3.2",
  "updatedAt": "2021-03-04T06:00:52.285Z",
  "devdoc": {
    "kind": "dev",
    "methods": {},
    "version": 1
  },
  "userdoc": {
    "kind": "user",
    "methods": {},
    "version": 1
  }
}