{
  "contractName": "ProfileContract",
  "abi": [
    {
      "anonymous": false,
      "inputs": [
        {
          "indexed": false,
          "internalType": "bytes32",
          "name": "objId",
          "type": "bytes32"
        }
      ],
      "name": "ProfileCreated",
      "type": "event"
    },
    {
      "anonymous": false,
      "inputs": [
        {
          "indexed": false,
          "internalType": "bytes32",
          "name": "objId",
          "type": "bytes32"
        }
      ],
      "name": "ProfileUpdated",
      "type": "event"
    },
    {
      "inputs": [
        {
          "internalType": "uint256",
          "name": "",
          "type": "uint256"
        }
      ],
      "name": "profileIds",
      "outputs": [
        {
          "internalType": "bytes32",
          "name": "",
          "type": "bytes32"
        }
      ],
      "stateMutability": "view",
      "type": "function"
    },
    {
      "inputs": [
        {
          "internalType": "bytes32",
          "name": "",
          "type": "bytes32"
        }
      ],
      "name": "profileMap",
      "outputs": [
        {
          "internalType": "bytes32",
          "name": "profileId",
          "type": "bytes32"
        },
        {
          "internalType": "string",
          "name": "name",
          "type": "string"
        },
        {
          "internalType": "string",
          "name": "email",
          "type": "string"
        },
        {
          "internalType": "string",
          "name": "passwordHash",
          "type": "string"
        },
        {
          "internalType": "string",
          "name": "phone",
          "type": "string"
        },
        {
          "internalType": "bytes32",
          "name": "organizationId",
          "type": "bytes32"
        },
        {
          "internalType": "bool",
          "name": "isActive",
          "type": "bool"
        },
        {
          "internalType": "string",
          "name": "customJsonData",
          "type": "string"
        }
      ],
      "stateMutability": "view",
      "type": "function"
    },
    {
      "inputs": [
        {
          "internalType": "string",
          "name": "_name",
          "type": "string"
        },
        {
          "internalType": "string",
          "name": "_email",
          "type": "string"
        },
        {
          "internalType": "string",
          "name": "_passwordHash",
          "type": "string"
        },
        {
          "internalType": "string",
          "name": "_phone",
          "type": "string"
        },
        {
          "internalType": "bytes32[]",
          "name": "_roleId",
          "type": "bytes32[]"
        },
        {
          "internalType": "bytes32",
          "name": "_organizationId",
          "type": "bytes32"
        },
        {
          "internalType": "string",
          "name": "_customJsonData",
          "type": "string"
        }
      ],
      "name": "createProfile",
      "outputs": [
        {
          "internalType": "bytes32",
          "name": "objId",
          "type": "bytes32"
        }
      ],
      "stateMutability": "nonpayable",
      "type": "function"
    },
    {
      "inputs": [
        {
          "internalType": "bytes32",
          "name": "objId",
          "type": "bytes32"
        },
        {
          "internalType": "string",
          "name": "_name",
          "type": "string"
        },
        {
          "internalType": "string",
          "name": "_email",
          "type": "string"
        },
        {
          "internalType": "string",
          "name": "_passwordHash",
          "type": "string"
        },
        {
          "internalType": "string",
          "name": "_phone",
          "type": "string"
        },
        {
          "internalType": "bytes32[]",
          "name": "_roleId",
          "type": "bytes32[]"
        },
        {
          "internalType": "bytes32",
          "name": "_organizationId",
          "type": "bytes32"
        },
        {
          "internalType": "string",
          "name": "_customJsonData",
          "type": "string"
        },
        {
          "internalType": "bool",
          "name": "_isActive",
          "type": "bool"
        }
      ],
      "name": "updateProfile",
      "outputs": [],
      "stateMutability": "nonpayable",
      "type": "function"
    },
    {
      "inputs": [
        {
          "internalType": "bytes32",
          "name": "objId",
          "type": "bytes32"
        }
      ],
      "name": "getProfileById",
      "outputs": [
        {
          "internalType": "bytes32",
          "name": "id",
          "type": "bytes32"
        },
        {
          "internalType": "string",
          "name": "name",
          "type": "string"
        },
        {
          "internalType": "string",
          "name": "email",
          "type": "string"
        },
        {
          "internalType": "string",
          "name": "passwordHash",
          "type": "string"
        },
        {
          "internalType": "string",
          "name": "phone",
          "type": "string"
        },
        {
          "internalType": "bytes32[]",
          "name": "roleId",
          "type": "bytes32[]"
        },
        {
          "internalType": "bytes32",
          "name": "organizationId",
          "type": "bytes32"
        },
        {
          "internalType": "bool",
          "name": "isActive",
          "type": "bool"
        },
        {
          "internalType": "string",
          "name": "customJsonData",
          "type": "string"
        }
      ],
      "stateMutability": "view",
      "type": "function"
    }
  ],
  "bytecode": "0x608060405234801561001057600080fd5b5061187d806100206000396000f3fe608060405234801561001057600080fd5b50600436106100575760003560e01c80630114cf0a1461005c5780635936f96e146103125780635ba8c294146106de5780636a18a8ea1461094c578063b64e9f5914610d15575b600080fd5b6100886004803603602081101561007257600080fd5b8101908080359060200190929190505050610d57565b604051808a8152602001806020018060200180602001806020018060200189815260200188151581526020018060200187810387528f818151815260200191508051906020019080838360005b838110156100f05780820151818401526020810190506100d5565b50505050905090810190601f16801561011d5780820380516001836020036101000a031916815260200191505b5087810386528e818151815260200191508051906020019080838360005b8381101561015657808201518184015260208101905061013b565b50505050905090810190601f1680156101835780820380516001836020036101000a031916815260200191505b5087810385528d818151815260200191508051906020019080838360005b838110156101bc5780820151818401526020810190506101a1565b50505050905090810190601f1680156101e95780820380516001836020036101000a031916815260200191505b5087810384528c818151815260200191508051906020019080838360005b83811015610222578082015181840152602081019050610207565b50505050905090810190601f16801561024f5780820380516001836020036101000a031916815260200191505b5087810383528b818151815260200191508051906020019060200280838360005b8381101561028b578082015181840152602081019050610270565b50505050905001878103825288818151815260200191508051906020019080838360005b838110156102ca5780820151818401526020810190506102af565b50505050905090810190601f1680156102f75780820380516001836020036101000a031916815260200191505b509f5050505050505050505050505050505060405180910390f35b6106dc600480360361012081101561032957600080fd5b81019080803590602001909291908035906020019064010000000081111561035057600080fd5b82018360208201111561036257600080fd5b8035906020019184600183028401116401000000008311171561038457600080fd5b91908080601f016020809104026020016040519081016040528093929190818152602001838380828437600081840152601f19601f820116905080830192505050505050509192919290803590602001906401000000008111156103e757600080fd5b8201836020820111156103f957600080fd5b8035906020019184600183028401116401000000008311171561041b57600080fd5b91908080601f016020809104026020016040519081016040528093929190818152602001838380828437600081840152601f19601f8201169050808301925050505050505091929192908035906020019064010000000081111561047e57600080fd5b82018360208201111561049057600080fd5b803590602001918460018302840111640100000000831117156104b257600080fd5b91908080601f016020809104026020016040519081016040528093929190818152602001838380828437600081840152601f19601f8201169050808301925050505050505091929192908035906020019064010000000081111561051557600080fd5b82018360208201111561052757600080fd5b8035906020019184600183028401116401000000008311171561054957600080fd5b91908080601f016020809104026020016040519081016040528093929190818152602001838380828437600081840152601f19601f820116905080830192505050505050509192919290803590602001906401000000008111156105ac57600080fd5b8201836020820111156105be57600080fd5b803590602001918460208302840111640100000000831117156105e057600080fd5b919080806020026020016040519081016040528093929190818152602001838360200280828437600081840152601f19601f820116905080830192505050505050509192919290803590602001909291908035906020019064010000000081111561064a57600080fd5b82018360208201111561065c57600080fd5b8035906020019184600183028401116401000000008311171561067e57600080fd5b91908080601f016020809104026020016040519081016040528093929190818152602001838380828437600081840152601f19601f82011690508083019250505050505050919291929080351515906020019092919050505061112e565b005b61070a600480360360208110156106f457600080fd5b8101908080359060200190929190505050611242565b604051808981526020018060200180602001806020018060200188815260200187151581526020018060200186810386528d818151815260200191508051906020019080838360005b8381101561076e578082015181840152602081019050610753565b50505050905090810190601f16801561079b5780820380516001836020036101000a031916815260200191505b5086810385528c818151815260200191508051906020019080838360005b838110156107d45780820151818401526020810190506107b9565b50505050905090810190601f1680156108015780820380516001836020036101000a031916815260200191505b5086810384528b818151815260200191508051906020019080838360005b8381101561083a57808201518184015260208101905061081f565b50505050905090810190601f1680156108675780820380516001836020036101000a031916815260200191505b5086810383528a818151815260200191508051906020019080838360005b838110156108a0578082015181840152602081019050610885565b50505050905090810190601f1680156108cd5780820380516001836020036101000a031916815260200191505b50868103825287818151815260200191508051906020019080838360005b838110156109065780820151818401526020810190506108eb565b50505050905090810190601f1680156109335780820380516001836020036101000a031916815260200191505b509d505050505050505050505050505060405180910390f35b610cff600480360360e081101561096257600080fd5b810190808035906020019064010000000081111561097f57600080fd5b82018360208201111561099157600080fd5b803590602001918460018302840111640100000000831117156109b357600080fd5b91908080601f016020809104026020016040519081016040528093929190818152602001838380828437600081840152601f19601f82011690508083019250505050505050919291929080359060200190640100000000811115610a1657600080fd5b820183602082011115610a2857600080fd5b80359060200191846001830284011164010000000083111715610a4a57600080fd5b91908080601f016020809104026020016040519081016040528093929190818152602001838380828437600081840152601f19601f82011690508083019250505050505050919291929080359060200190640100000000811115610aad57600080fd5b820183602082011115610abf57600080fd5b80359060200191846001830284011164010000000083111715610ae157600080fd5b91908080601f016020809104026020016040519081016040528093929190818152602001838380828437600081840152601f19601f82011690508083019250505050505050919291929080359060200190640100000000811115610b4457600080fd5b820183602082011115610b5657600080fd5b80359060200191846001830284011164010000000083111715610b7857600080fd5b91908080601f016020809104026020016040519081016040528093929190818152602001838380828437600081840152601f19601f82011690508083019250505050505050919291929080359060200190640100000000811115610bdb57600080fd5b820183602082011115610bed57600080fd5b80359060200191846020830284011164010000000083111715610c0f57600080fd5b919080806020026020016040519081016040528093929190818152602001838360200280828437600081840152601f19601f8201169050808301925050505050505091929192908035906020019092919080359060200190640100000000811115610c7957600080fd5b820183602082011115610c8b57600080fd5b80359060200191846001830284011164010000000083111715610cad57600080fd5b91908080601f016020809104026020016040519081016040528093929190818152602001838380828437600081840152601f19601f82011690508083019250505050505050919291929050505061158f565b6040518082815260200191505060405180910390f35b610d4160048036036020811015610d2b57600080fd5b810190808035906020019092919050505061170e565b6040518082815260200191505060405180910390f35b60006060806060806060600080606060008060008c815260200190815260200160002090508060000154816001018260020183600301846004018560050186600601548760070160009054906101000a900460ff1688600801878054600181600116156101000203166002900480601f016020809104026020016040519081016040528092919081815260200182805460018160011615610100020316600290048015610e455780601f10610e1a57610100808354040283529160200191610e45565b820191906000526020600020905b815481529060010190602001808311610e2857829003601f168201915b50505050509750868054600181600116156101000203166002900480601f016020809104026020016040519081016040528092919081815260200182805460018160011615610100020316600290048015610ee15780601f10610eb657610100808354040283529160200191610ee1565b820191906000526020600020905b815481529060010190602001808311610ec457829003601f168201915b50505050509650858054600181600116156101000203166002900480601f016020809104026020016040519081016040528092919081815260200182805460018160011615610100020316600290048015610f7d5780601f10610f5257610100808354040283529160200191610f7d565b820191906000526020600020905b815481529060010190602001808311610f6057829003601f168201915b50505050509550848054600181600116156101000203166002900480601f0160208091040260200160405190810160405280929190818152602001828054600181600116156101000203166002900480156110195780601f10610fee57610100808354040283529160200191611019565b820191906000526020600020905b815481529060010190602001808311610ffc57829003601f168201915b505050505094508380548060200260200160405190810160405280929190818152602001828054801561106b57602002820191906000526020600020905b815481526020019060010190808311611057575b50505050509350808054600181600116156101000203166002900480601f0160208091040260200160405190810160405280929190818152602001828054600181600116156101000203166002900480156111075780601f106110dc57610100808354040283529160200191611107565b820191906000526020600020905b8154815290600101906020018083116110ea57829003601f168201915b50505050509050995099509950995099509950995099509950509193959799909294969850565b60008060008b815260200190815260200160002090508881600101908051906020019061115c929190611732565b5087816002019080519060200190611175929190611732565b508681600301908051906020019061118e929190611732565b50858160040190805190602001906111a7929190611732565b50848160050190805190602001906111c09291906117c0565b50838160060181905550818160070160006101000a81548160ff021916908315150217905550828160080190805190602001906111fe929190611732565b507fbcc8547d07ccdb27400e2524da86bf5bcc4f0ef2adce334b30a704fd45f6b2538a6040518082815260200191505060405180910390a150505050505050505050565b6000602052806000526040600020600091509050806000015490806001018054600181600116156101000203166002900480601f0160208091040260200160405190810160405280929190818152602001828054600181600116156101000203166002900480156112f45780601f106112c9576101008083540402835291602001916112f4565b820191906000526020600020905b8154815290600101906020018083116112d757829003601f168201915b505050505090806002018054600181600116156101000203166002900480601f0160208091040260200160405190810160405280929190818152602001828054600181600116156101000203166002900480156113925780601f1061136757610100808354040283529160200191611392565b820191906000526020600020905b81548152906001019060200180831161137557829003601f168201915b505050505090806003018054600181600116156101000203166002900480601f0160208091040260200160405190810160405280929190818152602001828054600181600116156101000203166002900480156114305780601f1061140557610100808354040283529160200191611430565b820191906000526020600020905b81548152906001019060200180831161141357829003601f168201915b505050505090806004018054600181600116156101000203166002900480601f0160208091040260200160405190810160405280929190818152602001828054600181600116156101000203166002900480156114ce5780601f106114a3576101008083540402835291602001916114ce565b820191906000526020600020905b8154815290600101906020018083116114b157829003601f168201915b5050505050908060060154908060070160009054906101000a900460ff1690806008018054600181600116156101000203166002900480601f0160208091040260200160405190810160405280929190818152602001828054600181600116156101000203166002900480156115855780601f1061155a57610100808354040283529160200191611585565b820191906000526020600020905b81548152906001019060200180831161156857829003601f168201915b5050505050905088565b6000804244604051602001808381526020018281526020019250505060405160208183030381529060405280519060200120905060008060008381526020019081526020016000209050818160000181905550898160010190805190602001906115fa929190611732565b5088816002019080519060200190611613929190611732565b508781600301908051906020019061162c929190611732565b5086816004019080519060200190611645929190611732565b508581600501908051906020019061165e9291906117c0565b5084816006018190555060018160070160006101000a81548160ff0219169083151502179055508381600801908051906020019061169d929190611732565b5060018290806001815401808255809150506001900390600052602060002001600090919091909150557f98256681d42155ff34804f98e31ebed754d5480b93a9c6dabdc29d053ddb2441826040518082815260200191505060405180910390a18192505050979650505050505050565b6001818154811061171e57600080fd5b906000526020600020016000915090505481565b828054600181600116156101000203166002900490600052602060002090601f01602090048101928261176857600085556117af565b82601f1061178157805160ff19168380011785556117af565b828001600101855582156117af579182015b828111156117ae578251825591602001919060010190611793565b5b5090506117bc919061180d565b5090565b8280548282559060005260206000209081019282156117fc579160200282015b828111156117fb5782518255916020019190600101906117e0565b5b509050611809919061182a565b5090565b5b8082111561182657600081600090555060010161180e565b5090565b5b8082111561184357600081600090555060010161182b565b509056fea2646970667358221220e9752c229994837fb1742e066a14ac35a4200e026dc46bbe1a18da32f3f842a764736f6c63430007040033",
  "immutableReferences": {},
  "source": "pragma solidity ^0.7.4;\n\ncontract ProfileContract {\n    struct Profile {\n        bytes32 profileId;\n        string name;\n        string email;\n        string passwordHash;\n        string phone;\n        bytes32[] roleId;\n        bytes32 organizationId;\n        bool isActive;\n        string customJsonData;\n    }\n\n    mapping(bytes32 => Profile) public profileMap;\n    bytes32[] public profileIds;\n\n    event ProfileCreated(bytes32 objId);\n    event ProfileUpdated(bytes32 objId);\n\n    function createProfile(\n        string memory _name,\n        string memory _email,\n        string memory _passwordHash,\n        string memory _phone,\n        bytes32[] memory _roleId,\n        bytes32 _organizationId,\n        string memory _customJsonData\n    ) public returns (bytes32 objId) {\n        bytes32 newId =\n            keccak256(abi.encodePacked(block.timestamp, block.difficulty));\n\n        Profile storage obj = profileMap[newId];\n        obj.profileId = newId;\n        obj.name = _name;\n        obj.email = _email;\n        obj.passwordHash = _passwordHash;\n        obj.phone = _phone;\n        obj.roleId = _roleId;\n        obj.organizationId = _organizationId;\n        obj.isActive = true;\n        obj.customJsonData = _customJsonData;\n\n        profileIds.push(newId);\n\n        emit ProfileCreated(newId);\n        return (newId);\n    }\n\n    function updateProfile(\n        bytes32 objId,\n        string memory _name,\n        string memory _email,\n        string memory _passwordHash,\n        string memory _phone,\n        bytes32[] memory _roleId,\n        bytes32 _organizationId,\n        string memory _customJsonData,\n        bool _isActive\n    ) public {\n        Profile storage obj = profileMap[objId];\n        obj.name = _name;\n        obj.email = _email;\n        obj.passwordHash = _passwordHash;\n        obj.phone = _phone;\n        obj.roleId = _roleId;\n        obj.organizationId = _organizationId;\n        obj.isActive = _isActive;\n        obj.customJsonData = _customJsonData;\n\n        emit ProfileUpdated(objId);\n    }\n\n    function getProfileById(bytes32 objId)\n        public\n        view\n        returns (\n            bytes32 id,\n            string memory name,\n            string memory email,\n            string memory passwordHash,\n            string memory phone,\n            bytes32[] memory roleId,\n            bytes32 organizationId,\n            bool isActive,\n            string memory customJsonData\n        )\n    {\n        Profile storage obj = profileMap[objId];\n        return (\n            obj.profileId,\n            obj.name,\n            obj.email,\n            obj.passwordHash,\n            obj.phone,\n            obj.roleId,\n            obj.organizationId,\n            obj.isActive,\n            obj.customJsonData\n        );\n    }\n\n\n}\n",
  "sourcePath": "/home/fakhrul/experiment/supplychain_blockchain/tat_contract/contracts/ProfileContract.sol",
  "compiler": {
    "name": "solc",
    "version": "0.7.4+commit.3f05b770.Emscripten.clang"
  },
  "schemaVersion": "3.3.4",
  "updatedAt": "2021-03-04T15:06:36.858Z",
  "devdoc": {
    "kind": "dev",
    "methods": {},
    "version": 1
  },
  "userdoc": {
    "kind": "user",
    "methods": {},
    "version": 1
  }
}