{
  "contractName": "ProfileContract",
  "abi": [
    {
      "anonymous": false,
      "inputs": [
        {
          "indexed": false,
          "internalType": "bytes32",
          "name": "objId",
          "type": "bytes32"
        }
      ],
      "name": "Created",
      "type": "event"
    },
    {
      "anonymous": false,
      "inputs": [
        {
          "indexed": false,
          "internalType": "bytes32",
          "name": "objId",
          "type": "bytes32"
        }
      ],
      "name": "Updated",
      "type": "event"
    },
    {
      "inputs": [
        {
          "internalType": "uint256",
          "name": "",
          "type": "uint256"
        }
      ],
      "name": "dataList",
      "outputs": [
        {
          "internalType": "bytes32",
          "name": "",
          "type": "bytes32"
        }
      ],
      "stateMutability": "view",
      "type": "function",
      "constant": true
    },
    {
      "inputs": [
        {
          "internalType": "bytes32",
          "name": "",
          "type": "bytes32"
        }
      ],
      "name": "dataMap",
      "outputs": [
        {
          "internalType": "bytes32",
          "name": "profileId",
          "type": "bytes32"
        },
        {
          "internalType": "string",
          "name": "name",
          "type": "string"
        },
        {
          "internalType": "string",
          "name": "email",
          "type": "string"
        },
        {
          "internalType": "string",
          "name": "passwordHash",
          "type": "string"
        },
        {
          "internalType": "string",
          "name": "phone",
          "type": "string"
        },
        {
          "internalType": "bytes32",
          "name": "organizationId",
          "type": "bytes32"
        },
        {
          "internalType": "bool",
          "name": "isActive",
          "type": "bool"
        },
        {
          "internalType": "string",
          "name": "customJsonData",
          "type": "string"
        }
      ],
      "stateMutability": "view",
      "type": "function",
      "constant": true
    },
    {
      "inputs": [],
      "name": "version",
      "outputs": [
        {
          "internalType": "uint256",
          "name": "",
          "type": "uint256"
        }
      ],
      "stateMutability": "view",
      "type": "function",
      "constant": true
    },
    {
      "inputs": [
        {
          "internalType": "string",
          "name": "_name",
          "type": "string"
        },
        {
          "internalType": "string",
          "name": "_email",
          "type": "string"
        },
        {
          "internalType": "string",
          "name": "_passwordHash",
          "type": "string"
        },
        {
          "internalType": "string",
          "name": "_phone",
          "type": "string"
        },
        {
          "internalType": "bytes32[]",
          "name": "_roleId",
          "type": "bytes32[]"
        },
        {
          "internalType": "bytes32",
          "name": "_organizationId",
          "type": "bytes32"
        },
        {
          "internalType": "string",
          "name": "_customJsonData",
          "type": "string"
        }
      ],
      "name": "create",
      "outputs": [
        {
          "internalType": "bytes32",
          "name": "objId",
          "type": "bytes32"
        }
      ],
      "stateMutability": "nonpayable",
      "type": "function"
    },
    {
      "inputs": [
        {
          "internalType": "bytes32",
          "name": "objId",
          "type": "bytes32"
        },
        {
          "internalType": "string",
          "name": "_name",
          "type": "string"
        },
        {
          "internalType": "string",
          "name": "_email",
          "type": "string"
        },
        {
          "internalType": "string",
          "name": "_passwordHash",
          "type": "string"
        },
        {
          "internalType": "string",
          "name": "_phone",
          "type": "string"
        },
        {
          "internalType": "bytes32[]",
          "name": "_roleId",
          "type": "bytes32[]"
        },
        {
          "internalType": "bytes32",
          "name": "_organizationId",
          "type": "bytes32"
        },
        {
          "internalType": "string",
          "name": "_customJsonData",
          "type": "string"
        },
        {
          "internalType": "bool",
          "name": "_isActive",
          "type": "bool"
        }
      ],
      "name": "update",
      "outputs": [],
      "stateMutability": "nonpayable",
      "type": "function"
    },
    {
      "inputs": [
        {
          "internalType": "bytes32",
          "name": "objId",
          "type": "bytes32"
        }
      ],
      "name": "getById",
      "outputs": [
        {
          "internalType": "bytes32",
          "name": "id",
          "type": "bytes32"
        },
        {
          "internalType": "string",
          "name": "name",
          "type": "string"
        },
        {
          "internalType": "string",
          "name": "email",
          "type": "string"
        },
        {
          "internalType": "string",
          "name": "passwordHash",
          "type": "string"
        },
        {
          "internalType": "string",
          "name": "phone",
          "type": "string"
        },
        {
          "internalType": "bytes32[]",
          "name": "roleId",
          "type": "bytes32[]"
        },
        {
          "internalType": "bytes32",
          "name": "organizationId",
          "type": "bytes32"
        },
        {
          "internalType": "bool",
          "name": "isActive",
          "type": "bool"
        },
        {
          "internalType": "string",
          "name": "customJsonData",
          "type": "string"
        }
      ],
      "stateMutability": "view",
      "type": "function",
      "constant": true
    },
    {
      "inputs": [],
      "name": "getAll",
      "outputs": [
        {
          "internalType": "bytes32[]",
          "name": "ids",
          "type": "bytes32[]"
        }
      ],
      "stateMutability": "view",
      "type": "function",
      "constant": true
    },
    {
      "inputs": [
        {
          "internalType": "bytes32",
          "name": "objId",
          "type": "bytes32"
        },
        {
          "internalType": "bool",
          "name": "_isActive",
          "type": "bool"
        }
      ],
      "name": "activate",
      "outputs": [],
      "stateMutability": "nonpayable",
      "type": "function"
    }
  ],
  "bytecode": "0x6080604052600160005534801561001557600080fd5b50611a2f806100256000396000f3fe608060405234801561001057600080fd5b50600436106100885760003560e01c80636e8bb0541161005b5780636e8bb0541461062e578063af4a74cf146109f7578063c876257914610a39578063c973869314610a7357610088565b80632dff0d0d1461008d57806346bcad621461034357806353ed5143146105b157806354fd4d5014610610575b600080fd5b6100b9600480360360208110156100a357600080fd5b8101908080359060200190929190505050610e3f565b604051808a8152602001806020018060200180602001806020018060200189815260200188151581526020018060200187810387528f818151815260200191508051906020019080838360005b83811015610121578082015181840152602081019050610106565b50505050905090810190601f16801561014e5780820380516001836020036101000a031916815260200191505b5087810386528e818151815260200191508051906020019080838360005b8381101561018757808201518184015260208101905061016c565b50505050905090810190601f1680156101b45780820380516001836020036101000a031916815260200191505b5087810385528d818151815260200191508051906020019080838360005b838110156101ed5780820151818401526020810190506101d2565b50505050905090810190601f16801561021a5780820380516001836020036101000a031916815260200191505b5087810384528c818151815260200191508051906020019080838360005b83811015610253578082015181840152602081019050610238565b50505050905090810190601f1680156102805780820380516001836020036101000a031916815260200191505b5087810383528b818151815260200191508051906020019060200280838360005b838110156102bc5780820151818401526020810190506102a1565b50505050905001878103825288818151815260200191508051906020019080838360005b838110156102fb5780820151818401526020810190506102e0565b50505050905090810190601f1680156103285780820380516001836020036101000a031916815260200191505b509f5050505050505050505050505050505060405180910390f35b61036f6004803603602081101561035957600080fd5b8101908080359060200190929190505050611217565b604051808981526020018060200180602001806020018060200188815260200187151581526020018060200186810386528d818151815260200191508051906020019080838360005b838110156103d35780820151818401526020810190506103b8565b50505050905090810190601f1680156104005780820380516001836020036101000a031916815260200191505b5086810385528c818151815260200191508051906020019080838360005b8381101561043957808201518184015260208101905061041e565b50505050905090810190601f1680156104665780820380516001836020036101000a031916815260200191505b5086810384528b818151815260200191508051906020019080838360005b8381101561049f578082015181840152602081019050610484565b50505050905090810190601f1680156104cc5780820380516001836020036101000a031916815260200191505b5086810383528a818151815260200191508051906020019080838360005b838110156105055780820151818401526020810190506104ea565b50505050905090810190601f1680156105325780820380516001836020036101000a031916815260200191505b50868103825287818151815260200191508051906020019080838360005b8381101561056b578082015181840152602081019050610550565b50505050905090810190601f1680156105985780820380516001836020036101000a031916815260200191505b509d505050505050505050505050505060405180910390f35b6105b9611564565b6040518080602001828103825283818151815260200191508051906020019060200280838360005b838110156105fc5780820151818401526020810190506105e1565b505050509050019250505060405180910390f35b6106186115bc565b6040518082815260200191505060405180910390f35b6109e1600480360360e081101561064457600080fd5b810190808035906020019064010000000081111561066157600080fd5b82018360208201111561067357600080fd5b8035906020019184600183028401116401000000008311171561069557600080fd5b91908080601f016020809104026020016040519081016040528093929190818152602001838380828437600081840152601f19601f820116905080830192505050505050509192919290803590602001906401000000008111156106f857600080fd5b82018360208201111561070a57600080fd5b8035906020019184600183028401116401000000008311171561072c57600080fd5b91908080601f016020809104026020016040519081016040528093929190818152602001838380828437600081840152601f19601f8201169050808301925050505050505091929192908035906020019064010000000081111561078f57600080fd5b8201836020820111156107a157600080fd5b803590602001918460018302840111640100000000831117156107c357600080fd5b91908080601f016020809104026020016040519081016040528093929190818152602001838380828437600081840152601f19601f8201169050808301925050505050505091929192908035906020019064010000000081111561082657600080fd5b82018360208201111561083857600080fd5b8035906020019184600183028401116401000000008311171561085a57600080fd5b91908080601f016020809104026020016040519081016040528093929190818152602001838380828437600081840152601f19601f820116905080830192505050505050509192919290803590602001906401000000008111156108bd57600080fd5b8201836020820111156108cf57600080fd5b803590602001918460208302840111640100000000831117156108f157600080fd5b919080806020026020016040519081016040528093929190818152602001838360200280828437600081840152601f19601f820116905080830192505050505050509192919290803590602001909291908035906020019064010000000081111561095b57600080fd5b82018360208201111561096d57600080fd5b8035906020019184600183028401116401000000008311171561098f57600080fd5b91908080601f016020809104026020016040519081016040528093929190818152602001838380828437600081840152601f19601f8201169050808301925050505050505091929192905050506115c2565b6040518082815260200191505060405180910390f35b610a2360048036036020811015610a0d57600080fd5b8101908080359060200190929190505050611742565b6040518082815260200191505060405180910390f35b610a7160048036036040811015610a4f57600080fd5b8101908080359060200190929190803515159060200190929190505050611766565b005b610e3d6004803603610120811015610a8a57600080fd5b810190808035906020019092919080359060200190640100000000811115610ab157600080fd5b820183602082011115610ac357600080fd5b80359060200191846001830284011164010000000083111715610ae557600080fd5b91908080601f016020809104026020016040519081016040528093929190818152602001838380828437600081840152601f19601f82011690508083019250505050505050919291929080359060200190640100000000811115610b4857600080fd5b820183602082011115610b5a57600080fd5b80359060200191846001830284011164010000000083111715610b7c57600080fd5b91908080601f016020809104026020016040519081016040528093929190818152602001838380828437600081840152601f19601f82011690508083019250505050505050919291929080359060200190640100000000811115610bdf57600080fd5b820183602082011115610bf157600080fd5b80359060200191846001830284011164010000000083111715610c1357600080fd5b91908080601f016020809104026020016040519081016040528093929190818152602001838380828437600081840152601f19601f82011690508083019250505050505050919291929080359060200190640100000000811115610c7657600080fd5b820183602082011115610c8857600080fd5b80359060200191846001830284011164010000000083111715610caa57600080fd5b91908080601f016020809104026020016040519081016040528093929190818152602001838380828437600081840152601f19601f82011690508083019250505050505050919291929080359060200190640100000000811115610d0d57600080fd5b820183602082011115610d1f57600080fd5b80359060200191846020830284011164010000000083111715610d4157600080fd5b919080806020026020016040519081016040528093929190818152602001838360200280828437600081840152601f19601f8201169050808301925050505050505091929192908035906020019092919080359060200190640100000000811115610dab57600080fd5b820183602082011115610dbd57600080fd5b80359060200191846001830284011164010000000083111715610ddf57600080fd5b91908080601f016020809104026020016040519081016040528093929190818152602001838380828437600081840152601f19601f8201169050808301925050505050505091929192908035151590602001909291905050506117cf565b005b6000606080606080606060008060606000600160008c815260200190815260200160002090508060000154816001018260020183600301846004018560050186600601548760070160009054906101000a900460ff1688600801878054600181600116156101000203166002900480601f016020809104026020016040519081016040528092919081815260200182805460018160011615610100020316600290048015610f2e5780601f10610f0357610100808354040283529160200191610f2e565b820191906000526020600020905b815481529060010190602001808311610f1157829003601f168201915b50505050509750868054600181600116156101000203166002900480601f016020809104026020016040519081016040528092919081815260200182805460018160011615610100020316600290048015610fca5780601f10610f9f57610100808354040283529160200191610fca565b820191906000526020600020905b815481529060010190602001808311610fad57829003601f168201915b50505050509650858054600181600116156101000203166002900480601f0160208091040260200160405190810160405280929190818152602001828054600181600116156101000203166002900480156110665780601f1061103b57610100808354040283529160200191611066565b820191906000526020600020905b81548152906001019060200180831161104957829003601f168201915b50505050509550848054600181600116156101000203166002900480601f0160208091040260200160405190810160405280929190818152602001828054600181600116156101000203166002900480156111025780601f106110d757610100808354040283529160200191611102565b820191906000526020600020905b8154815290600101906020018083116110e557829003601f168201915b505050505094508380548060200260200160405190810160405280929190818152602001828054801561115457602002820191906000526020600020905b815481526020019060010190808311611140575b50505050509350808054600181600116156101000203166002900480601f0160208091040260200160405190810160405280929190818152602001828054600181600116156101000203166002900480156111f05780601f106111c5576101008083540402835291602001916111f0565b820191906000526020600020905b8154815290600101906020018083116111d357829003601f168201915b50505050509050995099509950995099509950995099509950509193959799909294969850565b6001602052806000526040600020600091509050806000015490806001018054600181600116156101000203166002900480601f0160208091040260200160405190810160405280929190818152602001828054600181600116156101000203166002900480156112c95780601f1061129e576101008083540402835291602001916112c9565b820191906000526020600020905b8154815290600101906020018083116112ac57829003601f168201915b505050505090806002018054600181600116156101000203166002900480601f0160208091040260200160405190810160405280929190818152602001828054600181600116156101000203166002900480156113675780601f1061133c57610100808354040283529160200191611367565b820191906000526020600020905b81548152906001019060200180831161134a57829003601f168201915b505050505090806003018054600181600116156101000203166002900480601f0160208091040260200160405190810160405280929190818152602001828054600181600116156101000203166002900480156114055780601f106113da57610100808354040283529160200191611405565b820191906000526020600020905b8154815290600101906020018083116113e857829003601f168201915b505050505090806004018054600181600116156101000203166002900480601f0160208091040260200160405190810160405280929190818152602001828054600181600116156101000203166002900480156114a35780601f10611478576101008083540402835291602001916114a3565b820191906000526020600020905b81548152906001019060200180831161148657829003601f168201915b5050505050908060060154908060070160009054906101000a900460ff1690806008018054600181600116156101000203166002900480601f01602080910402602001604051908101604052809291908181526020018280546001816001161561010002031660029004801561155a5780601f1061152f5761010080835404028352916020019161155a565b820191906000526020600020905b81548152906001019060200180831161153d57829003601f168201915b5050505050905088565b606060028054806020026020016040519081016040528092919081815260200182805480156115b257602002820191906000526020600020905b81548152602001906001019080831161159e575b5050505050905090565b60005481565b6000804244604051602001808381526020018281526020019250505060405160208183030381529060405280519060200120905060006001600083815260200190815260200160002090508181600001819055508981600101908051906020019061162e9291906118e4565b50888160020190805190602001906116479291906118e4565b50878160030190805190602001906116609291906118e4565b50868160040190805190602001906116799291906118e4565b5085816005019080519060200190611692929190611972565b5084816006018190555060018160070160006101000a81548160ff021916908315150217905550838160080190805190602001906116d19291906118e4565b5060028290806001815401808255809150506001900390600052602060002001600090919091909150557f102d25c49d33fcdb8976a3f2744e0785c98d9e43b88364859e6aec4ae82eff5c826040518082815260200191505060405180910390a18192505050979650505050505050565b6002818154811061175257600080fd5b906000526020600020016000915090505481565b806001600084815260200190815260200160002060070160006101000a81548160ff0219169083151502179055507fae7f59c2ef152eb4d4f56fcc655f53926d60b7e58e08ec8c79387e25adbf3331826040518082815260200191505060405180910390a15050565b6000600160008b81526020019081526020016000209050888160010190805190602001906117fe9291906118e4565b50878160020190805190602001906118179291906118e4565b50868160030190805190602001906118309291906118e4565b50858160040190805190602001906118499291906118e4565b5084816005019080519060200190611862929190611972565b50838160060181905550818160070160006101000a81548160ff021916908315150217905550828160080190805190602001906118a09291906118e4565b507fae7f59c2ef152eb4d4f56fcc655f53926d60b7e58e08ec8c79387e25adbf33318a6040518082815260200191505060405180910390a150505050505050505050565b828054600181600116156101000203166002900490600052602060002090601f01602090048101928261191a5760008555611961565b82601f1061193357805160ff1916838001178555611961565b82800160010185558215611961579182015b82811115611960578251825591602001919060010190611945565b5b50905061196e91906119bf565b5090565b8280548282559060005260206000209081019282156119ae579160200282015b828111156119ad578251825591602001919060010190611992565b5b5090506119bb91906119dc565b5090565b5b808211156119d85760008160009055506001016119c0565b5090565b5b808211156119f55760008160009055506001016119dd565b509056fea2646970667358221220f43f024d2e16260b1ab05dd2de3b3ebdb1d886a173c2b1479ebff8979acf137564736f6c63430007040033",
  "immutableReferences": {},
  "source": "pragma solidity ^0.7.4;\r\n\r\ncontract ProfileContract {\r\n    uint256 public version = 1;\r\n    struct Profile {\r\n        bytes32 profileId;\r\n        string name;\r\n        string email;\r\n        string passwordHash;\r\n        string phone;\r\n        bytes32[] roleId;\r\n        bytes32 organizationId;\r\n        bool isActive;\r\n        string customJsonData;\r\n    }\r\n\r\n    mapping(bytes32 => Profile) public dataMap;\r\n    bytes32[] public dataList;\r\n\r\n    event Created(bytes32 objId);\r\n    event Updated(bytes32 objId);\r\n\r\n    function create(\r\n        string memory _name,\r\n        string memory _email,\r\n        string memory _passwordHash,\r\n        string memory _phone,\r\n        bytes32[] memory _roleId,\r\n        bytes32 _organizationId,\r\n        string memory _customJsonData\r\n    ) public returns (bytes32 objId) {\r\n        bytes32 newId =\r\n            keccak256(abi.encodePacked(block.timestamp, block.difficulty));\r\n\r\n        Profile storage obj = dataMap[newId];\r\n        obj.profileId = newId;\r\n        obj.name = _name;\r\n        obj.email = _email;\r\n        obj.passwordHash = _passwordHash;\r\n        obj.phone = _phone;\r\n        obj.roleId = _roleId;\r\n        obj.organizationId = _organizationId;\r\n        obj.isActive = true;\r\n        obj.customJsonData = _customJsonData;\r\n\r\n        dataList.push(newId);\r\n\r\n        emit Created(newId);\r\n        return (newId);\r\n    }\r\n\r\n    function update(\r\n        bytes32 objId,\r\n        string memory _name,\r\n        string memory _email,\r\n        string memory _passwordHash,\r\n        string memory _phone,\r\n        bytes32[] memory _roleId,\r\n        bytes32 _organizationId,\r\n        string memory _customJsonData,\r\n        bool _isActive\r\n    ) public {\r\n        Profile storage obj = dataMap[objId];\r\n        obj.name = _name;\r\n        obj.email = _email;\r\n        obj.passwordHash = _passwordHash;\r\n        obj.phone = _phone;\r\n        obj.roleId = _roleId;\r\n        obj.organizationId = _organizationId;\r\n        obj.isActive = _isActive;\r\n        obj.customJsonData = _customJsonData;\r\n\r\n        emit Updated(objId);\r\n    }\r\n\r\n    function getById(bytes32 objId)\r\n        public\r\n        view\r\n        returns (\r\n            bytes32 id,\r\n            string memory name,\r\n            string memory email,\r\n            string memory passwordHash,\r\n            string memory phone,\r\n            bytes32[] memory roleId,\r\n            bytes32 organizationId,\r\n            bool isActive,\r\n            string memory customJsonData\r\n        )\r\n    {\r\n        Profile storage obj = dataMap[objId];\r\n        return (\r\n            obj.profileId,\r\n            obj.name,\r\n            obj.email,\r\n            obj.passwordHash,\r\n            obj.phone,\r\n            obj.roleId,\r\n            obj.organizationId,\r\n            obj.isActive,\r\n            obj.customJsonData\r\n        );\r\n    }\r\n\r\n    function getAll() public view returns (bytes32[] memory ids) {\r\n        return (dataList);\r\n    }\r\n\r\n    function activate(bytes32 objId, bool _isActive) public {\r\n        dataMap[objId].isActive = _isActive;\r\n        emit Updated(objId);\r\n    }\r\n}\r\n",
  "sourcePath": "D:/GitHub/supplychain_blockchain/tat_contract/contracts/ProfileContract.sol",
  "compiler": {
    "name": "solc",
    "version": "0.7.4+commit.3f05b770.Emscripten.clang"
  },
  "schemaVersion": "3.3.2",
  "updatedAt": "2021-03-10T02:58:47.930Z",
  "networkType": "ethereum",
  "devdoc": {
    "kind": "dev",
    "methods": {},
    "version": 1
  },
  "userdoc": {
    "kind": "user",
    "methods": {},
    "version": 1
  }
}