{
  "contractName": "RoleContract",
  "abi": [
    {
      "anonymous": false,
      "inputs": [
        {
          "indexed": false,
          "internalType": "bytes32",
          "name": "objId",
          "type": "bytes32"
        }
      ],
      "name": "RoleCreated",
      "type": "event"
    },
    {
      "anonymous": false,
      "inputs": [
        {
          "indexed": false,
          "internalType": "bytes32",
          "name": "objId",
          "type": "bytes32"
        }
      ],
      "name": "RoleUpdated",
      "type": "event"
    },
    {
      "inputs": [
        {
          "internalType": "uint256",
          "name": "",
          "type": "uint256"
        }
      ],
      "name": "roleIds",
      "outputs": [
        {
          "internalType": "bytes32",
          "name": "",
          "type": "bytes32"
        }
      ],
      "stateMutability": "view",
      "type": "function"
    },
    {
      "inputs": [
        {
          "internalType": "bytes32",
          "name": "",
          "type": "bytes32"
        }
      ],
      "name": "roleMap",
      "outputs": [
        {
          "internalType": "bytes32",
          "name": "roleId",
          "type": "bytes32"
        },
        {
          "internalType": "string",
          "name": "name",
          "type": "string"
        },
        {
          "internalType": "bool",
          "name": "isActive",
          "type": "bool"
        },
        {
          "internalType": "string",
          "name": "customJsonData",
          "type": "string"
        }
      ],
      "stateMutability": "view",
      "type": "function"
    },
    {
      "inputs": [
        {
          "internalType": "string",
          "name": "_name",
          "type": "string"
        },
        {
          "internalType": "string",
          "name": "_customJsonData",
          "type": "string"
        }
      ],
      "name": "createRole",
      "outputs": [
        {
          "internalType": "bytes32",
          "name": "objId",
          "type": "bytes32"
        }
      ],
      "stateMutability": "nonpayable",
      "type": "function"
    },
    {
      "inputs": [
        {
          "internalType": "bytes32",
          "name": "objId",
          "type": "bytes32"
        },
        {
          "internalType": "string",
          "name": "_name",
          "type": "string"
        },
        {
          "internalType": "string",
          "name": "_customJsonData",
          "type": "string"
        },
        {
          "internalType": "bool",
          "name": "_isActive",
          "type": "bool"
        }
      ],
      "name": "updateRole",
      "outputs": [],
      "stateMutability": "nonpayable",
      "type": "function"
    },
    {
      "inputs": [
        {
          "internalType": "bytes32",
          "name": "objId",
          "type": "bytes32"
        }
      ],
      "name": "getRoleById",
      "outputs": [
        {
          "internalType": "bytes32",
          "name": "id",
          "type": "bytes32"
        },
        {
          "internalType": "string",
          "name": "name",
          "type": "string"
        },
        {
          "internalType": "bool",
          "name": "isActive",
          "type": "bool"
        },
        {
          "internalType": "string",
          "name": "customJsonData",
          "type": "string"
        }
      ],
      "stateMutability": "view",
      "type": "function"
    }
  ],
  "bytecode": "0x608060405234801561001057600080fd5b50610b58806100206000396000f3fe608060405234801561001057600080fd5b50600436106100575760003560e01c80630f0d3da51461005c57806339e7d4cd1461017f578063986deb9a146102e7578063bdd1a13314610329578063d2192dbf1461044c575b600080fd5b6100886004803603602081101561007257600080fd5b81019080803590602001909291905050506105b2565b6040518085815260200180602001841515815260200180602001838103835286818151815260200191508051906020019080838360005b838110156100da5780820151818401526020810190506100bf565b50505050905090810190601f1680156101075780820380516001836020036101000a031916815260200191505b50838103825284818151815260200191508051906020019080838360005b83811015610140578082015181840152602081019050610125565b50505050905090810190601f16801561016d5780820380516001836020036101000a031916815260200191505b50965050505050505060405180910390f35b6102e56004803603608081101561019557600080fd5b8101908080359060200190929190803590602001906401000000008111156101bc57600080fd5b8201836020820111156101ce57600080fd5b803590602001918460018302840111640100000000831117156101f057600080fd5b91908080601f016020809104026020016040519081016040528093929190818152602001838380828437600081840152601f19601f8201169050808301925050505050505091929192908035906020019064010000000081111561025357600080fd5b82018360208201111561026557600080fd5b8035906020019184600183028401116401000000008311171561028757600080fd5b91908080601f016020809104026020016040519081016040528093929190818152602001838380828437600081840152601f19601f82011690508083019250505050505050919291929080351515906020019092919050505061071f565b005b610313600480360360208110156102fd57600080fd5b81019080803590602001909291905050506107c1565b6040518082815260200191505060405180910390f35b6103556004803603602081101561033f57600080fd5b81019080803590602001909291905050506107e5565b6040518085815260200180602001841515815260200180602001838103835286818151815260200191508051906020019080838360005b838110156103a757808201518184015260208101905061038c565b50505050905090810190601f1680156103d45780820380516001836020036101000a031916815260200191505b50838103825284818151815260200191508051906020019080838360005b8381101561040d5780820151818401526020810190506103f2565b50505050905090810190601f16801561043a5780820380516001836020036101000a031916815260200191505b50965050505050505060405180910390f35b61059c6004803603604081101561046257600080fd5b810190808035906020019064010000000081111561047f57600080fd5b82018360208201111561049157600080fd5b803590602001918460018302840111640100000000831117156104b357600080fd5b91908080601f016020809104026020016040519081016040528093929190818152602001838380828437600081840152601f19601f8201169050808301925050505050505091929192908035906020019064010000000081111561051657600080fd5b82018360208201111561052857600080fd5b8035906020019184600183028401116401000000008311171561054a57600080fd5b91908080601f016020809104026020016040519081016040528093929190818152602001838380828437600081840152601f19601f82011690508083019250505050505050919291929050505061096a565b6040518082815260200191505060405180910390f35b6000602052806000526040600020600091509050806000015490806001018054600181600116156101000203166002900480601f0160208091040260200160405190810160405280929190818152602001828054600181600116156101000203166002900480156106645780601f1061063957610100808354040283529160200191610664565b820191906000526020600020905b81548152906001019060200180831161064757829003601f168201915b5050505050908060020160009054906101000a900460ff1690806003018054600181600116156101000203166002900480601f0160208091040260200160405190810160405280929190818152602001828054600181600116156101000203166002900480156107155780601f106106ea57610100808354040283529160200191610715565b820191906000526020600020905b8154815290600101906020018083116106f857829003601f168201915b5050505050905084565b600080600086815260200190815260200160002090508381600101908051906020019061074d929190610a77565b50818160020160006101000a81548160ff02191690831515021790555082816003019080519060200190610782929190610a77565b507f5e293651729dbde44d92d54c33bc997eac7c3742e57f302f71336f176a39e4ab856040518082815260200191505060405180910390a15050505050565b600181815481106107d157600080fd5b906000526020600020016000915090505481565b6000606060006060600080600087815260200190815260200160002090508060000154816001018260020160009054906101000a900460ff1683600301828054600181600116156101000203166002900480601f0160208091040260200160405190810160405280929190818152602001828054600181600116156101000203166002900480156108b75780601f1061088c576101008083540402835291602001916108b7565b820191906000526020600020905b81548152906001019060200180831161089a57829003601f168201915b50505050509250808054600181600116156101000203166002900480601f0160208091040260200160405190810160405280929190818152602001828054600181600116156101000203166002900480156109535780601f1061092857610100808354040283529160200191610953565b820191906000526020600020905b81548152906001019060200180831161093657829003601f168201915b505050505090509450945094509450509193509193565b6000804244604051602001808381526020018281526020019250505060405160208183030381529060405280519060200120905060008060008381526020019081526020016000209050818160000181905550848160010190805190602001906109d5929190610a77565b5060018160020160006101000a81548160ff02191690831515021790555083816003019080519060200190610a0b929190610a77565b5060018290806001815401808255809150506001900390600052602060002001600090919091909150557f41ae852bd4986bdb048f0e9fe3e32c8d368d22693a4853f4bb5d6eb35f563f7a826040518082815260200191505060405180910390a1819250505092915050565b828054600181600116156101000203166002900490600052602060002090601f016020900481019282610aad5760008555610af4565b82601f10610ac657805160ff1916838001178555610af4565b82800160010185558215610af4579182015b82811115610af3578251825591602001919060010190610ad8565b5b509050610b019190610b05565b5090565b5b80821115610b1e576000816000905550600101610b06565b509056fea26469706673582212206cb0af1e52d18a076da61012a62c799125086a329fcae67c2e4e98956e419b2164736f6c63430007040033",
  "immutableReferences": {},
  "source": "pragma solidity ^0.7.4;\n\ncontract RoleContract {\n    struct Role {\n        bytes32 roleId;\n        string name;\n        bool isActive;\n        string customJsonData;\n    }\n\n    mapping(bytes32 => Role) public roleMap;\n    bytes32[] public roleIds;\n\n    event RoleCreated(bytes32 objId);\n    event RoleUpdated(bytes32 objId);\n\n    /*\n        Role\n    */\n    function createRole(string memory _name, string memory _customJsonData)\n        public\n        returns (bytes32 objId)\n    {\n        bytes32 newId =\n            keccak256(abi.encodePacked(block.timestamp, block.difficulty));\n\n        Role storage obj = roleMap[newId];\n        obj.roleId = newId;\n        obj.name = _name;\n        obj.isActive = true;\n        obj.customJsonData = _customJsonData;\n\n        roleIds.push(newId);\n\n        emit RoleCreated(newId);\n        return (newId);\n    }\n\n    function updateRole(\n        bytes32 objId,\n        string memory _name,\n        string memory _customJsonData,\n        bool _isActive\n    ) public {\n        Role storage obj = roleMap[objId];\n        obj.name = _name;\n        obj.isActive = _isActive;\n        obj.customJsonData = _customJsonData;\n\n        emit RoleUpdated(objId);\n    }\n\n    function getRoleById(bytes32 objId)\n        public\n        view\n        returns (\n            bytes32 id,\n            string memory name,\n            bool isActive,\n            string memory customJsonData\n        )\n    {\n        Role storage obj = roleMap[objId];\n        return (obj.roleId, obj.name, obj.isActive, obj.customJsonData);\n    }\n\n}\n",
  "sourcePath": "/home/fakhrul/experiment/supplychain_blockchain/tat_contract/contracts/RoleContract.sol",
  "compiler": {
    "name": "solc",
    "version": "0.7.4+commit.3f05b770.Emscripten.clang"
  },
  "schemaVersion": "3.3.4",
  "updatedAt": "2021-03-04T15:07:17.647Z",
  "devdoc": {
    "kind": "dev",
    "methods": {},
    "version": 1
  },
  "userdoc": {
    "kind": "user",
    "methods": {},
    "version": 1
  }
}