{
  "contractName": "SupplyChain",
  "abi": [
    {
      "anonymous": false,
      "inputs": [
        {
          "indexed": false,
          "internalType": "bytes32",
          "name": "objId",
          "type": "bytes32"
        }
      ],
      "name": "ActivityCreated",
      "type": "event"
    },
    {
      "anonymous": false,
      "inputs": [
        {
          "indexed": false,
          "internalType": "bytes32",
          "name": "objId",
          "type": "bytes32"
        }
      ],
      "name": "ActivityUpdated",
      "type": "event"
    },
    {
      "anonymous": false,
      "inputs": [
        {
          "indexed": false,
          "internalType": "bytes32",
          "name": "objId",
          "type": "bytes32"
        }
      ],
      "name": "AreaCreated",
      "type": "event"
    },
    {
      "anonymous": false,
      "inputs": [
        {
          "indexed": false,
          "internalType": "bytes32",
          "name": "objId",
          "type": "bytes32"
        }
      ],
      "name": "AreaUpdated",
      "type": "event"
    },
    {
      "anonymous": false,
      "inputs": [
        {
          "indexed": false,
          "internalType": "bytes32",
          "name": "objId",
          "type": "bytes32"
        }
      ],
      "name": "CategoryCreated",
      "type": "event"
    },
    {
      "anonymous": false,
      "inputs": [
        {
          "indexed": false,
          "internalType": "bytes32",
          "name": "objId",
          "type": "bytes32"
        }
      ],
      "name": "CategoryUpdated",
      "type": "event"
    },
    {
      "anonymous": false,
      "inputs": [
        {
          "indexed": false,
          "internalType": "bytes32",
          "name": "objId",
          "type": "bytes32"
        }
      ],
      "name": "CertificationCreated",
      "type": "event"
    },
    {
      "anonymous": false,
      "inputs": [
        {
          "indexed": false,
          "internalType": "bytes32",
          "name": "objId",
          "type": "bytes32"
        }
      ],
      "name": "CertificationUpdated",
      "type": "event"
    },
    {
      "anonymous": false,
      "inputs": [
        {
          "indexed": false,
          "internalType": "bytes32",
          "name": "objId",
          "type": "bytes32"
        }
      ],
      "name": "OrganizationTypeCreated",
      "type": "event"
    },
    {
      "anonymous": false,
      "inputs": [
        {
          "indexed": false,
          "internalType": "bytes32",
          "name": "objId",
          "type": "bytes32"
        }
      ],
      "name": "OrganizationTypeUpdated",
      "type": "event"
    },
    {
      "anonymous": false,
      "inputs": [
        {
          "indexed": false,
          "internalType": "bytes32",
          "name": "objId",
          "type": "bytes32"
        }
      ],
      "name": "ProductCreated",
      "type": "event"
    },
    {
      "anonymous": false,
      "inputs": [
        {
          "indexed": false,
          "internalType": "bytes32",
          "name": "objId",
          "type": "bytes32"
        }
      ],
      "name": "ProductUpdated",
      "type": "event"
    },
    {
      "anonymous": false,
      "inputs": [
        {
          "indexed": false,
          "internalType": "bytes32",
          "name": "objId",
          "type": "bytes32"
        }
      ],
      "name": "ProfileCreated",
      "type": "event"
    },
    {
      "anonymous": false,
      "inputs": [
        {
          "indexed": false,
          "internalType": "bytes32",
          "name": "objId",
          "type": "bytes32"
        }
      ],
      "name": "ProfileUpdated",
      "type": "event"
    },
    {
      "anonymous": false,
      "inputs": [
        {
          "indexed": false,
          "internalType": "bytes32",
          "name": "objId",
          "type": "bytes32"
        }
      ],
      "name": "RoleCreated",
      "type": "event"
    },
    {
      "anonymous": false,
      "inputs": [
        {
          "indexed": false,
          "internalType": "bytes32",
          "name": "objId",
          "type": "bytes32"
        }
      ],
      "name": "RoleUpdated",
      "type": "event"
    },
    {
      "anonymous": false,
      "inputs": [
        {
          "indexed": false,
          "internalType": "bytes32",
          "name": "objId",
          "type": "bytes32"
        }
      ],
      "name": "TrackHistoryCreated",
      "type": "event"
    },
    {
      "anonymous": false,
      "inputs": [
        {
          "indexed": false,
          "internalType": "bytes32",
          "name": "objId",
          "type": "bytes32"
        }
      ],
      "name": "TrackHistoryUpdated",
      "type": "event"
    },
    {
      "inputs": [
        {
          "internalType": "uint256",
          "name": "",
          "type": "uint256"
        }
      ],
      "name": "activityIds",
      "outputs": [
        {
          "internalType": "bytes32",
          "name": "",
          "type": "bytes32"
        }
      ],
      "stateMutability": "view",
      "type": "function"
    },
    {
      "inputs": [
        {
          "internalType": "bytes32",
          "name": "",
          "type": "bytes32"
        }
      ],
      "name": "activityMap",
      "outputs": [
        {
          "internalType": "bytes32",
          "name": "activityId",
          "type": "bytes32"
        },
        {
          "internalType": "string",
          "name": "name",
          "type": "string"
        },
        {
          "internalType": "bytes32",
          "name": "organizationTypeId",
          "type": "bytes32"
        },
        {
          "internalType": "bool",
          "name": "isActive",
          "type": "bool"
        },
        {
          "internalType": "string",
          "name": "customJsonData",
          "type": "string"
        }
      ],
      "stateMutability": "view",
      "type": "function"
    },
    {
      "inputs": [
        {
          "internalType": "uint256",
          "name": "",
          "type": "uint256"
        }
      ],
      "name": "areaIds",
      "outputs": [
        {
          "internalType": "bytes32",
          "name": "",
          "type": "bytes32"
        }
      ],
      "stateMutability": "view",
      "type": "function"
    },
    {
      "inputs": [
        {
          "internalType": "bytes32",
          "name": "",
          "type": "bytes32"
        }
      ],
      "name": "areaMap",
      "outputs": [
        {
          "internalType": "bytes32",
          "name": "areaId",
          "type": "bytes32"
        },
        {
          "internalType": "string",
          "name": "name",
          "type": "string"
        },
        {
          "internalType": "bytes32",
          "name": "organizationId",
          "type": "bytes32"
        },
        {
          "internalType": "bool",
          "name": "isActive",
          "type": "bool"
        },
        {
          "internalType": "string",
          "name": "customJsonData",
          "type": "string"
        }
      ],
      "stateMutability": "view",
      "type": "function"
    },
    {
      "inputs": [
        {
          "internalType": "uint256",
          "name": "",
          "type": "uint256"
        }
      ],
      "name": "categoryIds",
      "outputs": [
        {
          "internalType": "bytes32",
          "name": "",
          "type": "bytes32"
        }
      ],
      "stateMutability": "view",
      "type": "function"
    },
    {
      "inputs": [
        {
          "internalType": "bytes32",
          "name": "",
          "type": "bytes32"
        }
      ],
      "name": "categoryMap",
      "outputs": [
        {
          "internalType": "bytes32",
          "name": "categoryId",
          "type": "bytes32"
        },
        {
          "internalType": "string",
          "name": "name",
          "type": "string"
        },
        {
          "internalType": "bool",
          "name": "isActive",
          "type": "bool"
        },
        {
          "internalType": "string",
          "name": "customJsonData",
          "type": "string"
        }
      ],
      "stateMutability": "view",
      "type": "function"
    },
    {
      "inputs": [
        {
          "internalType": "uint256",
          "name": "",
          "type": "uint256"
        }
      ],
      "name": "certificationIds",
      "outputs": [
        {
          "internalType": "bytes32",
          "name": "",
          "type": "bytes32"
        }
      ],
      "stateMutability": "view",
      "type": "function"
    },
    {
      "inputs": [
        {
          "internalType": "bytes32",
          "name": "",
          "type": "bytes32"
        }
      ],
      "name": "certificationMap",
      "outputs": [
        {
          "internalType": "bytes32",
          "name": "certificationId",
          "type": "bytes32"
        },
        {
          "internalType": "string",
          "name": "name",
          "type": "string"
        },
        {
          "internalType": "string",
          "name": "certificateUrl",
          "type": "string"
        },
        {
          "internalType": "bool",
          "name": "isActive",
          "type": "bool"
        },
        {
          "internalType": "string",
          "name": "customJsonData",
          "type": "string"
        }
      ],
      "stateMutability": "view",
      "type": "function"
    },
    {
      "inputs": [
        {
          "internalType": "uint256",
          "name": "",
          "type": "uint256"
        }
      ],
      "name": "organizationTypeIds",
      "outputs": [
        {
          "internalType": "bytes32",
          "name": "",
          "type": "bytes32"
        }
      ],
      "stateMutability": "view",
      "type": "function"
    },
    {
      "inputs": [
        {
          "internalType": "bytes32",
          "name": "",
          "type": "bytes32"
        }
      ],
      "name": "organizationTypeMap",
      "outputs": [
        {
          "internalType": "bytes32",
          "name": "organizationTypeId",
          "type": "bytes32"
        },
        {
          "internalType": "string",
          "name": "name",
          "type": "string"
        },
        {
          "internalType": "bool",
          "name": "isActive",
          "type": "bool"
        },
        {
          "internalType": "string",
          "name": "customJsonData",
          "type": "string"
        }
      ],
      "stateMutability": "view",
      "type": "function"
    },
    {
      "inputs": [
        {
          "internalType": "uint256",
          "name": "",
          "type": "uint256"
        }
      ],
      "name": "productIds",
      "outputs": [
        {
          "internalType": "bytes32",
          "name": "",
          "type": "bytes32"
        }
      ],
      "stateMutability": "view",
      "type": "function"
    },
    {
      "inputs": [
        {
          "internalType": "bytes32",
          "name": "",
          "type": "bytes32"
        }
      ],
      "name": "productMap",
      "outputs": [
        {
          "internalType": "bytes32",
          "name": "productId",
          "type": "bytes32"
        },
        {
          "internalType": "bytes32",
          "name": "categoryId",
          "type": "bytes32"
        },
        {
          "internalType": "string",
          "name": "name",
          "type": "string"
        },
        {
          "internalType": "string",
          "name": "description",
          "type": "string"
        },
        {
          "internalType": "bool",
          "name": "isActive",
          "type": "bool"
        },
        {
          "internalType": "string",
          "name": "customJsonData",
          "type": "string"
        }
      ],
      "stateMutability": "view",
      "type": "function"
    },
    {
      "inputs": [
        {
          "internalType": "uint256",
          "name": "",
          "type": "uint256"
        }
      ],
      "name": "profileIds",
      "outputs": [
        {
          "internalType": "bytes32",
          "name": "",
          "type": "bytes32"
        }
      ],
      "stateMutability": "view",
      "type": "function"
    },
    {
      "inputs": [
        {
          "internalType": "bytes32",
          "name": "",
          "type": "bytes32"
        }
      ],
      "name": "profileMap",
      "outputs": [
        {
          "internalType": "bytes32",
          "name": "profileId",
          "type": "bytes32"
        },
        {
          "internalType": "string",
          "name": "name",
          "type": "string"
        },
        {
          "internalType": "string",
          "name": "email",
          "type": "string"
        },
        {
          "internalType": "string",
          "name": "passwordHash",
          "type": "string"
        },
        {
          "internalType": "string",
          "name": "phone",
          "type": "string"
        },
        {
          "internalType": "bytes32",
          "name": "organizationId",
          "type": "bytes32"
        },
        {
          "internalType": "bool",
          "name": "isActive",
          "type": "bool"
        },
        {
          "internalType": "string",
          "name": "customJsonData",
          "type": "string"
        }
      ],
      "stateMutability": "view",
      "type": "function"
    },
    {
      "inputs": [
        {
          "internalType": "uint256",
          "name": "",
          "type": "uint256"
        }
      ],
      "name": "roleIds",
      "outputs": [
        {
          "internalType": "bytes32",
          "name": "",
          "type": "bytes32"
        }
      ],
      "stateMutability": "view",
      "type": "function"
    },
    {
      "inputs": [
        {
          "internalType": "bytes32",
          "name": "",
          "type": "bytes32"
        }
      ],
      "name": "roleMap",
      "outputs": [
        {
          "internalType": "bytes32",
          "name": "roleId",
          "type": "bytes32"
        },
        {
          "internalType": "string",
          "name": "name",
          "type": "string"
        },
        {
          "internalType": "bool",
          "name": "isActive",
          "type": "bool"
        },
        {
          "internalType": "string",
          "name": "customJsonData",
          "type": "string"
        }
      ],
      "stateMutability": "view",
      "type": "function"
    },
    {
      "inputs": [
        {
          "internalType": "uint256",
          "name": "",
          "type": "uint256"
        }
      ],
      "name": "trackHistoryIds",
      "outputs": [
        {
          "internalType": "bytes32",
          "name": "",
          "type": "bytes32"
        }
      ],
      "stateMutability": "view",
      "type": "function"
    },
    {
      "inputs": [
        {
          "internalType": "bytes32",
          "name": "",
          "type": "bytes32"
        }
      ],
      "name": "trackHistoryMap",
      "outputs": [
        {
          "internalType": "bytes32",
          "name": "trackHistoryId",
          "type": "bytes32"
        },
        {
          "internalType": "bytes32",
          "name": "productId",
          "type": "bytes32"
        },
        {
          "internalType": "bytes32",
          "name": "activityId",
          "type": "bytes32"
        },
        {
          "internalType": "bytes32",
          "name": "profileId",
          "type": "bytes32"
        },
        {
          "internalType": "bytes32",
          "name": "areaId",
          "type": "bytes32"
        },
        {
          "internalType": "string",
          "name": "gps",
          "type": "string"
        },
        {
          "internalType": "string",
          "name": "remarks",
          "type": "string"
        },
        {
          "internalType": "bool",
          "name": "isActive",
          "type": "bool"
        },
        {
          "internalType": "string",
          "name": "customJsonData",
          "type": "string"
        }
      ],
      "stateMutability": "view",
      "type": "function"
    },
    {
      "inputs": [],
      "name": "version",
      "outputs": [
        {
          "internalType": "uint8",
          "name": "",
          "type": "uint8"
        }
      ],
      "stateMutability": "view",
      "type": "function"
    },
    {
      "inputs": [
        {
          "internalType": "string",
          "name": "_name",
          "type": "string"
        },
        {
          "internalType": "string",
          "name": "_customJsonData",
          "type": "string"
        }
      ],
      "name": "createOrganizationType",
      "outputs": [
        {
          "internalType": "bytes32",
          "name": "objId",
          "type": "bytes32"
        }
      ],
      "stateMutability": "nonpayable",
      "type": "function"
    },
    {
      "inputs": [
        {
          "internalType": "bytes32",
          "name": "objId",
          "type": "bytes32"
        },
        {
          "internalType": "string",
          "name": "_name",
          "type": "string"
        },
        {
          "internalType": "string",
          "name": "_customJsonData",
          "type": "string"
        },
        {
          "internalType": "bool",
          "name": "_isActive",
          "type": "bool"
        }
      ],
      "name": "updateOrganizationType",
      "outputs": [],
      "stateMutability": "nonpayable",
      "type": "function"
    },
    {
      "inputs": [
        {
          "internalType": "bytes32",
          "name": "objId",
          "type": "bytes32"
        }
      ],
      "name": "getOrganizationTypeById",
      "outputs": [
        {
          "internalType": "bytes32",
          "name": "id",
          "type": "bytes32"
        },
        {
          "internalType": "string",
          "name": "name",
          "type": "string"
        },
        {
          "internalType": "string",
          "name": "customJsonData",
          "type": "string"
        }
      ],
      "stateMutability": "view",
      "type": "function"
    },
    {
      "inputs": [
        {
          "internalType": "string",
          "name": "_name",
          "type": "string"
        },
        {
          "internalType": "bytes32",
          "name": "_organizationTypeId",
          "type": "bytes32"
        },
        {
          "internalType": "string",
          "name": "_customJsonData",
          "type": "string"
        }
      ],
      "name": "createActivity",
      "outputs": [
        {
          "internalType": "bytes32",
          "name": "objId",
          "type": "bytes32"
        }
      ],
      "stateMutability": "nonpayable",
      "type": "function"
    },
    {
      "inputs": [
        {
          "internalType": "bytes32",
          "name": "objId",
          "type": "bytes32"
        },
        {
          "internalType": "string",
          "name": "_name",
          "type": "string"
        },
        {
          "internalType": "bytes32",
          "name": "_organizationTypeId",
          "type": "bytes32"
        },
        {
          "internalType": "string",
          "name": "_customJsonData",
          "type": "string"
        },
        {
          "internalType": "bool",
          "name": "_isActive",
          "type": "bool"
        }
      ],
      "name": "updateActivity",
      "outputs": [],
      "stateMutability": "nonpayable",
      "type": "function"
    },
    {
      "inputs": [
        {
          "internalType": "bytes32",
          "name": "objId",
          "type": "bytes32"
        }
      ],
      "name": "getActivityById",
      "outputs": [
        {
          "internalType": "bytes32",
          "name": "id",
          "type": "bytes32"
        },
        {
          "internalType": "string",
          "name": "name",
          "type": "string"
        },
        {
          "internalType": "bytes32",
          "name": "organizationTypeId",
          "type": "bytes32"
        },
        {
          "internalType": "bool",
          "name": "isActive",
          "type": "bool"
        },
        {
          "internalType": "string",
          "name": "customJsonData",
          "type": "string"
        }
      ],
      "stateMutability": "view",
      "type": "function"
    },
    {
      "inputs": [
        {
          "internalType": "string",
          "name": "_name",
          "type": "string"
        },
        {
          "internalType": "bytes32",
          "name": "_organizationId",
          "type": "bytes32"
        },
        {
          "internalType": "string",
          "name": "_customJsonData",
          "type": "string"
        }
      ],
      "name": "createArea",
      "outputs": [
        {
          "internalType": "bytes32",
          "name": "objId",
          "type": "bytes32"
        }
      ],
      "stateMutability": "nonpayable",
      "type": "function"
    },
    {
      "inputs": [
        {
          "internalType": "bytes32",
          "name": "objId",
          "type": "bytes32"
        },
        {
          "internalType": "string",
          "name": "_name",
          "type": "string"
        },
        {
          "internalType": "bytes32",
          "name": "_organizationId",
          "type": "bytes32"
        },
        {
          "internalType": "string",
          "name": "_customJsonData",
          "type": "string"
        },
        {
          "internalType": "bool",
          "name": "_isActive",
          "type": "bool"
        }
      ],
      "name": "updateArea",
      "outputs": [],
      "stateMutability": "nonpayable",
      "type": "function"
    },
    {
      "inputs": [
        {
          "internalType": "bytes32",
          "name": "objId",
          "type": "bytes32"
        }
      ],
      "name": "getAreaById",
      "outputs": [
        {
          "internalType": "bytes32",
          "name": "id",
          "type": "bytes32"
        },
        {
          "internalType": "string",
          "name": "name",
          "type": "string"
        },
        {
          "internalType": "bytes32",
          "name": "organizationId",
          "type": "bytes32"
        },
        {
          "internalType": "bool",
          "name": "isActive",
          "type": "bool"
        },
        {
          "internalType": "string",
          "name": "customJsonData",
          "type": "string"
        }
      ],
      "stateMutability": "view",
      "type": "function"
    },
    {
      "inputs": [
        {
          "internalType": "string",
          "name": "_name",
          "type": "string"
        },
        {
          "internalType": "string",
          "name": "_customJsonData",
          "type": "string"
        }
      ],
      "name": "createCategory",
      "outputs": [
        {
          "internalType": "bytes32",
          "name": "objId",
          "type": "bytes32"
        }
      ],
      "stateMutability": "nonpayable",
      "type": "function"
    },
    {
      "inputs": [
        {
          "internalType": "bytes32",
          "name": "objId",
          "type": "bytes32"
        },
        {
          "internalType": "string",
          "name": "_name",
          "type": "string"
        },
        {
          "internalType": "string",
          "name": "_customJsonData",
          "type": "string"
        },
        {
          "internalType": "bool",
          "name": "_isActive",
          "type": "bool"
        }
      ],
      "name": "updateCategory",
      "outputs": [],
      "stateMutability": "nonpayable",
      "type": "function"
    },
    {
      "inputs": [
        {
          "internalType": "bytes32",
          "name": "objId",
          "type": "bytes32"
        }
      ],
      "name": "getCategoryById",
      "outputs": [
        {
          "internalType": "bytes32",
          "name": "id",
          "type": "bytes32"
        },
        {
          "internalType": "string",
          "name": "name",
          "type": "string"
        },
        {
          "internalType": "bool",
          "name": "isActive",
          "type": "bool"
        },
        {
          "internalType": "string",
          "name": "customJsonData",
          "type": "string"
        }
      ],
      "stateMutability": "view",
      "type": "function"
    },
    {
      "inputs": [
        {
          "internalType": "string",
          "name": "_name",
          "type": "string"
        },
        {
          "internalType": "bytes32",
          "name": "_categoryId",
          "type": "bytes32"
        },
        {
          "internalType": "string",
          "name": "_description",
          "type": "string"
        },
        {
          "internalType": "bytes32[]",
          "name": "_certificationIdList",
          "type": "bytes32[]"
        },
        {
          "internalType": "string",
          "name": "_customJsonData",
          "type": "string"
        }
      ],
      "name": "createProduct",
      "outputs": [
        {
          "internalType": "bytes32",
          "name": "objId",
          "type": "bytes32"
        }
      ],
      "stateMutability": "nonpayable",
      "type": "function"
    },
    {
      "inputs": [
        {
          "internalType": "bytes32",
          "name": "objId",
          "type": "bytes32"
        },
        {
          "internalType": "string",
          "name": "_name",
          "type": "string"
        },
        {
          "internalType": "bytes32",
          "name": "_categoryId",
          "type": "bytes32"
        },
        {
          "internalType": "string",
          "name": "_description",
          "type": "string"
        },
        {
          "internalType": "bytes32[]",
          "name": "_certificationIdList",
          "type": "bytes32[]"
        },
        {
          "internalType": "string",
          "name": "_customJsonData",
          "type": "string"
        },
        {
          "internalType": "bool",
          "name": "_isActive",
          "type": "bool"
        }
      ],
      "name": "updateProduct",
      "outputs": [],
      "stateMutability": "nonpayable",
      "type": "function"
    },
    {
      "inputs": [
        {
          "internalType": "bytes32",
          "name": "objId",
          "type": "bytes32"
        }
      ],
      "name": "getProductById",
      "outputs": [
        {
          "internalType": "bytes32",
          "name": "id",
          "type": "bytes32"
        },
        {
          "internalType": "bytes32",
          "name": "categoryId",
          "type": "bytes32"
        },
        {
          "internalType": "string",
          "name": "name",
          "type": "string"
        },
        {
          "internalType": "string",
          "name": "description",
          "type": "string"
        },
        {
          "internalType": "bytes32[]",
          "name": "certicationIdList",
          "type": "bytes32[]"
        },
        {
          "internalType": "bool",
          "name": "isActive",
          "type": "bool"
        },
        {
          "internalType": "string",
          "name": "customJsonData",
          "type": "string"
        }
      ],
      "stateMutability": "view",
      "type": "function"
    },
    {
      "inputs": [
        {
          "internalType": "string",
          "name": "_name",
          "type": "string"
        },
        {
          "internalType": "string",
          "name": "_customJsonData",
          "type": "string"
        }
      ],
      "name": "createRole",
      "outputs": [
        {
          "internalType": "bytes32",
          "name": "objId",
          "type": "bytes32"
        }
      ],
      "stateMutability": "nonpayable",
      "type": "function"
    },
    {
      "inputs": [
        {
          "internalType": "bytes32",
          "name": "objId",
          "type": "bytes32"
        },
        {
          "internalType": "string",
          "name": "_name",
          "type": "string"
        },
        {
          "internalType": "string",
          "name": "_customJsonData",
          "type": "string"
        },
        {
          "internalType": "bool",
          "name": "_isActive",
          "type": "bool"
        }
      ],
      "name": "updateRole",
      "outputs": [],
      "stateMutability": "nonpayable",
      "type": "function"
    },
    {
      "inputs": [
        {
          "internalType": "bytes32",
          "name": "objId",
          "type": "bytes32"
        }
      ],
      "name": "getRoleById",
      "outputs": [
        {
          "internalType": "bytes32",
          "name": "id",
          "type": "bytes32"
        },
        {
          "internalType": "string",
          "name": "name",
          "type": "string"
        },
        {
          "internalType": "bool",
          "name": "isActive",
          "type": "bool"
        },
        {
          "internalType": "string",
          "name": "customJsonData",
          "type": "string"
        }
      ],
      "stateMutability": "view",
      "type": "function"
    },
    {
      "inputs": [
        {
          "internalType": "string",
          "name": "_name",
          "type": "string"
        },
        {
          "internalType": "string",
          "name": "_email",
          "type": "string"
        },
        {
          "internalType": "string",
          "name": "_passwordHash",
          "type": "string"
        },
        {
          "internalType": "string",
          "name": "_phone",
          "type": "string"
        },
        {
          "internalType": "bytes32[]",
          "name": "_roleId",
          "type": "bytes32[]"
        },
        {
          "internalType": "bytes32",
          "name": "_organizationId",
          "type": "bytes32"
        },
        {
          "internalType": "string",
          "name": "_customJsonData",
          "type": "string"
        }
      ],
      "name": "createProfile",
      "outputs": [
        {
          "internalType": "bytes32",
          "name": "objId",
          "type": "bytes32"
        }
      ],
      "stateMutability": "nonpayable",
      "type": "function"
    },
    {
      "inputs": [
        {
          "internalType": "bytes32",
          "name": "objId",
          "type": "bytes32"
        },
        {
          "internalType": "string",
          "name": "_name",
          "type": "string"
        },
        {
          "internalType": "string",
          "name": "_email",
          "type": "string"
        },
        {
          "internalType": "string",
          "name": "_passwordHash",
          "type": "string"
        },
        {
          "internalType": "string",
          "name": "_phone",
          "type": "string"
        },
        {
          "internalType": "bytes32[]",
          "name": "_roleId",
          "type": "bytes32[]"
        },
        {
          "internalType": "bytes32",
          "name": "_organizationId",
          "type": "bytes32"
        },
        {
          "internalType": "string",
          "name": "_customJsonData",
          "type": "string"
        },
        {
          "internalType": "bool",
          "name": "_isActive",
          "type": "bool"
        }
      ],
      "name": "updateProfile",
      "outputs": [],
      "stateMutability": "nonpayable",
      "type": "function"
    },
    {
      "inputs": [
        {
          "internalType": "bytes32",
          "name": "objId",
          "type": "bytes32"
        }
      ],
      "name": "getProfileById",
      "outputs": [
        {
          "internalType": "bytes32",
          "name": "id",
          "type": "bytes32"
        },
        {
          "internalType": "string",
          "name": "name",
          "type": "string"
        },
        {
          "internalType": "string",
          "name": "email",
          "type": "string"
        },
        {
          "internalType": "string",
          "name": "passwordHash",
          "type": "string"
        },
        {
          "internalType": "string",
          "name": "phone",
          "type": "string"
        },
        {
          "internalType": "bytes32[]",
          "name": "roleId",
          "type": "bytes32[]"
        },
        {
          "internalType": "bytes32",
          "name": "organizationId",
          "type": "bytes32"
        },
        {
          "internalType": "bool",
          "name": "isActive",
          "type": "bool"
        },
        {
          "internalType": "string",
          "name": "customJsonData",
          "type": "string"
        }
      ],
      "stateMutability": "view",
      "type": "function"
    },
    {
      "inputs": [
        {
          "internalType": "string",
          "name": "_name",
          "type": "string"
        },
        {
          "internalType": "string",
          "name": "_certificationUrl",
          "type": "string"
        },
        {
          "internalType": "string",
          "name": "_customJsonData",
          "type": "string"
        }
      ],
      "name": "createCertification",
      "outputs": [
        {
          "internalType": "bytes32",
          "name": "objId",
          "type": "bytes32"
        }
      ],
      "stateMutability": "nonpayable",
      "type": "function"
    },
    {
      "inputs": [
        {
          "internalType": "bytes32",
          "name": "objId",
          "type": "bytes32"
        },
        {
          "internalType": "string",
          "name": "_name",
          "type": "string"
        },
        {
          "internalType": "string",
          "name": "_certificationUrl",
          "type": "string"
        },
        {
          "internalType": "string",
          "name": "_customJsonData",
          "type": "string"
        },
        {
          "internalType": "bool",
          "name": "_isActive",
          "type": "bool"
        }
      ],
      "name": "updateCertification",
      "outputs": [],
      "stateMutability": "nonpayable",
      "type": "function"
    },
    {
      "inputs": [
        {
          "internalType": "bytes32",
          "name": "objId",
          "type": "bytes32"
        }
      ],
      "name": "getCertificationById",
      "outputs": [
        {
          "internalType": "bytes32",
          "name": "id",
          "type": "bytes32"
        },
        {
          "internalType": "string",
          "name": "name",
          "type": "string"
        },
        {
          "internalType": "string",
          "name": "certificateUrl",
          "type": "string"
        },
        {
          "internalType": "bool",
          "name": "isActive",
          "type": "bool"
        },
        {
          "internalType": "string",
          "name": "customJsonData",
          "type": "string"
        }
      ],
      "stateMutability": "view",
      "type": "function"
    },
    {
      "inputs": [
        {
          "internalType": "bytes32",
          "name": "_trackHistoryId",
          "type": "bytes32"
        },
        {
          "internalType": "bytes32",
          "name": "_productId",
          "type": "bytes32"
        },
        {
          "internalType": "bytes32",
          "name": "_activityId",
          "type": "bytes32"
        },
        {
          "internalType": "bytes32",
          "name": "_profileId",
          "type": "bytes32"
        },
        {
          "internalType": "bytes32",
          "name": "_areaId",
          "type": "bytes32"
        },
        {
          "internalType": "string",
          "name": "_gps",
          "type": "string"
        },
        {
          "internalType": "string",
          "name": "_remarks",
          "type": "string"
        },
        {
          "internalType": "string",
          "name": "_customJsonData",
          "type": "string"
        }
      ],
      "name": "createTrackHistory",
      "outputs": [
        {
          "internalType": "bytes32",
          "name": "objId",
          "type": "bytes32"
        }
      ],
      "stateMutability": "nonpayable",
      "type": "function"
    },
    {
      "inputs": [
        {
          "internalType": "bytes32",
          "name": "objId",
          "type": "bytes32"
        },
        {
          "internalType": "bytes32",
          "name": "_productId",
          "type": "bytes32"
        },
        {
          "internalType": "bytes32",
          "name": "_activityId",
          "type": "bytes32"
        },
        {
          "internalType": "bytes32",
          "name": "_profileId",
          "type": "bytes32"
        },
        {
          "internalType": "bytes32",
          "name": "_areaId",
          "type": "bytes32"
        },
        {
          "internalType": "string",
          "name": "_gps",
          "type": "string"
        },
        {
          "internalType": "string",
          "name": "_remarks",
          "type": "string"
        },
        {
          "internalType": "string",
          "name": "_customJsonData",
          "type": "string"
        },
        {
          "internalType": "bool",
          "name": "_isActive",
          "type": "bool"
        }
      ],
      "name": "updateTrackHistory",
      "outputs": [],
      "stateMutability": "nonpayable",
      "type": "function"
    },
    {
      "inputs": [
        {
          "internalType": "bytes32",
          "name": "objId",
          "type": "bytes32"
        }
      ],
      "name": "getTrackHistoryById",
      "outputs": [
        {
          "internalType": "bytes32",
          "name": "id",
          "type": "bytes32"
        },
        {
          "internalType": "bytes32",
          "name": "productId",
          "type": "bytes32"
        },
        {
          "internalType": "bytes32",
          "name": "activityId",
          "type": "bytes32"
        },
        {
          "internalType": "bytes32",
          "name": "profileId",
          "type": "bytes32"
        },
        {
          "internalType": "bytes32",
          "name": "areaId",
          "type": "bytes32"
        },
        {
          "internalType": "string",
          "name": "gps",
          "type": "string"
        },
        {
          "internalType": "string",
          "name": "remarks",
          "type": "string"
        },
        {
          "internalType": "bool",
          "name": "isActive",
          "type": "bool"
        },
        {
          "internalType": "string",
          "name": "customJsonData",
          "type": "string"
        }
      ],
      "stateMutability": "view",
      "type": "function"
    }
  ],
  "bytecode": "0x60806040526001601260006101000a81548160ff021916908360ff16021790555034801561002c57600080fd5b50617a26806200003d6000396000f3fe608060405234801561001057600080fd5b50600436106102895760003560e01c80637bcb20b01161015c578063b59d5cfd116100ce578063d63098dd11610087578063d63098dd14613c28578063d911f55314613c6a578063e85bf15714613df9578063e8d7226914613e3b578063ea2ad7da14613fab578063ee2a11ee146140ce57610289565b8063b59d5cfd14613554578063b64e9f591461367e578063bdd1a133146136c0578063c7213d81146137e3578063cb51bba914613a80578063d2192dbf14613ac257610289565b806392bbaf401161012057806392bbaf4014612e3c578063986deb9a14612e7e57806398ed240c14612ec05780639f71bcdc14613030578063b1561299146132cb578063b224b4e9146133ee57610289565b80637bcb20b0146127935780637dce56ad146127d55780637e71caf414612a055780638599e25e14612bb057806386ed191314612cca57610289565b80634fdf1dc1116102005780635ea57703116101b95780635ea5770314611cc55780636a18a8ea14611ea35780636aa6443b1461226c5780636c72bcb31461238f5780636e5ca08e14612501578063714916401461266957610289565b80634fdf1dc11461111b57806351a729331461131857806354fd4d50146114425780635936f96e146114635780635ba8c2941461182f5780635dbfeeda14611a9d57610289565b8063100b6ba211610252578063100b6ba2146109395780632499c6a614610acf57806331a3fc6e14610c37578063395c211114610dc657806339e7d4cd14610e085780633df9601a14610f7057610289565b80621f5bd21461028e5780630114cf0a146103b8578063037f6ab41461066e5780630a1bb26a146107d45780630f0d3da514610816575b600080fd5b6102ba600480360360208110156102a457600080fd5b81019080803590602001909291905050506142cd565b6040518086815260200180602001858152602001841515815260200180602001838103835287818151815260200191508051906020019080838360005b838110156103125780820151818401526020810190506102f7565b50505050905090810190601f16801561033f5780820380516001836020036101000a031916815260200191505b50838103825284818151815260200191508051906020019080838360005b8381101561037857808201518184015260208101905061035d565b50505050905090810190601f1680156103a55780820380516001836020036101000a031916815260200191505b5097505050505050505060405180910390f35b6103e4600480360360208110156103ce57600080fd5b810190808035906020019092919050505061445d565b604051808a8152602001806020018060200180602001806020018060200189815260200188151581526020018060200187810387528f818151815260200191508051906020019080838360005b8381101561044c578082015181840152602081019050610431565b50505050905090810190601f1680156104795780820380516001836020036101000a031916815260200191505b5087810386528e818151815260200191508051906020019080838360005b838110156104b2578082015181840152602081019050610497565b50505050905090810190601f1680156104df5780820380516001836020036101000a031916815260200191505b5087810385528d818151815260200191508051906020019080838360005b838110156105185780820151818401526020810190506104fd565b50505050905090810190601f1680156105455780820380516001836020036101000a031916815260200191505b5087810384528c818151815260200191508051906020019080838360005b8381101561057e578082015181840152602081019050610563565b50505050905090810190601f1680156105ab5780820380516001836020036101000a031916815260200191505b5087810383528b818151815260200191508051906020019060200280838360005b838110156105e75780820151818401526020810190506105cc565b50505050905001878103825288818151815260200191508051906020019080838360005b8381101561062657808201518184015260208101905061060b565b50505050905090810190601f1680156106535780820380516001836020036101000a031916815260200191505b509f5050505050505050505050505050505060405180910390f35b6107be6004803603604081101561068457600080fd5b81019080803590602001906401000000008111156106a157600080fd5b8201836020820111156106b357600080fd5b803590602001918460018302840111640100000000831117156106d557600080fd5b91908080601f016020809104026020016040519081016040528093929190818152602001838380828437600081840152601f19601f8201169050808301925050505050505091929192908035906020019064010000000081111561073857600080fd5b82018360208201111561074a57600080fd5b8035906020019184600183028401116401000000008311171561076c57600080fd5b91908080601f016020809104026020016040519081016040528093929190818152602001838380828437600081840152601f19601f820116905080830192505050505050509192919290505050614835565b6040518082815260200191505060405180910390f35b610800600480360360208110156107ea57600080fd5b8101908080359060200190929190505050614942565b6040518082815260200191505060405180910390f35b6108426004803603602081101561082c57600080fd5b8101908080359060200190929190505050614966565b6040518085815260200180602001841515815260200180602001838103835286818151815260200191508051906020019080838360005b83811015610894578082015181840152602081019050610879565b50505050905090810190601f1680156108c15780820380516001836020036101000a031916815260200191505b50838103825284818151815260200191508051906020019080838360005b838110156108fa5780820151818401526020810190506108df565b50505050905090810190601f1680156109275780820380516001836020036101000a031916815260200191505b50965050505050505060405180910390f35b6109656004803603602081101561094f57600080fd5b8101908080359060200190929190505050614ad3565b604051808781526020018681526020018060200180602001851515815260200180602001848103845288818151815260200191508051906020019080838360005b838110156109c15780820151818401526020810190506109a6565b50505050905090810190601f1680156109ee5780820380516001836020036101000a031916815260200191505b50848103835287818151815260200191508051906020019080838360005b83811015610a27578082015181840152602081019050610a0c565b50505050905090810190601f168015610a545780820380516001836020036101000a031916815260200191505b50848103825285818151815260200191508051906020019080838360005b83811015610a8d578082015181840152602081019050610a72565b50505050905090810190601f168015610aba5780820380516001836020036101000a031916815260200191505b50995050505050505050505060405180910390f35b610c3560048036036080811015610ae557600080fd5b810190808035906020019092919080359060200190640100000000811115610b0c57600080fd5b820183602082011115610b1e57600080fd5b80359060200191846001830284011164010000000083111715610b4057600080fd5b91908080601f016020809104026020016040519081016040528093929190818152602001838380828437600081840152601f19601f82011690508083019250505050505050919291929080359060200190640100000000811115610ba357600080fd5b820183602082011115610bb557600080fd5b80359060200191846001830284011164010000000083111715610bd757600080fd5b91908080601f016020809104026020016040519081016040528093929190818152602001838380828437600081840152601f19601f820116905080830192505050505050509192919290803515159060200190929190505050614ce4565b005b610c6360048036036020811015610c4d57600080fd5b8101908080359060200190929190505050614d86565b604051808681526020018060200180602001851515815260200180602001848103845288818151815260200191508051906020019080838360005b83811015610cb9578082015181840152602081019050610c9e565b50505050905090810190601f168015610ce65780820380516001836020036101000a031916815260200191505b50848103835287818151815260200191508051906020019080838360005b83811015610d1f578082015181840152602081019050610d04565b50505050905090810190601f168015610d4c5780820380516001836020036101000a031916815260200191505b50848103825285818151815260200191508051906020019080838360005b83811015610d85578082015181840152602081019050610d6a565b50505050905090810190601f168015610db25780820380516001836020036101000a031916815260200191505b509850505050505050505060405180910390f35b610df260048036036020811015610ddc57600080fd5b8101908080359060200190929190505050614f91565b6040518082815260200191505060405180910390f35b610f6e60048036036080811015610e1e57600080fd5b810190808035906020019092919080359060200190640100000000811115610e4557600080fd5b820183602082011115610e5757600080fd5b80359060200191846001830284011164010000000083111715610e7957600080fd5b91908080601f016020809104026020016040519081016040528093929190818152602001838380828437600081840152601f19601f82011690508083019250505050505050919291929080359060200190640100000000811115610edc57600080fd5b820183602082011115610eee57600080fd5b80359060200191846001830284011164010000000083111715610f1057600080fd5b91908080601f016020809104026020016040519081016040528093929190818152602001838380828437600081840152601f19601f820116905080830192505050505050509192919290803515159060200190929190505050614fb5565b005b610f9c60048036036020811015610f8657600080fd5b8101908080359060200190929190505050615058565b604051808a81526020018981526020018881526020018781526020018681526020018060200180602001851515815260200180602001848103845288818151815260200191508051906020019080838360005b8381101561100a578082015181840152602081019050610fef565b50505050905090810190601f1680156110375780820380516001836020036101000a031916815260200191505b50848103835287818151815260200191508051906020019080838360005b83811015611070578082015181840152602081019050611055565b50505050905090810190601f16801561109d5780820380516001836020036101000a031916815260200191505b50848103825285818151815260200191508051906020019080838360005b838110156110d65780820151818401526020810190506110bb565b50505050905090810190601f1680156111035780820380516001836020036101000a031916815260200191505b509c5050505050505050505050505060405180910390f35b6113026004803603606081101561113157600080fd5b810190808035906020019064010000000081111561114e57600080fd5b82018360208201111561116057600080fd5b8035906020019184600183028401116401000000008311171561118257600080fd5b91908080601f016020809104026020016040519081016040528093929190818152602001838380828437600081840152601f19601f820116905080830192505050505050509192919290803590602001906401000000008111156111e557600080fd5b8201836020820111156111f757600080fd5b8035906020019184600183028401116401000000008311171561121957600080fd5b91908080601f016020809104026020016040519081016040528093929190818152602001838380828437600081840152601f19601f8201169050808301925050505050505091929192908035906020019064010000000081111561127c57600080fd5b82018360208201111561128e57600080fd5b803590602001918460018302840111640100000000831117156112b057600080fd5b91908080601f016020809104026020016040519081016040528093929190818152602001838380828437600081840152601f19601f82011690508083019250505050505050919291929050505061527b565b6040518082815260200191505060405180910390f35b6113446004803603602081101561132e57600080fd5b81019080803590602001909291905050506153a3565b6040518086815260200180602001858152602001841515815260200180602001838103835287818151815260200191508051906020019080838360005b8381101561139c578082015181840152602081019050611381565b50505050905090810190601f1680156113c95780820380516001836020036101000a031916815260200191505b50838103825284818151815260200191508051906020019080838360005b838110156114025780820151818401526020810190506113e7565b50505050905090810190601f16801561142f5780820380516001836020036101000a031916815260200191505b5097505050505050505060405180910390f35b61144a615533565b604051808260ff16815260200191505060405180910390f35b61182d600480360361012081101561147a57600080fd5b8101908080359060200190929190803590602001906401000000008111156114a157600080fd5b8201836020820111156114b357600080fd5b803590602001918460018302840111640100000000831117156114d557600080fd5b91908080601f016020809104026020016040519081016040528093929190818152602001838380828437600081840152601f19601f8201169050808301925050505050505091929192908035906020019064010000000081111561153857600080fd5b82018360208201111561154a57600080fd5b8035906020019184600183028401116401000000008311171561156c57600080fd5b91908080601f016020809104026020016040519081016040528093929190818152602001838380828437600081840152601f19601f820116905080830192505050505050509192919290803590602001906401000000008111156115cf57600080fd5b8201836020820111156115e157600080fd5b8035906020019184600183028401116401000000008311171561160357600080fd5b91908080601f016020809104026020016040519081016040528093929190818152602001838380828437600081840152601f19601f8201169050808301925050505050505091929192908035906020019064010000000081111561166657600080fd5b82018360208201111561167857600080fd5b8035906020019184600183028401116401000000008311171561169a57600080fd5b91908080601f016020809104026020016040519081016040528093929190818152602001838380828437600081840152601f19601f820116905080830192505050505050509192919290803590602001906401000000008111156116fd57600080fd5b82018360208201111561170f57600080fd5b8035906020019184602083028401116401000000008311171561173157600080fd5b919080806020026020016040519081016040528093929190818152602001838360200280828437600081840152601f19601f820116905080830192505050505050509192919290803590602001909291908035906020019064010000000081111561179b57600080fd5b8201836020820111156117ad57600080fd5b803590602001918460018302840111640100000000831117156117cf57600080fd5b91908080601f016020809104026020016040519081016040528093929190818152602001838380828437600081840152601f19601f820116905080830192505050505050509192919290803515159060200190929190505050615546565b005b61185b6004803603602081101561184557600080fd5b810190808035906020019092919050505061565b565b604051808981526020018060200180602001806020018060200188815260200187151581526020018060200186810386528d818151815260200191508051906020019080838360005b838110156118bf5780820151818401526020810190506118a4565b50505050905090810190601f1680156118ec5780820380516001836020036101000a031916815260200191505b5086810385528c818151815260200191508051906020019080838360005b8381101561192557808201518184015260208101905061190a565b50505050905090810190601f1680156119525780820380516001836020036101000a031916815260200191505b5086810384528b818151815260200191508051906020019080838360005b8381101561198b578082015181840152602081019050611970565b50505050905090810190601f1680156119b85780820380516001836020036101000a031916815260200191505b5086810383528a818151815260200191508051906020019080838360005b838110156119f15780820151818401526020810190506119d6565b50505050905090810190601f168015611a1e5780820380516001836020036101000a031916815260200191505b50868103825287818151815260200191508051906020019080838360005b83811015611a57578082015181840152602081019050611a3c565b50505050905090810190601f168015611a845780820380516001836020036101000a031916815260200191505b509d505050505050505050505050505060405180910390f35b611cc36004803603610120811015611ab457600080fd5b81019080803590602001909291908035906020019092919080359060200190929190803590602001909291908035906020019092919080359060200190640100000000811115611b0357600080fd5b820183602082011115611b1557600080fd5b80359060200191846001830284011164010000000083111715611b3757600080fd5b91908080601f016020809104026020016040519081016040528093929190818152602001838380828437600081840152601f19601f82011690508083019250505050505050919291929080359060200190640100000000811115611b9a57600080fd5b820183602082011115611bac57600080fd5b80359060200191846001830284011164010000000083111715611bce57600080fd5b91908080601f016020809104026020016040519081016040528093929190818152602001838380828437600081840152601f19601f82011690508083019250505050505050919291929080359060200190640100000000811115611c3157600080fd5b820183602082011115611c4357600080fd5b80359060200191846001830284011164010000000083111715611c6557600080fd5b91908080601f016020809104026020016040519081016040528093929190818152602001838380828437600081840152601f19601f8201169050808301925050505050505091929192908035151590602001909291905050506159a8565b005b611cf160048036036020811015611cdb57600080fd5b8101908080359060200190929190505050615a96565b6040518088815260200187815260200180602001806020018060200186151581526020018060200185810385528a818151815260200191508051906020019080838360005b83811015611d51578082015181840152602081019050611d36565b50505050905090810190601f168015611d7e5780820380516001836020036101000a031916815260200191505b50858103845289818151815260200191508051906020019080838360005b83811015611db7578082015181840152602081019050611d9c565b50505050905090810190601f168015611de45780820380516001836020036101000a031916815260200191505b50858103835288818151815260200191508051906020019060200280838360005b83811015611e20578082015181840152602081019050611e05565b50505050905001858103825286818151815260200191508051906020019080838360005b83811015611e5f578082015181840152602081019050611e44565b50505050905090810190601f168015611e8c5780820380516001836020036101000a031916815260200191505b509b50505050505050505050505060405180910390f35b612256600480360360e0811015611eb957600080fd5b8101908080359060200190640100000000811115611ed657600080fd5b820183602082011115611ee857600080fd5b80359060200191846001830284011164010000000083111715611f0a57600080fd5b91908080601f016020809104026020016040519081016040528093929190818152602001838380828437600081840152601f19601f82011690508083019250505050505050919291929080359060200190640100000000811115611f6d57600080fd5b820183602082011115611f7f57600080fd5b80359060200191846001830284011164010000000083111715611fa157600080fd5b91908080601f016020809104026020016040519081016040528093929190818152602001838380828437600081840152601f19601f8201169050808301925050505050505091929192908035906020019064010000000081111561200457600080fd5b82018360208201111561201657600080fd5b8035906020019184600183028401116401000000008311171561203857600080fd5b91908080601f016020809104026020016040519081016040528093929190818152602001838380828437600081840152601f19601f8201169050808301925050505050505091929192908035906020019064010000000081111561209b57600080fd5b8201836020820111156120ad57600080fd5b803590602001918460018302840111640100000000831117156120cf57600080fd5b91908080601f016020809104026020016040519081016040528093929190818152602001838380828437600081840152601f19601f8201169050808301925050505050505091929192908035906020019064010000000081111561213257600080fd5b82018360208201111561214457600080fd5b8035906020019184602083028401116401000000008311171561216657600080fd5b919080806020026020016040519081016040528093929190818152602001838360200280828437600081840152601f19601f82011690508083019250505050505050919291929080359060200190929190803590602001906401000000008111156121d057600080fd5b8201836020820111156121e257600080fd5b8035906020019184600183028401116401000000008311171561220457600080fd5b91908080601f016020809104026020016040519081016040528093929190818152602001838380828437600081840152601f19601f820116905080830192505050505050509192919290505050615d25565b6040518082815260200191505060405180910390f35b6122986004803603602081101561228257600080fd5b8101908080359060200190929190505050615ea5565b6040518085815260200180602001841515815260200180602001838103835286818151815260200191508051906020019080838360005b838110156122ea5780820151818401526020810190506122cf565b50505050905090810190601f1680156123175780820380516001836020036101000a031916815260200191505b50838103825284818151815260200191508051906020019080838360005b83811015612350578082015181840152602081019050612335565b50505050905090810190601f16801561237d5780820380516001836020036101000a031916815260200191505b50965050505050505060405180910390f35b6124ff600480360360a08110156123a557600080fd5b8101908080359060200190929190803590602001906401000000008111156123cc57600080fd5b8201836020820111156123de57600080fd5b8035906020019184600183028401116401000000008311171561240057600080fd5b91908080601f016020809104026020016040519081016040528093929190818152602001838380828437600081840152601f19601f820116905080830192505050505050509192919290803590602001909291908035906020019064010000000081111561246d57600080fd5b82018360208201111561247f57600080fd5b803590602001918460018302840111640100000000831117156124a157600080fd5b91908080601f016020809104026020016040519081016040528093929190818152602001838380828437600081840152601f19601f820116905080830192505050505050509192919290803515159060200190929190505050616012565b005b6126676004803603608081101561251757600080fd5b81019080803590602001909291908035906020019064010000000081111561253e57600080fd5b82018360208201111561255057600080fd5b8035906020019184600183028401116401000000008311171561257257600080fd5b91908080601f016020809104026020016040519081016040528093929190818152602001838380828437600081840152601f19601f820116905080830192505050505050509192919290803590602001906401000000008111156125d557600080fd5b8201836020820111156125e757600080fd5b8035906020019184600183028401116401000000008311171561260957600080fd5b91908080601f016020809104026020016040519081016040528093929190818152602001838380828437600081840152601f19601f8201169050808301925050505050505091929192908035151590602001909291905050506160bf565b005b6126956004803603602081101561267f57600080fd5b8101908080359060200190929190505050616162565b6040518086815260200180602001858152602001841515815260200180602001838103835287818151815260200191508051906020019080838360005b838110156126ed5780820151818401526020810190506126d2565b50505050905090810190601f16801561271a5780820380516001836020036101000a031916815260200191505b50838103825284818151815260200191508051906020019080838360005b83811015612753578082015181840152602081019050612738565b50505050905090810190601f1680156127805780820380516001836020036101000a031916815260200191505b5097505050505050505060405180910390f35b6127bf600480360360208110156127a957600080fd5b81019080803590602001909291905050506162d5565b6040518082815260200191505060405180910390f35b6129ef60048036036101008110156127ec57600080fd5b8101908080359060200190929190803590602001909291908035906020019092919080359060200190929190803590602001909291908035906020019064010000000081111561283b57600080fd5b82018360208201111561284d57600080fd5b8035906020019184600183028401116401000000008311171561286f57600080fd5b91908080601f016020809104026020016040519081016040528093929190818152602001838380828437600081840152601f19601f820116905080830192505050505050509192919290803590602001906401000000008111156128d257600080fd5b8201836020820111156128e457600080fd5b8035906020019184600183028401116401000000008311171561290657600080fd5b91908080601f016020809104026020016040519081016040528093929190818152602001838380828437600081840152601f19601f8201169050808301925050505050505091929192908035906020019064010000000081111561296957600080fd5b82018360208201111561297b57600080fd5b8035906020019184600183028401116401000000008311171561299d57600080fd5b91908080601f016020809104026020016040519081016040528093929190818152602001838380828437600081840152601f19601f8201169050808301925050505050505091929192905050506162f9565b6040518082815260200191505060405180910390f35b612a3160048036036020811015612a1b57600080fd5b810190808035906020019092919050505061644a565b604051808a81526020018981526020018881526020018781526020018681526020018060200180602001851515815260200180602001848103845288818151815260200191508051906020019080838360005b83811015612a9f578082015181840152602081019050612a84565b50505050905090810190601f168015612acc5780820380516001836020036101000a031916815260200191505b50848103835287818151815260200191508051906020019080838360005b83811015612b05578082015181840152602081019050612aea565b50505050905090810190601f168015612b325780820380516001836020036101000a031916815260200191505b50848103825285818151815260200191508051906020019080838360005b83811015612b6b578082015181840152602081019050612b50565b50505050905090810190601f168015612b985780820380516001836020036101000a031916815260200191505b509c5050505050505050505050505060405180910390f35b612bdc60048036036020811015612bc657600080fd5b810190808035906020019092919050505061669b565b604051808481526020018060200180602001838103835285818151815260200191508051906020019080838360005b83811015612c26578082015181840152602081019050612c0b565b50505050905090810190601f168015612c535780820380516001836020036101000a031916815260200191505b50838103825284818151815260200191508051906020019080838360005b83811015612c8c578082015181840152602081019050612c71565b50505050905090810190601f168015612cb95780820380516001836020036101000a031916815260200191505b509550505050505060405180910390f35b612e3a600480360360a0811015612ce057600080fd5b810190808035906020019092919080359060200190640100000000811115612d0757600080fd5b820183602082011115612d1957600080fd5b80359060200191846001830284011164010000000083111715612d3b57600080fd5b91908080601f016020809104026020016040519081016040528093929190818152602001838380828437600081840152601f19601f8201169050808301925050505050505091929192908035906020019092919080359060200190640100000000811115612da857600080fd5b820183602082011115612dba57600080fd5b80359060200191846001830284011164010000000083111715612ddc57600080fd5b91908080601f016020809104026020016040519081016040528093929190818152602001838380828437600081840152601f19601f820116905080830192505050505050509192919290803515159060200190929190505050616809565b005b612e6860048036036020811015612e5257600080fd5b81019080803590602001909291905050506168b6565b6040518082815260200191505060405180910390f35b612eaa60048036036020811015612e9457600080fd5b81019080803590602001909291905050506168da565b6040518082815260200191505060405180910390f35b61301a60048036036060811015612ed657600080fd5b8101908080359060200190640100000000811115612ef357600080fd5b820183602082011115612f0557600080fd5b80359060200191846001830284011164010000000083111715612f2757600080fd5b91908080601f016020809104026020016040519081016040528093929190818152602001838380828437600081840152601f19601f8201169050808301925050505050505091929192908035906020019092919080359060200190640100000000811115612f9457600080fd5b820183602082011115612fa657600080fd5b80359060200191846001830284011164010000000083111715612fc857600080fd5b91908080601f016020809104026020016040519081016040528093929190818152602001838380828437600081840152601f19601f8201169050808301925050505050505091929192905050506168fe565b6040518082815260200191505060405180910390f35b6132b5600480360360a081101561304657600080fd5b810190808035906020019064010000000081111561306357600080fd5b82018360208201111561307557600080fd5b8035906020019184600183028401116401000000008311171561309757600080fd5b91908080601f016020809104026020016040519081016040528093929190818152602001838380828437600081840152601f19601f820116905080830192505050505050509192919290803590602001909291908035906020019064010000000081111561310457600080fd5b82018360208201111561311657600080fd5b8035906020019184600183028401116401000000008311171561313857600080fd5b91908080601f016020809104026020016040519081016040528093929190818152602001838380828437600081840152601f19601f8201169050808301925050505050505091929192908035906020019064010000000081111561319b57600080fd5b8201836020820111156131ad57600080fd5b803590602001918460208302840111640100000000831117156131cf57600080fd5b919080806020026020016040519081016040528093929190818152602001838360200280828437600081840152601f19601f8201169050808301925050505050505091929192908035906020019064010000000081111561322f57600080fd5b82018360208201111561324157600080fd5b8035906020019184600183028401116401000000008311171561326357600080fd5b91908080601f016020809104026020016040519081016040528093929190818152602001838380828437600081840152601f19601f820116905080830192505050505050509192919290505050616a16565b6040518082815260200191505060405180910390f35b6132f7600480360360208110156132e157600080fd5b8101908080359060200190929190505050616b62565b6040518085815260200180602001841515815260200180602001838103835286818151815260200191508051906020019080838360005b8381101561334957808201518184015260208101905061332e565b50505050905090810190601f1680156133765780820380516001836020036101000a031916815260200191505b50838103825284818151815260200191508051906020019080838360005b838110156133af578082015181840152602081019050613394565b50505050905090810190601f1680156133dc5780820380516001836020036101000a031916815260200191505b50965050505050505060405180910390f35b61353e6004803603604081101561340457600080fd5b810190808035906020019064010000000081111561342157600080fd5b82018360208201111561343357600080fd5b8035906020019184600183028401116401000000008311171561345557600080fd5b91908080601f016020809104026020016040519081016040528093929190818152602001838380828437600081840152601f19601f820116905080830192505050505050509192919290803590602001906401000000008111156134b857600080fd5b8201836020820111156134ca57600080fd5b803590602001918460018302840111640100000000831117156134ec57600080fd5b91908080601f016020809104026020016040519081016040528093929190818152602001838380828437600081840152601f19601f820116905080830192505050505050509192919290505050616ccf565b6040518082815260200191505060405180910390f35b6135806004803603602081101561356a57600080fd5b8101908080359060200190929190505050616ddd565b6040518086815260200180602001858152602001841515815260200180602001838103835287818151815260200191508051906020019080838360005b838110156135d85780820151818401526020810190506135bd565b50505050905090810190601f1680156136055780820380516001836020036101000a031916815260200191505b50838103825284818151815260200191508051906020019080838360005b8381101561363e578082015181840152602081019050613623565b50505050905090810190601f16801561366b5780820380516001836020036101000a031916815260200191505b5097505050505050505060405180910390f35b6136aa6004803603602081101561369457600080fd5b8101908080359060200190929190505050616f50565b6040518082815260200191505060405180910390f35b6136ec600480360360208110156136d657600080fd5b8101908080359060200190929190505050616f74565b6040518085815260200180602001841515815260200180602001838103835286818151815260200191508051906020019080838360005b8381101561373e578082015181840152602081019050613723565b50505050905090810190601f16801561376b5780820380516001836020036101000a031916815260200191505b50838103825284818151815260200191508051906020019080838360005b838110156137a4578082015181840152602081019050613789565b50505050905090810190601f1680156137d15780820380516001836020036101000a031916815260200191505b50965050505050505060405180910390f35b613a7e600480360360e08110156137f957600080fd5b81019080803590602001909291908035906020019064010000000081111561382057600080fd5b82018360208201111561383257600080fd5b8035906020019184600183028401116401000000008311171561385457600080fd5b91908080601f016020809104026020016040519081016040528093929190818152602001838380828437600081840152601f19601f82011690508083019250505050505050919291929080359060200190929190803590602001906401000000008111156138c157600080fd5b8201836020820111156138d357600080fd5b803590602001918460018302840111640100000000831117156138f557600080fd5b91908080601f016020809104026020016040519081016040528093929190818152602001838380828437600081840152601f19601f8201169050808301925050505050505091929192908035906020019064010000000081111561395857600080fd5b82018360208201111561396a57600080fd5b8035906020019184602083028401116401000000008311171561398c57600080fd5b919080806020026020016040519081016040528093929190818152602001838360200280828437600081840152601f19601f820116905080830192505050505050509192919290803590602001906401000000008111156139ec57600080fd5b8201836020820111156139fe57600080fd5b80359060200191846001830284011164010000000083111715613a2057600080fd5b91908080601f016020809104026020016040519081016040528093929190818152602001838380828437600081840152601f19601f8201169050808301925050505050505091929192908035151590602001909291905050506170fa565b005b613aac60048036036020811015613a9657600080fd5b81019080803590602001909291905050506171db565b6040518082815260200191505060405180910390f35b613c1260048036036040811015613ad857600080fd5b8101908080359060200190640100000000811115613af557600080fd5b820183602082011115613b0757600080fd5b80359060200191846001830284011164010000000083111715613b2957600080fd5b91908080601f016020809104026020016040519081016040528093929190818152602001838380828437600081840152601f19601f82011690508083019250505050505050919291929080359060200190640100000000811115613b8c57600080fd5b820183602082011115613b9e57600080fd5b80359060200191846001830284011164010000000083111715613bc057600080fd5b91908080601f016020809104026020016040519081016040528093929190818152602001838380828437600081840152601f19601f8201169050808301925050505050505091929192905050506171ff565b6040518082815260200191505060405180910390f35b613c5460048036036020811015613c3e57600080fd5b810190808035906020019092919050505061730d565b6040518082815260200191505060405180910390f35b613c9660048036036020811015613c8057600080fd5b8101908080359060200190929190505050617331565b604051808681526020018060200180602001851515815260200180602001848103845288818151815260200191508051906020019080838360005b83811015613cec578082015181840152602081019050613cd1565b50505050905090810190601f168015613d195780820380516001836020036101000a031916815260200191505b50848103835287818151815260200191508051906020019080838360005b83811015613d52578082015181840152602081019050613d37565b50505050905090810190601f168015613d7f5780820380516001836020036101000a031916815260200191505b50848103825285818151815260200191508051906020019080838360005b83811015613db8578082015181840152602081019050613d9d565b50505050905090810190601f168015613de55780820380516001836020036101000a031916815260200191505b509850505050505050505060405180910390f35b613e2560048036036020811015613e0f57600080fd5b810190808035906020019092919050505061755c565b6040518082815260200191505060405180910390f35b613f9560048036036060811015613e5157600080fd5b8101908080359060200190640100000000811115613e6e57600080fd5b820183602082011115613e8057600080fd5b80359060200191846001830284011164010000000083111715613ea257600080fd5b91908080601f016020809104026020016040519081016040528093929190818152602001838380828437600081840152601f19601f8201169050808301925050505050505091929192908035906020019092919080359060200190640100000000811115613f0f57600080fd5b820183602082011115613f2157600080fd5b80359060200191846001830284011164010000000083111715613f4357600080fd5b91908080601f016020809104026020016040519081016040528093929190818152602001838380828437600081840152601f19601f820116905080830192505050505050509192919290505050617580565b6040518082815260200191505060405180910390f35b613fd760048036036020811015613fc157600080fd5b8101908080359060200190929190505050617698565b6040518085815260200180602001841515815260200180602001838103835286818151815260200191508051906020019080838360005b8381101561402957808201518184015260208101905061400e565b50505050905090810190601f1680156140565780820380516001836020036101000a031916815260200191505b50838103825284818151815260200191508051906020019080838360005b8381101561408f578082015181840152602081019050614074565b50505050905090810190601f1680156140bc5780820380516001836020036101000a031916815260200191505b50965050505050505060405180910390f35b6142cb600480360360a08110156140e457600080fd5b81019080803590602001909291908035906020019064010000000081111561410b57600080fd5b82018360208201111561411d57600080fd5b8035906020019184600183028401116401000000008311171561413f57600080fd5b91908080601f016020809104026020016040519081016040528093929190818152602001838380828437600081840152601f19601f820116905080830192505050505050509192919290803590602001906401000000008111156141a257600080fd5b8201836020820111156141b457600080fd5b803590602001918460018302840111640100000000831117156141d657600080fd5b91908080601f016020809104026020016040519081016040528093929190818152602001838380828437600081840152601f19601f8201169050808301925050505050505091929192908035906020019064010000000081111561423957600080fd5b82018360208201111561424b57600080fd5b8035906020019184600183028401116401000000008311171561426d57600080fd5b91908080601f016020809104026020016040519081016040528093929190818152602001838380828437600081840152601f19601f82011690508083019250505050505050919291929080351515906020019092919050505061781e565b005b600060606000806060600060026000888152602001908152602001600020905080600001548160010182600201548360030160009054906101000a900460ff1684600401838054600181600116156101000203166002900480601f0160208091040260200160405190810160405280929190818152602001828054600181600116156101000203166002900480156143a65780601f1061437b576101008083540402835291602001916143a6565b820191906000526020600020905b81548152906001019060200180831161438957829003601f168201915b50505050509350808054600181600116156101000203166002900480601f0160208091040260200160405190810160405280929190818152602001828054600181600116156101000203166002900480156144425780601f1061441757610100808354040283529160200191614442565b820191906000526020600020905b81548152906001019060200180831161442557829003601f168201915b50505050509050955095509550955095505091939590929450565b6000606080606080606060008060606000600660008c815260200190815260200160002090508060000154816001018260020183600301846004018560050186600601548760070160009054906101000a900460ff1688600801878054600181600116156101000203166002900480601f01602080910402602001604051908101604052809291908181526020018280546001816001161561010002031660029004801561454c5780601f106145215761010080835404028352916020019161454c565b820191906000526020600020905b81548152906001019060200180831161452f57829003601f168201915b50505050509750868054600181600116156101000203166002900480601f0160208091040260200160405190810160405280929190818152602001828054600181600116156101000203166002900480156145e85780601f106145bd576101008083540402835291602001916145e8565b820191906000526020600020905b8154815290600101906020018083116145cb57829003601f168201915b50505050509650858054600181600116156101000203166002900480601f0160208091040260200160405190810160405280929190818152602001828054600181600116156101000203166002900480156146845780601f1061465957610100808354040283529160200191614684565b820191906000526020600020905b81548152906001019060200180831161466757829003601f168201915b50505050509550848054600181600116156101000203166002900480601f0160208091040260200160405190810160405280929190818152602001828054600181600116156101000203166002900480156147205780601f106146f557610100808354040283529160200191614720565b820191906000526020600020905b81548152906001019060200180831161470357829003601f168201915b505050505094508380548060200260200160405190810160405280929190818152602001828054801561477257602002820191906000526020600020905b81548152602001906001019080831161475e575b50505050509350808054600181600116156101000203166002900480601f01602080910402602001604051908101604052809291908181526020018280546001816001161561010002031660029004801561480e5780601f106147e35761010080835404028352916020019161480e565b820191906000526020600020905b8154815290600101906020018083116147f157829003601f168201915b50505050509050995099509950995099509950995099509950509193959799909294969850565b600080424460405160200180838152602001828152602001925050506040516020818303038152906040528051906020012090506000806000838152602001908152602001600020905081816000018190555060018160020160006101000a81548160ff021916908315150217905550848160010190805190602001906148bd9291906178db565b50838160030190805190602001906148d69291906178db565b5060098290806001815401808255809150506001900390600052602060002001600090919091909150557f419c23ff814e3967d54e8426b09e6bb4cfe5682b082e396c591e97bcad447ba9826040518082815260200191505060405180910390a1819250505092915050565b6009818154811061495257600080fd5b906000526020600020016000915090505481565b6005602052806000526040600020600091509050806000015490806001018054600181600116156101000203166002900480601f016020809104026020016040519081016040528092919081815260200182805460018160011615610100020316600290048015614a185780601f106149ed57610100808354040283529160200191614a18565b820191906000526020600020905b8154815290600101906020018083116149fb57829003601f168201915b5050505050908060020160009054906101000a900460ff1690806003018054600181600116156101000203166002900480601f016020809104026020016040519081016040528092919081815260200182805460018160011615610100020316600290048015614ac95780601f10614a9e57610100808354040283529160200191614ac9565b820191906000526020600020905b815481529060010190602001808311614aac57829003601f168201915b5050505050905084565b6004602052806000526040600020600091509050806000015490806001015490806002018054600181600116156101000203166002900480601f016020809104026020016040519081016040528092919081815260200182805460018160011615610100020316600290048015614b8b5780601f10614b6057610100808354040283529160200191614b8b565b820191906000526020600020905b815481529060010190602001808311614b6e57829003601f168201915b505050505090806003018054600181600116156101000203166002900480601f016020809104026020016040519081016040528092919081815260200182805460018160011615610100020316600290048015614c295780601f10614bfe57610100808354040283529160200191614c29565b820191906000526020600020905b815481529060010190602001808311614c0c57829003601f168201915b5050505050908060050160009054906101000a900460ff1690806006018054600181600116156101000203166002900480601f016020809104026020016040519081016040528092919081815260200182805460018160011615610100020316600290048015614cda5780601f10614caf57610100808354040283529160200191614cda565b820191906000526020600020905b815481529060010190602001808311614cbd57829003601f168201915b5050505050905086565b6000806000868152602001908152602001600020905083816001019080519060200190614d129291906178db565b50818160020160006101000a81548160ff02191690831515021790555082816003019080519060200190614d479291906178db565b507f4c9c025c66604acf9c898ba08849a696a99176a0d78bdf6ac5111e11e14b59aa856040518082815260200191505060405180910390a15050505050565b6007602052806000526040600020600091509050806000015490806001018054600181600116156101000203166002900480601f016020809104026020016040519081016040528092919081815260200182805460018160011615610100020316600290048015614e385780601f10614e0d57610100808354040283529160200191614e38565b820191906000526020600020905b815481529060010190602001808311614e1b57829003601f168201915b505050505090806002018054600181600116156101000203166002900480601f016020809104026020016040519081016040528092919081815260200182805460018160011615610100020316600290048015614ed65780601f10614eab57610100808354040283529160200191614ed6565b820191906000526020600020905b815481529060010190602001808311614eb957829003601f168201915b5050505050908060030160009054906101000a900460ff1690806004018054600181600116156101000203166002900480601f016020809104026020016040519081016040528092919081815260200182805460018160011615610100020316600290048015614f875780601f10614f5c57610100808354040283529160200191614f87565b820191906000526020600020905b815481529060010190602001808311614f6a57829003601f168201915b5050505050905085565b60108181548110614fa157600080fd5b906000526020600020016000915090505481565b600060056000868152602001908152602001600020905083816001019080519060200190614fe49291906178db565b50818160020160006101000a81548160ff021916908315150217905550828160030190805190602001906150199291906178db565b507f5e293651729dbde44d92d54c33bc997eac7c3742e57f302f71336f176a39e4ab856040518082815260200191505060405180910390a15050505050565b6008602052806000526040600020600091509050806000015490806001015490806002015490806003015490806004015490806005018054600181600116156101000203166002900480601f0160208091040260200160405190810160405280929190818152602001828054600181600116156101000203166002900480156151225780601f106150f757610100808354040283529160200191615122565b820191906000526020600020905b81548152906001019060200180831161510557829003601f168201915b505050505090806006018054600181600116156101000203166002900480601f0160208091040260200160405190810160405280929190818152602001828054600181600116156101000203166002900480156151c05780601f10615195576101008083540402835291602001916151c0565b820191906000526020600020905b8154815290600101906020018083116151a357829003601f168201915b5050505050908060070160009054906101000a900460ff1690806008018054600181600116156101000203166002900480601f0160208091040260200160405190810160405280929190818152602001828054600181600116156101000203166002900480156152715780601f1061524657610100808354040283529160200191615271565b820191906000526020600020905b81548152906001019060200180831161525457829003601f168201915b5050505050905089565b600080424460405160200180838152602001828152602001925050506040516020818303038152906040528051906020012090506000600760008381526020019081526020016000209050818160000181905550858160010190805190602001906152e79291906178db565b50848160020190805190602001906153009291906178db565b5060018160030160006101000a81548160ff021916908315150217905550838160040190805190602001906153369291906178db565b5060108290806001815401808255809150506001900390600052602060002001600090919091909150557f6956a71484c646076551330ff66644c57e2bba15c81bbed91f80fa243c74a887826040518082815260200191505060405180910390a181925050509392505050565b600060606000806060600060016000888152602001908152602001600020905080600001548160010182600201548360030160009054906101000a900460ff1684600401838054600181600116156101000203166002900480601f01602080910402602001604051908101604052809291908181526020018280546001816001161561010002031660029004801561547c5780601f106154515761010080835404028352916020019161547c565b820191906000526020600020905b81548152906001019060200180831161545f57829003601f168201915b50505050509350808054600181600116156101000203166002900480601f0160208091040260200160405190810160405280929190818152602001828054600181600116156101000203166002900480156155185780601f106154ed57610100808354040283529160200191615518565b820191906000526020600020905b8154815290600101906020018083116154fb57829003601f168201915b50505050509050955095509550955095505091939590929450565b601260009054906101000a900460ff1681565b6000600660008b81526020019081526020016000209050888160010190805190602001906155759291906178db565b508781600201908051906020019061558e9291906178db565b50868160030190805190602001906155a79291906178db565b50858160040190805190602001906155c09291906178db565b50848160050190805190602001906155d9929190617969565b50838160060181905550818160070160006101000a81548160ff021916908315150217905550828160080190805190602001906156179291906178db565b507fbcc8547d07ccdb27400e2524da86bf5bcc4f0ef2adce334b30a704fd45f6b2538a6040518082815260200191505060405180910390a150505050505050505050565b6006602052806000526040600020600091509050806000015490806001018054600181600116156101000203166002900480601f01602080910402602001604051908101604052809291908181526020018280546001816001161561010002031660029004801561570d5780601f106156e25761010080835404028352916020019161570d565b820191906000526020600020905b8154815290600101906020018083116156f057829003601f168201915b505050505090806002018054600181600116156101000203166002900480601f0160208091040260200160405190810160405280929190818152602001828054600181600116156101000203166002900480156157ab5780601f10615780576101008083540402835291602001916157ab565b820191906000526020600020905b81548152906001019060200180831161578e57829003601f168201915b505050505090806003018054600181600116156101000203166002900480601f0160208091040260200160405190810160405280929190818152602001828054600181600116156101000203166002900480156158495780601f1061581e57610100808354040283529160200191615849565b820191906000526020600020905b81548152906001019060200180831161582c57829003601f168201915b505050505090806004018054600181600116156101000203166002900480601f0160208091040260200160405190810160405280929190818152602001828054600181600116156101000203166002900480156158e75780601f106158bc576101008083540402835291602001916158e7565b820191906000526020600020905b8154815290600101906020018083116158ca57829003601f168201915b5050505050908060060154908060070160009054906101000a900460ff1690806008018054600181600116156101000203166002900480601f01602080910402602001604051908101604052809291908181526020018280546001816001161561010002031660029004801561599e5780601f106159735761010080835404028352916020019161599e565b820191906000526020600020905b81548152906001019060200180831161598157829003601f168201915b5050505050905088565b6000600860008b8152602001908152602001600020905088816001018190555087816002018190555086816003018190555088816001018190555085816004018190555084816005019080519060200190615a049291906178db565b5083816006019080519060200190615a1d9291906178db565b50818160070160006101000a81548160ff02191690831515021790555082816008019080519060200190615a529291906178db565b507f756a4458a6731666582902acc2a9947de5acf7e820c3ed211175cb75ee52e4a98a6040518082815260200191505060405180910390a150505050505050505050565b6000806060806060600060606000600460008a81526020019081526020016000209050806000015481600101548260020183600301846004018560050160009054906101000a900460ff1686600601848054600181600116156101000203166002900480601f016020809104026020016040519081016040528092919081815260200182805460018160011615610100020316600290048015615b7a5780601f10615b4f57610100808354040283529160200191615b7a565b820191906000526020600020905b815481529060010190602001808311615b5d57829003601f168201915b50505050509450838054600181600116156101000203166002900480601f016020809104026020016040519081016040528092919081815260200182805460018160011615610100020316600290048015615c165780601f10615beb57610100808354040283529160200191615c16565b820191906000526020600020905b815481529060010190602001808311615bf957829003601f168201915b5050505050935082805480602002602001604051908101604052809291908181526020018280548015615c6857602002820191906000526020600020905b815481526020019060010190808311615c54575b50505050509250808054600181600116156101000203166002900480601f016020809104026020016040519081016040528092919081815260200182805460018160011615610100020316600290048015615d045780601f10615cd957610100808354040283529160200191615d04565b820191906000526020600020905b815481529060010190602001808311615ce757829003601f168201915b50505050509050975097509750975097509750975050919395979092949650565b60008042446040516020018083815260200182815260200192505050604051602081830303815290604052805190602001209050600060066000838152602001908152602001600020905081816000018190555089816001019080519060200190615d919291906178db565b5088816002019080519060200190615daa9291906178db565b5087816003019080519060200190615dc39291906178db565b5086816004019080519060200190615ddc9291906178db565b5085816005019080519060200190615df5929190617969565b5084816006018190555060018160070160006101000a81548160ff02191690831515021790555083816008019080519060200190615e349291906178db565b50600f8290806001815401808255809150506001900390600052602060002001600090919091909150557f98256681d42155ff34804f98e31ebed754d5480b93a9c6dabdc29d053ddb2441826040518082815260200191505060405180910390a18192505050979650505050505050565b6003602052806000526040600020600091509050806000015490806001018054600181600116156101000203166002900480601f016020809104026020016040519081016040528092919081815260200182805460018160011615610100020316600290048015615f575780601f10615f2c57610100808354040283529160200191615f57565b820191906000526020600020905b815481529060010190602001808311615f3a57829003601f168201915b5050505050908060020160009054906101000a900460ff1690806003018054600181600116156101000203166002900480601f0160208091040260200160405190810160405280929190818152602001828054600181600116156101000203166002900480156160085780601f10615fdd57610100808354040283529160200191616008565b820191906000526020600020905b815481529060010190602001808311615feb57829003601f168201915b5050505050905084565b60006001600087815260200190815260200160002090508381600201819055508481600101908051906020019061604a9291906178db565b50818160030160006101000a81548160ff0219169083151502179055508281600401908051906020019061607f9291906178db565b507f8a3906be51b7d1f5c0fde5bcd51a0f4c663bafa8250b79158f62136c0d00f237866040518082815260200191505060405180910390a1505050505050565b6000600360008681526020019081526020016000209050838160010190805190602001906160ee9291906178db565b50818160020160006101000a81548160ff021916908315150217905550828160030190805190602001906161239291906178db565b507fb17d425d710652ed2b5d27f04807e9015c9b0b3af2fe3434ccf17197f338c7fd856040518082815260200191505060405180910390a15050505050565b6002602052806000526040600020600091509050806000015490806001018054600181600116156101000203166002900480601f0160208091040260200160405190810160405280929190818152602001828054600181600116156101000203166002900480156162145780601f106161e957610100808354040283529160200191616214565b820191906000526020600020905b8154815290600101906020018083116161f757829003601f168201915b5050505050908060020154908060030160009054906101000a900460ff1690806004018054600181600116156101000203166002900480601f0160208091040260200160405190810160405280929190818152602001828054600181600116156101000203166002900480156162cb5780601f106162a0576101008083540402835291602001916162cb565b820191906000526020600020905b8154815290600101906020018083116162ae57829003601f168201915b5050505050905085565b600b81815481106162e557600080fd5b906000526020600020016000915090505481565b600080424460405160200180838152602001828152602001925050506040516020818303038152906040528051906020012090506000600860008381526020019081526020016000209050818160000181905550898160010181905550888160020181905550878160030181905550868160040181905550858160050190805190602001906163899291906178db565b50848160060190805190602001906163a29291906178db565b5060018160070160006101000a81548160ff021916908315150217905550838160080190805190602001906163d89291906178db565b5060118290806001815401808255809150506001900390600052602060002001600090919091909150557f4e084d8ddee23c9b1f462cb17dda88580da94f2a1333d40707be2ec2ce99bca1826040518082815260200191505060405180910390a1819250505098975050505050505050565b6000806000806000606080600060606000600860008c815260200190815260200160002090508060000154816001015482600201548360030154846004015485600501866006018760070160009054906101000a900460ff1688600801838054600181600116156101000203166002900480601f01602080910402602001604051908101604052809291908181526020018280546001816001161561010002031660029004801561653c5780601f106165115761010080835404028352916020019161653c565b820191906000526020600020905b81548152906001019060200180831161651f57829003601f168201915b50505050509350828054600181600116156101000203166002900480601f0160208091040260200160405190810160405280929190818152602001828054600181600116156101000203166002900480156165d85780601f106165ad576101008083540402835291602001916165d8565b820191906000526020600020905b8154815290600101906020018083116165bb57829003601f168201915b50505050509250808054600181600116156101000203166002900480601f0160208091040260200160405190810160405280929190818152602001828054600181600116156101000203166002900480156166745780601f1061664957610100808354040283529160200191616674565b820191906000526020600020905b81548152906001019060200180831161665757829003601f168201915b50505050509050995099509950995099509950995099509950509193959799909294969850565b60006060806000806000868152602001908152602001600020905080600001548160010182600301818054600181600116156101000203166002900480601f0160208091040260200160405190810160405280929190818152602001828054600181600116156101000203166002900480156167585780601f1061672d57610100808354040283529160200191616758565b820191906000526020600020905b81548152906001019060200180831161673b57829003601f168201915b50505050509150808054600181600116156101000203166002900480601f0160208091040260200160405190810160405280929190818152602001828054600181600116156101000203166002900480156167f45780601f106167c9576101008083540402835291602001916167f4565b820191906000526020600020905b8154815290600101906020018083116167d757829003601f168201915b50505050509050935093509350509193909250565b6000600260008781526020019081526020016000209050838160020181905550848160010190805190602001906168419291906178db565b50818160030160006101000a81548160ff021916908315150217905550828160040190805190602001906168769291906178db565b507f45b26663d51e9e501c400d7363e3289b674ae39502c715178017fd129d69fe37866040518082815260200191505060405180910390a1505050505050565b601181815481106168c657600080fd5b906000526020600020016000915090505481565b600e81815481106168ea57600080fd5b906000526020600020016000915090505481565b6000804244604051602001808381526020018281526020019250505060405160208183030381529060405280519060200120905060006002600083815260200190815260200160002090508181600001819055508581600101908051906020019061696a9291906178db565b5084816002018190555060018160030160006101000a81548160ff021916908315150217905550838160040190805190602001906169a99291906178db565b50600b8290806001815401808255809150506001900390600052602060002001600090919091909150557f7994ff4618f2947c574817607d7facebfdf8912b3656ac7f8d441caf7c555c9a826040518082815260200191505060405180910390a181925050509392505050565b60008042446040516020018083815260200182815260200192505050604051602081830303815290604052805190602001209050600060046000838152602001908152602001600020905081816000018190555087816002019080519060200190616a829291906178db565b5085816003019080519060200190616a9b9291906178db565b5084816004019080519060200190616ab4929190617969565b5086816001018190555060018160050160006101000a81548160ff02191690831515021790555083816006019080519060200190616af39291906178db565b50600d8290806001815401808255809150506001900390600052602060002001600090919091909150557fd72de00ac023ce28bdf5f7f9ce805bb06832bd76131a8e168591b6632164cb08826040518082815260200191505060405180910390a1819250505095945050505050565b6000602052806000526040600020600091509050806000015490806001018054600181600116156101000203166002900480601f016020809104026020016040519081016040528092919081815260200182805460018160011615610100020316600290048015616c145780601f10616be957610100808354040283529160200191616c14565b820191906000526020600020905b815481529060010190602001808311616bf757829003601f168201915b5050505050908060020160009054906101000a900460ff1690806003018054600181600116156101000203166002900480601f016020809104026020016040519081016040528092919081815260200182805460018160011615610100020316600290048015616cc55780601f10616c9a57610100808354040283529160200191616cc5565b820191906000526020600020905b815481529060010190602001808311616ca857829003601f168201915b5050505050905084565b60008042446040516020018083815260200182815260200192505050604051602081830303815290604052805190602001209050600060036000838152602001908152602001600020905081816000018190555084816001019080519060200190616d3b9291906178db565b5060018160020160006101000a81548160ff02191690831515021790555083816003019080519060200190616d719291906178db565b50600c8290806001815401808255809150506001900390600052602060002001600090919091909150557fceaa9780dd69d57f7477f4eeb327451530ffdc7e551797e9c9eac2f6c6e1705c826040518082815260200191505060405180910390a1819250505092915050565b6001602052806000526040600020600091509050806000015490806001018054600181600116156101000203166002900480601f016020809104026020016040519081016040528092919081815260200182805460018160011615610100020316600290048015616e8f5780601f10616e6457610100808354040283529160200191616e8f565b820191906000526020600020905b815481529060010190602001808311616e7257829003601f168201915b5050505050908060020154908060030160009054906101000a900460ff1690806004018054600181600116156101000203166002900480601f016020809104026020016040519081016040528092919081815260200182805460018160011615610100020316600290048015616f465780601f10616f1b57610100808354040283529160200191616f46565b820191906000526020600020905b815481529060010190602001808311616f2957829003601f168201915b5050505050905085565b600f8181548110616f6057600080fd5b906000526020600020016000915090505481565b600060606000606060006005600087815260200190815260200160002090508060000154816001018260020160009054906101000a900460ff1683600301828054600181600116156101000203166002900480601f0160208091040260200160405190810160405280929190818152602001828054600181600116156101000203166002900480156170475780601f1061701c57610100808354040283529160200191617047565b820191906000526020600020905b81548152906001019060200180831161702a57829003601f168201915b50505050509250808054600181600116156101000203166002900480601f0160208091040260200160405190810160405280929190818152602001828054600181600116156101000203166002900480156170e35780601f106170b8576101008083540402835291602001916170e3565b820191906000526020600020905b8154815290600101906020018083116170c657829003601f168201915b505050505090509450945094509450509193509193565b6000600460008981526020019081526020016000209050868160020190805190602001906171299291906178db565b508581600101819055508481600301908051906020019061714b9291906178db565b5083816004019080519060200190617164929190617969565b50818160050160006101000a81548160ff021916908315150217905550828160060190805190602001906171999291906178db565b507fd8f714b0852cafd83ecf70bc951be7f00a73c6fd484df5769f44619534ce1447886040518082815260200191505060405180910390a15050505050505050565b600d81815481106171eb57600080fd5b906000526020600020016000915090505481565b6000804244604051602001808381526020018281526020019250505060405160208183030381529060405280519060200120905060006005600083815260200190815260200160002090508181600001819055508481600101908051906020019061726b9291906178db565b5060018160020160006101000a81548160ff021916908315150217905550838160030190805190602001906172a19291906178db565b50600e8290806001815401808255809150506001900390600052602060002001600090919091909150557f41ae852bd4986bdb048f0e9fe3e32c8d368d22693a4853f4bb5d6eb35f563f7a826040518082815260200191505060405180910390a1819250505092915050565b600c818154811061731d57600080fd5b906000526020600020016000915090505481565b6000606080600060606000600760008881526020019081526020016000209050806000015481600101826002018360030160009054906101000a900460ff1684600401838054600181600116156101000203166002900480601f0160208091040260200160405190810160405280929190818152602001828054600181600116156101000203166002900480156174095780601f106173de57610100808354040283529160200191617409565b820191906000526020600020905b8154815290600101906020018083116173ec57829003601f168201915b50505050509350828054600181600116156101000203166002900480601f0160208091040260200160405190810160405280929190818152602001828054600181600116156101000203166002900480156174a55780601f1061747a576101008083540402835291602001916174a5565b820191906000526020600020905b81548152906001019060200180831161748857829003601f168201915b50505050509250808054600181600116156101000203166002900480601f0160208091040260200160405190810160405280929190818152602001828054600181600116156101000203166002900480156175415780601f1061751657610100808354040283529160200191617541565b820191906000526020600020905b81548152906001019060200180831161752457829003601f168201915b50505050509050955095509550955095505091939590929450565b600a818154811061756c57600080fd5b906000526020600020016000915090505481565b600080424460405160200180838152602001828152602001925050506040516020818303038152906040528051906020012090506000600160008381526020019081526020016000209050818160000181905550858160010190805190602001906175ec9291906178db565b5084816002018190555060018160030160006101000a81548160ff0219169083151502179055508381600401908051906020019061762b9291906178db565b50600a8290806001815401808255809150506001900390600052602060002001600090919091909150557f8c7030962ef212931d701bb102293b6046a82938c9fa09296a6ee14c53f14ee6826040518082815260200191505060405180910390a181925050509392505050565b600060606000606060006003600087815260200190815260200160002090508060000154816001018260020160009054906101000a900460ff1683600301828054600181600116156101000203166002900480601f01602080910402602001604051908101604052809291908181526020018280546001816001161561010002031660029004801561776b5780601f106177405761010080835404028352916020019161776b565b820191906000526020600020905b81548152906001019060200180831161774e57829003601f168201915b50505050509250808054600181600116156101000203166002900480601f0160208091040260200160405190810160405280929190818152602001828054600181600116156101000203166002900480156178075780601f106177dc57610100808354040283529160200191617807565b820191906000526020600020905b8154815290600101906020018083116177ea57829003601f168201915b505050505090509450945094509450509193509193565b60006007600087815260200190815260200160002090508481600101908051906020019061784d9291906178db565b50838160020190805190602001906178669291906178db565b50818160030160006101000a81548160ff0219169083151502179055508281600401908051906020019061789b9291906178db565b507f92c15e0894dd3cf13d80c462af158bcca92516d4cf13e2e2763e16d5e99b5528866040518082815260200191505060405180910390a1505050505050565b828054600181600116156101000203166002900490600052602060002090601f0160209004810192826179115760008555617958565b82601f1061792a57805160ff1916838001178555617958565b82800160010185558215617958579182015b8281111561795757825182559160200191906001019061793c565b5b50905061796591906179b6565b5090565b8280548282559060005260206000209081019282156179a5579160200282015b828111156179a4578251825591602001919060010190617989565b5b5090506179b291906179d3565b5090565b5b808211156179cf5760008160009055506001016179b7565b5090565b5b808211156179ec5760008160009055506001016179d4565b509056fea2646970667358221220bb852f80f230f7bc11ddbb3400a26ef8c7c9a9116838536327facc22411bb21f64736f6c63430007040033",
  "immutableReferences": {},
  "source": "pragma solidity ^0.7.4;\r\n\r\nimport \"./SupplyChainModels.sol\";\r\nimport \"./SupplyChainEvents.sol\";\r\n\r\ncontract SupplyChain is SupplyChainModels, SupplyChainEvents {\r\n    uint8 public version = 1;\r\n\r\n    /*\r\n        Organization Type\r\n    */\r\n    function createOrganizationType(\r\n        string memory _name,\r\n        string memory _customJsonData\r\n    ) public returns (bytes32 objId) {\r\n        bytes32 newId =\r\n            keccak256(abi.encodePacked(block.timestamp, block.difficulty));\r\n\r\n        OrganizationType storage obj = organizationTypeMap[newId];\r\n        obj.organizationTypeId = newId;\r\n        obj.isActive = true;\r\n        obj.name = _name;\r\n        obj.customJsonData = _customJsonData;\r\n\r\n        organizationTypeIds.push(newId);\r\n\r\n        emit OrganizationTypeCreated(newId);\r\n        return (newId);\r\n    }\r\n\r\n    function updateOrganizationType(\r\n        bytes32 objId,\r\n        string memory _name,\r\n        string memory _customJsonData,\r\n        bool _isActive\r\n    ) public {\r\n        OrganizationType storage obj = organizationTypeMap[objId];\r\n        obj.name = _name;\r\n        obj.isActive = _isActive;\r\n        obj.customJsonData = _customJsonData;\r\n\r\n        emit OrganizationTypeUpdated(objId);\r\n    }\r\n\r\n    function getOrganizationTypeById(bytes32 objId)\r\n        public\r\n        view\r\n        returns (\r\n            bytes32 id,\r\n            string memory name,\r\n            string memory customJsonData\r\n        )\r\n    {\r\n        OrganizationType storage obj = organizationTypeMap[objId];\r\n        return (obj.organizationTypeId, obj.name, obj.customJsonData);\r\n    }\r\n\r\n    // /*\r\n    //     Organization\r\n    // */\r\n    // function createOrganization(\r\n    //     string memory _name,\r\n    //     bytes32[] memory _organizationTypeIdList,\r\n    //     string memory _organizationAddress,\r\n    //     string memory _customJsonData\r\n    // ) public returns (bytes32 objId) {\r\n    //     bytes32 newId =\r\n    //         keccak256(abi.encodePacked(block.timestamp, block.difficulty));\r\n\r\n    //     Organization storage obj = organizationMap[newId];\r\n    //     obj.organizationId = newId;\r\n    //     obj.organizationTypeIdList = _organizationTypeIdList;\r\n    //     obj.isActive = true;\r\n    //     obj.organizationAddress = _organizationAddress;\r\n    //     obj.name = _name;\r\n    //     obj.customJsonData = _customJsonData;\r\n\r\n    //     organizationIds.push(newId);\r\n\r\n    //     emit OrganizationCreated(newId);\r\n    //     return (newId);\r\n    // }\r\n\r\n    // function updateOrganization(\r\n    //     bytes32 objId,\r\n    //     string memory _name,\r\n    //     bytes32[] memory _organizationTypeIdList,\r\n    //     string memory _organizationAddress,\r\n    //     string memory _customJsonData,\r\n    //     bool _isActive\r\n    // ) public {\r\n    //     Organization storage obj = organizationMap[objId];\r\n    //     obj.organizationTypeIdList = _organizationTypeIdList;\r\n    //     obj.organizationAddress = _organizationAddress;\r\n    //     obj.name = _name;\r\n    //     obj.isActive = _isActive;\r\n    //     obj.customJsonData = _customJsonData;\r\n\r\n    //     emit OrganizationUpdated(objId);\r\n    // }\r\n\r\n    // function getOrganizationById(bytes32 objId)\r\n    //     public\r\n    //     view\r\n    //     returns (\r\n    //         bytes32 id,\r\n    //         string memory name,\r\n    //         bytes32[] memory organizationTypeIdList,\r\n    //         bool isActive,\r\n    //         string memory customJsonData\r\n    //     )\r\n    // {\r\n    //     Organization storage obj = organizationMap[objId];\r\n    //     return (\r\n    //         obj.organizationId,\r\n    //         obj.name,\r\n    //         obj.organizationTypeIdList,\r\n    //         obj.isActive,\r\n    //         obj.customJsonData\r\n    //     );\r\n    // }\r\n\r\n    /*\r\n        Activity\r\n    */\r\n    function createActivity(\r\n        string memory _name,\r\n        bytes32 _organizationTypeId,\r\n        string memory _customJsonData\r\n    ) public returns (bytes32 objId) {\r\n        bytes32 newId =\r\n            keccak256(abi.encodePacked(block.timestamp, block.difficulty));\r\n\r\n        Activity storage obj = activityMap[newId];\r\n        obj.activityId = newId;\r\n        obj.name = _name;\r\n        obj.organizationTypeId = _organizationTypeId;\r\n        obj.isActive = true;\r\n        obj.customJsonData = _customJsonData;\r\n\r\n        activityIds.push(newId);\r\n\r\n        emit ActivityCreated(newId);\r\n        return (newId);\r\n    }\r\n\r\n    function updateActivity(\r\n        bytes32 objId,\r\n        string memory _name,\r\n        bytes32 _organizationTypeId,\r\n        string memory _customJsonData,\r\n        bool _isActive\r\n    ) public {\r\n        Activity storage obj = activityMap[objId];\r\n        obj.organizationTypeId = _organizationTypeId;\r\n        obj.name = _name;\r\n        obj.isActive = _isActive;\r\n        obj.customJsonData = _customJsonData;\r\n\r\n        emit ActivityUpdated(objId);\r\n    }\r\n\r\n    function getActivityById(bytes32 objId)\r\n        public\r\n        view\r\n        returns (\r\n            bytes32 id,\r\n            string memory name,\r\n            bytes32 organizationTypeId,\r\n            bool isActive,\r\n            string memory customJsonData\r\n        )\r\n    {\r\n        Activity storage obj = activityMap[objId];\r\n        return (\r\n            obj.activityId,\r\n            obj.name,\r\n            obj.organizationTypeId,\r\n            obj.isActive,\r\n            obj.customJsonData\r\n        );\r\n    }\r\n\r\n    /*\r\n        Area\r\n    */\r\n    function createArea(\r\n        string memory _name,\r\n        bytes32 _organizationId,\r\n        string memory _customJsonData\r\n    ) public returns (bytes32 objId) {\r\n        bytes32 newId =\r\n            keccak256(abi.encodePacked(block.timestamp, block.difficulty));\r\n\r\n        Area storage obj = areaMap[newId];\r\n        obj.areaId = newId;\r\n        obj.name = _name;\r\n        obj.organizationId = _organizationId;\r\n        obj.isActive = true;\r\n        obj.customJsonData = _customJsonData;\r\n\r\n        areaIds.push(newId);\r\n\r\n        emit AreaCreated(newId);\r\n        return (newId);\r\n    }\r\n\r\n    function updateArea(\r\n        bytes32 objId,\r\n        string memory _name,\r\n        bytes32 _organizationId,\r\n        string memory _customJsonData,\r\n        bool _isActive\r\n    ) public {\r\n        Area storage obj = areaMap[objId];\r\n        obj.organizationId = _organizationId;\r\n        obj.name = _name;\r\n        obj.isActive = _isActive;\r\n        obj.customJsonData = _customJsonData;\r\n\r\n        emit AreaUpdated(objId);\r\n    }\r\n\r\n    function getAreaById(bytes32 objId)\r\n        public\r\n        view\r\n        returns (\r\n            bytes32 id,\r\n            string memory name,\r\n            bytes32 organizationId,\r\n            bool isActive,\r\n            string memory customJsonData\r\n        )\r\n    {\r\n        Area storage obj = areaMap[objId];\r\n        return (\r\n            obj.areaId,\r\n            obj.name,\r\n            obj.organizationId,\r\n            obj.isActive,\r\n            obj.customJsonData\r\n        );\r\n    }\r\n\r\n    /*\r\n        Category\r\n    */\r\n    function createCategory(string memory _name, string memory _customJsonData)\r\n        public\r\n        returns (bytes32 objId)\r\n    {\r\n        bytes32 newId =\r\n            keccak256(abi.encodePacked(block.timestamp, block.difficulty));\r\n\r\n        Category storage obj = categoryMap[newId];\r\n        obj.categoryId = newId;\r\n        obj.name = _name;\r\n        obj.isActive = true;\r\n        obj.customJsonData = _customJsonData;\r\n\r\n        categoryIds.push(newId);\r\n\r\n        emit CategoryCreated(newId);\r\n        return (newId);\r\n    }\r\n\r\n    function updateCategory(\r\n        bytes32 objId,\r\n        string memory _name,\r\n        string memory _customJsonData,\r\n        bool _isActive\r\n    ) public {\r\n        Category storage obj = categoryMap[objId];\r\n        obj.name = _name;\r\n        obj.isActive = _isActive;\r\n        obj.customJsonData = _customJsonData;\r\n\r\n        emit CategoryUpdated(objId);\r\n    }\r\n\r\n    function getCategoryById(bytes32 objId)\r\n        public\r\n        view\r\n        returns (\r\n            bytes32 id,\r\n            string memory name,\r\n            bool isActive,\r\n            string memory customJsonData\r\n        )\r\n    {\r\n        Category storage obj = categoryMap[objId];\r\n        return (obj.categoryId, obj.name, obj.isActive, obj.customJsonData);\r\n    }\r\n\r\n    /*\r\n        Product\r\n    */\r\n    function createProduct(\r\n        string memory _name,\r\n        bytes32 _categoryId,\r\n        string memory _description,\r\n        bytes32[] memory _certificationIdList,\r\n        string memory _customJsonData\r\n    ) public returns (bytes32 objId) {\r\n        bytes32 newId =\r\n            keccak256(abi.encodePacked(block.timestamp, block.difficulty));\r\n\r\n        Product storage obj = productMap[newId];\r\n        obj.productId = newId;\r\n        obj.name = _name;\r\n        obj.description = _description;\r\n        obj.certicationIdList = _certificationIdList;\r\n        obj.categoryId = _categoryId;\r\n        obj.isActive = true;\r\n        obj.customJsonData = _customJsonData;\r\n\r\n        productIds.push(newId);\r\n\r\n        emit ProductCreated(newId);\r\n        return (newId);\r\n    }\r\n\r\n    function updateProduct(\r\n        bytes32 objId,\r\n        string memory _name,\r\n        bytes32 _categoryId,\r\n        string memory _description,\r\n        bytes32[] memory _certificationIdList,\r\n        string memory _customJsonData,\r\n        bool _isActive\r\n    ) public {\r\n        Product storage obj = productMap[objId];\r\n        obj.name = _name;\r\n        obj.categoryId = _categoryId;\r\n        obj.description = _description;\r\n        obj.certicationIdList = _certificationIdList;\r\n        obj.isActive = _isActive;\r\n        obj.customJsonData = _customJsonData;\r\n\r\n        emit ProductUpdated(objId);\r\n    }\r\n\r\n    function getProductById(bytes32 objId)\r\n        public\r\n        view\r\n        returns (\r\n            bytes32 id,\r\n            bytes32 categoryId,\r\n            string memory name,\r\n            string memory description,\r\n            bytes32[] memory certicationIdList,\r\n            bool isActive,\r\n            string memory customJsonData\r\n        )\r\n    {\r\n        Product storage obj = productMap[objId];\r\n        return (\r\n            obj.productId,\r\n            obj.categoryId,\r\n            obj.name,\r\n            obj.description,\r\n            obj.certicationIdList,\r\n            obj.isActive,\r\n            obj.customJsonData\r\n        );\r\n    }\r\n\r\n    /*\r\n        Role\r\n    */\r\n    function createRole(string memory _name, string memory _customJsonData)\r\n        public\r\n        returns (bytes32 objId)\r\n    {\r\n        bytes32 newId =\r\n            keccak256(abi.encodePacked(block.timestamp, block.difficulty));\r\n\r\n        Role storage obj = roleMap[newId];\r\n        obj.roleId = newId;\r\n        obj.name = _name;\r\n        obj.isActive = true;\r\n        obj.customJsonData = _customJsonData;\r\n\r\n        roleIds.push(newId);\r\n\r\n        emit RoleCreated(newId);\r\n        return (newId);\r\n    }\r\n\r\n    function updateRole(\r\n        bytes32 objId,\r\n        string memory _name,\r\n        string memory _customJsonData,\r\n        bool _isActive\r\n    ) public {\r\n        Role storage obj = roleMap[objId];\r\n        obj.name = _name;\r\n        obj.isActive = _isActive;\r\n        obj.customJsonData = _customJsonData;\r\n\r\n        emit RoleUpdated(objId);\r\n    }\r\n\r\n    function getRoleById(bytes32 objId)\r\n        public\r\n        view\r\n        returns (\r\n            bytes32 id,\r\n            string memory name,\r\n            bool isActive,\r\n            string memory customJsonData\r\n        )\r\n    {\r\n        Role storage obj = roleMap[objId];\r\n        return (obj.roleId, obj.name, obj.isActive, obj.customJsonData);\r\n    }\r\n\r\n    /*\r\n        Profile\r\n    */\r\n    function createProfile(\r\n        string memory _name,\r\n        string memory _email,\r\n        string memory _passwordHash,\r\n        string memory _phone,\r\n        bytes32[] memory _roleId,\r\n        bytes32 _organizationId,\r\n        string memory _customJsonData\r\n    ) public returns (bytes32 objId) {\r\n        bytes32 newId =\r\n            keccak256(abi.encodePacked(block.timestamp, block.difficulty));\r\n\r\n        Profile storage obj = profileMap[newId];\r\n        obj.profileId = newId;\r\n        obj.name = _name;\r\n        obj.email = _email;\r\n        obj.passwordHash = _passwordHash;\r\n        obj.phone = _phone;\r\n        obj.roleId = _roleId;\r\n        obj.organizationId = _organizationId;\r\n        obj.isActive = true;\r\n        obj.customJsonData = _customJsonData;\r\n\r\n        profileIds.push(newId);\r\n\r\n        emit ProfileCreated(newId);\r\n        return (newId);\r\n    }\r\n\r\n    function updateProfile(\r\n        bytes32 objId,\r\n        string memory _name,\r\n        string memory _email,\r\n        string memory _passwordHash,\r\n        string memory _phone,\r\n        bytes32[] memory _roleId,\r\n        bytes32 _organizationId,\r\n        string memory _customJsonData,\r\n        bool _isActive\r\n    ) public {\r\n        Profile storage obj = profileMap[objId];\r\n        obj.name = _name;\r\n        obj.email = _email;\r\n        obj.passwordHash = _passwordHash;\r\n        obj.phone = _phone;\r\n        obj.roleId = _roleId;\r\n        obj.organizationId = _organizationId;\r\n        obj.isActive = _isActive;\r\n        obj.customJsonData = _customJsonData;\r\n\r\n        emit ProfileUpdated(objId);\r\n    }\r\n\r\n    function getProfileById(bytes32 objId)\r\n        public\r\n        view\r\n        returns (\r\n            bytes32 id,\r\n            string memory name,\r\n            string memory email,\r\n            string memory passwordHash,\r\n            string memory phone,\r\n            bytes32[] memory roleId,\r\n            bytes32 organizationId,\r\n            bool isActive,\r\n            string memory customJsonData\r\n        )\r\n    {\r\n        Profile storage obj = profileMap[objId];\r\n        return (\r\n            obj.profileId,\r\n            obj.name,\r\n            obj.email,\r\n            obj.passwordHash,\r\n            obj.phone,\r\n            obj.roleId,\r\n            obj.organizationId,\r\n            obj.isActive,\r\n            obj.customJsonData\r\n        );\r\n    }\r\n\r\n    /*\r\n        Certification\r\n    */\r\n    function createCertification(\r\n        string memory _name,\r\n        string memory _certificationUrl,\r\n        string memory _customJsonData\r\n    ) public returns (bytes32 objId) {\r\n        bytes32 newId =\r\n            keccak256(abi.encodePacked(block.timestamp, block.difficulty));\r\n\r\n        Certification storage obj = certificationMap[newId];\r\n        obj.certificationId = newId;\r\n        obj.name = _name;\r\n        obj.certificateUrl = _certificationUrl;\r\n        obj.isActive = true;\r\n        obj.customJsonData = _customJsonData;\r\n\r\n        certificationIds.push(newId);\r\n\r\n        emit CertificationCreated(newId);\r\n        return (newId);\r\n    }\r\n\r\n    function updateCertification(\r\n        bytes32 objId,\r\n        string memory _name,\r\n        string memory _certificationUrl,\r\n        string memory _customJsonData,\r\n        bool _isActive\r\n    ) public {\r\n        Certification storage obj = certificationMap[objId];\r\n        obj.name = _name;\r\n        obj.certificateUrl = _certificationUrl;\r\n        obj.isActive = _isActive;\r\n        obj.customJsonData = _customJsonData;\r\n\r\n        emit CertificationUpdated(objId);\r\n    }\r\n\r\n    function getCertificationById(bytes32 objId)\r\n        public\r\n        view\r\n        returns (\r\n            bytes32 id,\r\n            string memory name,\r\n            string memory certificateUrl,\r\n            bool isActive,\r\n            string memory customJsonData\r\n        )\r\n    {\r\n        Certification storage obj = certificationMap[objId];\r\n        return (\r\n            obj.certificationId,\r\n            obj.name,\r\n            obj.certificateUrl,\r\n            obj.isActive,\r\n            obj.customJsonData\r\n        );\r\n    }\r\n\r\n    /*\r\n        Track History\r\n    */\r\n    function createTrackHistory(\r\n        bytes32 _trackHistoryId,\r\n        bytes32 _productId,\r\n        bytes32 _activityId,\r\n        bytes32 _profileId,\r\n        bytes32 _areaId,\r\n        string memory _gps,\r\n        string memory _remarks,\r\n        string memory _customJsonData\r\n    ) public returns (bytes32 objId) {\r\n        bytes32 newId =\r\n            keccak256(abi.encodePacked(block.timestamp, block.difficulty));\r\n\r\n        TrackHistory storage obj = trackHistoryMap[newId];\r\n        obj.trackHistoryId = newId;\r\n        obj.productId = _productId;\r\n        obj.activityId = _activityId;\r\n        obj.profileId = _profileId;\r\n        obj.areaId = _areaId;\r\n        obj.gps = _gps;\r\n        obj.remarks = _remarks;\r\n        obj.isActive = true;\r\n        obj.customJsonData = _customJsonData;\r\n\r\n        trackHistoryIds.push(newId);\r\n\r\n        emit TrackHistoryCreated(newId);\r\n        return (newId);\r\n    }\r\n\r\n    function updateTrackHistory(\r\n        bytes32 objId,\r\n        bytes32 _productId,\r\n        bytes32 _activityId,\r\n        bytes32 _profileId,\r\n        bytes32 _areaId,\r\n        string memory _gps,\r\n        string memory _remarks,\r\n        string memory _customJsonData,\r\n        bool _isActive\r\n    ) public {\r\n        TrackHistory storage obj = trackHistoryMap[objId];\r\n        obj.productId = _productId;\r\n        obj.activityId = _activityId;\r\n        obj.profileId = _profileId;\r\n        obj.productId = _productId;\r\n        obj.areaId = _areaId;\r\n        obj.gps = _gps;\r\n        obj.remarks = _remarks;\r\n        obj.isActive = _isActive;\r\n        obj.customJsonData = _customJsonData;\r\n\r\n        emit TrackHistoryUpdated(objId);\r\n    }\r\n\r\n    function getTrackHistoryById(bytes32 objId)\r\n        public\r\n        view\r\n        returns (\r\n            bytes32 id,\r\n            bytes32 productId,\r\n            bytes32 activityId,\r\n            bytes32 profileId,\r\n            bytes32 areaId,\r\n            string memory gps,\r\n            string memory remarks,\r\n            bool isActive,\r\n            string memory customJsonData\r\n        )\r\n    {\r\n        TrackHistory storage obj = trackHistoryMap[objId];\r\n        return (\r\n            obj.trackHistoryId,\r\n            obj.productId,\r\n            obj.activityId,\r\n            obj.profileId,\r\n            obj.areaId,\r\n            obj.gps,\r\n            obj.remarks,\r\n            obj.isActive,\r\n            obj.customJsonData\r\n        );\r\n    }\r\n\r\n}\r\n",
  "sourcePath": "D:/GitHub/supplychain_blockchain/tat_contract/contracts/SupplyChain.sol",
  "compiler": {
    "name": "solc",
    "version": "0.7.4+commit.3f05b770.Emscripten.clang"
  },
  "schemaVersion": "3.3.2",
  "updatedAt": "2021-03-04T06:00:52.302Z",
  "devdoc": {
    "kind": "dev",
    "methods": {},
    "version": 1
  },
  "userdoc": {
    "kind": "user",
    "methods": {},
    "version": 1
  }
}