{
  "contractName": "SupplyChain",
  "abi": [
    {
      "anonymous": false,
      "inputs": [
        {
          "indexed": false,
          "internalType": "bytes32",
          "name": "objId",
          "type": "bytes32"
        }
      ],
      "name": "ActivityCreated",
      "type": "event"
    },
    {
      "anonymous": false,
      "inputs": [
        {
          "indexed": false,
          "internalType": "bytes32",
          "name": "objId",
          "type": "bytes32"
        }
      ],
      "name": "ActivityUpdated",
      "type": "event"
    },
    {
      "anonymous": false,
      "inputs": [
        {
          "indexed": false,
          "internalType": "bytes32",
          "name": "objId",
          "type": "bytes32"
        }
      ],
      "name": "AreaCreated",
      "type": "event"
    },
    {
      "anonymous": false,
      "inputs": [
        {
          "indexed": false,
          "internalType": "bytes32",
          "name": "objId",
          "type": "bytes32"
        }
      ],
      "name": "AreaUpdated",
      "type": "event"
    },
    {
      "anonymous": false,
      "inputs": [
        {
          "indexed": false,
          "internalType": "bytes32",
          "name": "objId",
          "type": "bytes32"
        }
      ],
      "name": "CategoryCreated",
      "type": "event"
    },
    {
      "anonymous": false,
      "inputs": [
        {
          "indexed": false,
          "internalType": "bytes32",
          "name": "objId",
          "type": "bytes32"
        }
      ],
      "name": "CategoryUpdated",
      "type": "event"
    },
    {
      "anonymous": false,
      "inputs": [
        {
          "indexed": false,
          "internalType": "bytes32",
          "name": "objId",
          "type": "bytes32"
        }
      ],
      "name": "CertificationCreated",
      "type": "event"
    },
    {
      "anonymous": false,
      "inputs": [
        {
          "indexed": false,
          "internalType": "bytes32",
          "name": "objId",
          "type": "bytes32"
        }
      ],
      "name": "CertificationUpdated",
      "type": "event"
    },
    {
      "anonymous": false,
      "inputs": [
        {
          "indexed": false,
          "internalType": "bytes32",
          "name": "objId",
          "type": "bytes32"
        }
      ],
      "name": "OrganizationCreated",
      "type": "event"
    },
    {
      "anonymous": false,
      "inputs": [
        {
          "indexed": false,
          "internalType": "bytes32",
          "name": "objId",
          "type": "bytes32"
        }
      ],
      "name": "OrganizationTypeCreated",
      "type": "event"
    },
    {
      "anonymous": false,
      "inputs": [
        {
          "indexed": false,
          "internalType": "bytes32",
          "name": "objId",
          "type": "bytes32"
        }
      ],
      "name": "OrganizationTypeUpdated",
      "type": "event"
    },
    {
      "anonymous": false,
      "inputs": [
        {
          "indexed": false,
          "internalType": "bytes32",
          "name": "objId",
          "type": "bytes32"
        }
      ],
      "name": "OrganizationUpdated",
      "type": "event"
    },
    {
      "anonymous": false,
      "inputs": [
        {
          "indexed": false,
          "internalType": "bytes32",
          "name": "objId",
          "type": "bytes32"
        }
      ],
      "name": "ProductCreated",
      "type": "event"
    },
    {
      "anonymous": false,
      "inputs": [
        {
          "indexed": false,
          "internalType": "bytes32",
          "name": "objId",
          "type": "bytes32"
        }
      ],
      "name": "ProductUpdated",
      "type": "event"
    },
    {
      "anonymous": false,
      "inputs": [
        {
          "indexed": false,
          "internalType": "bytes32",
          "name": "objId",
          "type": "bytes32"
        }
      ],
      "name": "ProfileCreated",
      "type": "event"
    },
    {
      "anonymous": false,
      "inputs": [
        {
          "indexed": false,
          "internalType": "bytes32",
          "name": "objId",
          "type": "bytes32"
        }
      ],
      "name": "ProfileUpdated",
      "type": "event"
    },
    {
      "anonymous": false,
      "inputs": [
        {
          "indexed": false,
          "internalType": "bytes32",
          "name": "objId",
          "type": "bytes32"
        }
      ],
      "name": "RoleCreated",
      "type": "event"
    },
    {
      "anonymous": false,
      "inputs": [
        {
          "indexed": false,
          "internalType": "bytes32",
          "name": "objId",
          "type": "bytes32"
        }
      ],
      "name": "RoleUpdated",
      "type": "event"
    },
    {
      "anonymous": false,
      "inputs": [
        {
          "indexed": false,
          "internalType": "bytes32",
          "name": "objId",
          "type": "bytes32"
        }
      ],
      "name": "TrackHistoryCreated",
      "type": "event"
    },
    {
      "anonymous": false,
      "inputs": [
        {
          "indexed": false,
          "internalType": "bytes32",
          "name": "objId",
          "type": "bytes32"
        }
      ],
      "name": "TrackHistoryUpdated",
      "type": "event"
    },
    {
      "inputs": [
        {
          "internalType": "uint256",
          "name": "",
          "type": "uint256"
        }
      ],
      "name": "activityIds",
      "outputs": [
        {
          "internalType": "bytes32",
          "name": "",
          "type": "bytes32"
        }
      ],
      "stateMutability": "view",
      "type": "function"
    },
    {
      "inputs": [
        {
          "internalType": "bytes32",
          "name": "",
          "type": "bytes32"
        }
      ],
      "name": "activityMap",
      "outputs": [
        {
          "internalType": "bytes32",
          "name": "activityId",
          "type": "bytes32"
        },
        {
          "internalType": "string",
          "name": "name",
          "type": "string"
        },
        {
          "internalType": "bytes32",
          "name": "organizationTypeId",
          "type": "bytes32"
        },
        {
          "internalType": "bool",
          "name": "isActive",
          "type": "bool"
        },
        {
          "internalType": "string",
          "name": "customJsonData",
          "type": "string"
        }
      ],
      "stateMutability": "view",
      "type": "function"
    },
    {
      "inputs": [
        {
          "internalType": "uint256",
          "name": "",
          "type": "uint256"
        }
      ],
      "name": "areaIds",
      "outputs": [
        {
          "internalType": "bytes32",
          "name": "",
          "type": "bytes32"
        }
      ],
      "stateMutability": "view",
      "type": "function"
    },
    {
      "inputs": [
        {
          "internalType": "bytes32",
          "name": "",
          "type": "bytes32"
        }
      ],
      "name": "areaMap",
      "outputs": [
        {
          "internalType": "bytes32",
          "name": "areaId",
          "type": "bytes32"
        },
        {
          "internalType": "string",
          "name": "name",
          "type": "string"
        },
        {
          "internalType": "bytes32",
          "name": "organizationId",
          "type": "bytes32"
        },
        {
          "internalType": "bool",
          "name": "isActive",
          "type": "bool"
        },
        {
          "internalType": "string",
          "name": "customJsonData",
          "type": "string"
        }
      ],
      "stateMutability": "view",
      "type": "function"
    },
    {
      "inputs": [
        {
          "internalType": "uint256",
          "name": "",
          "type": "uint256"
        }
      ],
      "name": "categoryIds",
      "outputs": [
        {
          "internalType": "bytes32",
          "name": "",
          "type": "bytes32"
        }
      ],
      "stateMutability": "view",
      "type": "function"
    },
    {
      "inputs": [
        {
          "internalType": "bytes32",
          "name": "",
          "type": "bytes32"
        }
      ],
      "name": "categoryMap",
      "outputs": [
        {
          "internalType": "bytes32",
          "name": "categoryId",
          "type": "bytes32"
        },
        {
          "internalType": "string",
          "name": "name",
          "type": "string"
        },
        {
          "internalType": "bool",
          "name": "isActive",
          "type": "bool"
        },
        {
          "internalType": "string",
          "name": "customJsonData",
          "type": "string"
        }
      ],
      "stateMutability": "view",
      "type": "function"
    },
    {
      "inputs": [
        {
          "internalType": "uint256",
          "name": "",
          "type": "uint256"
        }
      ],
      "name": "certificationIds",
      "outputs": [
        {
          "internalType": "bytes32",
          "name": "",
          "type": "bytes32"
        }
      ],
      "stateMutability": "view",
      "type": "function"
    },
    {
      "inputs": [
        {
          "internalType": "bytes32",
          "name": "",
          "type": "bytes32"
        }
      ],
      "name": "certificationMap",
      "outputs": [
        {
          "internalType": "bytes32",
          "name": "certificationId",
          "type": "bytes32"
        },
        {
          "internalType": "string",
          "name": "name",
          "type": "string"
        },
        {
          "internalType": "string",
          "name": "certificateUrl",
          "type": "string"
        },
        {
          "internalType": "bool",
          "name": "isActive",
          "type": "bool"
        },
        {
          "internalType": "string",
          "name": "customJsonData",
          "type": "string"
        }
      ],
      "stateMutability": "view",
      "type": "function"
    },
    {
      "inputs": [
        {
          "internalType": "uint256",
          "name": "",
          "type": "uint256"
        }
      ],
      "name": "organizationIds",
      "outputs": [
        {
          "internalType": "bytes32",
          "name": "",
          "type": "bytes32"
        }
      ],
      "stateMutability": "view",
      "type": "function"
    },
    {
      "inputs": [
        {
          "internalType": "bytes32",
          "name": "",
          "type": "bytes32"
        }
      ],
      "name": "organizationMap",
      "outputs": [
        {
          "internalType": "bytes32",
          "name": "organizationId",
          "type": "bytes32"
        },
        {
          "internalType": "string",
          "name": "name",
          "type": "string"
        },
        {
          "internalType": "string",
          "name": "organizationAddress",
          "type": "string"
        },
        {
          "internalType": "bool",
          "name": "isActive",
          "type": "bool"
        },
        {
          "internalType": "string",
          "name": "customJsonData",
          "type": "string"
        }
      ],
      "stateMutability": "view",
      "type": "function"
    },
    {
      "inputs": [
        {
          "internalType": "uint256",
          "name": "",
          "type": "uint256"
        }
      ],
      "name": "organizationTypeIds",
      "outputs": [
        {
          "internalType": "bytes32",
          "name": "",
          "type": "bytes32"
        }
      ],
      "stateMutability": "view",
      "type": "function"
    },
    {
      "inputs": [
        {
          "internalType": "bytes32",
          "name": "",
          "type": "bytes32"
        }
      ],
      "name": "organizationTypeMap",
      "outputs": [
        {
          "internalType": "bytes32",
          "name": "organizationTypeId",
          "type": "bytes32"
        },
        {
          "internalType": "string",
          "name": "name",
          "type": "string"
        },
        {
          "internalType": "bool",
          "name": "isActive",
          "type": "bool"
        },
        {
          "internalType": "string",
          "name": "customJsonData",
          "type": "string"
        }
      ],
      "stateMutability": "view",
      "type": "function"
    },
    {
      "inputs": [
        {
          "internalType": "uint256",
          "name": "",
          "type": "uint256"
        }
      ],
      "name": "productIds",
      "outputs": [
        {
          "internalType": "bytes32",
          "name": "",
          "type": "bytes32"
        }
      ],
      "stateMutability": "view",
      "type": "function"
    },
    {
      "inputs": [
        {
          "internalType": "bytes32",
          "name": "",
          "type": "bytes32"
        }
      ],
      "name": "productMap",
      "outputs": [
        {
          "internalType": "bytes32",
          "name": "productId",
          "type": "bytes32"
        },
        {
          "internalType": "bytes32",
          "name": "categoryId",
          "type": "bytes32"
        },
        {
          "internalType": "string",
          "name": "name",
          "type": "string"
        },
        {
          "internalType": "string",
          "name": "description",
          "type": "string"
        },
        {
          "internalType": "bool",
          "name": "isActive",
          "type": "bool"
        },
        {
          "internalType": "string",
          "name": "customJsonData",
          "type": "string"
        }
      ],
      "stateMutability": "view",
      "type": "function"
    },
    {
      "inputs": [
        {
          "internalType": "uint256",
          "name": "",
          "type": "uint256"
        }
      ],
      "name": "profileIds",
      "outputs": [
        {
          "internalType": "bytes32",
          "name": "",
          "type": "bytes32"
        }
      ],
      "stateMutability": "view",
      "type": "function"
    },
    {
      "inputs": [
        {
          "internalType": "bytes32",
          "name": "",
          "type": "bytes32"
        }
      ],
      "name": "profileMap",
      "outputs": [
        {
          "internalType": "bytes32",
          "name": "profileId",
          "type": "bytes32"
        },
        {
          "internalType": "string",
          "name": "name",
          "type": "string"
        },
        {
          "internalType": "string",
          "name": "email",
          "type": "string"
        },
        {
          "internalType": "string",
          "name": "passwordHash",
          "type": "string"
        },
        {
          "internalType": "string",
          "name": "phone",
          "type": "string"
        },
        {
          "internalType": "bytes32",
          "name": "organizationId",
          "type": "bytes32"
        },
        {
          "internalType": "bool",
          "name": "isActive",
          "type": "bool"
        },
        {
          "internalType": "string",
          "name": "customJsonData",
          "type": "string"
        }
      ],
      "stateMutability": "view",
      "type": "function"
    },
    {
      "inputs": [
        {
          "internalType": "uint256",
          "name": "",
          "type": "uint256"
        }
      ],
      "name": "roleIds",
      "outputs": [
        {
          "internalType": "bytes32",
          "name": "",
          "type": "bytes32"
        }
      ],
      "stateMutability": "view",
      "type": "function"
    },
    {
      "inputs": [
        {
          "internalType": "bytes32",
          "name": "",
          "type": "bytes32"
        }
      ],
      "name": "roleMap",
      "outputs": [
        {
          "internalType": "bytes32",
          "name": "roleId",
          "type": "bytes32"
        },
        {
          "internalType": "string",
          "name": "name",
          "type": "string"
        },
        {
          "internalType": "bool",
          "name": "isActive",
          "type": "bool"
        },
        {
          "internalType": "string",
          "name": "customJsonData",
          "type": "string"
        }
      ],
      "stateMutability": "view",
      "type": "function"
    },
    {
      "inputs": [
        {
          "internalType": "uint256",
          "name": "",
          "type": "uint256"
        }
      ],
      "name": "trackHistoryIds",
      "outputs": [
        {
          "internalType": "bytes32",
          "name": "",
          "type": "bytes32"
        }
      ],
      "stateMutability": "view",
      "type": "function"
    },
    {
      "inputs": [
        {
          "internalType": "bytes32",
          "name": "",
          "type": "bytes32"
        }
      ],
      "name": "trackHistoryMap",
      "outputs": [
        {
          "internalType": "bytes32",
          "name": "trackHistoryId",
          "type": "bytes32"
        },
        {
          "internalType": "bytes32",
          "name": "productId",
          "type": "bytes32"
        },
        {
          "internalType": "bytes32",
          "name": "activityId",
          "type": "bytes32"
        },
        {
          "internalType": "bytes32",
          "name": "profileId",
          "type": "bytes32"
        },
        {
          "internalType": "bytes32",
          "name": "areaId",
          "type": "bytes32"
        },
        {
          "internalType": "string",
          "name": "gps",
          "type": "string"
        },
        {
          "internalType": "string",
          "name": "remarks",
          "type": "string"
        },
        {
          "internalType": "bool",
          "name": "isActive",
          "type": "bool"
        },
        {
          "internalType": "string",
          "name": "customJsonData",
          "type": "string"
        }
      ],
      "stateMutability": "view",
      "type": "function"
    },
    {
      "inputs": [],
      "name": "version",
      "outputs": [
        {
          "internalType": "string",
          "name": "",
          "type": "string"
        }
      ],
      "stateMutability": "view",
      "type": "function"
    },
    {
      "inputs": [
        {
          "internalType": "string",
          "name": "_name",
          "type": "string"
        },
        {
          "internalType": "string",
          "name": "_customJsonData",
          "type": "string"
        }
      ],
      "name": "createOrganizationType",
      "outputs": [
        {
          "internalType": "bytes32",
          "name": "objId",
          "type": "bytes32"
        }
      ],
      "stateMutability": "nonpayable",
      "type": "function"
    },
    {
      "inputs": [
        {
          "internalType": "bytes32",
          "name": "objId",
          "type": "bytes32"
        },
        {
          "internalType": "string",
          "name": "_name",
          "type": "string"
        },
        {
          "internalType": "string",
          "name": "_customJsonData",
          "type": "string"
        },
        {
          "internalType": "bool",
          "name": "_isActive",
          "type": "bool"
        }
      ],
      "name": "updateOrganizationType",
      "outputs": [],
      "stateMutability": "nonpayable",
      "type": "function"
    },
    {
      "inputs": [
        {
          "internalType": "bytes32",
          "name": "objId",
          "type": "bytes32"
        }
      ],
      "name": "getOrganizationTypeById",
      "outputs": [
        {
          "internalType": "bytes32",
          "name": "id",
          "type": "bytes32"
        },
        {
          "internalType": "string",
          "name": "name",
          "type": "string"
        },
        {
          "internalType": "string",
          "name": "customJsonData",
          "type": "string"
        }
      ],
      "stateMutability": "view",
      "type": "function"
    },
    {
      "inputs": [
        {
          "internalType": "string",
          "name": "_name",
          "type": "string"
        },
        {
          "internalType": "bytes32[]",
          "name": "_organizationTypeIdList",
          "type": "bytes32[]"
        },
        {
          "internalType": "string",
          "name": "_organizationAddress",
          "type": "string"
        },
        {
          "internalType": "string",
          "name": "_customJsonData",
          "type": "string"
        }
      ],
      "name": "createOrganization",
      "outputs": [
        {
          "internalType": "bytes32",
          "name": "objId",
          "type": "bytes32"
        }
      ],
      "stateMutability": "nonpayable",
      "type": "function"
    },
    {
      "inputs": [
        {
          "internalType": "bytes32",
          "name": "objId",
          "type": "bytes32"
        },
        {
          "internalType": "string",
          "name": "_name",
          "type": "string"
        },
        {
          "internalType": "bytes32[]",
          "name": "_organizationTypeIdList",
          "type": "bytes32[]"
        },
        {
          "internalType": "string",
          "name": "_organizationAddress",
          "type": "string"
        },
        {
          "internalType": "string",
          "name": "_customJsonData",
          "type": "string"
        },
        {
          "internalType": "bool",
          "name": "_isActive",
          "type": "bool"
        }
      ],
      "name": "updateOrganization",
      "outputs": [],
      "stateMutability": "nonpayable",
      "type": "function"
    },
    {
      "inputs": [
        {
          "internalType": "bytes32",
          "name": "objId",
          "type": "bytes32"
        }
      ],
      "name": "getOrganizationById",
      "outputs": [
        {
          "internalType": "bytes32",
          "name": "id",
          "type": "bytes32"
        },
        {
          "internalType": "string",
          "name": "name",
          "type": "string"
        },
        {
          "internalType": "bytes32[]",
          "name": "organizationTypeIdList",
          "type": "bytes32[]"
        },
        {
          "internalType": "bool",
          "name": "isActive",
          "type": "bool"
        },
        {
          "internalType": "string",
          "name": "customJsonData",
          "type": "string"
        }
      ],
      "stateMutability": "view",
      "type": "function"
    },
    {
      "inputs": [
        {
          "internalType": "string",
          "name": "_name",
          "type": "string"
        },
        {
          "internalType": "bytes32",
          "name": "_organizationTypeId",
          "type": "bytes32"
        },
        {
          "internalType": "string",
          "name": "_customJsonData",
          "type": "string"
        }
      ],
      "name": "createActivity",
      "outputs": [
        {
          "internalType": "bytes32",
          "name": "objId",
          "type": "bytes32"
        }
      ],
      "stateMutability": "nonpayable",
      "type": "function"
    },
    {
      "inputs": [
        {
          "internalType": "bytes32",
          "name": "objId",
          "type": "bytes32"
        },
        {
          "internalType": "string",
          "name": "_name",
          "type": "string"
        },
        {
          "internalType": "bytes32",
          "name": "_organizationTypeId",
          "type": "bytes32"
        },
        {
          "internalType": "string",
          "name": "_customJsonData",
          "type": "string"
        },
        {
          "internalType": "bool",
          "name": "_isActive",
          "type": "bool"
        }
      ],
      "name": "updateActivity",
      "outputs": [],
      "stateMutability": "nonpayable",
      "type": "function"
    },
    {
      "inputs": [
        {
          "internalType": "bytes32",
          "name": "objId",
          "type": "bytes32"
        }
      ],
      "name": "getActivityById",
      "outputs": [
        {
          "internalType": "bytes32",
          "name": "id",
          "type": "bytes32"
        },
        {
          "internalType": "string",
          "name": "name",
          "type": "string"
        },
        {
          "internalType": "bytes32",
          "name": "organizationTypeId",
          "type": "bytes32"
        },
        {
          "internalType": "bool",
          "name": "isActive",
          "type": "bool"
        },
        {
          "internalType": "string",
          "name": "customJsonData",
          "type": "string"
        }
      ],
      "stateMutability": "view",
      "type": "function"
    },
    {
      "inputs": [
        {
          "internalType": "string",
          "name": "_name",
          "type": "string"
        },
        {
          "internalType": "bytes32",
          "name": "_organizationId",
          "type": "bytes32"
        },
        {
          "internalType": "string",
          "name": "_customJsonData",
          "type": "string"
        }
      ],
      "name": "createArea",
      "outputs": [
        {
          "internalType": "bytes32",
          "name": "objId",
          "type": "bytes32"
        }
      ],
      "stateMutability": "nonpayable",
      "type": "function"
    },
    {
      "inputs": [
        {
          "internalType": "bytes32",
          "name": "objId",
          "type": "bytes32"
        },
        {
          "internalType": "string",
          "name": "_name",
          "type": "string"
        },
        {
          "internalType": "bytes32",
          "name": "_organizationId",
          "type": "bytes32"
        },
        {
          "internalType": "string",
          "name": "_customJsonData",
          "type": "string"
        },
        {
          "internalType": "bool",
          "name": "_isActive",
          "type": "bool"
        }
      ],
      "name": "updateArea",
      "outputs": [],
      "stateMutability": "nonpayable",
      "type": "function"
    },
    {
      "inputs": [
        {
          "internalType": "bytes32",
          "name": "objId",
          "type": "bytes32"
        }
      ],
      "name": "getAreaById",
      "outputs": [
        {
          "internalType": "bytes32",
          "name": "id",
          "type": "bytes32"
        },
        {
          "internalType": "string",
          "name": "name",
          "type": "string"
        },
        {
          "internalType": "bytes32",
          "name": "organizationId",
          "type": "bytes32"
        },
        {
          "internalType": "bool",
          "name": "isActive",
          "type": "bool"
        },
        {
          "internalType": "string",
          "name": "customJsonData",
          "type": "string"
        }
      ],
      "stateMutability": "view",
      "type": "function"
    },
    {
      "inputs": [
        {
          "internalType": "string",
          "name": "_name",
          "type": "string"
        },
        {
          "internalType": "string",
          "name": "_customJsonData",
          "type": "string"
        }
      ],
      "name": "createCategory",
      "outputs": [
        {
          "internalType": "bytes32",
          "name": "objId",
          "type": "bytes32"
        }
      ],
      "stateMutability": "nonpayable",
      "type": "function"
    },
    {
      "inputs": [
        {
          "internalType": "bytes32",
          "name": "objId",
          "type": "bytes32"
        },
        {
          "internalType": "string",
          "name": "_name",
          "type": "string"
        },
        {
          "internalType": "string",
          "name": "_customJsonData",
          "type": "string"
        },
        {
          "internalType": "bool",
          "name": "_isActive",
          "type": "bool"
        }
      ],
      "name": "updateCategory",
      "outputs": [],
      "stateMutability": "nonpayable",
      "type": "function"
    },
    {
      "inputs": [
        {
          "internalType": "bytes32",
          "name": "objId",
          "type": "bytes32"
        }
      ],
      "name": "getCategoryById",
      "outputs": [
        {
          "internalType": "bytes32",
          "name": "id",
          "type": "bytes32"
        },
        {
          "internalType": "string",
          "name": "name",
          "type": "string"
        },
        {
          "internalType": "bool",
          "name": "isActive",
          "type": "bool"
        },
        {
          "internalType": "string",
          "name": "customJsonData",
          "type": "string"
        }
      ],
      "stateMutability": "view",
      "type": "function"
    },
    {
      "inputs": [
        {
          "internalType": "string",
          "name": "_name",
          "type": "string"
        },
        {
          "internalType": "bytes32",
          "name": "_categoryId",
          "type": "bytes32"
        },
        {
          "internalType": "string",
          "name": "_description",
          "type": "string"
        },
        {
          "internalType": "bytes32[]",
          "name": "_certificationIdList",
          "type": "bytes32[]"
        },
        {
          "internalType": "string",
          "name": "_customJsonData",
          "type": "string"
        }
      ],
      "name": "createProduct",
      "outputs": [
        {
          "internalType": "bytes32",
          "name": "objId",
          "type": "bytes32"
        }
      ],
      "stateMutability": "nonpayable",
      "type": "function"
    },
    {
      "inputs": [
        {
          "internalType": "bytes32",
          "name": "objId",
          "type": "bytes32"
        },
        {
          "internalType": "string",
          "name": "_name",
          "type": "string"
        },
        {
          "internalType": "bytes32",
          "name": "_categoryId",
          "type": "bytes32"
        },
        {
          "internalType": "string",
          "name": "_description",
          "type": "string"
        },
        {
          "internalType": "bytes32[]",
          "name": "_certificationIdList",
          "type": "bytes32[]"
        },
        {
          "internalType": "string",
          "name": "_customJsonData",
          "type": "string"
        },
        {
          "internalType": "bool",
          "name": "_isActive",
          "type": "bool"
        }
      ],
      "name": "updateProduct",
      "outputs": [],
      "stateMutability": "nonpayable",
      "type": "function"
    },
    {
      "inputs": [
        {
          "internalType": "bytes32",
          "name": "objId",
          "type": "bytes32"
        }
      ],
      "name": "getProductById",
      "outputs": [
        {
          "internalType": "bytes32",
          "name": "id",
          "type": "bytes32"
        },
        {
          "internalType": "bytes32",
          "name": "categoryId",
          "type": "bytes32"
        },
        {
          "internalType": "string",
          "name": "name",
          "type": "string"
        },
        {
          "internalType": "string",
          "name": "description",
          "type": "string"
        },
        {
          "internalType": "bytes32[]",
          "name": "certicationIdList",
          "type": "bytes32[]"
        },
        {
          "internalType": "bool",
          "name": "isActive",
          "type": "bool"
        },
        {
          "internalType": "string",
          "name": "customJsonData",
          "type": "string"
        }
      ],
      "stateMutability": "view",
      "type": "function"
    },
    {
      "inputs": [
        {
          "internalType": "string",
          "name": "_name",
          "type": "string"
        },
        {
          "internalType": "string",
          "name": "_customJsonData",
          "type": "string"
        }
      ],
      "name": "createRole",
      "outputs": [
        {
          "internalType": "bytes32",
          "name": "objId",
          "type": "bytes32"
        }
      ],
      "stateMutability": "nonpayable",
      "type": "function"
    },
    {
      "inputs": [
        {
          "internalType": "bytes32",
          "name": "objId",
          "type": "bytes32"
        },
        {
          "internalType": "string",
          "name": "_name",
          "type": "string"
        },
        {
          "internalType": "string",
          "name": "_customJsonData",
          "type": "string"
        },
        {
          "internalType": "bool",
          "name": "_isActive",
          "type": "bool"
        }
      ],
      "name": "updateRole",
      "outputs": [],
      "stateMutability": "nonpayable",
      "type": "function"
    },
    {
      "inputs": [
        {
          "internalType": "bytes32",
          "name": "objId",
          "type": "bytes32"
        }
      ],
      "name": "getRoleById",
      "outputs": [
        {
          "internalType": "bytes32",
          "name": "id",
          "type": "bytes32"
        },
        {
          "internalType": "string",
          "name": "name",
          "type": "string"
        },
        {
          "internalType": "bool",
          "name": "isActive",
          "type": "bool"
        },
        {
          "internalType": "string",
          "name": "customJsonData",
          "type": "string"
        }
      ],
      "stateMutability": "view",
      "type": "function"
    },
    {
      "inputs": [
        {
          "internalType": "string",
          "name": "_name",
          "type": "string"
        },
        {
          "internalType": "string",
          "name": "_email",
          "type": "string"
        },
        {
          "internalType": "string",
          "name": "_passwordHash",
          "type": "string"
        },
        {
          "internalType": "string",
          "name": "_phone",
          "type": "string"
        },
        {
          "internalType": "bytes32[]",
          "name": "_roleId",
          "type": "bytes32[]"
        },
        {
          "internalType": "bytes32",
          "name": "_organizationId",
          "type": "bytes32"
        },
        {
          "internalType": "string",
          "name": "_customJsonData",
          "type": "string"
        }
      ],
      "name": "createProfile",
      "outputs": [
        {
          "internalType": "bytes32",
          "name": "objId",
          "type": "bytes32"
        }
      ],
      "stateMutability": "nonpayable",
      "type": "function"
    },
    {
      "inputs": [
        {
          "internalType": "bytes32",
          "name": "objId",
          "type": "bytes32"
        },
        {
          "internalType": "string",
          "name": "_name",
          "type": "string"
        },
        {
          "internalType": "string",
          "name": "_email",
          "type": "string"
        },
        {
          "internalType": "string",
          "name": "_passwordHash",
          "type": "string"
        },
        {
          "internalType": "string",
          "name": "_phone",
          "type": "string"
        },
        {
          "internalType": "bytes32[]",
          "name": "_roleId",
          "type": "bytes32[]"
        },
        {
          "internalType": "bytes32",
          "name": "_organizationId",
          "type": "bytes32"
        },
        {
          "internalType": "string",
          "name": "_customJsonData",
          "type": "string"
        },
        {
          "internalType": "bool",
          "name": "_isActive",
          "type": "bool"
        }
      ],
      "name": "updateProfile",
      "outputs": [],
      "stateMutability": "nonpayable",
      "type": "function"
    },
    {
      "inputs": [
        {
          "internalType": "bytes32",
          "name": "objId",
          "type": "bytes32"
        }
      ],
      "name": "getProfileById",
      "outputs": [
        {
          "internalType": "bytes32",
          "name": "id",
          "type": "bytes32"
        },
        {
          "internalType": "string",
          "name": "name",
          "type": "string"
        },
        {
          "internalType": "string",
          "name": "email",
          "type": "string"
        },
        {
          "internalType": "string",
          "name": "passwordHash",
          "type": "string"
        },
        {
          "internalType": "string",
          "name": "phone",
          "type": "string"
        },
        {
          "internalType": "bytes32[]",
          "name": "roleId",
          "type": "bytes32[]"
        },
        {
          "internalType": "bytes32",
          "name": "organizationId",
          "type": "bytes32"
        },
        {
          "internalType": "bool",
          "name": "isActive",
          "type": "bool"
        },
        {
          "internalType": "string",
          "name": "customJsonData",
          "type": "string"
        }
      ],
      "stateMutability": "view",
      "type": "function"
    },
    {
      "inputs": [
        {
          "internalType": "string",
          "name": "_name",
          "type": "string"
        },
        {
          "internalType": "string",
          "name": "_certificationUrl",
          "type": "string"
        },
        {
          "internalType": "string",
          "name": "_customJsonData",
          "type": "string"
        }
      ],
      "name": "createCertification",
      "outputs": [
        {
          "internalType": "bytes32",
          "name": "objId",
          "type": "bytes32"
        }
      ],
      "stateMutability": "nonpayable",
      "type": "function"
    },
    {
      "inputs": [
        {
          "internalType": "bytes32",
          "name": "objId",
          "type": "bytes32"
        },
        {
          "internalType": "string",
          "name": "_name",
          "type": "string"
        },
        {
          "internalType": "string",
          "name": "_certificationUrl",
          "type": "string"
        },
        {
          "internalType": "string",
          "name": "_customJsonData",
          "type": "string"
        },
        {
          "internalType": "bool",
          "name": "_isActive",
          "type": "bool"
        }
      ],
      "name": "updateCertification",
      "outputs": [],
      "stateMutability": "nonpayable",
      "type": "function"
    },
    {
      "inputs": [
        {
          "internalType": "bytes32",
          "name": "objId",
          "type": "bytes32"
        }
      ],
      "name": "getCertificationById",
      "outputs": [
        {
          "internalType": "bytes32",
          "name": "id",
          "type": "bytes32"
        },
        {
          "internalType": "string",
          "name": "name",
          "type": "string"
        },
        {
          "internalType": "string",
          "name": "certificateUrl",
          "type": "string"
        },
        {
          "internalType": "bool",
          "name": "isActive",
          "type": "bool"
        },
        {
          "internalType": "string",
          "name": "customJsonData",
          "type": "string"
        }
      ],
      "stateMutability": "view",
      "type": "function"
    },
    {
      "inputs": [
        {
          "internalType": "bytes32",
          "name": "_trackHistoryId",
          "type": "bytes32"
        },
        {
          "internalType": "bytes32",
          "name": "_productId",
          "type": "bytes32"
        },
        {
          "internalType": "bytes32",
          "name": "_activityId",
          "type": "bytes32"
        },
        {
          "internalType": "bytes32",
          "name": "_profileId",
          "type": "bytes32"
        },
        {
          "internalType": "bytes32",
          "name": "_areaId",
          "type": "bytes32"
        },
        {
          "internalType": "string",
          "name": "_gps",
          "type": "string"
        },
        {
          "internalType": "string",
          "name": "_remarks",
          "type": "string"
        },
        {
          "internalType": "string",
          "name": "_customJsonData",
          "type": "string"
        }
      ],
      "name": "createTrackHistory",
      "outputs": [
        {
          "internalType": "bytes32",
          "name": "objId",
          "type": "bytes32"
        }
      ],
      "stateMutability": "nonpayable",
      "type": "function"
    },
    {
      "inputs": [
        {
          "internalType": "bytes32",
          "name": "objId",
          "type": "bytes32"
        },
        {
          "internalType": "bytes32",
          "name": "_productId",
          "type": "bytes32"
        },
        {
          "internalType": "bytes32",
          "name": "_activityId",
          "type": "bytes32"
        },
        {
          "internalType": "bytes32",
          "name": "_profileId",
          "type": "bytes32"
        },
        {
          "internalType": "bytes32",
          "name": "_areaId",
          "type": "bytes32"
        },
        {
          "internalType": "string",
          "name": "_gps",
          "type": "string"
        },
        {
          "internalType": "string",
          "name": "_remarks",
          "type": "string"
        },
        {
          "internalType": "string",
          "name": "_customJsonData",
          "type": "string"
        },
        {
          "internalType": "bool",
          "name": "_isActive",
          "type": "bool"
        }
      ],
      "name": "updateTrackHistory",
      "outputs": [],
      "stateMutability": "nonpayable",
      "type": "function"
    },
    {
      "inputs": [
        {
          "internalType": "bytes32",
          "name": "objId",
          "type": "bytes32"
        }
      ],
      "name": "getTrackHistoryById",
      "outputs": [
        {
          "internalType": "bytes32",
          "name": "id",
          "type": "bytes32"
        },
        {
          "internalType": "bytes32",
          "name": "productId",
          "type": "bytes32"
        },
        {
          "internalType": "bytes32",
          "name": "activityId",
          "type": "bytes32"
        },
        {
          "internalType": "bytes32",
          "name": "profileId",
          "type": "bytes32"
        },
        {
          "internalType": "bytes32",
          "name": "areaId",
          "type": "bytes32"
        },
        {
          "internalType": "string",
          "name": "gps",
          "type": "string"
        },
        {
          "internalType": "string",
          "name": "remarks",
          "type": "string"
        },
        {
          "internalType": "bool",
          "name": "isActive",
          "type": "bool"
        },
        {
          "internalType": "string",
          "name": "customJsonData",
          "type": "string"
        }
      ],
      "stateMutability": "view",
      "type": "function"
    },
    {
      "inputs": [
        {
          "internalType": "string",
          "name": "_info",
          "type": "string"
        }
      ],
      "name": "setInfo",
      "outputs": [],
      "stateMutability": "nonpayable",
      "type": "function"
    },
    {
      "inputs": [],
      "name": "getInfo",
      "outputs": [
        {
          "internalType": "string",
          "name": "",
          "type": "string"
        }
      ],
      "stateMutability": "view",
      "type": "function"
    }
  ],
  "bytecode": "0x60806040526040518060400160405280600781526020017f312e302e302e3100000000000000000000000000000000000000000000000000815250601590805190602001906200005192919062000066565b503480156200005f57600080fd5b506200011c565b828054600181600116156101000203166002900490600052602060002090601f0160209004810192826200009e5760008555620000ea565b82601f10620000b957805160ff1916838001178555620000ea565b82800160010185558215620000ea579182015b82811115620000e9578251825591602001919060010190620000cc565b5b509050620000f99190620000fd565b5090565b5b8082111562000118576000816000905550600101620000fe565b5090565b618c33806200012c6000396000f3fe608060405234801561001057600080fd5b50600436106103265760003560e01c80637bcb20b0116101b8578063b224b4e911610104578063d63098dd116100a2578063e85bf1571161007c578063e85bf15714614896578063e8d72269146148d8578063ea2ad7da14614a48578063ee2a11ee14614b6b57610326565b8063d63098dd14614536578063d911f55314614578578063e02ed0281461470757610326565b8063bdd1a133116100de578063bdd1a13314613fce578063c7213d81146140f1578063cb51bba91461438e578063d2192dbf146143d057610326565b8063b224b4e914613cfc578063b59d5cfd14613e62578063b64e9f5914613f8c57610326565b8063937f6e77116101715780639a017e0a1161014b5780639a017e0a146135425780639f71bcdc146136ad578063ab1a607c14613948578063b156129914613bd957610326565b8063937f6e77146132d5578063986deb9a1461339057806398ed240c146133d257610326565b80637bcb20b014612bea5780637dce56ad14612c2c5780637e71caf414612e5c5780638599e25e1461300757806386ed19131461312157806392bbaf401461329357610326565b806350b33f80116102775780635dbfeeda116102305780636aa6443b1161020a5780636aa6443b146126c35780636c72bcb3146127e65780636e5ca08e146129585780637149164014612ac057610326565b80635dbfeeda14611ef45780635ea577031461211c5780636a18a8ea146122fa57610326565b806350b33f801461164857806351a729331461168a57806354fd4d50146117b45780635936f96e146118375780635a9b0b8914611c035780635ba8c29414611c8657610326565b8063111c4779116102e4578063395c2111116102be578063395c2111146110f657806339e7d4cd146111385780633df9601a146112a05780634fdf1dc11461144b57610326565b8063111c477914610b6c5780632499c6a614610dff57806331a3fc6e14610f6757610326565b80621f5bd21461032b5780630114cf0a14610455578063037f6ab41461070b5780630a1bb26a146108715780630f0d3da5146108b3578063100b6ba2146109d6575b600080fd5b6103576004803603602081101561034157600080fd5b8101908080359060200190929190505050614d6a565b6040518086815260200180602001858152602001841515815260200180602001838103835287818151815260200191508051906020019080838360005b838110156103af578082015181840152602081019050610394565b50505050905090810190601f1680156103dc5780820380516001836020036101000a031916815260200191505b50838103825284818151815260200191508051906020019080838360005b838110156104155780820151818401526020810190506103fa565b50505050905090810190601f1680156104425780820380516001836020036101000a031916815260200191505b5097505050505050505060405180910390f35b6104816004803603602081101561046b57600080fd5b8101908080359060200190929190505050614efa565b604051808a8152602001806020018060200180602001806020018060200189815260200188151581526020018060200187810387528f818151815260200191508051906020019080838360005b838110156104e95780820151818401526020810190506104ce565b50505050905090810190601f1680156105165780820380516001836020036101000a031916815260200191505b5087810386528e818151815260200191508051906020019080838360005b8381101561054f578082015181840152602081019050610534565b50505050905090810190601f16801561057c5780820380516001836020036101000a031916815260200191505b5087810385528d818151815260200191508051906020019080838360005b838110156105b557808201518184015260208101905061059a565b50505050905090810190601f1680156105e25780820380516001836020036101000a031916815260200191505b5087810384528c818151815260200191508051906020019080838360005b8381101561061b578082015181840152602081019050610600565b50505050905090810190601f1680156106485780820380516001836020036101000a031916815260200191505b5087810383528b818151815260200191508051906020019060200280838360005b83811015610684578082015181840152602081019050610669565b50505050905001878103825288818151815260200191508051906020019080838360005b838110156106c35780820151818401526020810190506106a8565b50505050905090810190601f1680156106f05780820380516001836020036101000a031916815260200191505b509f5050505050505050505050505050505060405180910390f35b61085b6004803603604081101561072157600080fd5b810190808035906020019064010000000081111561073e57600080fd5b82018360208201111561075057600080fd5b8035906020019184600183028401116401000000008311171561077257600080fd5b91908080601f016020809104026020016040519081016040528093929190818152602001838380828437600081840152601f19601f820116905080830192505050505050509192919290803590602001906401000000008111156107d557600080fd5b8201836020820111156107e757600080fd5b8035906020019184600183028401116401000000008311171561080957600080fd5b91908080601f016020809104026020016040519081016040528093929190818152602001838380828437600081840152601f19601f8201169050808301925050505050505091929192905050506152d2565b6040518082815260200191505060405180910390f35b61089d6004803603602081101561088757600080fd5b81019080803590602001909291905050506153e0565b6040518082815260200191505060405180910390f35b6108df600480360360208110156108c957600080fd5b8101908080359060200190929190505050615404565b6040518085815260200180602001841515815260200180602001838103835286818151815260200191508051906020019080838360005b83811015610931578082015181840152602081019050610916565b50505050905090810190601f16801561095e5780820380516001836020036101000a031916815260200191505b50838103825284818151815260200191508051906020019080838360005b8381101561099757808201518184015260208101905061097c565b50505050905090810190601f1680156109c45780820380516001836020036101000a031916815260200191505b50965050505050505060405180910390f35b610a02600480360360208110156109ec57600080fd5b8101908080359060200190929190505050615571565b604051808781526020018681526020018060200180602001851515815260200180602001848103845288818151815260200191508051906020019080838360005b83811015610a5e578082015181840152602081019050610a43565b50505050905090810190601f168015610a8b5780820380516001836020036101000a031916815260200191505b50848103835287818151815260200191508051906020019080838360005b83811015610ac4578082015181840152602081019050610aa9565b50505050905090810190601f168015610af15780820380516001836020036101000a031916815260200191505b50848103825285818151815260200191508051906020019080838360005b83811015610b2a578082015181840152602081019050610b0f565b50505050905090810190601f168015610b575780820380516001836020036101000a031916815260200191505b50995050505050505050505060405180910390f35b610dfd600480360360c0811015610b8257600080fd5b810190808035906020019092919080359060200190640100000000811115610ba957600080fd5b820183602082011115610bbb57600080fd5b80359060200191846001830284011164010000000083111715610bdd57600080fd5b91908080601f016020809104026020016040519081016040528093929190818152602001838380828437600081840152601f19601f82011690508083019250505050505050919291929080359060200190640100000000811115610c4057600080fd5b820183602082011115610c5257600080fd5b80359060200191846020830284011164010000000083111715610c7457600080fd5b919080806020026020016040519081016040528093929190818152602001838360200280828437600081840152601f19601f82011690508083019250505050505050919291929080359060200190640100000000811115610cd457600080fd5b820183602082011115610ce657600080fd5b80359060200191846001830284011164010000000083111715610d0857600080fd5b91908080601f016020809104026020016040519081016040528093929190818152602001838380828437600081840152601f19601f82011690508083019250505050505050919291929080359060200190640100000000811115610d6b57600080fd5b820183602082011115610d7d57600080fd5b80359060200191846001830284011164010000000083111715610d9f57600080fd5b91908080601f016020809104026020016040519081016040528093929190818152602001838380828437600081840152601f19601f820116905080830192505050505050509192919290803515159060200190929190505050615782565b005b610f6560048036036080811015610e1557600080fd5b810190808035906020019092919080359060200190640100000000811115610e3c57600080fd5b820183602082011115610e4e57600080fd5b80359060200191846001830284011164010000000083111715610e7057600080fd5b91908080601f016020809104026020016040519081016040528093929190818152602001838380828437600081840152601f19601f82011690508083019250505050505050919291929080359060200190640100000000811115610ed357600080fd5b820183602082011115610ee557600080fd5b80359060200191846001830284011164010000000083111715610f0757600080fd5b91908080601f016020809104026020016040519081016040528093929190818152602001838380828437600081840152601f19601f820116905080830192505050505050509192919290803515159060200190929190505050615858565b005b610f9360048036036020811015610f7d57600080fd5b81019080803590602001909291905050506158fb565b604051808681526020018060200180602001851515815260200180602001848103845288818151815260200191508051906020019080838360005b83811015610fe9578082015181840152602081019050610fce565b50505050905090810190601f1680156110165780820380516001836020036101000a031916815260200191505b50848103835287818151815260200191508051906020019080838360005b8381101561104f578082015181840152602081019050611034565b50505050905090810190601f16801561107c5780820380516001836020036101000a031916815260200191505b50848103825285818151815260200191508051906020019080838360005b838110156110b557808201518184015260208101905061109a565b50505050905090810190601f1680156110e25780820380516001836020036101000a031916815260200191505b509850505050505050505060405180910390f35b6111226004803603602081101561110c57600080fd5b8101908080359060200190929190505050615b06565b6040518082815260200191505060405180910390f35b61129e6004803603608081101561114e57600080fd5b81019080803590602001909291908035906020019064010000000081111561117557600080fd5b82018360208201111561118757600080fd5b803590602001918460018302840111640100000000831117156111a957600080fd5b91908080601f016020809104026020016040519081016040528093929190818152602001838380828437600081840152601f19601f8201169050808301925050505050505091929192908035906020019064010000000081111561120c57600080fd5b82018360208201111561121e57600080fd5b8035906020019184600183028401116401000000008311171561124057600080fd5b91908080601f016020809104026020016040519081016040528093929190818152602001838380828437600081840152601f19601f820116905080830192505050505050509192919290803515159060200190929190505050615b2a565b005b6112cc600480360360208110156112b657600080fd5b8101908080359060200190929190505050615bcd565b604051808a81526020018981526020018881526020018781526020018681526020018060200180602001851515815260200180602001848103845288818151815260200191508051906020019080838360005b8381101561133a57808201518184015260208101905061131f565b50505050905090810190601f1680156113675780820380516001836020036101000a031916815260200191505b50848103835287818151815260200191508051906020019080838360005b838110156113a0578082015181840152602081019050611385565b50505050905090810190601f1680156113cd5780820380516001836020036101000a031916815260200191505b50848103825285818151815260200191508051906020019080838360005b838110156114065780820151818401526020810190506113eb565b50505050905090810190601f1680156114335780820380516001836020036101000a031916815260200191505b509c5050505050505050505050505060405180910390f35b6116326004803603606081101561146157600080fd5b810190808035906020019064010000000081111561147e57600080fd5b82018360208201111561149057600080fd5b803590602001918460018302840111640100000000831117156114b257600080fd5b91908080601f016020809104026020016040519081016040528093929190818152602001838380828437600081840152601f19601f8201169050808301925050505050505091929192908035906020019064010000000081111561151557600080fd5b82018360208201111561152757600080fd5b8035906020019184600183028401116401000000008311171561154957600080fd5b91908080601f016020809104026020016040519081016040528093929190818152602001838380828437600081840152601f19601f820116905080830192505050505050509192919290803590602001906401000000008111156115ac57600080fd5b8201836020820111156115be57600080fd5b803590602001918460018302840111640100000000831117156115e057600080fd5b91908080601f016020809104026020016040519081016040528093929190818152602001838380828437600081840152601f19601f820116905080830192505050505050509192919290505050615df0565b6040518082815260200191505060405180910390f35b6116746004803603602081101561165e57600080fd5b8101908080359060200190929190505050615f18565b6040518082815260200191505060405180910390f35b6116b6600480360360208110156116a057600080fd5b8101908080359060200190929190505050615f3c565b6040518086815260200180602001858152602001841515815260200180602001838103835287818151815260200191508051906020019080838360005b8381101561170e5780820151818401526020810190506116f3565b50505050905090810190601f16801561173b5780820380516001836020036101000a031916815260200191505b50838103825284818151815260200191508051906020019080838360005b83811015611774578082015181840152602081019050611759565b50505050905090810190601f1680156117a15780820380516001836020036101000a031916815260200191505b5097505050505050505060405180910390f35b6117bc6160cc565b6040518080602001828103825283818151815260200191508051906020019080838360005b838110156117fc5780820151818401526020810190506117e1565b50505050905090810190601f1680156118295780820380516001836020036101000a031916815260200191505b509250505060405180910390f35b611c01600480360361012081101561184e57600080fd5b81019080803590602001909291908035906020019064010000000081111561187557600080fd5b82018360208201111561188757600080fd5b803590602001918460018302840111640100000000831117156118a957600080fd5b91908080601f016020809104026020016040519081016040528093929190818152602001838380828437600081840152601f19601f8201169050808301925050505050505091929192908035906020019064010000000081111561190c57600080fd5b82018360208201111561191e57600080fd5b8035906020019184600183028401116401000000008311171561194057600080fd5b91908080601f016020809104026020016040519081016040528093929190818152602001838380828437600081840152601f19601f820116905080830192505050505050509192919290803590602001906401000000008111156119a357600080fd5b8201836020820111156119b557600080fd5b803590602001918460018302840111640100000000831117156119d757600080fd5b91908080601f016020809104026020016040519081016040528093929190818152602001838380828437600081840152601f19601f82011690508083019250505050505050919291929080359060200190640100000000811115611a3a57600080fd5b820183602082011115611a4c57600080fd5b80359060200191846001830284011164010000000083111715611a6e57600080fd5b91908080601f016020809104026020016040519081016040528093929190818152602001838380828437600081840152601f19601f82011690508083019250505050505050919291929080359060200190640100000000811115611ad157600080fd5b820183602082011115611ae357600080fd5b80359060200191846020830284011164010000000083111715611b0557600080fd5b919080806020026020016040519081016040528093929190818152602001838360200280828437600081840152601f19601f8201169050808301925050505050505091929192908035906020019092919080359060200190640100000000811115611b6f57600080fd5b820183602082011115611b8157600080fd5b80359060200191846001830284011164010000000083111715611ba357600080fd5b91908080601f016020809104026020016040519081016040528093929190818152602001838380828437600081840152601f19601f82011690508083019250505050505050919291929080351515906020019092919050505061616a565b005b611c0b61627f565b6040518080602001828103825283818151815260200191508051906020019080838360005b83811015611c4b578082015181840152602081019050611c30565b50505050905090810190601f168015611c785780820380516001836020036101000a031916815260200191505b509250505060405180910390f35b611cb260048036036020811015611c9c57600080fd5b8101908080359060200190929190505050616321565b604051808981526020018060200180602001806020018060200188815260200187151581526020018060200186810386528d818151815260200191508051906020019080838360005b83811015611d16578082015181840152602081019050611cfb565b50505050905090810190601f168015611d435780820380516001836020036101000a031916815260200191505b5086810385528c818151815260200191508051906020019080838360005b83811015611d7c578082015181840152602081019050611d61565b50505050905090810190601f168015611da95780820380516001836020036101000a031916815260200191505b5086810384528b818151815260200191508051906020019080838360005b83811015611de2578082015181840152602081019050611dc7565b50505050905090810190601f168015611e0f5780820380516001836020036101000a031916815260200191505b5086810383528a818151815260200191508051906020019080838360005b83811015611e48578082015181840152602081019050611e2d565b50505050905090810190601f168015611e755780820380516001836020036101000a031916815260200191505b50868103825287818151815260200191508051906020019080838360005b83811015611eae578082015181840152602081019050611e93565b50505050905090810190601f168015611edb5780820380516001836020036101000a031916815260200191505b509d505050505050505050505050505060405180910390f35b61211a6004803603610120811015611f0b57600080fd5b81019080803590602001909291908035906020019092919080359060200190929190803590602001909291908035906020019092919080359060200190640100000000811115611f5a57600080fd5b820183602082011115611f6c57600080fd5b80359060200191846001830284011164010000000083111715611f8e57600080fd5b91908080601f016020809104026020016040519081016040528093929190818152602001838380828437600081840152601f19601f82011690508083019250505050505050919291929080359060200190640100000000811115611ff157600080fd5b82018360208201111561200357600080fd5b8035906020019184600183028401116401000000008311171561202557600080fd5b91908080601f016020809104026020016040519081016040528093929190818152602001838380828437600081840152601f19601f8201169050808301925050505050505091929192908035906020019064010000000081111561208857600080fd5b82018360208201111561209a57600080fd5b803590602001918460018302840111640100000000831117156120bc57600080fd5b91908080601f016020809104026020016040519081016040528093929190818152602001838380828437600081840152601f19601f82011690508083019250505050505050919291929080351515906020019092919050505061666e565b005b6121486004803603602081101561213257600080fd5b810190808035906020019092919050505061675c565b6040518088815260200187815260200180602001806020018060200186151581526020018060200185810385528a818151815260200191508051906020019080838360005b838110156121a857808201518184015260208101905061218d565b50505050905090810190601f1680156121d55780820380516001836020036101000a031916815260200191505b50858103845289818151815260200191508051906020019080838360005b8381101561220e5780820151818401526020810190506121f3565b50505050905090810190601f16801561223b5780820380516001836020036101000a031916815260200191505b50858103835288818151815260200191508051906020019060200280838360005b8381101561227757808201518184015260208101905061225c565b50505050905001858103825286818151815260200191508051906020019080838360005b838110156122b657808201518184015260208101905061229b565b50505050905090810190601f1680156122e35780820380516001836020036101000a031916815260200191505b509b50505050505050505050505060405180910390f35b6126ad600480360360e081101561231057600080fd5b810190808035906020019064010000000081111561232d57600080fd5b82018360208201111561233f57600080fd5b8035906020019184600183028401116401000000008311171561236157600080fd5b91908080601f016020809104026020016040519081016040528093929190818152602001838380828437600081840152601f19601f820116905080830192505050505050509192919290803590602001906401000000008111156123c457600080fd5b8201836020820111156123d657600080fd5b803590602001918460018302840111640100000000831117156123f857600080fd5b91908080601f016020809104026020016040519081016040528093929190818152602001838380828437600081840152601f19601f8201169050808301925050505050505091929192908035906020019064010000000081111561245b57600080fd5b82018360208201111561246d57600080fd5b8035906020019184600183028401116401000000008311171561248f57600080fd5b91908080601f016020809104026020016040519081016040528093929190818152602001838380828437600081840152601f19601f820116905080830192505050505050509192919290803590602001906401000000008111156124f257600080fd5b82018360208201111561250457600080fd5b8035906020019184600183028401116401000000008311171561252657600080fd5b91908080601f016020809104026020016040519081016040528093929190818152602001838380828437600081840152601f19601f8201169050808301925050505050505091929192908035906020019064010000000081111561258957600080fd5b82018360208201111561259b57600080fd5b803590602001918460208302840111640100000000831117156125bd57600080fd5b919080806020026020016040519081016040528093929190818152602001838360200280828437600081840152601f19601f820116905080830192505050505050509192919290803590602001909291908035906020019064010000000081111561262757600080fd5b82018360208201111561263957600080fd5b8035906020019184600183028401116401000000008311171561265b57600080fd5b91908080601f016020809104026020016040519081016040528093929190818152602001838380828437600081840152601f19601f8201169050808301925050505050505091929192905050506169eb565b6040518082815260200191505060405180910390f35b6126ef600480360360208110156126d957600080fd5b8101908080359060200190929190505050616b6b565b6040518085815260200180602001841515815260200180602001838103835286818151815260200191508051906020019080838360005b83811015612741578082015181840152602081019050612726565b50505050905090810190601f16801561276e5780820380516001836020036101000a031916815260200191505b50838103825284818151815260200191508051906020019080838360005b838110156127a757808201518184015260208101905061278c565b50505050905090810190601f1680156127d45780820380516001836020036101000a031916815260200191505b50965050505050505060405180910390f35b612956600480360360a08110156127fc57600080fd5b81019080803590602001909291908035906020019064010000000081111561282357600080fd5b82018360208201111561283557600080fd5b8035906020019184600183028401116401000000008311171561285757600080fd5b91908080601f016020809104026020016040519081016040528093929190818152602001838380828437600081840152601f19601f82011690508083019250505050505050919291929080359060200190929190803590602001906401000000008111156128c457600080fd5b8201836020820111156128d657600080fd5b803590602001918460018302840111640100000000831117156128f857600080fd5b91908080601f016020809104026020016040519081016040528093929190818152602001838380828437600081840152601f19601f820116905080830192505050505050509192919290803515159060200190929190505050616cd8565b005b612abe6004803603608081101561296e57600080fd5b81019080803590602001909291908035906020019064010000000081111561299557600080fd5b8201836020820111156129a757600080fd5b803590602001918460018302840111640100000000831117156129c957600080fd5b91908080601f016020809104026020016040519081016040528093929190818152602001838380828437600081840152601f19601f82011690508083019250505050505050919291929080359060200190640100000000811115612a2c57600080fd5b820183602082011115612a3e57600080fd5b80359060200191846001830284011164010000000083111715612a6057600080fd5b91908080601f016020809104026020016040519081016040528093929190818152602001838380828437600081840152601f19601f820116905080830192505050505050509192919290803515159060200190929190505050616d85565b005b612aec60048036036020811015612ad657600080fd5b8101908080359060200190929190505050616e28565b6040518086815260200180602001858152602001841515815260200180602001838103835287818151815260200191508051906020019080838360005b83811015612b44578082015181840152602081019050612b29565b50505050905090810190601f168015612b715780820380516001836020036101000a031916815260200191505b50838103825284818151815260200191508051906020019080838360005b83811015612baa578082015181840152602081019050612b8f565b50505050905090810190601f168015612bd75780820380516001836020036101000a031916815260200191505b5097505050505050505060405180910390f35b612c1660048036036020811015612c0057600080fd5b8101908080359060200190929190505050616f9b565b6040518082815260200191505060405180910390f35b612e466004803603610100811015612c4357600080fd5b81019080803590602001909291908035906020019092919080359060200190929190803590602001909291908035906020019092919080359060200190640100000000811115612c9257600080fd5b820183602082011115612ca457600080fd5b80359060200191846001830284011164010000000083111715612cc657600080fd5b91908080601f016020809104026020016040519081016040528093929190818152602001838380828437600081840152601f19601f82011690508083019250505050505050919291929080359060200190640100000000811115612d2957600080fd5b820183602082011115612d3b57600080fd5b80359060200191846001830284011164010000000083111715612d5d57600080fd5b91908080601f016020809104026020016040519081016040528093929190818152602001838380828437600081840152601f19601f82011690508083019250505050505050919291929080359060200190640100000000811115612dc057600080fd5b820183602082011115612dd257600080fd5b80359060200191846001830284011164010000000083111715612df457600080fd5b91908080601f016020809104026020016040519081016040528093929190818152602001838380828437600081840152601f19601f820116905080830192505050505050509192919290505050616fbf565b6040518082815260200191505060405180910390f35b612e8860048036036020811015612e7257600080fd5b8101908080359060200190929190505050617110565b604051808a81526020018981526020018881526020018781526020018681526020018060200180602001851515815260200180602001848103845288818151815260200191508051906020019080838360005b83811015612ef6578082015181840152602081019050612edb565b50505050905090810190601f168015612f235780820380516001836020036101000a031916815260200191505b50848103835287818151815260200191508051906020019080838360005b83811015612f5c578082015181840152602081019050612f41565b50505050905090810190601f168015612f895780820380516001836020036101000a031916815260200191505b50848103825285818151815260200191508051906020019080838360005b83811015612fc2578082015181840152602081019050612fa7565b50505050905090810190601f168015612fef5780820380516001836020036101000a031916815260200191505b509c5050505050505050505050505060405180910390f35b6130336004803603602081101561301d57600080fd5b8101908080359060200190929190505050617361565b604051808481526020018060200180602001838103835285818151815260200191508051906020019080838360005b8381101561307d578082015181840152602081019050613062565b50505050905090810190601f1680156130aa5780820380516001836020036101000a031916815260200191505b50838103825284818151815260200191508051906020019080838360005b838110156130e35780820151818401526020810190506130c8565b50505050905090810190601f1680156131105780820380516001836020036101000a031916815260200191505b509550505050505060405180910390f35b613291600480360360a081101561313757600080fd5b81019080803590602001909291908035906020019064010000000081111561315e57600080fd5b82018360208201111561317057600080fd5b8035906020019184600183028401116401000000008311171561319257600080fd5b91908080601f016020809104026020016040519081016040528093929190818152602001838380828437600081840152601f19601f82011690508083019250505050505050919291929080359060200190929190803590602001906401000000008111156131ff57600080fd5b82018360208201111561321157600080fd5b8035906020019184600183028401116401000000008311171561323357600080fd5b91908080601f016020809104026020016040519081016040528093929190818152602001838380828437600081840152601f19601f8201169050808301925050505050505091929192908035151590602001909291905050506174d0565b005b6132bf600480360360208110156132a957600080fd5b810190808035906020019092919050505061757d565b6040518082815260200191505060405180910390f35b61338e600480360360208110156132eb57600080fd5b810190808035906020019064010000000081111561330857600080fd5b82018360208201111561331a57600080fd5b8035906020019184600183028401116401000000008311171561333c57600080fd5b91908080601f016020809104026020016040519081016040528093929190818152602001838380828437600081840152601f19601f8201169050808301925050505050505091929192905050506175a1565b005b6133bc600480360360208110156133a657600080fd5b81019080803590602001909291905050506175bb565b6040518082815260200191505060405180910390f35b61352c600480360360608110156133e857600080fd5b810190808035906020019064010000000081111561340557600080fd5b82018360208201111561341757600080fd5b8035906020019184600183028401116401000000008311171561343957600080fd5b91908080601f016020809104026020016040519081016040528093929190818152602001838380828437600081840152601f19601f82011690508083019250505050505050919291929080359060200190929190803590602001906401000000008111156134a657600080fd5b8201836020820111156134b857600080fd5b803590602001918460018302840111640100000000831117156134da57600080fd5b91908080601f016020809104026020016040519081016040528093929190818152602001838380828437600081840152601f19601f8201169050808301925050505050505091929192905050506175df565b6040518082815260200191505060405180910390f35b61356e6004803603602081101561355857600080fd5b81019080803590602001909291905050506176f7565b604051808681526020018060200180602001851515815260200180602001848103845288818151815260200191508051906020019080838360005b838110156135c45780820151818401526020810190506135a9565b50505050905090810190601f1680156135f15780820380516001836020036101000a031916815260200191505b50848103835287818151815260200191508051906020019060200280838360005b8381101561362d578082015181840152602081019050613612565b50505050905001848103825285818151815260200191508051906020019080838360005b8381101561366c578082015181840152602081019050613651565b50505050905090810190601f1680156136995780820380516001836020036101000a031916815260200191505b509850505050505050505060405180910390f35b613932600480360360a08110156136c357600080fd5b81019080803590602001906401000000008111156136e057600080fd5b8201836020820111156136f257600080fd5b8035906020019184600183028401116401000000008311171561371457600080fd5b91908080601f016020809104026020016040519081016040528093929190818152602001838380828437600081840152601f19601f820116905080830192505050505050509192919290803590602001909291908035906020019064010000000081111561378157600080fd5b82018360208201111561379357600080fd5b803590602001918460018302840111640100000000831117156137b557600080fd5b91908080601f016020809104026020016040519081016040528093929190818152602001838380828437600081840152601f19601f8201169050808301925050505050505091929192908035906020019064010000000081111561381857600080fd5b82018360208201111561382a57600080fd5b8035906020019184602083028401116401000000008311171561384c57600080fd5b919080806020026020016040519081016040528093929190818152602001838360200280828437600081840152601f19601f820116905080830192505050505050509192919290803590602001906401000000008111156138ac57600080fd5b8201836020820111156138be57600080fd5b803590602001918460018302840111640100000000831117156138e057600080fd5b91908080601f016020809104026020016040519081016040528093929190818152602001838380828437600081840152601f19601f8201169050808301925050505050505091929192905050506178d7565b6040518082815260200191505060405180910390f35b613bc36004803603608081101561395e57600080fd5b810190808035906020019064010000000081111561397b57600080fd5b82018360208201111561398d57600080fd5b803590602001918460018302840111640100000000831117156139af57600080fd5b91908080601f016020809104026020016040519081016040528093929190818152602001838380828437600081840152601f19601f82011690508083019250505050505050919291929080359060200190640100000000811115613a1257600080fd5b820183602082011115613a2457600080fd5b80359060200191846020830284011164010000000083111715613a4657600080fd5b919080806020026020016040519081016040528093929190818152602001838360200280828437600081840152601f19601f82011690508083019250505050505050919291929080359060200190640100000000811115613aa657600080fd5b820183602082011115613ab857600080fd5b80359060200191846001830284011164010000000083111715613ada57600080fd5b91908080601f016020809104026020016040519081016040528093929190818152602001838380828437600081840152601f19601f82011690508083019250505050505050919291929080359060200190640100000000811115613b3d57600080fd5b820183602082011115613b4f57600080fd5b80359060200191846001830284011164010000000083111715613b7157600080fd5b91908080601f016020809104026020016040519081016040528093929190818152602001838380828437600081840152601f19601f820116905080830192505050505050509192919290505050617a23565b6040518082815260200191505060405180910390f35b613c0560048036036020811015613bef57600080fd5b8101908080359060200190929190505050617b64565b6040518085815260200180602001841515815260200180602001838103835286818151815260200191508051906020019080838360005b83811015613c57578082015181840152602081019050613c3c565b50505050905090810190601f168015613c845780820380516001836020036101000a031916815260200191505b50838103825284818151815260200191508051906020019080838360005b83811015613cbd578082015181840152602081019050613ca2565b50505050905090810190601f168015613cea5780820380516001836020036101000a031916815260200191505b50965050505050505060405180910390f35b613e4c60048036036040811015613d1257600080fd5b8101908080359060200190640100000000811115613d2f57600080fd5b820183602082011115613d4157600080fd5b80359060200191846001830284011164010000000083111715613d6357600080fd5b91908080601f016020809104026020016040519081016040528093929190818152602001838380828437600081840152601f19601f82011690508083019250505050505050919291929080359060200190640100000000811115613dc657600080fd5b820183602082011115613dd857600080fd5b80359060200191846001830284011164010000000083111715613dfa57600080fd5b91908080601f016020809104026020016040519081016040528093929190818152602001838380828437600081840152601f19601f820116905080830192505050505050509192919290505050617cd1565b6040518082815260200191505060405180910390f35b613e8e60048036036020811015613e7857600080fd5b8101908080359060200190929190505050617ddf565b6040518086815260200180602001858152602001841515815260200180602001838103835287818151815260200191508051906020019080838360005b83811015613ee6578082015181840152602081019050613ecb565b50505050905090810190601f168015613f135780820380516001836020036101000a031916815260200191505b50838103825284818151815260200191508051906020019080838360005b83811015613f4c578082015181840152602081019050613f31565b50505050905090810190601f168015613f795780820380516001836020036101000a031916815260200191505b5097505050505050505060405180910390f35b613fb860048036036020811015613fa257600080fd5b8101908080359060200190929190505050617f52565b6040518082815260200191505060405180910390f35b613ffa60048036036020811015613fe457600080fd5b8101908080359060200190929190505050617f76565b6040518085815260200180602001841515815260200180602001838103835286818151815260200191508051906020019080838360005b8381101561404c578082015181840152602081019050614031565b50505050905090810190601f1680156140795780820380516001836020036101000a031916815260200191505b50838103825284818151815260200191508051906020019080838360005b838110156140b2578082015181840152602081019050614097565b50505050905090810190601f1680156140df5780820380516001836020036101000a031916815260200191505b50965050505050505060405180910390f35b61438c600480360360e081101561410757600080fd5b81019080803590602001909291908035906020019064010000000081111561412e57600080fd5b82018360208201111561414057600080fd5b8035906020019184600183028401116401000000008311171561416257600080fd5b91908080601f016020809104026020016040519081016040528093929190818152602001838380828437600081840152601f19601f82011690508083019250505050505050919291929080359060200190929190803590602001906401000000008111156141cf57600080fd5b8201836020820111156141e157600080fd5b8035906020019184600183028401116401000000008311171561420357600080fd5b91908080601f016020809104026020016040519081016040528093929190818152602001838380828437600081840152601f19601f8201169050808301925050505050505091929192908035906020019064010000000081111561426657600080fd5b82018360208201111561427857600080fd5b8035906020019184602083028401116401000000008311171561429a57600080fd5b919080806020026020016040519081016040528093929190818152602001838360200280828437600081840152601f19601f820116905080830192505050505050509192919290803590602001906401000000008111156142fa57600080fd5b82018360208201111561430c57600080fd5b8035906020019184600183028401116401000000008311171561432e57600080fd5b91908080601f016020809104026020016040519081016040528093929190818152602001838380828437600081840152601f19601f8201169050808301925050505050505091929192908035151590602001909291905050506180fc565b005b6143ba600480360360208110156143a457600080fd5b81019080803590602001909291905050506181dd565b6040518082815260200191505060405180910390f35b614520600480360360408110156143e657600080fd5b810190808035906020019064010000000081111561440357600080fd5b82018360208201111561441557600080fd5b8035906020019184600183028401116401000000008311171561443757600080fd5b91908080601f016020809104026020016040519081016040528093929190818152602001838380828437600081840152601f19601f8201169050808301925050505050505091929192908035906020019064010000000081111561449a57600080fd5b8201836020820111156144ac57600080fd5b803590602001918460018302840111640100000000831117156144ce57600080fd5b91908080601f016020809104026020016040519081016040528093929190818152602001838380828437600081840152601f19601f820116905080830192505050505050509192919290505050618201565b6040518082815260200191505060405180910390f35b6145626004803603602081101561454c57600080fd5b810190808035906020019092919050505061830f565b6040518082815260200191505060405180910390f35b6145a46004803603602081101561458e57600080fd5b8101908080359060200190929190505050618333565b604051808681526020018060200180602001851515815260200180602001848103845288818151815260200191508051906020019080838360005b838110156145fa5780820151818401526020810190506145df565b50505050905090810190601f1680156146275780820380516001836020036101000a031916815260200191505b50848103835287818151815260200191508051906020019080838360005b83811015614660578082015181840152602081019050614645565b50505050905090810190601f16801561468d5780820380516001836020036101000a031916815260200191505b50848103825285818151815260200191508051906020019080838360005b838110156146c65780820151818401526020810190506146ab565b50505050905090810190601f1680156146f35780820380516001836020036101000a031916815260200191505b509850505050505050505060405180910390f35b6147336004803603602081101561471d57600080fd5b810190808035906020019092919050505061855e565b604051808681526020018060200180602001851515815260200180602001848103845288818151815260200191508051906020019080838360005b8381101561478957808201518184015260208101905061476e565b50505050905090810190601f1680156147b65780820380516001836020036101000a031916815260200191505b50848103835287818151815260200191508051906020019080838360005b838110156147ef5780820151818401526020810190506147d4565b50505050905090810190601f16801561481c5780820380516001836020036101000a031916815260200191505b50848103825285818151815260200191508051906020019080838360005b8381101561485557808201518184015260208101905061483a565b50505050905090810190601f1680156148825780820380516001836020036101000a031916815260200191505b509850505050505050505060405180910390f35b6148c2600480360360208110156148ac57600080fd5b8101908080359060200190929190505050618769565b6040518082815260200191505060405180910390f35b614a32600480360360608110156148ee57600080fd5b810190808035906020019064010000000081111561490b57600080fd5b82018360208201111561491d57600080fd5b8035906020019184600183028401116401000000008311171561493f57600080fd5b91908080601f016020809104026020016040519081016040528093929190818152602001838380828437600081840152601f19601f82011690508083019250505050505050919291929080359060200190929190803590602001906401000000008111156149ac57600080fd5b8201836020820111156149be57600080fd5b803590602001918460018302840111640100000000831117156149e057600080fd5b91908080601f016020809104026020016040519081016040528093929190818152602001838380828437600081840152601f19601f82011690508083019250505050505050919291929050505061878d565b6040518082815260200191505060405180910390f35b614a7460048036036020811015614a5e57600080fd5b81019080803590602001909291905050506188a5565b6040518085815260200180602001841515815260200180602001838103835286818151815260200191508051906020019080838360005b83811015614ac6578082015181840152602081019050614aab565b50505050905090810190601f168015614af35780820380516001836020036101000a031916815260200191505b50838103825284818151815260200191508051906020019080838360005b83811015614b2c578082015181840152602081019050614b11565b50505050905090810190601f168015614b595780820380516001836020036101000a031916815260200191505b50965050505050505060405180910390f35b614d68600480360360a0811015614b8157600080fd5b810190808035906020019092919080359060200190640100000000811115614ba857600080fd5b820183602082011115614bba57600080fd5b80359060200191846001830284011164010000000083111715614bdc57600080fd5b91908080601f016020809104026020016040519081016040528093929190818152602001838380828437600081840152601f19601f82011690508083019250505050505050919291929080359060200190640100000000811115614c3f57600080fd5b820183602082011115614c5157600080fd5b80359060200191846001830284011164010000000083111715614c7357600080fd5b91908080601f016020809104026020016040519081016040528093929190818152602001838380828437600081840152601f19601f82011690508083019250505050505050919291929080359060200190640100000000811115614cd657600080fd5b820183602082011115614ce857600080fd5b80359060200191846001830284011164010000000083111715614d0a57600080fd5b91908080601f016020809104026020016040519081016040528093929190818152602001838380828437600081840152601f19601f820116905080830192505050505050509192919290803515159060200190929190505050618a2b565b005b600060606000806060600060036000888152602001908152602001600020905080600001548160010182600201548360030160009054906101000a900460ff1684600401838054600181600116156101000203166002900480601f016020809104026020016040519081016040528092919081815260200182805460018160011615610100020316600290048015614e435780601f10614e1857610100808354040283529160200191614e43565b820191906000526020600020905b815481529060010190602001808311614e2657829003601f168201915b50505050509350808054600181600116156101000203166002900480601f016020809104026020016040519081016040528092919081815260200182805460018160011615610100020316600290048015614edf5780601f10614eb457610100808354040283529160200191614edf565b820191906000526020600020905b815481529060010190602001808311614ec257829003601f168201915b50505050509050955095509550955095505091939590929450565b6000606080606080606060008060606000600760008c815260200190815260200160002090508060000154816001018260020183600301846004018560050186600601548760070160009054906101000a900460ff1688600801878054600181600116156101000203166002900480601f016020809104026020016040519081016040528092919081815260200182805460018160011615610100020316600290048015614fe95780601f10614fbe57610100808354040283529160200191614fe9565b820191906000526020600020905b815481529060010190602001808311614fcc57829003601f168201915b50505050509750868054600181600116156101000203166002900480601f0160208091040260200160405190810160405280929190818152602001828054600181600116156101000203166002900480156150855780601f1061505a57610100808354040283529160200191615085565b820191906000526020600020905b81548152906001019060200180831161506857829003601f168201915b50505050509650858054600181600116156101000203166002900480601f0160208091040260200160405190810160405280929190818152602001828054600181600116156101000203166002900480156151215780601f106150f657610100808354040283529160200191615121565b820191906000526020600020905b81548152906001019060200180831161510457829003601f168201915b50505050509550848054600181600116156101000203166002900480601f0160208091040260200160405190810160405280929190818152602001828054600181600116156101000203166002900480156151bd5780601f10615192576101008083540402835291602001916151bd565b820191906000526020600020905b8154815290600101906020018083116151a057829003601f168201915b505050505094508380548060200260200160405190810160405280929190818152602001828054801561520f57602002820191906000526020600020905b8154815260200190600101908083116151fb575b50505050509350808054600181600116156101000203166002900480601f0160208091040260200160405190810160405280929190818152602001828054600181600116156101000203166002900480156152ab5780601f10615280576101008083540402835291602001916152ab565b820191906000526020600020905b81548152906001019060200180831161528e57829003601f168201915b50505050509050995099509950995099509950995099509950509193959799909294969850565b60008042446040516020018083815260200182815260200192505050604051602081830303815290604052805190602001209050600060016000838152602001908152602001600020905081816000018190555060018160020160006101000a81548160ff0219169083151502179055508481600101908051906020019061535b929190618ae8565b5083816003019080519060200190615374929190618ae8565b50600b8290806001815401808255809150506001900390600052602060002001600090919091909150557f419c23ff814e3967d54e8426b09e6bb4cfe5682b082e396c591e97bcad447ba9826040518082815260200191505060405180910390a1819250505092915050565b600b81815481106153f057600080fd5b906000526020600020016000915090505481565b6006602052806000526040600020600091509050806000015490806001018054600181600116156101000203166002900480601f0160208091040260200160405190810160405280929190818152602001828054600181600116156101000203166002900480156154b65780601f1061548b576101008083540402835291602001916154b6565b820191906000526020600020905b81548152906001019060200180831161549957829003601f168201915b5050505050908060020160009054906101000a900460ff1690806003018054600181600116156101000203166002900480601f0160208091040260200160405190810160405280929190818152602001828054600181600116156101000203166002900480156155675780601f1061553c57610100808354040283529160200191615567565b820191906000526020600020905b81548152906001019060200180831161554a57829003601f168201915b5050505050905084565b6005602052806000526040600020600091509050806000015490806001015490806002018054600181600116156101000203166002900480601f0160208091040260200160405190810160405280929190818152602001828054600181600116156101000203166002900480156156295780601f106155fe57610100808354040283529160200191615629565b820191906000526020600020905b81548152906001019060200180831161560c57829003601f168201915b505050505090806003018054600181600116156101000203166002900480601f0160208091040260200160405190810160405280929190818152602001828054600181600116156101000203166002900480156156c75780601f1061569c576101008083540402835291602001916156c7565b820191906000526020600020905b8154815290600101906020018083116156aa57829003601f168201915b5050505050908060050160009054906101000a900460ff1690806006018054600181600116156101000203166002900480601f0160208091040260200160405190810160405280929190818152602001828054600181600116156101000203166002900480156157785780601f1061574d57610100808354040283529160200191615778565b820191906000526020600020905b81548152906001019060200180831161575b57829003601f168201915b5050505050905086565b60008060008881526020019081526020016000209050848160020190805190602001906157b0929190618b76565b50838160030190805190602001906157c9929190618ae8565b50858160010190805190602001906157e2929190618ae8565b50818160040160006101000a81548160ff02191690831515021790555082816005019080519060200190615817929190618ae8565b507f81cd5cff107d9c8214b96b0fd16f800e4a820213e366cd2b3bec86e730dbcfc6876040518082815260200191505060405180910390a150505050505050565b600060016000868152602001908152602001600020905083816001019080519060200190615887929190618ae8565b50818160020160006101000a81548160ff021916908315150217905550828160030190805190602001906158bc929190618ae8565b507f4c9c025c66604acf9c898ba08849a696a99176a0d78bdf6ac5111e11e14b59aa856040518082815260200191505060405180910390a15050505050565b6008602052806000526040600020600091509050806000015490806001018054600181600116156101000203166002900480601f0160208091040260200160405190810160405280929190818152602001828054600181600116156101000203166002900480156159ad5780601f10615982576101008083540402835291602001916159ad565b820191906000526020600020905b81548152906001019060200180831161599057829003601f168201915b505050505090806002018054600181600116156101000203166002900480601f016020809104026020016040519081016040528092919081815260200182805460018160011615610100020316600290048015615a4b5780601f10615a2057610100808354040283529160200191615a4b565b820191906000526020600020905b815481529060010190602001808311615a2e57829003601f168201915b5050505050908060030160009054906101000a900460ff1690806004018054600181600116156101000203166002900480601f016020809104026020016040519081016040528092919081815260200182805460018160011615610100020316600290048015615afc5780601f10615ad157610100808354040283529160200191615afc565b820191906000526020600020905b815481529060010190602001808311615adf57829003601f168201915b5050505050905085565b60128181548110615b1657600080fd5b906000526020600020016000915090505481565b600060066000868152602001908152602001600020905083816001019080519060200190615b59929190618ae8565b50818160020160006101000a81548160ff02191690831515021790555082816003019080519060200190615b8e929190618ae8565b507f5e293651729dbde44d92d54c33bc997eac7c3742e57f302f71336f176a39e4ab856040518082815260200191505060405180910390a15050505050565b6009602052806000526040600020600091509050806000015490806001015490806002015490806003015490806004015490806005018054600181600116156101000203166002900480601f016020809104026020016040519081016040528092919081815260200182805460018160011615610100020316600290048015615c975780601f10615c6c57610100808354040283529160200191615c97565b820191906000526020600020905b815481529060010190602001808311615c7a57829003601f168201915b505050505090806006018054600181600116156101000203166002900480601f016020809104026020016040519081016040528092919081815260200182805460018160011615610100020316600290048015615d355780601f10615d0a57610100808354040283529160200191615d35565b820191906000526020600020905b815481529060010190602001808311615d1857829003601f168201915b5050505050908060070160009054906101000a900460ff1690806008018054600181600116156101000203166002900480601f016020809104026020016040519081016040528092919081815260200182805460018160011615610100020316600290048015615de65780601f10615dbb57610100808354040283529160200191615de6565b820191906000526020600020905b815481529060010190602001808311615dc957829003601f168201915b5050505050905089565b60008042446040516020018083815260200182815260200192505050604051602081830303815290604052805190602001209050600060086000838152602001908152602001600020905081816000018190555085816001019080519060200190615e5c929190618ae8565b5084816002019080519060200190615e75929190618ae8565b5060018160030160006101000a81548160ff02191690831515021790555083816004019080519060200190615eab929190618ae8565b5060128290806001815401808255809150506001900390600052602060002001600090919091909150557f6956a71484c646076551330ff66644c57e2bba15c81bbed91f80fa243c74a887826040518082815260200191505060405180910390a181925050509392505050565b600a8181548110615f2857600080fd5b906000526020600020016000915090505481565b600060606000806060600060026000888152602001908152602001600020905080600001548160010182600201548360030160009054906101000a900460ff1684600401838054600181600116156101000203166002900480601f0160208091040260200160405190810160405280929190818152602001828054600181600116156101000203166002900480156160155780601f10615fea57610100808354040283529160200191616015565b820191906000526020600020905b815481529060010190602001808311615ff857829003601f168201915b50505050509350808054600181600116156101000203166002900480601f0160208091040260200160405190810160405280929190818152602001828054600181600116156101000203166002900480156160b15780601f10616086576101008083540402835291602001916160b1565b820191906000526020600020905b81548152906001019060200180831161609457829003601f168201915b50505050509050955095509550955095505091939590929450565b60158054600181600116156101000203166002900480601f0160208091040260200160405190810160405280929190818152602001828054600181600116156101000203166002900480156161625780601f1061613757610100808354040283529160200191616162565b820191906000526020600020905b81548152906001019060200180831161614557829003601f168201915b505050505081565b6000600760008b8152602001908152602001600020905088816001019080519060200190616199929190618ae8565b50878160020190805190602001906161b2929190618ae8565b50868160030190805190602001906161cb929190618ae8565b50858160040190805190602001906161e4929190618ae8565b50848160050190805190602001906161fd929190618b76565b50838160060181905550818160070160006101000a81548160ff0219169083151502179055508281600801908051906020019061623b929190618ae8565b507fbcc8547d07ccdb27400e2524da86bf5bcc4f0ef2adce334b30a704fd45f6b2538a6040518082815260200191505060405180910390a150505050505050505050565b606060148054600181600116156101000203166002900480601f0160208091040260200160405190810160405280929190818152602001828054600181600116156101000203166002900480156163175780601f106162ec57610100808354040283529160200191616317565b820191906000526020600020905b8154815290600101906020018083116162fa57829003601f168201915b5050505050905090565b6007602052806000526040600020600091509050806000015490806001018054600181600116156101000203166002900480601f0160208091040260200160405190810160405280929190818152602001828054600181600116156101000203166002900480156163d35780601f106163a8576101008083540402835291602001916163d3565b820191906000526020600020905b8154815290600101906020018083116163b657829003601f168201915b505050505090806002018054600181600116156101000203166002900480601f0160208091040260200160405190810160405280929190818152602001828054600181600116156101000203166002900480156164715780601f1061644657610100808354040283529160200191616471565b820191906000526020600020905b81548152906001019060200180831161645457829003601f168201915b505050505090806003018054600181600116156101000203166002900480601f01602080910402602001604051908101604052809291908181526020018280546001816001161561010002031660029004801561650f5780601f106164e45761010080835404028352916020019161650f565b820191906000526020600020905b8154815290600101906020018083116164f257829003601f168201915b505050505090806004018054600181600116156101000203166002900480601f0160208091040260200160405190810160405280929190818152602001828054600181600116156101000203166002900480156165ad5780601f10616582576101008083540402835291602001916165ad565b820191906000526020600020905b81548152906001019060200180831161659057829003601f168201915b5050505050908060060154908060070160009054906101000a900460ff1690806008018054600181600116156101000203166002900480601f0160208091040260200160405190810160405280929190818152602001828054600181600116156101000203166002900480156166645780601f1061663957610100808354040283529160200191616664565b820191906000526020600020905b81548152906001019060200180831161664757829003601f168201915b5050505050905088565b6000600960008b81526020019081526020016000209050888160010181905550878160020181905550868160030181905550888160010181905550858160040181905550848160050190805190602001906166ca929190618ae8565b50838160060190805190602001906166e3929190618ae8565b50818160070160006101000a81548160ff02191690831515021790555082816008019080519060200190616718929190618ae8565b507f756a4458a6731666582902acc2a9947de5acf7e820c3ed211175cb75ee52e4a98a6040518082815260200191505060405180910390a150505050505050505050565b6000806060806060600060606000600560008a81526020019081526020016000209050806000015481600101548260020183600301846004018560050160009054906101000a900460ff1686600601848054600181600116156101000203166002900480601f0160208091040260200160405190810160405280929190818152602001828054600181600116156101000203166002900480156168405780601f1061681557610100808354040283529160200191616840565b820191906000526020600020905b81548152906001019060200180831161682357829003601f168201915b50505050509450838054600181600116156101000203166002900480601f0160208091040260200160405190810160405280929190818152602001828054600181600116156101000203166002900480156168dc5780601f106168b1576101008083540402835291602001916168dc565b820191906000526020600020905b8154815290600101906020018083116168bf57829003601f168201915b505050505093508280548060200260200160405190810160405280929190818152602001828054801561692e57602002820191906000526020600020905b81548152602001906001019080831161691a575b50505050509250808054600181600116156101000203166002900480601f0160208091040260200160405190810160405280929190818152602001828054600181600116156101000203166002900480156169ca5780601f1061699f576101008083540402835291602001916169ca565b820191906000526020600020905b8154815290600101906020018083116169ad57829003601f168201915b50505050509050975097509750975097509750975050919395979092949650565b60008042446040516020018083815260200182815260200192505050604051602081830303815290604052805190602001209050600060076000838152602001908152602001600020905081816000018190555089816001019080519060200190616a57929190618ae8565b5088816002019080519060200190616a70929190618ae8565b5087816003019080519060200190616a89929190618ae8565b5086816004019080519060200190616aa2929190618ae8565b5085816005019080519060200190616abb929190618b76565b5084816006018190555060018160070160006101000a81548160ff02191690831515021790555083816008019080519060200190616afa929190618ae8565b5060118290806001815401808255809150506001900390600052602060002001600090919091909150557f98256681d42155ff34804f98e31ebed754d5480b93a9c6dabdc29d053ddb2441826040518082815260200191505060405180910390a18192505050979650505050505050565b6004602052806000526040600020600091509050806000015490806001018054600181600116156101000203166002900480601f016020809104026020016040519081016040528092919081815260200182805460018160011615610100020316600290048015616c1d5780601f10616bf257610100808354040283529160200191616c1d565b820191906000526020600020905b815481529060010190602001808311616c0057829003601f168201915b5050505050908060020160009054906101000a900460ff1690806003018054600181600116156101000203166002900480601f016020809104026020016040519081016040528092919081815260200182805460018160011615610100020316600290048015616cce5780601f10616ca357610100808354040283529160200191616cce565b820191906000526020600020905b815481529060010190602001808311616cb157829003601f168201915b5050505050905084565b600060026000878152602001908152602001600020905083816002018190555084816001019080519060200190616d10929190618ae8565b50818160030160006101000a81548160ff02191690831515021790555082816004019080519060200190616d45929190618ae8565b507f8a3906be51b7d1f5c0fde5bcd51a0f4c663bafa8250b79158f62136c0d00f237866040518082815260200191505060405180910390a1505050505050565b600060046000868152602001908152602001600020905083816001019080519060200190616db4929190618ae8565b50818160020160006101000a81548160ff02191690831515021790555082816003019080519060200190616de9929190618ae8565b507fb17d425d710652ed2b5d27f04807e9015c9b0b3af2fe3434ccf17197f338c7fd856040518082815260200191505060405180910390a15050505050565b6003602052806000526040600020600091509050806000015490806001018054600181600116156101000203166002900480601f016020809104026020016040519081016040528092919081815260200182805460018160011615610100020316600290048015616eda5780601f10616eaf57610100808354040283529160200191616eda565b820191906000526020600020905b815481529060010190602001808311616ebd57829003601f168201915b5050505050908060020154908060030160009054906101000a900460ff1690806004018054600181600116156101000203166002900480601f016020809104026020016040519081016040528092919081815260200182805460018160011615610100020316600290048015616f915780601f10616f6657610100808354040283529160200191616f91565b820191906000526020600020905b815481529060010190602001808311616f7457829003601f168201915b5050505050905085565b600d8181548110616fab57600080fd5b906000526020600020016000915090505481565b6000804244604051602001808381526020018281526020019250505060405160208183030381529060405280519060200120905060006009600083815260200190815260200160002090508181600001819055508981600101819055508881600201819055508781600301819055508681600401819055508581600501908051906020019061704f929190618ae8565b5084816006019080519060200190617068929190618ae8565b5060018160070160006101000a81548160ff0219169083151502179055508381600801908051906020019061709e929190618ae8565b5060138290806001815401808255809150506001900390600052602060002001600090919091909150557f4e084d8ddee23c9b1f462cb17dda88580da94f2a1333d40707be2ec2ce99bca1826040518082815260200191505060405180910390a1819250505098975050505050505050565b6000806000806000606080600060606000600960008c815260200190815260200160002090508060000154816001015482600201548360030154846004015485600501866006018760070160009054906101000a900460ff1688600801838054600181600116156101000203166002900480601f0160208091040260200160405190810160405280929190818152602001828054600181600116156101000203166002900480156172025780601f106171d757610100808354040283529160200191617202565b820191906000526020600020905b8154815290600101906020018083116171e557829003601f168201915b50505050509350828054600181600116156101000203166002900480601f01602080910402602001604051908101604052809291908181526020018280546001816001161561010002031660029004801561729e5780601f106172735761010080835404028352916020019161729e565b820191906000526020600020905b81548152906001019060200180831161728157829003601f168201915b50505050509250808054600181600116156101000203166002900480601f01602080910402602001604051908101604052809291908181526020018280546001816001161561010002031660029004801561733a5780601f1061730f5761010080835404028352916020019161733a565b820191906000526020600020905b81548152906001019060200180831161731d57829003601f168201915b50505050509050995099509950995099509950995099509950509193959799909294969850565b6000606080600060016000868152602001908152602001600020905080600001548160010182600301818054600181600116156101000203166002900480601f01602080910402602001604051908101604052809291908181526020018280546001816001161561010002031660029004801561741f5780601f106173f45761010080835404028352916020019161741f565b820191906000526020600020905b81548152906001019060200180831161740257829003601f168201915b50505050509150808054600181600116156101000203166002900480601f0160208091040260200160405190810160405280929190818152602001828054600181600116156101000203166002900480156174bb5780601f10617490576101008083540402835291602001916174bb565b820191906000526020600020905b81548152906001019060200180831161749e57829003601f168201915b50505050509050935093509350509193909250565b600060036000878152602001908152602001600020905083816002018190555084816001019080519060200190617508929190618ae8565b50818160030160006101000a81548160ff0219169083151502179055508281600401908051906020019061753d929190618ae8565b507f45b26663d51e9e501c400d7363e3289b674ae39502c715178017fd129d69fe37866040518082815260200191505060405180910390a1505050505050565b6013818154811061758d57600080fd5b906000526020600020016000915090505481565b80601490805190602001906175b7929190618ae8565b5050565b601081815481106175cb57600080fd5b906000526020600020016000915090505481565b6000804244604051602001808381526020018281526020019250505060405160208183030381529060405280519060200120905060006003600083815260200190815260200160002090508181600001819055508581600101908051906020019061764b929190618ae8565b5084816002018190555060018160030160006101000a81548160ff0219169083151502179055508381600401908051906020019061768a929190618ae8565b50600d8290806001815401808255809150506001900390600052602060002001600090919091909150557f7994ff4618f2947c574817607d7facebfdf8912b3656ac7f8d441caf7c555c9a826040518082815260200191505060405180910390a181925050509392505050565b60006060806000606060008060008881526020019081526020016000209050806000015481600101826002018360040160009054906101000a900460ff1684600501838054600181600116156101000203166002900480601f0160208091040260200160405190810160405280929190818152602001828054600181600116156101000203166002900480156177ce5780601f106177a3576101008083540402835291602001916177ce565b820191906000526020600020905b8154815290600101906020018083116177b157829003601f168201915b505050505093508280548060200260200160405190810160405280929190818152602001828054801561782057602002820191906000526020600020905b81548152602001906001019080831161780c575b50505050509250808054600181600116156101000203166002900480601f0160208091040260200160405190810160405280929190818152602001828054600181600116156101000203166002900480156178bc5780601f10617891576101008083540402835291602001916178bc565b820191906000526020600020905b81548152906001019060200180831161789f57829003601f168201915b50505050509050955095509550955095505091939590929450565b60008042446040516020018083815260200182815260200192505050604051602081830303815290604052805190602001209050600060056000838152602001908152602001600020905081816000018190555087816002019080519060200190617943929190618ae8565b508581600301908051906020019061795c929190618ae8565b5084816004019080519060200190617975929190618b76565b5086816001018190555060018160050160006101000a81548160ff021916908315150217905550838160060190805190602001906179b4929190618ae8565b50600f8290806001815401808255809150506001900390600052602060002001600090919091909150557fd72de00ac023ce28bdf5f7f9ce805bb06832bd76131a8e168591b6632164cb08826040518082815260200191505060405180910390a1819250505095945050505050565b600080424460405160200180838152602001828152602001925050506040516020818303038152906040528051906020012090506000806000838152602001908152602001600020905081816000018190555085816002019080519060200190617a8e929190618b76565b5060018160040160006101000a81548160ff02191690831515021790555084816003019080519060200190617ac4929190618ae8565b5086816001019080519060200190617add929190618ae8565b5083816005019080519060200190617af6929190618ae8565b50600a8290806001815401808255809150506001900390600052602060002001600090919091909150557f0e7857bfbd020070a2c8d2fe38c788de1e6adc88cb46f60cf6ec7cd385e81db1826040518082815260200191505060405180910390a18192505050949350505050565b6001602052806000526040600020600091509050806000015490806001018054600181600116156101000203166002900480601f016020809104026020016040519081016040528092919081815260200182805460018160011615610100020316600290048015617c165780601f10617beb57610100808354040283529160200191617c16565b820191906000526020600020905b815481529060010190602001808311617bf957829003601f168201915b5050505050908060020160009054906101000a900460ff1690806003018054600181600116156101000203166002900480601f016020809104026020016040519081016040528092919081815260200182805460018160011615610100020316600290048015617cc75780601f10617c9c57610100808354040283529160200191617cc7565b820191906000526020600020905b815481529060010190602001808311617caa57829003601f168201915b5050505050905084565b60008042446040516020018083815260200182815260200192505050604051602081830303815290604052805190602001209050600060046000838152602001908152602001600020905081816000018190555084816001019080519060200190617d3d929190618ae8565b5060018160020160006101000a81548160ff02191690831515021790555083816003019080519060200190617d73929190618ae8565b50600e8290806001815401808255809150506001900390600052602060002001600090919091909150557fceaa9780dd69d57f7477f4eeb327451530ffdc7e551797e9c9eac2f6c6e1705c826040518082815260200191505060405180910390a1819250505092915050565b6002602052806000526040600020600091509050806000015490806001018054600181600116156101000203166002900480601f016020809104026020016040519081016040528092919081815260200182805460018160011615610100020316600290048015617e915780601f10617e6657610100808354040283529160200191617e91565b820191906000526020600020905b815481529060010190602001808311617e7457829003601f168201915b5050505050908060020154908060030160009054906101000a900460ff1690806004018054600181600116156101000203166002900480601f016020809104026020016040519081016040528092919081815260200182805460018160011615610100020316600290048015617f485780601f10617f1d57610100808354040283529160200191617f48565b820191906000526020600020905b815481529060010190602001808311617f2b57829003601f168201915b5050505050905085565b60118181548110617f6257600080fd5b906000526020600020016000915090505481565b600060606000606060006006600087815260200190815260200160002090508060000154816001018260020160009054906101000a900460ff1683600301828054600181600116156101000203166002900480601f0160208091040260200160405190810160405280929190818152602001828054600181600116156101000203166002900480156180495780601f1061801e57610100808354040283529160200191618049565b820191906000526020600020905b81548152906001019060200180831161802c57829003601f168201915b50505050509250808054600181600116156101000203166002900480601f0160208091040260200160405190810160405280929190818152602001828054600181600116156101000203166002900480156180e55780601f106180ba576101008083540402835291602001916180e5565b820191906000526020600020905b8154815290600101906020018083116180c857829003601f168201915b505050505090509450945094509450509193509193565b60006005600089815260200190815260200160002090508681600201908051906020019061812b929190618ae8565b508581600101819055508481600301908051906020019061814d929190618ae8565b5083816004019080519060200190618166929190618b76565b50818160050160006101000a81548160ff0219169083151502179055508281600601908051906020019061819b929190618ae8565b507fd8f714b0852cafd83ecf70bc951be7f00a73c6fd484df5769f44619534ce1447886040518082815260200191505060405180910390a15050505050505050565b600f81815481106181ed57600080fd5b906000526020600020016000915090505481565b6000804244604051602001808381526020018281526020019250505060405160208183030381529060405280519060200120905060006006600083815260200190815260200160002090508181600001819055508481600101908051906020019061826d929190618ae8565b5060018160020160006101000a81548160ff021916908315150217905550838160030190805190602001906182a3929190618ae8565b5060108290806001815401808255809150506001900390600052602060002001600090919091909150557f41ae852bd4986bdb048f0e9fe3e32c8d368d22693a4853f4bb5d6eb35f563f7a826040518082815260200191505060405180910390a1819250505092915050565b600e818154811061831f57600080fd5b906000526020600020016000915090505481565b6000606080600060606000600860008881526020019081526020016000209050806000015481600101826002018360030160009054906101000a900460ff1684600401838054600181600116156101000203166002900480601f01602080910402602001604051908101604052809291908181526020018280546001816001161561010002031660029004801561840b5780601f106183e05761010080835404028352916020019161840b565b820191906000526020600020905b8154815290600101906020018083116183ee57829003601f168201915b50505050509350828054600181600116156101000203166002900480601f0160208091040260200160405190810160405280929190818152602001828054600181600116156101000203166002900480156184a75780601f1061847c576101008083540402835291602001916184a7565b820191906000526020600020905b81548152906001019060200180831161848a57829003601f168201915b50505050509250808054600181600116156101000203166002900480601f0160208091040260200160405190810160405280929190818152602001828054600181600116156101000203166002900480156185435780601f1061851857610100808354040283529160200191618543565b820191906000526020600020905b81548152906001019060200180831161852657829003601f168201915b50505050509050955095509550955095505091939590929450565b6000602052806000526040600020600091509050806000015490806001018054600181600116156101000203166002900480601f0160208091040260200160405190810160405280929190818152602001828054600181600116156101000203166002900480156186105780601f106185e557610100808354040283529160200191618610565b820191906000526020600020905b8154815290600101906020018083116185f357829003601f168201915b505050505090806003018054600181600116156101000203166002900480601f0160208091040260200160405190810160405280929190818152602001828054600181600116156101000203166002900480156186ae5780601f10618683576101008083540402835291602001916186ae565b820191906000526020600020905b81548152906001019060200180831161869157829003601f168201915b5050505050908060040160009054906101000a900460ff1690806005018054600181600116156101000203166002900480601f01602080910402602001604051908101604052809291908181526020018280546001816001161561010002031660029004801561875f5780601f106187345761010080835404028352916020019161875f565b820191906000526020600020905b81548152906001019060200180831161874257829003601f168201915b5050505050905085565b600c818154811061877957600080fd5b906000526020600020016000915090505481565b600080424460405160200180838152602001828152602001925050506040516020818303038152906040528051906020012090506000600260008381526020019081526020016000209050818160000181905550858160010190805190602001906187f9929190618ae8565b5084816002018190555060018160030160006101000a81548160ff02191690831515021790555083816004019080519060200190618838929190618ae8565b50600c8290806001815401808255809150506001900390600052602060002001600090919091909150557f8c7030962ef212931d701bb102293b6046a82938c9fa09296a6ee14c53f14ee6826040518082815260200191505060405180910390a181925050509392505050565b600060606000606060006004600087815260200190815260200160002090508060000154816001018260020160009054906101000a900460ff1683600301828054600181600116156101000203166002900480601f0160208091040260200160405190810160405280929190818152602001828054600181600116156101000203166002900480156189785780601f1061894d57610100808354040283529160200191618978565b820191906000526020600020905b81548152906001019060200180831161895b57829003601f168201915b50505050509250808054600181600116156101000203166002900480601f016020809104026020016040519081016040528092919081815260200182805460018160011615610100020316600290048015618a145780601f106189e957610100808354040283529160200191618a14565b820191906000526020600020905b8154815290600101906020018083116189f757829003601f168201915b505050505090509450945094509450509193509193565b600060086000878152602001908152602001600020905084816001019080519060200190618a5a929190618ae8565b5083816002019080519060200190618a73929190618ae8565b50818160030160006101000a81548160ff02191690831515021790555082816004019080519060200190618aa8929190618ae8565b507f92c15e0894dd3cf13d80c462af158bcca92516d4cf13e2e2763e16d5e99b5528866040518082815260200191505060405180910390a1505050505050565b828054600181600116156101000203166002900490600052602060002090601f016020900481019282618b1e5760008555618b65565b82601f10618b3757805160ff1916838001178555618b65565b82800160010185558215618b65579182015b82811115618b64578251825591602001919060010190618b49565b5b509050618b729190618bc3565b5090565b828054828255906000526020600020908101928215618bb2579160200282015b82811115618bb1578251825591602001919060010190618b96565b5b509050618bbf9190618be0565b5090565b5b80821115618bdc576000816000905550600101618bc4565b5090565b5b80821115618bf9576000816000905550600101618be1565b509056fea26469706673582212203ddfd86cf81fa2e02ef7219e8bddcc1391b69317345ee005dbba39bd97a1a00264736f6c63430007040033",
  "immutableReferences": {},
  "source": "pragma solidity ^0.7.4;\r\n\r\nimport \"./SupplyChainModels.sol\";\r\nimport \"./SupplyChainEvents.sol\";\r\n\r\ncontract SupplyChain is SupplyChainModels, SupplyChainEvents {\r\n    string private info;\r\n    string public version = \"1.0.0.1\";\r\n\r\n    /*\r\n        Organization Type\r\n    */\r\n    function createOrganizationType(\r\n        string memory _name,\r\n        string memory _customJsonData\r\n    ) public returns (bytes32 objId) {\r\n        bytes32 newId =\r\n            keccak256(abi.encodePacked(block.timestamp, block.difficulty));\r\n\r\n        OrganizationType storage obj = organizationTypeMap[newId];\r\n        obj.organizationTypeId = newId;\r\n        obj.isActive = true;\r\n        obj.name = _name;\r\n        obj.customJsonData = _customJsonData;\r\n\r\n        organizationTypeIds.push(newId);\r\n\r\n        emit OrganizationTypeCreated(newId);\r\n        return (newId);\r\n    }\r\n\r\n    function updateOrganizationType(\r\n        bytes32 objId,\r\n        string memory _name,\r\n        string memory _customJsonData,\r\n        bool _isActive\r\n    ) public {\r\n        OrganizationType storage obj = organizationTypeMap[objId];\r\n        obj.name = _name;\r\n        obj.isActive = _isActive;\r\n        obj.customJsonData = _customJsonData;\r\n\r\n        emit OrganizationTypeUpdated(objId);\r\n    }\r\n\r\n    function getOrganizationTypeById(bytes32 objId)\r\n        public\r\n        view\r\n        returns (\r\n            bytes32 id,\r\n            string memory name,\r\n            string memory customJsonData\r\n        )\r\n    {\r\n        OrganizationType storage obj = organizationTypeMap[objId];\r\n        return (obj.organizationTypeId, obj.name, obj.customJsonData);\r\n    }\r\n\r\n    /*\r\n        Organization\r\n    */\r\n    function createOrganization(\r\n        string memory _name,\r\n        bytes32[] memory _organizationTypeIdList,\r\n        string memory _organizationAddress,\r\n        string memory _customJsonData\r\n    ) public returns (bytes32 objId) {\r\n        bytes32 newId =\r\n            keccak256(abi.encodePacked(block.timestamp, block.difficulty));\r\n\r\n        Organization storage obj = organizationMap[newId];\r\n        obj.organizationId = newId;\r\n        obj.organizationTypeIdList = _organizationTypeIdList;\r\n        obj.isActive = true;\r\n        obj.organizationAddress = _organizationAddress;\r\n        obj.name = _name;\r\n        obj.customJsonData = _customJsonData;\r\n\r\n        organizationIds.push(newId);\r\n\r\n        emit OrganizationCreated(newId);\r\n        return (newId);\r\n    }\r\n\r\n    function updateOrganization(\r\n        bytes32 objId,\r\n        string memory _name,\r\n        bytes32[] memory _organizationTypeIdList,\r\n        string memory _organizationAddress,\r\n        string memory _customJsonData,\r\n        bool _isActive\r\n    ) public {\r\n        Organization storage obj = organizationMap[objId];\r\n        obj.organizationTypeIdList = _organizationTypeIdList;\r\n        obj.organizationAddress = _organizationAddress;\r\n        obj.name = _name;\r\n        obj.isActive = _isActive;\r\n        obj.customJsonData = _customJsonData;\r\n\r\n        emit OrganizationUpdated(objId);\r\n    }\r\n\r\n    function getOrganizationById(bytes32 objId)\r\n        public\r\n        view\r\n        returns (\r\n            bytes32 id,\r\n            string memory name,\r\n            bytes32[] memory organizationTypeIdList,\r\n            bool isActive,\r\n            string memory customJsonData\r\n        )\r\n    {\r\n        Organization storage obj = organizationMap[objId];\r\n        return (\r\n            obj.organizationId,\r\n            obj.name,\r\n            obj.organizationTypeIdList,\r\n            obj.isActive,\r\n            obj.customJsonData\r\n        );\r\n    }\r\n\r\n    /*\r\n        Activity\r\n    */\r\n    function createActivity(\r\n        string memory _name,\r\n        bytes32 _organizationTypeId,\r\n        string memory _customJsonData\r\n    ) public returns (bytes32 objId) {\r\n        bytes32 newId =\r\n            keccak256(abi.encodePacked(block.timestamp, block.difficulty));\r\n\r\n        Activity storage obj = activityMap[newId];\r\n        obj.activityId = newId;\r\n        obj.name = _name;\r\n        obj.organizationTypeId = _organizationTypeId;\r\n        obj.isActive = true;\r\n        obj.customJsonData = _customJsonData;\r\n\r\n        activityIds.push(newId);\r\n\r\n        emit ActivityCreated(newId);\r\n        return (newId);\r\n    }\r\n\r\n    function updateActivity(\r\n        bytes32 objId,\r\n        string memory _name,\r\n        bytes32 _organizationTypeId,\r\n        string memory _customJsonData,\r\n        bool _isActive\r\n    ) public {\r\n        Activity storage obj = activityMap[objId];\r\n        obj.organizationTypeId = _organizationTypeId;\r\n        obj.name = _name;\r\n        obj.isActive = _isActive;\r\n        obj.customJsonData = _customJsonData;\r\n\r\n        emit ActivityUpdated(objId);\r\n    }\r\n\r\n    function getActivityById(bytes32 objId)\r\n        public\r\n        view\r\n        returns (\r\n            bytes32 id,\r\n            string memory name,\r\n            bytes32 organizationTypeId,\r\n            bool isActive,\r\n            string memory customJsonData\r\n        )\r\n    {\r\n        Activity storage obj = activityMap[objId];\r\n        return (\r\n            obj.activityId,\r\n            obj.name,\r\n            obj.organizationTypeId,\r\n            obj.isActive,\r\n            obj.customJsonData\r\n        );\r\n    }\r\n\r\n    /*\r\n        Area\r\n    */\r\n    function createArea(\r\n        string memory _name,\r\n        bytes32 _organizationId,\r\n        string memory _customJsonData\r\n    ) public returns (bytes32 objId) {\r\n        bytes32 newId =\r\n            keccak256(abi.encodePacked(block.timestamp, block.difficulty));\r\n\r\n        Area storage obj = areaMap[newId];\r\n        obj.areaId = newId;\r\n        obj.name = _name;\r\n        obj.organizationId = _organizationId;\r\n        obj.isActive = true;\r\n        obj.customJsonData = _customJsonData;\r\n\r\n        areaIds.push(newId);\r\n\r\n        emit AreaCreated(newId);\r\n        return (newId);\r\n    }\r\n\r\n    function updateArea(\r\n        bytes32 objId,\r\n        string memory _name,\r\n        bytes32 _organizationId,\r\n        string memory _customJsonData,\r\n        bool _isActive\r\n    ) public {\r\n        Area storage obj = areaMap[objId];\r\n        obj.organizationId = _organizationId;\r\n        obj.name = _name;\r\n        obj.isActive = _isActive;\r\n        obj.customJsonData = _customJsonData;\r\n\r\n        emit AreaUpdated(objId);\r\n    }\r\n\r\n    function getAreaById(bytes32 objId)\r\n        public\r\n        view\r\n        returns (\r\n            bytes32 id,\r\n            string memory name,\r\n            bytes32 organizationId,\r\n            bool isActive,\r\n            string memory customJsonData\r\n        )\r\n    {\r\n        Area storage obj = areaMap[objId];\r\n        return (\r\n            obj.areaId,\r\n            obj.name,\r\n            obj.organizationId,\r\n            obj.isActive,\r\n            obj.customJsonData\r\n        );\r\n    }\r\n\r\n    /*\r\n        Category\r\n    */\r\n    function createCategory(string memory _name, string memory _customJsonData)\r\n        public\r\n        returns (bytes32 objId)\r\n    {\r\n        bytes32 newId =\r\n            keccak256(abi.encodePacked(block.timestamp, block.difficulty));\r\n\r\n        Category storage obj = categoryMap[newId];\r\n        obj.categoryId = newId;\r\n        obj.name = _name;\r\n        obj.isActive = true;\r\n        obj.customJsonData = _customJsonData;\r\n\r\n        categoryIds.push(newId);\r\n\r\n        emit CategoryCreated(newId);\r\n        return (newId);\r\n    }\r\n\r\n    function updateCategory(\r\n        bytes32 objId,\r\n        string memory _name,\r\n        string memory _customJsonData,\r\n        bool _isActive\r\n    ) public {\r\n        Category storage obj = categoryMap[objId];\r\n        obj.name = _name;\r\n        obj.isActive = _isActive;\r\n        obj.customJsonData = _customJsonData;\r\n\r\n        emit CategoryUpdated(objId);\r\n    }\r\n\r\n    function getCategoryById(bytes32 objId)\r\n        public\r\n        view\r\n        returns (\r\n            bytes32 id,\r\n            string memory name,\r\n            bool isActive,\r\n            string memory customJsonData\r\n        )\r\n    {\r\n        Category storage obj = categoryMap[objId];\r\n        return (obj.categoryId, obj.name, obj.isActive, obj.customJsonData);\r\n    }\r\n\r\n    /*\r\n        Product\r\n    */\r\n    function createProduct(\r\n        string memory _name,\r\n        bytes32 _categoryId,\r\n        string memory _description,\r\n        bytes32[] memory _certificationIdList,\r\n        string memory _customJsonData\r\n    ) public returns (bytes32 objId) {\r\n        bytes32 newId =\r\n            keccak256(abi.encodePacked(block.timestamp, block.difficulty));\r\n\r\n        Product storage obj = productMap[newId];\r\n        obj.productId = newId;\r\n        obj.name = _name;\r\n        obj.description = _description;\r\n        obj.certicationIdList = _certificationIdList;\r\n        obj.categoryId = _categoryId;\r\n        obj.isActive = true;\r\n        obj.customJsonData = _customJsonData;\r\n\r\n        productIds.push(newId);\r\n\r\n        emit ProductCreated(newId);\r\n        return (newId);\r\n    }\r\n\r\n    function updateProduct(\r\n        bytes32 objId,\r\n        string memory _name,\r\n        bytes32 _categoryId,\r\n        string memory _description,\r\n        bytes32[] memory _certificationIdList,\r\n        string memory _customJsonData,\r\n        bool _isActive\r\n    ) public {\r\n        Product storage obj = productMap[objId];\r\n        obj.name = _name;\r\n        obj.categoryId = _categoryId;\r\n        obj.description = _description;\r\n        obj.certicationIdList = _certificationIdList;\r\n        obj.isActive = _isActive;\r\n        obj.customJsonData = _customJsonData;\r\n\r\n        emit ProductUpdated(objId);\r\n    }\r\n\r\n    function getProductById(bytes32 objId)\r\n        public\r\n        view\r\n        returns (\r\n            bytes32 id,\r\n            bytes32 categoryId,\r\n            string memory name,\r\n            string memory description,\r\n            bytes32[] memory certicationIdList,\r\n            bool isActive,\r\n            string memory customJsonData\r\n        )\r\n    {\r\n        Product storage obj = productMap[objId];\r\n        return (\r\n            obj.productId,\r\n            obj.categoryId,\r\n            obj.name,\r\n            obj.description,\r\n            obj.certicationIdList,\r\n            obj.isActive,\r\n            obj.customJsonData\r\n        );\r\n    }\r\n\r\n    /*\r\n        Role\r\n    */\r\n    function createRole(string memory _name, string memory _customJsonData)\r\n        public\r\n        returns (bytes32 objId)\r\n    {\r\n        bytes32 newId =\r\n            keccak256(abi.encodePacked(block.timestamp, block.difficulty));\r\n\r\n        Role storage obj = roleMap[newId];\r\n        obj.roleId = newId;\r\n        obj.name = _name;\r\n        obj.isActive = true;\r\n        obj.customJsonData = _customJsonData;\r\n\r\n        roleIds.push(newId);\r\n\r\n        emit RoleCreated(newId);\r\n        return (newId);\r\n    }\r\n\r\n    function updateRole(\r\n        bytes32 objId,\r\n        string memory _name,\r\n        string memory _customJsonData,\r\n        bool _isActive\r\n    ) public {\r\n        Role storage obj = roleMap[objId];\r\n        obj.name = _name;\r\n        obj.isActive = _isActive;\r\n        obj.customJsonData = _customJsonData;\r\n\r\n        emit RoleUpdated(objId);\r\n    }\r\n\r\n    function getRoleById(bytes32 objId)\r\n        public\r\n        view\r\n        returns (\r\n            bytes32 id,\r\n            string memory name,\r\n            bool isActive,\r\n            string memory customJsonData\r\n        )\r\n    {\r\n        Role storage obj = roleMap[objId];\r\n        return (obj.roleId, obj.name, obj.isActive, obj.customJsonData);\r\n    }\r\n\r\n    /*\r\n        Profile\r\n    */\r\n    function createProfile(\r\n        string memory _name,\r\n        string memory _email,\r\n        string memory _passwordHash,\r\n        string memory _phone,\r\n        bytes32[] memory _roleId,\r\n        bytes32 _organizationId,\r\n        string memory _customJsonData\r\n    ) public returns (bytes32 objId) {\r\n        bytes32 newId =\r\n            keccak256(abi.encodePacked(block.timestamp, block.difficulty));\r\n\r\n        Profile storage obj = profileMap[newId];\r\n        obj.profileId = newId;\r\n        obj.name = _name;\r\n        obj.email = _email;\r\n        obj.passwordHash = _passwordHash;\r\n        obj.phone = _phone;\r\n        obj.roleId = _roleId;\r\n        obj.organizationId = _organizationId;\r\n        obj.isActive = true;\r\n        obj.customJsonData = _customJsonData;\r\n\r\n        profileIds.push(newId);\r\n\r\n        emit ProfileCreated(newId);\r\n        return (newId);\r\n    }\r\n\r\n    function updateProfile(\r\n        bytes32 objId,\r\n        string memory _name,\r\n        string memory _email,\r\n        string memory _passwordHash,\r\n        string memory _phone,\r\n        bytes32[] memory _roleId,\r\n        bytes32 _organizationId,\r\n        string memory _customJsonData,\r\n        bool _isActive\r\n    ) public {\r\n        Profile storage obj = profileMap[objId];\r\n        obj.name = _name;\r\n        obj.email = _email;\r\n        obj.passwordHash = _passwordHash;\r\n        obj.phone = _phone;\r\n        obj.roleId = _roleId;\r\n        obj.organizationId = _organizationId;\r\n        obj.isActive = _isActive;\r\n        obj.customJsonData = _customJsonData;\r\n\r\n        emit ProfileUpdated(objId);\r\n    }\r\n\r\n    function getProfileById(bytes32 objId)\r\n        public\r\n        view\r\n        returns (\r\n            bytes32 id,\r\n            string memory name,\r\n            string memory email,\r\n            string memory passwordHash,\r\n            string memory phone,\r\n            bytes32[] memory roleId,\r\n            bytes32 organizationId,\r\n            bool isActive,\r\n            string memory customJsonData\r\n        )\r\n    {\r\n        Profile storage obj = profileMap[objId];\r\n        return (\r\n            obj.profileId,\r\n            obj.name,\r\n            obj.email,\r\n            obj.passwordHash,\r\n            obj.phone,\r\n            obj.roleId,\r\n            obj.organizationId,\r\n            obj.isActive,\r\n            obj.customJsonData\r\n        );\r\n    }\r\n\r\n    /*\r\n        Certification\r\n    */\r\n    function createCertification(\r\n        string memory _name,\r\n        string memory _certificationUrl,\r\n        string memory _customJsonData\r\n    ) public returns (bytes32 objId) {\r\n        bytes32 newId =\r\n            keccak256(abi.encodePacked(block.timestamp, block.difficulty));\r\n\r\n        Certification storage obj = certificationMap[newId];\r\n        obj.certificationId = newId;\r\n        obj.name = _name;\r\n        obj.certificateUrl = _certificationUrl;\r\n        obj.isActive = true;\r\n        obj.customJsonData = _customJsonData;\r\n\r\n        certificationIds.push(newId);\r\n\r\n        emit CertificationCreated(newId);\r\n        return (newId);\r\n    }\r\n\r\n    function updateCertification(\r\n        bytes32 objId,\r\n        string memory _name,\r\n        string memory _certificationUrl,\r\n        string memory _customJsonData,\r\n        bool _isActive\r\n    ) public {\r\n        Certification storage obj = certificationMap[objId];\r\n        obj.name = _name;\r\n        obj.certificateUrl = _certificationUrl;\r\n        obj.isActive = _isActive;\r\n        obj.customJsonData = _customJsonData;\r\n\r\n        emit CertificationUpdated(objId);\r\n    }\r\n\r\n    function getCertificationById(bytes32 objId)\r\n        public\r\n        view\r\n        returns (\r\n            bytes32 id,\r\n            string memory name,\r\n            string memory certificateUrl,\r\n            bool isActive,\r\n            string memory customJsonData\r\n        )\r\n    {\r\n        Certification storage obj = certificationMap[objId];\r\n        return (\r\n            obj.certificationId,\r\n            obj.name,\r\n            obj.certificateUrl,\r\n            obj.isActive,\r\n            obj.customJsonData\r\n        );\r\n    }\r\n\r\n    /*\r\n        Track History\r\n    */\r\n    function createTrackHistory(\r\n        bytes32 _trackHistoryId,\r\n        bytes32 _productId,\r\n        bytes32 _activityId,\r\n        bytes32 _profileId,\r\n        bytes32 _areaId,\r\n        string memory _gps,\r\n        string memory _remarks,\r\n        string memory _customJsonData\r\n    ) public returns (bytes32 objId) {\r\n        bytes32 newId =\r\n            keccak256(abi.encodePacked(block.timestamp, block.difficulty));\r\n\r\n        TrackHistory storage obj = trackHistoryMap[newId];\r\n        obj.trackHistoryId = newId;\r\n        obj.productId = _productId;\r\n        obj.activityId = _activityId;\r\n        obj.profileId = _profileId;\r\n        obj.areaId = _areaId;\r\n        obj.gps = _gps;\r\n        obj.remarks = _remarks;\r\n        obj.isActive = true;\r\n        obj.customJsonData = _customJsonData;\r\n\r\n        trackHistoryIds.push(newId);\r\n\r\n        emit TrackHistoryCreated(newId);\r\n        return (newId);\r\n    }\r\n\r\n    function updateTrackHistory(\r\n        bytes32 objId,\r\n        bytes32 _productId,\r\n        bytes32 _activityId,\r\n        bytes32 _profileId,\r\n        bytes32 _areaId,\r\n        string memory _gps,\r\n        string memory _remarks,\r\n        string memory _customJsonData,\r\n        bool _isActive\r\n    ) public {\r\n        TrackHistory storage obj = trackHistoryMap[objId];\r\n        obj.productId = _productId;\r\n        obj.activityId = _activityId;\r\n        obj.profileId = _profileId;\r\n        obj.productId = _productId;\r\n        obj.areaId = _areaId;\r\n        obj.gps = _gps;\r\n        obj.remarks = _remarks;\r\n        obj.isActive = _isActive;\r\n        obj.customJsonData = _customJsonData;\r\n\r\n        emit TrackHistoryUpdated(objId);\r\n    }\r\n\r\n    function getTrackHistoryById(bytes32 objId)\r\n        public\r\n        view\r\n        returns (\r\n            bytes32 id,\r\n            bytes32 productId,\r\n            bytes32 activityId,\r\n            bytes32 profileId,\r\n            bytes32 areaId,\r\n            string memory gps,\r\n            string memory remarks,\r\n            bool isActive,\r\n            string memory customJsonData\r\n        )\r\n    {\r\n        TrackHistory storage obj = trackHistoryMap[objId];\r\n        return (\r\n            obj.trackHistoryId,\r\n            obj.productId,\r\n            obj.activityId,\r\n            obj.profileId,\r\n            obj.areaId,\r\n            obj.gps,\r\n            obj.remarks,\r\n            obj.isActive,\r\n            obj.customJsonData\r\n        );\r\n    }\r\n\r\n    /*\r\n        Contract Information\r\n    */\r\n    function setInfo(string memory _info) public {\r\n        info = _info;\r\n    }\r\n\r\n    function getInfo() public view returns (string memory) {\r\n        return info;\r\n    }\r\n}\r\n",
  "sourcePath": "D:/GitHub/supplychain_blockchain/tat_contract/contracts/SupplyChain.sol",
  "compiler": {
    "name": "solc",
    "version": "0.7.4+commit.3f05b770.Emscripten.clang"
  },
  "schemaVersion": "3.3.2",
  "updatedAt": "2021-03-03T08:07:51.134Z",
  "devdoc": {
    "kind": "dev",
    "methods": {},
    "version": 1
  },
  "userdoc": {
    "kind": "user",
    "methods": {},
    "version": 1
  }
}