{
  "contractName": "SupplyChain",
  "abi": [
    {
      "anonymous": false,
      "inputs": [
        {
          "indexed": false,
          "internalType": "bytes32",
          "name": "objId",
          "type": "bytes32"
        }
      ],
      "name": "CategoryCreated",
      "type": "event"
    },
    {
      "anonymous": false,
      "inputs": [
        {
          "indexed": false,
          "internalType": "bytes32",
          "name": "objId",
          "type": "bytes32"
        }
      ],
      "name": "CategoryUpdated",
      "type": "event"
    },
    {
      "anonymous": false,
      "inputs": [
        {
          "indexed": false,
          "internalType": "bytes32",
          "name": "objId",
          "type": "bytes32"
        }
      ],
      "name": "CertificationCreated",
      "type": "event"
    },
    {
      "anonymous": false,
      "inputs": [
        {
          "indexed": false,
          "internalType": "bytes32",
          "name": "objId",
          "type": "bytes32"
        }
      ],
      "name": "CertificationUpdated",
      "type": "event"
    },
    {
      "anonymous": false,
      "inputs": [
        {
          "indexed": false,
          "internalType": "bytes32",
          "name": "objId",
          "type": "bytes32"
        }
      ],
      "name": "ProductCreated",
      "type": "event"
    },
    {
      "anonymous": false,
      "inputs": [
        {
          "indexed": false,
          "internalType": "bytes32",
          "name": "objId",
          "type": "bytes32"
        }
      ],
      "name": "ProductUpdated",
      "type": "event"
    },
    {
      "anonymous": false,
      "inputs": [
        {
          "indexed": false,
          "internalType": "bytes32",
          "name": "objId",
          "type": "bytes32"
        }
      ],
      "name": "TrackHistoryCreated",
      "type": "event"
    },
    {
      "anonymous": false,
      "inputs": [
        {
          "indexed": false,
          "internalType": "bytes32",
          "name": "objId",
          "type": "bytes32"
        }
      ],
      "name": "TrackHistoryUpdated",
      "type": "event"
    },
    {
      "inputs": [
        {
          "internalType": "uint256",
          "name": "",
          "type": "uint256"
        }
      ],
      "name": "categoryIds",
      "outputs": [
        {
          "internalType": "bytes32",
          "name": "",
          "type": "bytes32"
        }
      ],
      "stateMutability": "view",
      "type": "function"
    },
    {
      "inputs": [
        {
          "internalType": "bytes32",
          "name": "",
          "type": "bytes32"
        }
      ],
      "name": "categoryMap",
      "outputs": [
        {
          "internalType": "bytes32",
          "name": "categoryId",
          "type": "bytes32"
        },
        {
          "internalType": "string",
          "name": "name",
          "type": "string"
        },
        {
          "internalType": "bool",
          "name": "isActive",
          "type": "bool"
        },
        {
          "internalType": "string",
          "name": "customJsonData",
          "type": "string"
        }
      ],
      "stateMutability": "view",
      "type": "function"
    },
    {
      "inputs": [
        {
          "internalType": "uint256",
          "name": "",
          "type": "uint256"
        }
      ],
      "name": "certificationIds",
      "outputs": [
        {
          "internalType": "bytes32",
          "name": "",
          "type": "bytes32"
        }
      ],
      "stateMutability": "view",
      "type": "function"
    },
    {
      "inputs": [
        {
          "internalType": "bytes32",
          "name": "",
          "type": "bytes32"
        }
      ],
      "name": "certificationMap",
      "outputs": [
        {
          "internalType": "bytes32",
          "name": "certificationId",
          "type": "bytes32"
        },
        {
          "internalType": "string",
          "name": "name",
          "type": "string"
        },
        {
          "internalType": "string",
          "name": "certificateUrl",
          "type": "string"
        },
        {
          "internalType": "bool",
          "name": "isActive",
          "type": "bool"
        },
        {
          "internalType": "string",
          "name": "customJsonData",
          "type": "string"
        }
      ],
      "stateMutability": "view",
      "type": "function"
    },
    {
      "inputs": [
        {
          "internalType": "uint256",
          "name": "",
          "type": "uint256"
        }
      ],
      "name": "productIds",
      "outputs": [
        {
          "internalType": "bytes32",
          "name": "",
          "type": "bytes32"
        }
      ],
      "stateMutability": "view",
      "type": "function"
    },
    {
      "inputs": [
        {
          "internalType": "bytes32",
          "name": "",
          "type": "bytes32"
        }
      ],
      "name": "productMap",
      "outputs": [
        {
          "internalType": "bytes32",
          "name": "productId",
          "type": "bytes32"
        },
        {
          "internalType": "bytes32",
          "name": "categoryId",
          "type": "bytes32"
        },
        {
          "internalType": "string",
          "name": "name",
          "type": "string"
        },
        {
          "internalType": "string",
          "name": "description",
          "type": "string"
        },
        {
          "internalType": "bool",
          "name": "isActive",
          "type": "bool"
        },
        {
          "internalType": "string",
          "name": "customJsonData",
          "type": "string"
        }
      ],
      "stateMutability": "view",
      "type": "function"
    },
    {
      "inputs": [
        {
          "internalType": "uint256",
          "name": "",
          "type": "uint256"
        }
      ],
      "name": "trackHistoryIds",
      "outputs": [
        {
          "internalType": "bytes32",
          "name": "",
          "type": "bytes32"
        }
      ],
      "stateMutability": "view",
      "type": "function"
    },
    {
      "inputs": [
        {
          "internalType": "bytes32",
          "name": "",
          "type": "bytes32"
        }
      ],
      "name": "trackHistoryMap",
      "outputs": [
        {
          "internalType": "bytes32",
          "name": "trackHistoryId",
          "type": "bytes32"
        },
        {
          "internalType": "bytes32",
          "name": "productId",
          "type": "bytes32"
        },
        {
          "internalType": "bytes32",
          "name": "activityId",
          "type": "bytes32"
        },
        {
          "internalType": "bytes32",
          "name": "profileId",
          "type": "bytes32"
        },
        {
          "internalType": "bytes32",
          "name": "areaId",
          "type": "bytes32"
        },
        {
          "internalType": "string",
          "name": "gps",
          "type": "string"
        },
        {
          "internalType": "string",
          "name": "remarks",
          "type": "string"
        },
        {
          "internalType": "bool",
          "name": "isActive",
          "type": "bool"
        },
        {
          "internalType": "string",
          "name": "customJsonData",
          "type": "string"
        }
      ],
      "stateMutability": "view",
      "type": "function"
    },
    {
      "inputs": [],
      "name": "version",
      "outputs": [
        {
          "internalType": "uint8",
          "name": "",
          "type": "uint8"
        }
      ],
      "stateMutability": "view",
      "type": "function"
    },
    {
      "inputs": [
        {
          "internalType": "string",
          "name": "_name",
          "type": "string"
        },
        {
          "internalType": "string",
          "name": "_customJsonData",
          "type": "string"
        }
      ],
      "name": "createCategory",
      "outputs": [
        {
          "internalType": "bytes32",
          "name": "objId",
          "type": "bytes32"
        }
      ],
      "stateMutability": "nonpayable",
      "type": "function"
    },
    {
      "inputs": [
        {
          "internalType": "bytes32",
          "name": "objId",
          "type": "bytes32"
        },
        {
          "internalType": "string",
          "name": "_name",
          "type": "string"
        },
        {
          "internalType": "string",
          "name": "_customJsonData",
          "type": "string"
        },
        {
          "internalType": "bool",
          "name": "_isActive",
          "type": "bool"
        }
      ],
      "name": "updateCategory",
      "outputs": [],
      "stateMutability": "nonpayable",
      "type": "function"
    },
    {
      "inputs": [
        {
          "internalType": "bytes32",
          "name": "objId",
          "type": "bytes32"
        }
      ],
      "name": "getCategoryById",
      "outputs": [
        {
          "internalType": "bytes32",
          "name": "id",
          "type": "bytes32"
        },
        {
          "internalType": "string",
          "name": "name",
          "type": "string"
        },
        {
          "internalType": "bool",
          "name": "isActive",
          "type": "bool"
        },
        {
          "internalType": "string",
          "name": "customJsonData",
          "type": "string"
        }
      ],
      "stateMutability": "view",
      "type": "function"
    },
    {
      "inputs": [
        {
          "internalType": "string",
          "name": "_name",
          "type": "string"
        },
        {
          "internalType": "bytes32",
          "name": "_categoryId",
          "type": "bytes32"
        },
        {
          "internalType": "string",
          "name": "_description",
          "type": "string"
        },
        {
          "internalType": "bytes32[]",
          "name": "_certificationIdList",
          "type": "bytes32[]"
        },
        {
          "internalType": "string",
          "name": "_customJsonData",
          "type": "string"
        }
      ],
      "name": "createProduct",
      "outputs": [
        {
          "internalType": "bytes32",
          "name": "objId",
          "type": "bytes32"
        }
      ],
      "stateMutability": "nonpayable",
      "type": "function"
    },
    {
      "inputs": [
        {
          "internalType": "bytes32",
          "name": "objId",
          "type": "bytes32"
        },
        {
          "internalType": "string",
          "name": "_name",
          "type": "string"
        },
        {
          "internalType": "bytes32",
          "name": "_categoryId",
          "type": "bytes32"
        },
        {
          "internalType": "string",
          "name": "_description",
          "type": "string"
        },
        {
          "internalType": "bytes32[]",
          "name": "_certificationIdList",
          "type": "bytes32[]"
        },
        {
          "internalType": "string",
          "name": "_customJsonData",
          "type": "string"
        },
        {
          "internalType": "bool",
          "name": "_isActive",
          "type": "bool"
        }
      ],
      "name": "updateProduct",
      "outputs": [],
      "stateMutability": "nonpayable",
      "type": "function"
    },
    {
      "inputs": [
        {
          "internalType": "bytes32",
          "name": "objId",
          "type": "bytes32"
        }
      ],
      "name": "getProductById",
      "outputs": [
        {
          "internalType": "bytes32",
          "name": "id",
          "type": "bytes32"
        },
        {
          "internalType": "bytes32",
          "name": "categoryId",
          "type": "bytes32"
        },
        {
          "internalType": "string",
          "name": "name",
          "type": "string"
        },
        {
          "internalType": "string",
          "name": "description",
          "type": "string"
        },
        {
          "internalType": "bytes32[]",
          "name": "certicationIdList",
          "type": "bytes32[]"
        },
        {
          "internalType": "bool",
          "name": "isActive",
          "type": "bool"
        },
        {
          "internalType": "string",
          "name": "customJsonData",
          "type": "string"
        }
      ],
      "stateMutability": "view",
      "type": "function"
    },
    {
      "inputs": [
        {
          "internalType": "string",
          "name": "_name",
          "type": "string"
        },
        {
          "internalType": "string",
          "name": "_certificationUrl",
          "type": "string"
        },
        {
          "internalType": "string",
          "name": "_customJsonData",
          "type": "string"
        }
      ],
      "name": "createCertification",
      "outputs": [
        {
          "internalType": "bytes32",
          "name": "objId",
          "type": "bytes32"
        }
      ],
      "stateMutability": "nonpayable",
      "type": "function"
    },
    {
      "inputs": [
        {
          "internalType": "bytes32",
          "name": "objId",
          "type": "bytes32"
        },
        {
          "internalType": "string",
          "name": "_name",
          "type": "string"
        },
        {
          "internalType": "string",
          "name": "_certificationUrl",
          "type": "string"
        },
        {
          "internalType": "string",
          "name": "_customJsonData",
          "type": "string"
        },
        {
          "internalType": "bool",
          "name": "_isActive",
          "type": "bool"
        }
      ],
      "name": "updateCertification",
      "outputs": [],
      "stateMutability": "nonpayable",
      "type": "function"
    },
    {
      "inputs": [
        {
          "internalType": "bytes32",
          "name": "objId",
          "type": "bytes32"
        }
      ],
      "name": "getCertificationById",
      "outputs": [
        {
          "internalType": "bytes32",
          "name": "id",
          "type": "bytes32"
        },
        {
          "internalType": "string",
          "name": "name",
          "type": "string"
        },
        {
          "internalType": "string",
          "name": "certificateUrl",
          "type": "string"
        },
        {
          "internalType": "bool",
          "name": "isActive",
          "type": "bool"
        },
        {
          "internalType": "string",
          "name": "customJsonData",
          "type": "string"
        }
      ],
      "stateMutability": "view",
      "type": "function"
    },
    {
      "inputs": [
        {
          "internalType": "bytes32",
          "name": "_trackHistoryId",
          "type": "bytes32"
        },
        {
          "internalType": "bytes32",
          "name": "_productId",
          "type": "bytes32"
        },
        {
          "internalType": "bytes32",
          "name": "_activityId",
          "type": "bytes32"
        },
        {
          "internalType": "bytes32",
          "name": "_profileId",
          "type": "bytes32"
        },
        {
          "internalType": "bytes32",
          "name": "_areaId",
          "type": "bytes32"
        },
        {
          "internalType": "string",
          "name": "_gps",
          "type": "string"
        },
        {
          "internalType": "string",
          "name": "_remarks",
          "type": "string"
        },
        {
          "internalType": "string",
          "name": "_customJsonData",
          "type": "string"
        }
      ],
      "name": "createTrackHistory",
      "outputs": [
        {
          "internalType": "bytes32",
          "name": "objId",
          "type": "bytes32"
        }
      ],
      "stateMutability": "nonpayable",
      "type": "function"
    },
    {
      "inputs": [
        {
          "internalType": "bytes32",
          "name": "objId",
          "type": "bytes32"
        },
        {
          "internalType": "bytes32",
          "name": "_productId",
          "type": "bytes32"
        },
        {
          "internalType": "bytes32",
          "name": "_activityId",
          "type": "bytes32"
        },
        {
          "internalType": "bytes32",
          "name": "_profileId",
          "type": "bytes32"
        },
        {
          "internalType": "bytes32",
          "name": "_areaId",
          "type": "bytes32"
        },
        {
          "internalType": "string",
          "name": "_gps",
          "type": "string"
        },
        {
          "internalType": "string",
          "name": "_remarks",
          "type": "string"
        },
        {
          "internalType": "string",
          "name": "_customJsonData",
          "type": "string"
        },
        {
          "internalType": "bool",
          "name": "_isActive",
          "type": "bool"
        }
      ],
      "name": "updateTrackHistory",
      "outputs": [],
      "stateMutability": "nonpayable",
      "type": "function"
    },
    {
      "inputs": [
        {
          "internalType": "bytes32",
          "name": "objId",
          "type": "bytes32"
        }
      ],
      "name": "getTrackHistoryById",
      "outputs": [
        {
          "internalType": "bytes32",
          "name": "id",
          "type": "bytes32"
        },
        {
          "internalType": "bytes32",
          "name": "productId",
          "type": "bytes32"
        },
        {
          "internalType": "bytes32",
          "name": "activityId",
          "type": "bytes32"
        },
        {
          "internalType": "bytes32",
          "name": "profileId",
          "type": "bytes32"
        },
        {
          "internalType": "bytes32",
          "name": "areaId",
          "type": "bytes32"
        },
        {
          "internalType": "string",
          "name": "gps",
          "type": "string"
        },
        {
          "internalType": "string",
          "name": "remarks",
          "type": "string"
        },
        {
          "internalType": "bool",
          "name": "isActive",
          "type": "bool"
        },
        {
          "internalType": "string",
          "name": "customJsonData",
          "type": "string"
        }
      ],
      "stateMutability": "view",
      "type": "function"
    }
  ],
  "bytecode": "0x60806040526001600860006101000a81548160ff021916908360ff16021790555034801561002c57600080fd5b506139178061003c6000396000f3fe608060405234801561001057600080fd5b50600436106101375760003560e01c80637dce56ad116100b8578063c7213d811161007c578063c7213d811461171b578063cb51bba9146119b8578063d63098dd146119fa578063d911f55314611a3c578063ea2ad7da14611bcb578063ee2a11ee14611cee57610137565b80637dce56ad14610efd5780637e71caf41461112d57806392bbaf40146112d85780639f71bcdc1461131a578063b224b4e9146115b557610137565b806354fd4d50116100ff57806354fd4d501461084b5780635dbfeeda1461086c5780635ea5770314610a945780636aa6443b14610c725780636e5ca08e14610d9557610137565b8063100b6ba21461013c57806331a3fc6e146102d2578063395c2111146104615780633df9601a146104a35780634fdf1dc11461064e575b600080fd5b6101686004803603602081101561015257600080fd5b8101908080359060200190929190505050611eed565b604051808781526020018681526020018060200180602001851515815260200180602001848103845288818151815260200191508051906020019080838360005b838110156101c45780820151818401526020810190506101a9565b50505050905090810190601f1680156101f15780820380516001836020036101000a031916815260200191505b50848103835287818151815260200191508051906020019080838360005b8381101561022a57808201518184015260208101905061020f565b50505050905090810190601f1680156102575780820380516001836020036101000a031916815260200191505b50848103825285818151815260200191508051906020019080838360005b83811015610290578082015181840152602081019050610275565b50505050905090810190601f1680156102bd5780820380516001836020036101000a031916815260200191505b50995050505050505050505060405180910390f35b6102fe600480360360208110156102e857600080fd5b81019080803590602001909291905050506120fe565b604051808681526020018060200180602001851515815260200180602001848103845288818151815260200191508051906020019080838360005b83811015610354578082015181840152602081019050610339565b50505050905090810190601f1680156103815780820380516001836020036101000a031916815260200191505b50848103835287818151815260200191508051906020019080838360005b838110156103ba57808201518184015260208101905061039f565b50505050905090810190601f1680156103e75780820380516001836020036101000a031916815260200191505b50848103825285818151815260200191508051906020019080838360005b83811015610420578082015181840152602081019050610405565b50505050905090810190601f16801561044d5780820380516001836020036101000a031916815260200191505b509850505050505050505060405180910390f35b61048d6004803603602081101561047757600080fd5b8101908080359060200190929190505050612309565b6040518082815260200191505060405180910390f35b6104cf600480360360208110156104b957600080fd5b810190808035906020019092919050505061232d565b604051808a81526020018981526020018881526020018781526020018681526020018060200180602001851515815260200180602001848103845288818151815260200191508051906020019080838360005b8381101561053d578082015181840152602081019050610522565b50505050905090810190601f16801561056a5780820380516001836020036101000a031916815260200191505b50848103835287818151815260200191508051906020019080838360005b838110156105a3578082015181840152602081019050610588565b50505050905090810190601f1680156105d05780820380516001836020036101000a031916815260200191505b50848103825285818151815260200191508051906020019080838360005b838110156106095780820151818401526020810190506105ee565b50505050905090810190601f1680156106365780820380516001836020036101000a031916815260200191505b509c5050505050505050505050505060405180910390f35b6108356004803603606081101561066457600080fd5b810190808035906020019064010000000081111561068157600080fd5b82018360208201111561069357600080fd5b803590602001918460018302840111640100000000831117156106b557600080fd5b91908080601f016020809104026020016040519081016040528093929190818152602001838380828437600081840152601f19601f8201169050808301925050505050505091929192908035906020019064010000000081111561071857600080fd5b82018360208201111561072a57600080fd5b8035906020019184600183028401116401000000008311171561074c57600080fd5b91908080601f016020809104026020016040519081016040528093929190818152602001838380828437600081840152601f19601f820116905080830192505050505050509192919290803590602001906401000000008111156107af57600080fd5b8201836020820111156107c157600080fd5b803590602001918460018302840111640100000000831117156107e357600080fd5b91908080601f016020809104026020016040519081016040528093929190818152602001838380828437600081840152601f19601f820116905080830192505050505050509192919290505050612550565b6040518082815260200191505060405180910390f35b610853612678565b604051808260ff16815260200191505060405180910390f35b610a92600480360361012081101561088357600080fd5b810190808035906020019092919080359060200190929190803590602001909291908035906020019092919080359060200190929190803590602001906401000000008111156108d257600080fd5b8201836020820111156108e457600080fd5b8035906020019184600183028401116401000000008311171561090657600080fd5b91908080601f016020809104026020016040519081016040528093929190818152602001838380828437600081840152601f19601f8201169050808301925050505050505091929192908035906020019064010000000081111561096957600080fd5b82018360208201111561097b57600080fd5b8035906020019184600183028401116401000000008311171561099d57600080fd5b91908080601f016020809104026020016040519081016040528093929190818152602001838380828437600081840152601f19601f82011690508083019250505050505050919291929080359060200190640100000000811115610a0057600080fd5b820183602082011115610a1257600080fd5b80359060200191846001830284011164010000000083111715610a3457600080fd5b91908080601f016020809104026020016040519081016040528093929190818152602001838380828437600081840152601f19601f82011690508083019250505050505050919291929080351515906020019092919050505061268b565b005b610ac060048036036020811015610aaa57600080fd5b8101908080359060200190929190505050612779565b6040518088815260200187815260200180602001806020018060200186151581526020018060200185810385528a818151815260200191508051906020019080838360005b83811015610b20578082015181840152602081019050610b05565b50505050905090810190601f168015610b4d5780820380516001836020036101000a031916815260200191505b50858103845289818151815260200191508051906020019080838360005b83811015610b86578082015181840152602081019050610b6b565b50505050905090810190601f168015610bb35780820380516001836020036101000a031916815260200191505b50858103835288818151815260200191508051906020019060200280838360005b83811015610bef578082015181840152602081019050610bd4565b50505050905001858103825286818151815260200191508051906020019080838360005b83811015610c2e578082015181840152602081019050610c13565b50505050905090810190601f168015610c5b5780820380516001836020036101000a031916815260200191505b509b50505050505050505050505060405180910390f35b610c9e60048036036020811015610c8857600080fd5b8101908080359060200190929190505050612a08565b6040518085815260200180602001841515815260200180602001838103835286818151815260200191508051906020019080838360005b83811015610cf0578082015181840152602081019050610cd5565b50505050905090810190601f168015610d1d5780820380516001836020036101000a031916815260200191505b50838103825284818151815260200191508051906020019080838360005b83811015610d56578082015181840152602081019050610d3b565b50505050905090810190601f168015610d835780820380516001836020036101000a031916815260200191505b50965050505050505060405180910390f35b610efb60048036036080811015610dab57600080fd5b810190808035906020019092919080359060200190640100000000811115610dd257600080fd5b820183602082011115610de457600080fd5b80359060200191846001830284011164010000000083111715610e0657600080fd5b91908080601f016020809104026020016040519081016040528093929190818152602001838380828437600081840152601f19601f82011690508083019250505050505050919291929080359060200190640100000000811115610e6957600080fd5b820183602082011115610e7b57600080fd5b80359060200191846001830284011164010000000083111715610e9d57600080fd5b91908080601f016020809104026020016040519081016040528093929190818152602001838380828437600081840152601f19601f820116905080830192505050505050509192919290803515159060200190929190505050612b75565b005b6111176004803603610100811015610f1457600080fd5b81019080803590602001909291908035906020019092919080359060200190929190803590602001909291908035906020019092919080359060200190640100000000811115610f6357600080fd5b820183602082011115610f7557600080fd5b80359060200191846001830284011164010000000083111715610f9757600080fd5b91908080601f016020809104026020016040519081016040528093929190818152602001838380828437600081840152601f19601f82011690508083019250505050505050919291929080359060200190640100000000811115610ffa57600080fd5b82018360208201111561100c57600080fd5b8035906020019184600183028401116401000000008311171561102e57600080fd5b91908080601f016020809104026020016040519081016040528093929190818152602001838380828437600081840152601f19601f8201169050808301925050505050505091929192908035906020019064010000000081111561109157600080fd5b8201836020820111156110a357600080fd5b803590602001918460018302840111640100000000831117156110c557600080fd5b91908080601f016020809104026020016040519081016040528093929190818152602001838380828437600081840152601f19601f820116905080830192505050505050509192919290505050612c17565b6040518082815260200191505060405180910390f35b6111596004803603602081101561114357600080fd5b8101908080359060200190929190505050612d68565b604051808a81526020018981526020018881526020018781526020018681526020018060200180602001851515815260200180602001848103845288818151815260200191508051906020019080838360005b838110156111c75780820151818401526020810190506111ac565b50505050905090810190601f1680156111f45780820380516001836020036101000a031916815260200191505b50848103835287818151815260200191508051906020019080838360005b8381101561122d578082015181840152602081019050611212565b50505050905090810190601f16801561125a5780820380516001836020036101000a031916815260200191505b50848103825285818151815260200191508051906020019080838360005b83811015611293578082015181840152602081019050611278565b50505050905090810190601f1680156112c05780820380516001836020036101000a031916815260200191505b509c5050505050505050505050505060405180910390f35b611304600480360360208110156112ee57600080fd5b8101908080359060200190929190505050612fb9565b6040518082815260200191505060405180910390f35b61159f600480360360a081101561133057600080fd5b810190808035906020019064010000000081111561134d57600080fd5b82018360208201111561135f57600080fd5b8035906020019184600183028401116401000000008311171561138157600080fd5b91908080601f016020809104026020016040519081016040528093929190818152602001838380828437600081840152601f19601f82011690508083019250505050505050919291929080359060200190929190803590602001906401000000008111156113ee57600080fd5b82018360208201111561140057600080fd5b8035906020019184600183028401116401000000008311171561142257600080fd5b91908080601f016020809104026020016040519081016040528093929190818152602001838380828437600081840152601f19601f8201169050808301925050505050505091929192908035906020019064010000000081111561148557600080fd5b82018360208201111561149757600080fd5b803590602001918460208302840111640100000000831117156114b957600080fd5b919080806020026020016040519081016040528093929190818152602001838360200280828437600081840152601f19601f8201169050808301925050505050505091929192908035906020019064010000000081111561151957600080fd5b82018360208201111561152b57600080fd5b8035906020019184600183028401116401000000008311171561154d57600080fd5b91908080601f016020809104026020016040519081016040528093929190818152602001838380828437600081840152601f19601f820116905080830192505050505050509192919290505050612fdd565b6040518082815260200191505060405180910390f35b611705600480360360408110156115cb57600080fd5b81019080803590602001906401000000008111156115e857600080fd5b8201836020820111156115fa57600080fd5b8035906020019184600183028401116401000000008311171561161c57600080fd5b91908080601f016020809104026020016040519081016040528093929190818152602001838380828437600081840152601f19601f8201169050808301925050505050505091929192908035906020019064010000000081111561167f57600080fd5b82018360208201111561169157600080fd5b803590602001918460018302840111640100000000831117156116b357600080fd5b91908080601f016020809104026020016040519081016040528093929190818152602001838380828437600081840152601f19601f820116905080830192505050505050509192919290505050613129565b6040518082815260200191505060405180910390f35b6119b6600480360360e081101561173157600080fd5b81019080803590602001909291908035906020019064010000000081111561175857600080fd5b82018360208201111561176a57600080fd5b8035906020019184600183028401116401000000008311171561178c57600080fd5b91908080601f016020809104026020016040519081016040528093929190818152602001838380828437600081840152601f19601f82011690508083019250505050505050919291929080359060200190929190803590602001906401000000008111156117f957600080fd5b82018360208201111561180b57600080fd5b8035906020019184600183028401116401000000008311171561182d57600080fd5b91908080601f016020809104026020016040519081016040528093929190818152602001838380828437600081840152601f19601f8201169050808301925050505050505091929192908035906020019064010000000081111561189057600080fd5b8201836020820111156118a257600080fd5b803590602001918460208302840111640100000000831117156118c457600080fd5b919080806020026020016040519081016040528093929190818152602001838360200280828437600081840152601f19601f8201169050808301925050505050505091929192908035906020019064010000000081111561192457600080fd5b82018360208201111561193657600080fd5b8035906020019184600183028401116401000000008311171561195857600080fd5b91908080601f016020809104026020016040519081016040528093929190818152602001838380828437600081840152601f19601f820116905080830192505050505050509192919290803515159060200190929190505050613236565b005b6119e4600480360360208110156119ce57600080fd5b8101908080359060200190929190505050613317565b6040518082815260200191505060405180910390f35b611a2660048036036020811015611a1057600080fd5b810190808035906020019092919050505061333b565b6040518082815260200191505060405180910390f35b611a6860048036036020811015611a5257600080fd5b810190808035906020019092919050505061335f565b604051808681526020018060200180602001851515815260200180602001848103845288818151815260200191508051906020019080838360005b83811015611abe578082015181840152602081019050611aa3565b50505050905090810190601f168015611aeb5780820380516001836020036101000a031916815260200191505b50848103835287818151815260200191508051906020019080838360005b83811015611b24578082015181840152602081019050611b09565b50505050905090810190601f168015611b515780820380516001836020036101000a031916815260200191505b50848103825285818151815260200191508051906020019080838360005b83811015611b8a578082015181840152602081019050611b6f565b50505050905090810190601f168015611bb75780820380516001836020036101000a031916815260200191505b509850505050505050505060405180910390f35b611bf760048036036020811015611be157600080fd5b810190808035906020019092919050505061358a565b6040518085815260200180602001841515815260200180602001838103835286818151815260200191508051906020019080838360005b83811015611c49578082015181840152602081019050611c2e565b50505050905090810190601f168015611c765780820380516001836020036101000a031916815260200191505b50838103825284818151815260200191508051906020019080838360005b83811015611caf578082015181840152602081019050611c94565b50505050905090810190601f168015611cdc5780820380516001836020036101000a031916815260200191505b50965050505050505060405180910390f35b611eeb600480360360a0811015611d0457600080fd5b810190808035906020019092919080359060200190640100000000811115611d2b57600080fd5b820183602082011115611d3d57600080fd5b80359060200191846001830284011164010000000083111715611d5f57600080fd5b91908080601f016020809104026020016040519081016040528093929190818152602001838380828437600081840152601f19601f82011690508083019250505050505050919291929080359060200190640100000000811115611dc257600080fd5b820183602082011115611dd457600080fd5b80359060200191846001830284011164010000000083111715611df657600080fd5b91908080601f016020809104026020016040519081016040528093929190818152602001838380828437600081840152601f19601f82011690508083019250505050505050919291929080359060200190640100000000811115611e5957600080fd5b820183602082011115611e6b57600080fd5b80359060200191846001830284011164010000000083111715611e8d57600080fd5b91908080601f016020809104026020016040519081016040528093929190818152602001838380828437600081840152601f19601f82011690508083019250505050505050919291929080351515906020019092919050505061370f565b005b6001602052806000526040600020600091509050806000015490806001015490806002018054600181600116156101000203166002900480601f016020809104026020016040519081016040528092919081815260200182805460018160011615610100020316600290048015611fa55780601f10611f7a57610100808354040283529160200191611fa5565b820191906000526020600020905b815481529060010190602001808311611f8857829003601f168201915b505050505090806003018054600181600116156101000203166002900480601f0160208091040260200160405190810160405280929190818152602001828054600181600116156101000203166002900480156120435780601f1061201857610100808354040283529160200191612043565b820191906000526020600020905b81548152906001019060200180831161202657829003601f168201915b5050505050908060050160009054906101000a900460ff1690806006018054600181600116156101000203166002900480601f0160208091040260200160405190810160405280929190818152602001828054600181600116156101000203166002900480156120f45780601f106120c9576101008083540402835291602001916120f4565b820191906000526020600020905b8154815290600101906020018083116120d757829003601f168201915b5050505050905086565b6002602052806000526040600020600091509050806000015490806001018054600181600116156101000203166002900480601f0160208091040260200160405190810160405280929190818152602001828054600181600116156101000203166002900480156121b05780601f10612185576101008083540402835291602001916121b0565b820191906000526020600020905b81548152906001019060200180831161219357829003601f168201915b505050505090806002018054600181600116156101000203166002900480601f01602080910402602001604051908101604052809291908181526020018280546001816001161561010002031660029004801561224e5780601f106122235761010080835404028352916020019161224e565b820191906000526020600020905b81548152906001019060200180831161223157829003601f168201915b5050505050908060030160009054906101000a900460ff1690806004018054600181600116156101000203166002900480601f0160208091040260200160405190810160405280929190818152602001828054600181600116156101000203166002900480156122ff5780601f106122d4576101008083540402835291602001916122ff565b820191906000526020600020905b8154815290600101906020018083116122e257829003601f168201915b5050505050905085565b6006818154811061231957600080fd5b906000526020600020016000915090505481565b6003602052806000526040600020600091509050806000015490806001015490806002015490806003015490806004015490806005018054600181600116156101000203166002900480601f0160208091040260200160405190810160405280929190818152602001828054600181600116156101000203166002900480156123f75780601f106123cc576101008083540402835291602001916123f7565b820191906000526020600020905b8154815290600101906020018083116123da57829003601f168201915b505050505090806006018054600181600116156101000203166002900480601f0160208091040260200160405190810160405280929190818152602001828054600181600116156101000203166002900480156124955780601f1061246a57610100808354040283529160200191612495565b820191906000526020600020905b81548152906001019060200180831161247857829003601f168201915b5050505050908060070160009054906101000a900460ff1690806008018054600181600116156101000203166002900480601f0160208091040260200160405190810160405280929190818152602001828054600181600116156101000203166002900480156125465780601f1061251b57610100808354040283529160200191612546565b820191906000526020600020905b81548152906001019060200180831161252957829003601f168201915b5050505050905089565b600080424460405160200180838152602001828152602001925050506040516020818303038152906040528051906020012090506000600260008381526020019081526020016000209050818160000181905550858160010190805190602001906125bc9291906137cc565b50848160020190805190602001906125d59291906137cc565b5060018160030160006101000a81548160ff0219169083151502179055508381600401908051906020019061260b9291906137cc565b5060068290806001815401808255809150506001900390600052602060002001600090919091909150557f6956a71484c646076551330ff66644c57e2bba15c81bbed91f80fa243c74a887826040518082815260200191505060405180910390a181925050509392505050565b600860009054906101000a900460ff1681565b6000600360008b81526020019081526020016000209050888160010181905550878160020181905550868160030181905550888160010181905550858160040181905550848160050190805190602001906126e79291906137cc565b50838160060190805190602001906127009291906137cc565b50818160070160006101000a81548160ff021916908315150217905550828160080190805190602001906127359291906137cc565b507f756a4458a6731666582902acc2a9947de5acf7e820c3ed211175cb75ee52e4a98a6040518082815260200191505060405180910390a150505050505050505050565b6000806060806060600060606000600160008a81526020019081526020016000209050806000015481600101548260020183600301846004018560050160009054906101000a900460ff1686600601848054600181600116156101000203166002900480601f01602080910402602001604051908101604052809291908181526020018280546001816001161561010002031660029004801561285d5780601f106128325761010080835404028352916020019161285d565b820191906000526020600020905b81548152906001019060200180831161284057829003601f168201915b50505050509450838054600181600116156101000203166002900480601f0160208091040260200160405190810160405280929190818152602001828054600181600116156101000203166002900480156128f95780601f106128ce576101008083540402835291602001916128f9565b820191906000526020600020905b8154815290600101906020018083116128dc57829003601f168201915b505050505093508280548060200260200160405190810160405280929190818152602001828054801561294b57602002820191906000526020600020905b815481526020019060010190808311612937575b50505050509250808054600181600116156101000203166002900480601f0160208091040260200160405190810160405280929190818152602001828054600181600116156101000203166002900480156129e75780601f106129bc576101008083540402835291602001916129e7565b820191906000526020600020905b8154815290600101906020018083116129ca57829003601f168201915b50505050509050975097509750975097509750975050919395979092949650565b6000602052806000526040600020600091509050806000015490806001018054600181600116156101000203166002900480601f016020809104026020016040519081016040528092919081815260200182805460018160011615610100020316600290048015612aba5780601f10612a8f57610100808354040283529160200191612aba565b820191906000526020600020905b815481529060010190602001808311612a9d57829003601f168201915b5050505050908060020160009054906101000a900460ff1690806003018054600181600116156101000203166002900480601f016020809104026020016040519081016040528092919081815260200182805460018160011615610100020316600290048015612b6b5780601f10612b4057610100808354040283529160200191612b6b565b820191906000526020600020905b815481529060010190602001808311612b4e57829003601f168201915b5050505050905084565b6000806000868152602001908152602001600020905083816001019080519060200190612ba39291906137cc565b50818160020160006101000a81548160ff02191690831515021790555082816003019080519060200190612bd89291906137cc565b507fb17d425d710652ed2b5d27f04807e9015c9b0b3af2fe3434ccf17197f338c7fd856040518082815260200191505060405180910390a15050505050565b60008042446040516020018083815260200182815260200192505050604051602081830303815290604052805190602001209050600060036000838152602001908152602001600020905081816000018190555089816001018190555088816002018190555087816003018190555086816004018190555085816005019080519060200190612ca79291906137cc565b5084816006019080519060200190612cc09291906137cc565b5060018160070160006101000a81548160ff02191690831515021790555083816008019080519060200190612cf69291906137cc565b5060078290806001815401808255809150506001900390600052602060002001600090919091909150557f4e084d8ddee23c9b1f462cb17dda88580da94f2a1333d40707be2ec2ce99bca1826040518082815260200191505060405180910390a1819250505098975050505050505050565b6000806000806000606080600060606000600360008c815260200190815260200160002090508060000154816001015482600201548360030154846004015485600501866006018760070160009054906101000a900460ff1688600801838054600181600116156101000203166002900480601f016020809104026020016040519081016040528092919081815260200182805460018160011615610100020316600290048015612e5a5780601f10612e2f57610100808354040283529160200191612e5a565b820191906000526020600020905b815481529060010190602001808311612e3d57829003601f168201915b50505050509350828054600181600116156101000203166002900480601f016020809104026020016040519081016040528092919081815260200182805460018160011615610100020316600290048015612ef65780601f10612ecb57610100808354040283529160200191612ef6565b820191906000526020600020905b815481529060010190602001808311612ed957829003601f168201915b50505050509250808054600181600116156101000203166002900480601f016020809104026020016040519081016040528092919081815260200182805460018160011615610100020316600290048015612f925780601f10612f6757610100808354040283529160200191612f92565b820191906000526020600020905b815481529060010190602001808311612f7557829003601f168201915b50505050509050995099509950995099509950995099509950509193959799909294969850565b60078181548110612fc957600080fd5b906000526020600020016000915090505481565b600080424460405160200180838152602001828152602001925050506040516020818303038152906040528051906020012090506000600160008381526020019081526020016000209050818160000181905550878160020190805190602001906130499291906137cc565b50858160030190805190602001906130629291906137cc565b508481600401908051906020019061307b92919061385a565b5086816001018190555060018160050160006101000a81548160ff021916908315150217905550838160060190805190602001906130ba9291906137cc565b5060058290806001815401808255809150506001900390600052602060002001600090919091909150557fd72de00ac023ce28bdf5f7f9ce805bb06832bd76131a8e168591b6632164cb08826040518082815260200191505060405180910390a1819250505095945050505050565b6000804244604051602001808381526020018281526020019250505060405160208183030381529060405280519060200120905060008060008381526020019081526020016000209050818160000181905550848160010190805190602001906131949291906137cc565b5060018160020160006101000a81548160ff021916908315150217905550838160030190805190602001906131ca9291906137cc565b5060048290806001815401808255809150506001900390600052602060002001600090919091909150557fceaa9780dd69d57f7477f4eeb327451530ffdc7e551797e9c9eac2f6c6e1705c826040518082815260200191505060405180910390a1819250505092915050565b6000600160008981526020019081526020016000209050868160020190805190602001906132659291906137cc565b50858160010181905550848160030190805190602001906132879291906137cc565b50838160040190805190602001906132a092919061385a565b50818160050160006101000a81548160ff021916908315150217905550828160060190805190602001906132d59291906137cc565b507fd8f714b0852cafd83ecf70bc951be7f00a73c6fd484df5769f44619534ce1447886040518082815260200191505060405180910390a15050505050505050565b6005818154811061332757600080fd5b906000526020600020016000915090505481565b6004818154811061334b57600080fd5b906000526020600020016000915090505481565b6000606080600060606000600260008881526020019081526020016000209050806000015481600101826002018360030160009054906101000a900460ff1684600401838054600181600116156101000203166002900480601f0160208091040260200160405190810160405280929190818152602001828054600181600116156101000203166002900480156134375780601f1061340c57610100808354040283529160200191613437565b820191906000526020600020905b81548152906001019060200180831161341a57829003601f168201915b50505050509350828054600181600116156101000203166002900480601f0160208091040260200160405190810160405280929190818152602001828054600181600116156101000203166002900480156134d35780601f106134a8576101008083540402835291602001916134d3565b820191906000526020600020905b8154815290600101906020018083116134b657829003601f168201915b50505050509250808054600181600116156101000203166002900480601f01602080910402602001604051908101604052809291908181526020018280546001816001161561010002031660029004801561356f5780601f106135445761010080835404028352916020019161356f565b820191906000526020600020905b81548152906001019060200180831161355257829003601f168201915b50505050509050955095509550955095505091939590929450565b6000606060006060600080600087815260200190815260200160002090508060000154816001018260020160009054906101000a900460ff1683600301828054600181600116156101000203166002900480601f01602080910402602001604051908101604052809291908181526020018280546001816001161561010002031660029004801561365c5780601f106136315761010080835404028352916020019161365c565b820191906000526020600020905b81548152906001019060200180831161363f57829003601f168201915b50505050509250808054600181600116156101000203166002900480601f0160208091040260200160405190810160405280929190818152602001828054600181600116156101000203166002900480156136f85780601f106136cd576101008083540402835291602001916136f8565b820191906000526020600020905b8154815290600101906020018083116136db57829003601f168201915b505050505090509450945094509450509193509193565b60006002600087815260200190815260200160002090508481600101908051906020019061373e9291906137cc565b50838160020190805190602001906137579291906137cc565b50818160030160006101000a81548160ff0219169083151502179055508281600401908051906020019061378c9291906137cc565b507f92c15e0894dd3cf13d80c462af158bcca92516d4cf13e2e2763e16d5e99b5528866040518082815260200191505060405180910390a1505050505050565b828054600181600116156101000203166002900490600052602060002090601f0160209004810192826138025760008555613849565b82601f1061381b57805160ff1916838001178555613849565b82800160010185558215613849579182015b8281111561384857825182559160200191906001019061382d565b5b50905061385691906138a7565b5090565b828054828255906000526020600020908101928215613896579160200282015b8281111561389557825182559160200191906001019061387a565b5b5090506138a391906138c4565b5090565b5b808211156138c05760008160009055506001016138a8565b5090565b5b808211156138dd5760008160009055506001016138c5565b509056fea264697066735822122057e5cda6e47fd844718a811b583d13c440e9c056c723821c4622072aee8d3e2964736f6c63430007040033",
  "immutableReferences": {},
  "source": "pragma solidity ^0.7.4;\n\nimport \"./SupplyChainModels.sol\";\nimport \"./SupplyChainEvents.sol\";\n\ncontract SupplyChain is SupplyChainModels, SupplyChainEvents {\n    uint8 public version = 1;\n\n\n    /*\n        Category\n    */\n    function createCategory(string memory _name, string memory _customJsonData)\n        public\n        returns (bytes32 objId)\n    {\n        bytes32 newId =\n            keccak256(abi.encodePacked(block.timestamp, block.difficulty));\n\n        Category storage obj = categoryMap[newId];\n        obj.categoryId = newId;\n        obj.name = _name;\n        obj.isActive = true;\n        obj.customJsonData = _customJsonData;\n\n        categoryIds.push(newId);\n\n        emit CategoryCreated(newId);\n        return (newId);\n    }\n\n    function updateCategory(\n        bytes32 objId,\n        string memory _name,\n        string memory _customJsonData,\n        bool _isActive\n    ) public {\n        Category storage obj = categoryMap[objId];\n        obj.name = _name;\n        obj.isActive = _isActive;\n        obj.customJsonData = _customJsonData;\n\n        emit CategoryUpdated(objId);\n    }\n\n    function getCategoryById(bytes32 objId)\n        public\n        view\n        returns (\n            bytes32 id,\n            string memory name,\n            bool isActive,\n            string memory customJsonData\n        )\n    {\n        Category storage obj = categoryMap[objId];\n        return (obj.categoryId, obj.name, obj.isActive, obj.customJsonData);\n    }\n\n    /*\n        Product\n    */\n    function createProduct(\n        string memory _name,\n        bytes32 _categoryId,\n        string memory _description,\n        bytes32[] memory _certificationIdList,\n        string memory _customJsonData\n    ) public returns (bytes32 objId) {\n        bytes32 newId =\n            keccak256(abi.encodePacked(block.timestamp, block.difficulty));\n\n        Product storage obj = productMap[newId];\n        obj.productId = newId;\n        obj.name = _name;\n        obj.description = _description;\n        obj.certicationIdList = _certificationIdList;\n        obj.categoryId = _categoryId;\n        obj.isActive = true;\n        obj.customJsonData = _customJsonData;\n\n        productIds.push(newId);\n\n        emit ProductCreated(newId);\n        return (newId);\n    }\n\n    function updateProduct(\n        bytes32 objId,\n        string memory _name,\n        bytes32 _categoryId,\n        string memory _description,\n        bytes32[] memory _certificationIdList,\n        string memory _customJsonData,\n        bool _isActive\n    ) public {\n        Product storage obj = productMap[objId];\n        obj.name = _name;\n        obj.categoryId = _categoryId;\n        obj.description = _description;\n        obj.certicationIdList = _certificationIdList;\n        obj.isActive = _isActive;\n        obj.customJsonData = _customJsonData;\n\n        emit ProductUpdated(objId);\n    }\n\n    function getProductById(bytes32 objId)\n        public\n        view\n        returns (\n            bytes32 id,\n            bytes32 categoryId,\n            string memory name,\n            string memory description,\n            bytes32[] memory certicationIdList,\n            bool isActive,\n            string memory customJsonData\n        )\n    {\n        Product storage obj = productMap[objId];\n        return (\n            obj.productId,\n            obj.categoryId,\n            obj.name,\n            obj.description,\n            obj.certicationIdList,\n            obj.isActive,\n            obj.customJsonData\n        );\n    }\n\n\n    /*\n        Certification\n    */\n    function createCertification(\n        string memory _name,\n        string memory _certificationUrl,\n        string memory _customJsonData\n    ) public returns (bytes32 objId) {\n        bytes32 newId =\n            keccak256(abi.encodePacked(block.timestamp, block.difficulty));\n\n        Certification storage obj = certificationMap[newId];\n        obj.certificationId = newId;\n        obj.name = _name;\n        obj.certificateUrl = _certificationUrl;\n        obj.isActive = true;\n        obj.customJsonData = _customJsonData;\n\n        certificationIds.push(newId);\n\n        emit CertificationCreated(newId);\n        return (newId);\n    }\n\n    function updateCertification(\n        bytes32 objId,\n        string memory _name,\n        string memory _certificationUrl,\n        string memory _customJsonData,\n        bool _isActive\n    ) public {\n        Certification storage obj = certificationMap[objId];\n        obj.name = _name;\n        obj.certificateUrl = _certificationUrl;\n        obj.isActive = _isActive;\n        obj.customJsonData = _customJsonData;\n\n        emit CertificationUpdated(objId);\n    }\n\n    function getCertificationById(bytes32 objId)\n        public\n        view\n        returns (\n            bytes32 id,\n            string memory name,\n            string memory certificateUrl,\n            bool isActive,\n            string memory customJsonData\n        )\n    {\n        Certification storage obj = certificationMap[objId];\n        return (\n            obj.certificationId,\n            obj.name,\n            obj.certificateUrl,\n            obj.isActive,\n            obj.customJsonData\n        );\n    }\n\n    /*\n        Track History\n    */\n    function createTrackHistory(\n        bytes32 _trackHistoryId,\n        bytes32 _productId,\n        bytes32 _activityId,\n        bytes32 _profileId,\n        bytes32 _areaId,\n        string memory _gps,\n        string memory _remarks,\n        string memory _customJsonData\n    ) public returns (bytes32 objId) {\n        bytes32 newId =\n            keccak256(abi.encodePacked(block.timestamp, block.difficulty));\n\n        TrackHistory storage obj = trackHistoryMap[newId];\n        obj.trackHistoryId = newId;\n        obj.productId = _productId;\n        obj.activityId = _activityId;\n        obj.profileId = _profileId;\n        obj.areaId = _areaId;\n        obj.gps = _gps;\n        obj.remarks = _remarks;\n        obj.isActive = true;\n        obj.customJsonData = _customJsonData;\n\n        trackHistoryIds.push(newId);\n\n        emit TrackHistoryCreated(newId);\n        return (newId);\n    }\n\n    function updateTrackHistory(\n        bytes32 objId,\n        bytes32 _productId,\n        bytes32 _activityId,\n        bytes32 _profileId,\n        bytes32 _areaId,\n        string memory _gps,\n        string memory _remarks,\n        string memory _customJsonData,\n        bool _isActive\n    ) public {\n        TrackHistory storage obj = trackHistoryMap[objId];\n        obj.productId = _productId;\n        obj.activityId = _activityId;\n        obj.profileId = _profileId;\n        obj.productId = _productId;\n        obj.areaId = _areaId;\n        obj.gps = _gps;\n        obj.remarks = _remarks;\n        obj.isActive = _isActive;\n        obj.customJsonData = _customJsonData;\n\n        emit TrackHistoryUpdated(objId);\n    }\n\n    function getTrackHistoryById(bytes32 objId)\n        public\n        view\n        returns (\n            bytes32 id,\n            bytes32 productId,\n            bytes32 activityId,\n            bytes32 profileId,\n            bytes32 areaId,\n            string memory gps,\n            string memory remarks,\n            bool isActive,\n            string memory customJsonData\n        )\n    {\n        TrackHistory storage obj = trackHistoryMap[objId];\n        return (\n            obj.trackHistoryId,\n            obj.productId,\n            obj.activityId,\n            obj.profileId,\n            obj.areaId,\n            obj.gps,\n            obj.remarks,\n            obj.isActive,\n            obj.customJsonData\n        );\n    }\n\n}\n",
  "sourcePath": "/home/fakhrul/experiment/supplychain_blockchain/tat_contract/contracts/SupplyChain.sol",
  "compiler": {
    "name": "solc",
    "version": "0.7.4+commit.3f05b770.Emscripten.clang"
  },
  "schemaVersion": "3.3.4",
  "updatedAt": "2021-03-04T15:06:36.878Z",
  "devdoc": {
    "kind": "dev",
    "methods": {},
    "version": 1
  },
  "userdoc": {
    "kind": "user",
    "methods": {},
    "version": 1
  }
}