{
  "contractName": "SupplyChainModels",
  "abi": [
    {
      "inputs": [
        {
          "internalType": "uint256",
          "name": "",
          "type": "uint256"
        }
      ],
      "name": "activityIds",
      "outputs": [
        {
          "internalType": "bytes32",
          "name": "",
          "type": "bytes32"
        }
      ],
      "stateMutability": "view",
      "type": "function"
    },
    {
      "inputs": [
        {
          "internalType": "bytes32",
          "name": "",
          "type": "bytes32"
        }
      ],
      "name": "activityMap",
      "outputs": [
        {
          "internalType": "bytes32",
          "name": "activityId",
          "type": "bytes32"
        },
        {
          "internalType": "string",
          "name": "name",
          "type": "string"
        },
        {
          "internalType": "bytes32",
          "name": "organizationTypeId",
          "type": "bytes32"
        },
        {
          "internalType": "bool",
          "name": "isActive",
          "type": "bool"
        },
        {
          "internalType": "string",
          "name": "customJsonData",
          "type": "string"
        }
      ],
      "stateMutability": "view",
      "type": "function"
    },
    {
      "inputs": [
        {
          "internalType": "uint256",
          "name": "",
          "type": "uint256"
        }
      ],
      "name": "areaIds",
      "outputs": [
        {
          "internalType": "bytes32",
          "name": "",
          "type": "bytes32"
        }
      ],
      "stateMutability": "view",
      "type": "function"
    },
    {
      "inputs": [
        {
          "internalType": "bytes32",
          "name": "",
          "type": "bytes32"
        }
      ],
      "name": "areaMap",
      "outputs": [
        {
          "internalType": "bytes32",
          "name": "areaId",
          "type": "bytes32"
        },
        {
          "internalType": "string",
          "name": "name",
          "type": "string"
        },
        {
          "internalType": "bytes32",
          "name": "organizationId",
          "type": "bytes32"
        },
        {
          "internalType": "bool",
          "name": "isActive",
          "type": "bool"
        },
        {
          "internalType": "string",
          "name": "customJsonData",
          "type": "string"
        }
      ],
      "stateMutability": "view",
      "type": "function"
    },
    {
      "inputs": [
        {
          "internalType": "uint256",
          "name": "",
          "type": "uint256"
        }
      ],
      "name": "categoryIds",
      "outputs": [
        {
          "internalType": "bytes32",
          "name": "",
          "type": "bytes32"
        }
      ],
      "stateMutability": "view",
      "type": "function"
    },
    {
      "inputs": [
        {
          "internalType": "bytes32",
          "name": "",
          "type": "bytes32"
        }
      ],
      "name": "categoryMap",
      "outputs": [
        {
          "internalType": "bytes32",
          "name": "categoryId",
          "type": "bytes32"
        },
        {
          "internalType": "string",
          "name": "name",
          "type": "string"
        },
        {
          "internalType": "bool",
          "name": "isActive",
          "type": "bool"
        },
        {
          "internalType": "string",
          "name": "customJsonData",
          "type": "string"
        }
      ],
      "stateMutability": "view",
      "type": "function"
    },
    {
      "inputs": [
        {
          "internalType": "uint256",
          "name": "",
          "type": "uint256"
        }
      ],
      "name": "certificationIds",
      "outputs": [
        {
          "internalType": "bytes32",
          "name": "",
          "type": "bytes32"
        }
      ],
      "stateMutability": "view",
      "type": "function"
    },
    {
      "inputs": [
        {
          "internalType": "bytes32",
          "name": "",
          "type": "bytes32"
        }
      ],
      "name": "certificationMap",
      "outputs": [
        {
          "internalType": "bytes32",
          "name": "certificationId",
          "type": "bytes32"
        },
        {
          "internalType": "string",
          "name": "name",
          "type": "string"
        },
        {
          "internalType": "string",
          "name": "certificateUrl",
          "type": "string"
        },
        {
          "internalType": "bool",
          "name": "isActive",
          "type": "bool"
        },
        {
          "internalType": "string",
          "name": "customJsonData",
          "type": "string"
        }
      ],
      "stateMutability": "view",
      "type": "function"
    },
    {
      "inputs": [
        {
          "internalType": "uint256",
          "name": "",
          "type": "uint256"
        }
      ],
      "name": "organizationTypeIds",
      "outputs": [
        {
          "internalType": "bytes32",
          "name": "",
          "type": "bytes32"
        }
      ],
      "stateMutability": "view",
      "type": "function"
    },
    {
      "inputs": [
        {
          "internalType": "bytes32",
          "name": "",
          "type": "bytes32"
        }
      ],
      "name": "organizationTypeMap",
      "outputs": [
        {
          "internalType": "bytes32",
          "name": "organizationTypeId",
          "type": "bytes32"
        },
        {
          "internalType": "string",
          "name": "name",
          "type": "string"
        },
        {
          "internalType": "bool",
          "name": "isActive",
          "type": "bool"
        },
        {
          "internalType": "string",
          "name": "customJsonData",
          "type": "string"
        }
      ],
      "stateMutability": "view",
      "type": "function"
    },
    {
      "inputs": [
        {
          "internalType": "uint256",
          "name": "",
          "type": "uint256"
        }
      ],
      "name": "productIds",
      "outputs": [
        {
          "internalType": "bytes32",
          "name": "",
          "type": "bytes32"
        }
      ],
      "stateMutability": "view",
      "type": "function"
    },
    {
      "inputs": [
        {
          "internalType": "bytes32",
          "name": "",
          "type": "bytes32"
        }
      ],
      "name": "productMap",
      "outputs": [
        {
          "internalType": "bytes32",
          "name": "productId",
          "type": "bytes32"
        },
        {
          "internalType": "bytes32",
          "name": "categoryId",
          "type": "bytes32"
        },
        {
          "internalType": "string",
          "name": "name",
          "type": "string"
        },
        {
          "internalType": "string",
          "name": "description",
          "type": "string"
        },
        {
          "internalType": "bool",
          "name": "isActive",
          "type": "bool"
        },
        {
          "internalType": "string",
          "name": "customJsonData",
          "type": "string"
        }
      ],
      "stateMutability": "view",
      "type": "function"
    },
    {
      "inputs": [
        {
          "internalType": "uint256",
          "name": "",
          "type": "uint256"
        }
      ],
      "name": "profileIds",
      "outputs": [
        {
          "internalType": "bytes32",
          "name": "",
          "type": "bytes32"
        }
      ],
      "stateMutability": "view",
      "type": "function"
    },
    {
      "inputs": [
        {
          "internalType": "bytes32",
          "name": "",
          "type": "bytes32"
        }
      ],
      "name": "profileMap",
      "outputs": [
        {
          "internalType": "bytes32",
          "name": "profileId",
          "type": "bytes32"
        },
        {
          "internalType": "string",
          "name": "name",
          "type": "string"
        },
        {
          "internalType": "string",
          "name": "email",
          "type": "string"
        },
        {
          "internalType": "string",
          "name": "passwordHash",
          "type": "string"
        },
        {
          "internalType": "string",
          "name": "phone",
          "type": "string"
        },
        {
          "internalType": "bytes32",
          "name": "organizationId",
          "type": "bytes32"
        },
        {
          "internalType": "bool",
          "name": "isActive",
          "type": "bool"
        },
        {
          "internalType": "string",
          "name": "customJsonData",
          "type": "string"
        }
      ],
      "stateMutability": "view",
      "type": "function"
    },
    {
      "inputs": [
        {
          "internalType": "uint256",
          "name": "",
          "type": "uint256"
        }
      ],
      "name": "roleIds",
      "outputs": [
        {
          "internalType": "bytes32",
          "name": "",
          "type": "bytes32"
        }
      ],
      "stateMutability": "view",
      "type": "function"
    },
    {
      "inputs": [
        {
          "internalType": "bytes32",
          "name": "",
          "type": "bytes32"
        }
      ],
      "name": "roleMap",
      "outputs": [
        {
          "internalType": "bytes32",
          "name": "roleId",
          "type": "bytes32"
        },
        {
          "internalType": "string",
          "name": "name",
          "type": "string"
        },
        {
          "internalType": "bool",
          "name": "isActive",
          "type": "bool"
        },
        {
          "internalType": "string",
          "name": "customJsonData",
          "type": "string"
        }
      ],
      "stateMutability": "view",
      "type": "function"
    },
    {
      "inputs": [
        {
          "internalType": "uint256",
          "name": "",
          "type": "uint256"
        }
      ],
      "name": "trackHistoryIds",
      "outputs": [
        {
          "internalType": "bytes32",
          "name": "",
          "type": "bytes32"
        }
      ],
      "stateMutability": "view",
      "type": "function"
    },
    {
      "inputs": [
        {
          "internalType": "bytes32",
          "name": "",
          "type": "bytes32"
        }
      ],
      "name": "trackHistoryMap",
      "outputs": [
        {
          "internalType": "bytes32",
          "name": "trackHistoryId",
          "type": "bytes32"
        },
        {
          "internalType": "bytes32",
          "name": "productId",
          "type": "bytes32"
        },
        {
          "internalType": "bytes32",
          "name": "activityId",
          "type": "bytes32"
        },
        {
          "internalType": "bytes32",
          "name": "profileId",
          "type": "bytes32"
        },
        {
          "internalType": "bytes32",
          "name": "areaId",
          "type": "bytes32"
        },
        {
          "internalType": "string",
          "name": "gps",
          "type": "string"
        },
        {
          "internalType": "string",
          "name": "remarks",
          "type": "string"
        },
        {
          "internalType": "bool",
          "name": "isActive",
          "type": "bool"
        },
        {
          "internalType": "string",
          "name": "customJsonData",
          "type": "string"
        }
      ],
      "stateMutability": "view",
      "type": "function"
    }
  ],
  "bytecode": "0x608060405234801561001057600080fd5b5061229b806100206000396000f3fe608060405234801561001057600080fd5b50600436106101165760003560e01c80637bcb20b0116100a2578063b59d5cfd11610071578063b59d5cfd14610e36578063b64e9f5914610f60578063cb51bba914610fa2578063d63098dd14610fe4578063e85bf1571461102657610116565b80637bcb20b014610c4d57806392bbaf4014610c8f578063986deb9a14610cd1578063b156129914610d1357610116565b8063395c2111116100e9578063395c2111146105a55780633df9601a146105e75780635ba8c294146107925780636aa6443b14610a005780637149164014610b2357610116565b80630a1bb26a1461011b5780630f0d3da51461015d578063100b6ba21461028057806331a3fc6e14610416575b600080fd5b6101476004803603602081101561013157600080fd5b8101908080359060200190929190505050611068565b6040518082815260200191505060405180910390f35b6101896004803603602081101561017357600080fd5b810190808035906020019092919050505061108c565b6040518085815260200180602001841515815260200180602001838103835286818151815260200191508051906020019080838360005b838110156101db5780820151818401526020810190506101c0565b50505050905090810190601f1680156102085780820380516001836020036101000a031916815260200191505b50838103825284818151815260200191508051906020019080838360005b83811015610241578082015181840152602081019050610226565b50505050905090810190601f16801561026e5780820380516001836020036101000a031916815260200191505b50965050505050505060405180910390f35b6102ac6004803603602081101561029657600080fd5b81019080803590602001909291905050506111f9565b604051808781526020018681526020018060200180602001851515815260200180602001848103845288818151815260200191508051906020019080838360005b838110156103085780820151818401526020810190506102ed565b50505050905090810190601f1680156103355780820380516001836020036101000a031916815260200191505b50848103835287818151815260200191508051906020019080838360005b8381101561036e578082015181840152602081019050610353565b50505050905090810190601f16801561039b5780820380516001836020036101000a031916815260200191505b50848103825285818151815260200191508051906020019080838360005b838110156103d45780820151818401526020810190506103b9565b50505050905090810190601f1680156104015780820380516001836020036101000a031916815260200191505b50995050505050505050505060405180910390f35b6104426004803603602081101561042c57600080fd5b810190808035906020019092919050505061140a565b604051808681526020018060200180602001851515815260200180602001848103845288818151815260200191508051906020019080838360005b8381101561049857808201518184015260208101905061047d565b50505050905090810190601f1680156104c55780820380516001836020036101000a031916815260200191505b50848103835287818151815260200191508051906020019080838360005b838110156104fe5780820151818401526020810190506104e3565b50505050905090810190601f16801561052b5780820380516001836020036101000a031916815260200191505b50848103825285818151815260200191508051906020019080838360005b83811015610564578082015181840152602081019050610549565b50505050905090810190601f1680156105915780820380516001836020036101000a031916815260200191505b509850505050505050505060405180910390f35b6105d1600480360360208110156105bb57600080fd5b8101908080359060200190929190505050611615565b6040518082815260200191505060405180910390f35b610613600480360360208110156105fd57600080fd5b8101908080359060200190929190505050611639565b604051808a81526020018981526020018881526020018781526020018681526020018060200180602001851515815260200180602001848103845288818151815260200191508051906020019080838360005b83811015610681578082015181840152602081019050610666565b50505050905090810190601f1680156106ae5780820380516001836020036101000a031916815260200191505b50848103835287818151815260200191508051906020019080838360005b838110156106e75780820151818401526020810190506106cc565b50505050905090810190601f1680156107145780820380516001836020036101000a031916815260200191505b50848103825285818151815260200191508051906020019080838360005b8381101561074d578082015181840152602081019050610732565b50505050905090810190601f16801561077a5780820380516001836020036101000a031916815260200191505b509c5050505050505050505050505060405180910390f35b6107be600480360360208110156107a857600080fd5b810190808035906020019092919050505061185c565b604051808981526020018060200180602001806020018060200188815260200187151581526020018060200186810386528d818151815260200191508051906020019080838360005b83811015610822578082015181840152602081019050610807565b50505050905090810190601f16801561084f5780820380516001836020036101000a031916815260200191505b5086810385528c818151815260200191508051906020019080838360005b8381101561088857808201518184015260208101905061086d565b50505050905090810190601f1680156108b55780820380516001836020036101000a031916815260200191505b5086810384528b818151815260200191508051906020019080838360005b838110156108ee5780820151818401526020810190506108d3565b50505050905090810190601f16801561091b5780820380516001836020036101000a031916815260200191505b5086810383528a818151815260200191508051906020019080838360005b83811015610954578082015181840152602081019050610939565b50505050905090810190601f1680156109815780820380516001836020036101000a031916815260200191505b50868103825287818151815260200191508051906020019080838360005b838110156109ba57808201518184015260208101905061099f565b50505050905090810190601f1680156109e75780820380516001836020036101000a031916815260200191505b509d505050505050505050505050505060405180910390f35b610a2c60048036036020811015610a1657600080fd5b8101908080359060200190929190505050611ba9565b6040518085815260200180602001841515815260200180602001838103835286818151815260200191508051906020019080838360005b83811015610a7e578082015181840152602081019050610a63565b50505050905090810190601f168015610aab5780820380516001836020036101000a031916815260200191505b50838103825284818151815260200191508051906020019080838360005b83811015610ae4578082015181840152602081019050610ac9565b50505050905090810190601f168015610b115780820380516001836020036101000a031916815260200191505b50965050505050505060405180910390f35b610b4f60048036036020811015610b3957600080fd5b8101908080359060200190929190505050611d16565b6040518086815260200180602001858152602001841515815260200180602001838103835287818151815260200191508051906020019080838360005b83811015610ba7578082015181840152602081019050610b8c565b50505050905090810190601f168015610bd45780820380516001836020036101000a031916815260200191505b50838103825284818151815260200191508051906020019080838360005b83811015610c0d578082015181840152602081019050610bf2565b50505050905090810190601f168015610c3a5780820380516001836020036101000a031916815260200191505b5097505050505050505060405180910390f35b610c7960048036036020811015610c6357600080fd5b8101908080359060200190929190505050611e89565b6040518082815260200191505060405180910390f35b610cbb60048036036020811015610ca557600080fd5b8101908080359060200190929190505050611ead565b6040518082815260200191505060405180910390f35b610cfd60048036036020811015610ce757600080fd5b8101908080359060200190929190505050611ed1565b6040518082815260200191505060405180910390f35b610d3f60048036036020811015610d2957600080fd5b8101908080359060200190929190505050611ef5565b6040518085815260200180602001841515815260200180602001838103835286818151815260200191508051906020019080838360005b83811015610d91578082015181840152602081019050610d76565b50505050905090810190601f168015610dbe5780820380516001836020036101000a031916815260200191505b50838103825284818151815260200191508051906020019080838360005b83811015610df7578082015181840152602081019050610ddc565b50505050905090810190601f168015610e245780820380516001836020036101000a031916815260200191505b50965050505050505060405180910390f35b610e6260048036036020811015610e4c57600080fd5b8101908080359060200190929190505050612062565b6040518086815260200180602001858152602001841515815260200180602001838103835287818151815260200191508051906020019080838360005b83811015610eba578082015181840152602081019050610e9f565b50505050905090810190601f168015610ee75780820380516001836020036101000a031916815260200191505b50838103825284818151815260200191508051906020019080838360005b83811015610f20578082015181840152602081019050610f05565b50505050905090810190601f168015610f4d5780820380516001836020036101000a031916815260200191505b5097505050505050505060405180910390f35b610f8c60048036036020811015610f7657600080fd5b81019080803590602001909291905050506121d5565b6040518082815260200191505060405180910390f35b610fce60048036036020811015610fb857600080fd5b81019080803590602001909291905050506121f9565b6040518082815260200191505060405180910390f35b61101060048036036020811015610ffa57600080fd5b810190808035906020019092919050505061221d565b6040518082815260200191505060405180910390f35b6110526004803603602081101561103c57600080fd5b8101908080359060200190929190505050612241565b6040518082815260200191505060405180910390f35b6009818154811061107857600080fd5b906000526020600020016000915090505481565b6005602052806000526040600020600091509050806000015490806001018054600181600116156101000203166002900480601f01602080910402602001604051908101604052809291908181526020018280546001816001161561010002031660029004801561113e5780601f106111135761010080835404028352916020019161113e565b820191906000526020600020905b81548152906001019060200180831161112157829003601f168201915b5050505050908060020160009054906101000a900460ff1690806003018054600181600116156101000203166002900480601f0160208091040260200160405190810160405280929190818152602001828054600181600116156101000203166002900480156111ef5780601f106111c4576101008083540402835291602001916111ef565b820191906000526020600020905b8154815290600101906020018083116111d257829003601f168201915b5050505050905084565b6004602052806000526040600020600091509050806000015490806001015490806002018054600181600116156101000203166002900480601f0160208091040260200160405190810160405280929190818152602001828054600181600116156101000203166002900480156112b15780601f10611286576101008083540402835291602001916112b1565b820191906000526020600020905b81548152906001019060200180831161129457829003601f168201915b505050505090806003018054600181600116156101000203166002900480601f01602080910402602001604051908101604052809291908181526020018280546001816001161561010002031660029004801561134f5780601f106113245761010080835404028352916020019161134f565b820191906000526020600020905b81548152906001019060200180831161133257829003601f168201915b5050505050908060050160009054906101000a900460ff1690806006018054600181600116156101000203166002900480601f0160208091040260200160405190810160405280929190818152602001828054600181600116156101000203166002900480156114005780601f106113d557610100808354040283529160200191611400565b820191906000526020600020905b8154815290600101906020018083116113e357829003601f168201915b5050505050905086565b6007602052806000526040600020600091509050806000015490806001018054600181600116156101000203166002900480601f0160208091040260200160405190810160405280929190818152602001828054600181600116156101000203166002900480156114bc5780601f10611491576101008083540402835291602001916114bc565b820191906000526020600020905b81548152906001019060200180831161149f57829003601f168201915b505050505090806002018054600181600116156101000203166002900480601f01602080910402602001604051908101604052809291908181526020018280546001816001161561010002031660029004801561155a5780601f1061152f5761010080835404028352916020019161155a565b820191906000526020600020905b81548152906001019060200180831161153d57829003601f168201915b5050505050908060030160009054906101000a900460ff1690806004018054600181600116156101000203166002900480601f01602080910402602001604051908101604052809291908181526020018280546001816001161561010002031660029004801561160b5780601f106115e05761010080835404028352916020019161160b565b820191906000526020600020905b8154815290600101906020018083116115ee57829003601f168201915b5050505050905085565b6010818154811061162557600080fd5b906000526020600020016000915090505481565b6008602052806000526040600020600091509050806000015490806001015490806002015490806003015490806004015490806005018054600181600116156101000203166002900480601f0160208091040260200160405190810160405280929190818152602001828054600181600116156101000203166002900480156117035780601f106116d857610100808354040283529160200191611703565b820191906000526020600020905b8154815290600101906020018083116116e657829003601f168201915b505050505090806006018054600181600116156101000203166002900480601f0160208091040260200160405190810160405280929190818152602001828054600181600116156101000203166002900480156117a15780601f10611776576101008083540402835291602001916117a1565b820191906000526020600020905b81548152906001019060200180831161178457829003601f168201915b5050505050908060070160009054906101000a900460ff1690806008018054600181600116156101000203166002900480601f0160208091040260200160405190810160405280929190818152602001828054600181600116156101000203166002900480156118525780601f1061182757610100808354040283529160200191611852565b820191906000526020600020905b81548152906001019060200180831161183557829003601f168201915b5050505050905089565b6006602052806000526040600020600091509050806000015490806001018054600181600116156101000203166002900480601f01602080910402602001604051908101604052809291908181526020018280546001816001161561010002031660029004801561190e5780601f106118e35761010080835404028352916020019161190e565b820191906000526020600020905b8154815290600101906020018083116118f157829003601f168201915b505050505090806002018054600181600116156101000203166002900480601f0160208091040260200160405190810160405280929190818152602001828054600181600116156101000203166002900480156119ac5780601f10611981576101008083540402835291602001916119ac565b820191906000526020600020905b81548152906001019060200180831161198f57829003601f168201915b505050505090806003018054600181600116156101000203166002900480601f016020809104026020016040519081016040528092919081815260200182805460018160011615610100020316600290048015611a4a5780601f10611a1f57610100808354040283529160200191611a4a565b820191906000526020600020905b815481529060010190602001808311611a2d57829003601f168201915b505050505090806004018054600181600116156101000203166002900480601f016020809104026020016040519081016040528092919081815260200182805460018160011615610100020316600290048015611ae85780601f10611abd57610100808354040283529160200191611ae8565b820191906000526020600020905b815481529060010190602001808311611acb57829003601f168201915b5050505050908060060154908060070160009054906101000a900460ff1690806008018054600181600116156101000203166002900480601f016020809104026020016040519081016040528092919081815260200182805460018160011615610100020316600290048015611b9f5780601f10611b7457610100808354040283529160200191611b9f565b820191906000526020600020905b815481529060010190602001808311611b8257829003601f168201915b5050505050905088565b6003602052806000526040600020600091509050806000015490806001018054600181600116156101000203166002900480601f016020809104026020016040519081016040528092919081815260200182805460018160011615610100020316600290048015611c5b5780601f10611c3057610100808354040283529160200191611c5b565b820191906000526020600020905b815481529060010190602001808311611c3e57829003601f168201915b5050505050908060020160009054906101000a900460ff1690806003018054600181600116156101000203166002900480601f016020809104026020016040519081016040528092919081815260200182805460018160011615610100020316600290048015611d0c5780601f10611ce157610100808354040283529160200191611d0c565b820191906000526020600020905b815481529060010190602001808311611cef57829003601f168201915b5050505050905084565b6002602052806000526040600020600091509050806000015490806001018054600181600116156101000203166002900480601f016020809104026020016040519081016040528092919081815260200182805460018160011615610100020316600290048015611dc85780601f10611d9d57610100808354040283529160200191611dc8565b820191906000526020600020905b815481529060010190602001808311611dab57829003601f168201915b5050505050908060020154908060030160009054906101000a900460ff1690806004018054600181600116156101000203166002900480601f016020809104026020016040519081016040528092919081815260200182805460018160011615610100020316600290048015611e7f5780601f10611e5457610100808354040283529160200191611e7f565b820191906000526020600020905b815481529060010190602001808311611e6257829003601f168201915b5050505050905085565b600b8181548110611e9957600080fd5b906000526020600020016000915090505481565b60118181548110611ebd57600080fd5b906000526020600020016000915090505481565b600e8181548110611ee157600080fd5b906000526020600020016000915090505481565b6000602052806000526040600020600091509050806000015490806001018054600181600116156101000203166002900480601f016020809104026020016040519081016040528092919081815260200182805460018160011615610100020316600290048015611fa75780601f10611f7c57610100808354040283529160200191611fa7565b820191906000526020600020905b815481529060010190602001808311611f8a57829003601f168201915b5050505050908060020160009054906101000a900460ff1690806003018054600181600116156101000203166002900480601f0160208091040260200160405190810160405280929190818152602001828054600181600116156101000203166002900480156120585780601f1061202d57610100808354040283529160200191612058565b820191906000526020600020905b81548152906001019060200180831161203b57829003601f168201915b5050505050905084565b6001602052806000526040600020600091509050806000015490806001018054600181600116156101000203166002900480601f0160208091040260200160405190810160405280929190818152602001828054600181600116156101000203166002900480156121145780601f106120e957610100808354040283529160200191612114565b820191906000526020600020905b8154815290600101906020018083116120f757829003601f168201915b5050505050908060020154908060030160009054906101000a900460ff1690806004018054600181600116156101000203166002900480601f0160208091040260200160405190810160405280929190818152602001828054600181600116156101000203166002900480156121cb5780601f106121a0576101008083540402835291602001916121cb565b820191906000526020600020905b8154815290600101906020018083116121ae57829003601f168201915b5050505050905085565b600f81815481106121e557600080fd5b906000526020600020016000915090505481565b600d818154811061220957600080fd5b906000526020600020016000915090505481565b600c818154811061222d57600080fd5b906000526020600020016000915090505481565b600a818154811061225157600080fd5b90600052602060002001600091509050548156fea2646970667358221220030322f6aff81d3cd550016760824b350eaa8dba75ee35cac6edaf555b27d49564736f6c63430007040033",
  "immutableReferences": {},
  "source": "pragma solidity ^0.7.4;\r\n\r\ncontract SupplyChainModels {\r\n    // Struct definition\r\n    struct OrganizationType {\r\n        bytes32 organizationTypeId;\r\n        string name;\r\n        bool isActive;\r\n        string customJsonData;\r\n    }\r\n    // struct Organization {\r\n    //     bytes32 organizationId;\r\n    //     string name;\r\n    //     bytes32[] organizationTypeIdList;\r\n    //     string organizationAddress;\r\n    //     bool isActive;\r\n    //     string customJsonData;\r\n    // }\r\n\r\n    struct Activity {\r\n        bytes32 activityId;\r\n        string name;\r\n        bytes32 organizationTypeId;\r\n        bool isActive;\r\n        string customJsonData;\r\n    }\r\n\r\n    struct Area {\r\n        bytes32 areaId;\r\n        string name;\r\n        bytes32 organizationId;\r\n        bool isActive;\r\n        string customJsonData;\r\n    }\r\n\r\n    struct Category {\r\n        bytes32 categoryId;\r\n        string name;\r\n        bool isActive;\r\n        string customJsonData;\r\n    }\r\n\r\n    struct Product {\r\n        bytes32 productId;\r\n        bytes32 categoryId;\r\n        string name;\r\n        string description;\r\n        bytes32[] certicationIdList;\r\n        bool isActive;\r\n        string customJsonData;\r\n    }\r\n\r\n    struct Role {\r\n        bytes32 roleId;\r\n        string name;\r\n        bool isActive;\r\n        string customJsonData;\r\n    }\r\n\r\n    struct Profile {\r\n        bytes32 profileId;\r\n        string name;\r\n        string email;\r\n        string passwordHash;\r\n        string phone;\r\n        bytes32[] roleId;\r\n        bytes32 organizationId;\r\n        bool isActive;\r\n        string customJsonData;\r\n    }\r\n\r\n    struct Certification {\r\n        bytes32 certificationId;\r\n        string name;\r\n        string certificateUrl;\r\n        bool isActive;\r\n        string customJsonData;\r\n    }\r\n\r\n    struct TrackHistory {\r\n        bytes32 trackHistoryId;\r\n        bytes32 productId;\r\n        bytes32 activityId;\r\n        bytes32 profileId;\r\n        bytes32 areaId;\r\n        string gps;\r\n        string remarks;\r\n        bool isActive;\r\n        string customJsonData;\r\n    }\r\n\r\n    // mapping(bytes32 => Organization) public organizationMap;\r\n    mapping(bytes32 => OrganizationType) public organizationTypeMap;\r\n    mapping(bytes32 => Activity) public activityMap;\r\n    mapping(bytes32 => Area) public areaMap;\r\n    mapping(bytes32 => Category) public categoryMap;\r\n    mapping(bytes32 => Product) public productMap;\r\n    mapping(bytes32 => Role) public roleMap;\r\n    mapping(bytes32 => Profile) public profileMap;\r\n    mapping(bytes32 => Certification) public certificationMap;\r\n    mapping(bytes32 => TrackHistory) public trackHistoryMap;\r\n\r\n    // bytes32[] public organizationIds;\r\n    bytes32[] public organizationTypeIds;\r\n    bytes32[] public activityIds;\r\n    bytes32[] public areaIds;\r\n    bytes32[] public categoryIds;\r\n    bytes32[] public productIds;\r\n    bytes32[] public roleIds;\r\n    bytes32[] public profileIds;\r\n    bytes32[] public certificationIds;\r\n    bytes32[] public trackHistoryIds;\r\n}\r\n",
  "sourcePath": "D:\\GitHub\\supplychain_blockchain\\tat_contract\\contracts\\SupplyChainModels.sol",
  "compiler": {
    "name": "solc",
    "version": "0.7.4+commit.3f05b770.Emscripten.clang"
  },
  "schemaVersion": "3.3.2",
  "updatedAt": "2021-03-04T06:00:52.342Z",
  "devdoc": {
    "kind": "dev",
    "methods": {},
    "version": 1
  },
  "userdoc": {
    "kind": "user",
    "methods": {},
    "version": 1
  }
}