{
  "contractName": "OrganizationContract",
  "abi": [
    {
      "anonymous": false,
      "inputs": [
        {
          "indexed": false,
          "internalType": "bytes32",
          "name": "objId",
          "type": "bytes32"
        }
      ],
      "name": "Created",
      "type": "event"
    },
    {
      "anonymous": false,
      "inputs": [
        {
          "indexed": false,
          "internalType": "bytes32",
          "name": "objId",
          "type": "bytes32"
        }
      ],
      "name": "Updated",
      "type": "event"
    },
    {
      "inputs": [
        {
          "internalType": "uint256",
          "name": "",
          "type": "uint256"
        }
      ],
      "name": "dataList",
      "outputs": [
        {
          "internalType": "bytes32",
          "name": "",
          "type": "bytes32"
        }
      ],
      "stateMutability": "view",
      "type": "function",
      "constant": true
    },
    {
      "inputs": [
        {
          "internalType": "bytes32",
          "name": "",
          "type": "bytes32"
        }
      ],
      "name": "dataMap",
      "outputs": [
        {
          "internalType": "bytes32",
          "name": "organizationId",
          "type": "bytes32"
        },
        {
          "internalType": "string",
          "name": "name",
          "type": "string"
        },
        {
          "internalType": "string",
          "name": "organizationAddress",
          "type": "string"
        },
        {
          "internalType": "bool",
          "name": "isActive",
          "type": "bool"
        },
        {
          "internalType": "string",
          "name": "customJsonData",
          "type": "string"
        }
      ],
      "stateMutability": "view",
      "type": "function",
      "constant": true
    },
    {
      "inputs": [],
      "name": "version",
      "outputs": [
        {
          "internalType": "uint256",
          "name": "",
          "type": "uint256"
        }
      ],
      "stateMutability": "view",
      "type": "function",
      "constant": true
    },
    {
      "inputs": [
        {
          "internalType": "string",
          "name": "_name",
          "type": "string"
        },
        {
          "internalType": "bytes32[]",
          "name": "_organizationTypeIdList",
          "type": "bytes32[]"
        },
        {
          "internalType": "string",
          "name": "_organizationAddress",
          "type": "string"
        },
        {
          "internalType": "string",
          "name": "_customJsonData",
          "type": "string"
        }
      ],
      "name": "create",
      "outputs": [
        {
          "internalType": "bytes32",
          "name": "objId",
          "type": "bytes32"
        }
      ],
      "stateMutability": "nonpayable",
      "type": "function"
    },
    {
      "inputs": [
        {
          "internalType": "bytes32",
          "name": "objId",
          "type": "bytes32"
        },
        {
          "internalType": "string",
          "name": "_name",
          "type": "string"
        },
        {
          "internalType": "bytes32[]",
          "name": "_organizationTypeIdList",
          "type": "bytes32[]"
        },
        {
          "internalType": "string",
          "name": "_organizationAddress",
          "type": "string"
        },
        {
          "internalType": "string",
          "name": "_customJsonData",
          "type": "string"
        },
        {
          "internalType": "bool",
          "name": "_isActive",
          "type": "bool"
        }
      ],
      "name": "update",
      "outputs": [],
      "stateMutability": "nonpayable",
      "type": "function"
    },
    {
      "inputs": [
        {
          "internalType": "bytes32",
          "name": "objId",
          "type": "bytes32"
        }
      ],
      "name": "getById",
      "outputs": [
        {
          "internalType": "bytes32",
          "name": "id",
          "type": "bytes32"
        },
        {
          "internalType": "string",
          "name": "name",
          "type": "string"
        },
        {
          "internalType": "bytes32[]",
          "name": "organizationTypeIdList",
          "type": "bytes32[]"
        },
        {
          "internalType": "bool",
          "name": "isActive",
          "type": "bool"
        },
        {
          "internalType": "string",
          "name": "customJsonData",
          "type": "string"
        }
      ],
      "stateMutability": "view",
      "type": "function",
      "constant": true
    },
    {
      "inputs": [],
      "name": "getAll",
      "outputs": [
        {
          "internalType": "bytes32[]",
          "name": "ids",
          "type": "bytes32[]"
        }
      ],
      "stateMutability": "view",
      "type": "function",
      "constant": true
    }
  ],
  "bytecode": "0x6080604052600160005534801561001557600080fd5b50611131806100256000396000f3fe608060405234801561001057600080fd5b506004361061007d5760003560e01c806354fd4d501161005b57806354fd4d50146103db578063af4a74cf146103f9578063d6ffaa591461043b578063dc01405d146106ce5761007d565b80632dff0d0d1461008257806346bcad62146101ed57806353ed51431461037c575b600080fd5b6100ae6004803603602081101561009857600080fd5b810190808035906020019092919050505061095f565b604051808681526020018060200180602001851515815260200180602001848103845288818151815260200191508051906020019080838360005b838110156101045780820151818401526020810190506100e9565b50505050905090810190601f1680156101315780820380516001836020036101000a031916815260200191505b50848103835287818151815260200191508051906020019060200280838360005b8381101561016d578082015181840152602081019050610152565b50505050905001848103825285818151815260200191508051906020019080838360005b838110156101ac578082015181840152602081019050610191565b50505050905090810190601f1680156101d95780820380516001836020036101000a031916815260200191505b509850505050505050505060405180910390f35b6102196004803603602081101561020357600080fd5b8101908080359060200190929190505050610b40565b604051808681526020018060200180602001851515815260200180602001848103845288818151815260200191508051906020019080838360005b8381101561026f578082015181840152602081019050610254565b50505050905090810190601f16801561029c5780820380516001836020036101000a031916815260200191505b50848103835287818151815260200191508051906020019080838360005b838110156102d55780820151818401526020810190506102ba565b50505050905090810190601f1680156103025780820380516001836020036101000a031916815260200191505b50848103825285818151815260200191508051906020019080838360005b8381101561033b578082015181840152602081019050610320565b50505050905090810190601f1680156103685780820380516001836020036101000a031916815260200191505b509850505050505050505060405180910390f35b610384610d4b565b6040518080602001828103825283818151815260200191508051906020019060200280838360005b838110156103c75780820151818401526020810190506103ac565b505050509050019250505060405180910390f35b6103e3610da3565b6040518082815260200191505060405180910390f35b6104256004803603602081101561040f57600080fd5b8101908080359060200190929190505050610da9565b6040518082815260200191505060405180910390f35b6106cc600480360360c081101561045157600080fd5b81019080803590602001909291908035906020019064010000000081111561047857600080fd5b82018360208201111561048a57600080fd5b803590602001918460018302840111640100000000831117156104ac57600080fd5b91908080601f016020809104026020016040519081016040528093929190818152602001838380828437600081840152601f19601f8201169050808301925050505050505091929192908035906020019064010000000081111561050f57600080fd5b82018360208201111561052157600080fd5b8035906020019184602083028401116401000000008311171561054357600080fd5b919080806020026020016040519081016040528093929190818152602001838360200280828437600081840152601f19601f820116905080830192505050505050509192919290803590602001906401000000008111156105a357600080fd5b8201836020820111156105b557600080fd5b803590602001918460018302840111640100000000831117156105d757600080fd5b91908080601f016020809104026020016040519081016040528093929190818152602001838380828437600081840152601f19601f8201169050808301925050505050505091929192908035906020019064010000000081111561063a57600080fd5b82018360208201111561064c57600080fd5b8035906020019184600183028401116401000000008311171561066e57600080fd5b91908080601f016020809104026020016040519081016040528093929190818152602001838380828437600081840152601f19601f820116905080830192505050505050509192919290803515159060200190929190505050610dcd565b005b610949600480360360808110156106e457600080fd5b810190808035906020019064010000000081111561070157600080fd5b82018360208201111561071357600080fd5b8035906020019184600183028401116401000000008311171561073557600080fd5b91908080601f016020809104026020016040519081016040528093929190818152602001838380828437600081840152601f19601f8201169050808301925050505050505091929192908035906020019064010000000081111561079857600080fd5b8201836020820111156107aa57600080fd5b803590602001918460208302840111640100000000831117156107cc57600080fd5b919080806020026020016040519081016040528093929190818152602001838360200280828437600081840152601f19601f8201169050808301925050505050505091929192908035906020019064010000000081111561082c57600080fd5b82018360208201111561083e57600080fd5b8035906020019184600183028401116401000000008311171561086057600080fd5b91908080601f016020809104026020016040519081016040528093929190818152602001838380828437600081840152601f19601f820116905080830192505050505050509192919290803590602001906401000000008111156108c357600080fd5b8201836020820111156108d557600080fd5b803590602001918460018302840111640100000000831117156108f757600080fd5b91908080601f016020809104026020016040519081016040528093929190818152602001838380828437600081840152601f19601f820116905080830192505050505050509192919290505050610ea4565b6040518082815260200191505060405180910390f35b6000606080600060606000600160008881526020019081526020016000209050806000015481600101826002018360040160009054906101000a900460ff1684600501838054600181600116156101000203166002900480601f016020809104026020016040519081016040528092919081815260200182805460018160011615610100020316600290048015610a375780601f10610a0c57610100808354040283529160200191610a37565b820191906000526020600020905b815481529060010190602001808311610a1a57829003601f168201915b5050505050935082805480602002602001604051908101604052809291908181526020018280548015610a8957602002820191906000526020600020905b815481526020019060010190808311610a75575b50505050509250808054600181600116156101000203166002900480601f016020809104026020016040519081016040528092919081815260200182805460018160011615610100020316600290048015610b255780601f10610afa57610100808354040283529160200191610b25565b820191906000526020600020905b815481529060010190602001808311610b0857829003601f168201915b50505050509050955095509550955095505091939590929450565b6001602052806000526040600020600091509050806000015490806001018054600181600116156101000203166002900480601f016020809104026020016040519081016040528092919081815260200182805460018160011615610100020316600290048015610bf25780601f10610bc757610100808354040283529160200191610bf2565b820191906000526020600020905b815481529060010190602001808311610bd557829003601f168201915b505050505090806003018054600181600116156101000203166002900480601f016020809104026020016040519081016040528092919081815260200182805460018160011615610100020316600290048015610c905780601f10610c6557610100808354040283529160200191610c90565b820191906000526020600020905b815481529060010190602001808311610c7357829003601f168201915b5050505050908060040160009054906101000a900460ff1690806005018054600181600116156101000203166002900480601f016020809104026020016040519081016040528092919081815260200182805460018160011615610100020316600290048015610d415780601f10610d1657610100808354040283529160200191610d41565b820191906000526020600020905b815481529060010190602001808311610d2457829003601f168201915b5050505050905085565b60606002805480602002602001604051908101604052809291908181526020018280548015610d9957602002820191906000526020600020905b815481526020019060010190808311610d85575b5050505050905090565b60005481565b60028181548110610db957600080fd5b906000526020600020016000915090505481565b600060016000888152602001908152602001600020905084816002019080519060200190610dfc929190610fe6565b5083816003019080519060200190610e15929190611033565b5085816001019080519060200190610e2e929190611033565b50818160040160006101000a81548160ff02191690831515021790555082816005019080519060200190610e63929190611033565b507fae7f59c2ef152eb4d4f56fcc655f53926d60b7e58e08ec8c79387e25adbf3331876040518082815260200191505060405180910390a150505050505050565b60008042446040516020018083815260200182815260200192505050604051602081830303815290604052805190602001209050600060016000838152602001908152602001600020905081816000018190555085816002019080519060200190610f10929190610fe6565b5060018160040160006101000a81548160ff02191690831515021790555084816003019080519060200190610f46929190611033565b5086816001019080519060200190610f5f929190611033565b5083816005019080519060200190610f78929190611033565b5060028290806001815401808255809150506001900390600052602060002001600090919091909150557f102d25c49d33fcdb8976a3f2744e0785c98d9e43b88364859e6aec4ae82eff5c826040518082815260200191505060405180910390a18192505050949350505050565b828054828255906000526020600020908101928215611022579160200282015b82811115611021578251825591602001919060010190611006565b5b50905061102f91906110c1565b5090565b828054600181600116156101000203166002900490600052602060002090601f01602090048101928261106957600085556110b0565b82601f1061108257805160ff19168380011785556110b0565b828001600101855582156110b0579182015b828111156110af578251825591602001919060010190611094565b5b5090506110bd91906110de565b5090565b5b808211156110da5760008160009055506001016110c2565b5090565b5b808211156110f75760008160009055506001016110df565b509056fea26469706673582212202201a10993df26cdd01d87bb219f12746979f9ac3a22c8904d04c2a52e70570f64736f6c63430007040033",
  "immutableReferences": {},
  "source": "pragma solidity ^0.7.4;\r\n\r\ncontract OrganizationContract {\r\n    uint256 public version = 1;\r\n\r\n    event Created(bytes32 objId);\r\n    event Updated(bytes32 objId);\r\n\r\n    struct Organization {\r\n        bytes32 organizationId;\r\n        string name;\r\n        bytes32[] organizationTypeIdList;\r\n        string organizationAddress;\r\n        bool isActive;\r\n        string customJsonData;\r\n    }\r\n    mapping(bytes32 => Organization) public dataMap;\r\n    bytes32[] public dataList;\r\n\r\n    /*\r\n        Organization\r\n    */\r\n    function create(\r\n        string memory _name,\r\n        bytes32[] memory _organizationTypeIdList,\r\n        string memory _organizationAddress,\r\n        string memory _customJsonData\r\n    ) public returns (bytes32 objId) {\r\n        bytes32 newId =\r\n            keccak256(abi.encodePacked(block.timestamp, block.difficulty));\r\n\r\n        Organization storage obj = dataMap[newId];\r\n        obj.organizationId = newId;\r\n        obj.organizationTypeIdList = _organizationTypeIdList;\r\n        obj.isActive = true;\r\n        obj.organizationAddress = _organizationAddress;\r\n        obj.name = _name;\r\n        obj.customJsonData = _customJsonData;\r\n\r\n        dataList.push(newId);\r\n\r\n        emit Created(newId);\r\n        return (newId);\r\n    }\r\n\r\n    function update(\r\n        bytes32 objId,\r\n        string memory _name,\r\n        bytes32[] memory _organizationTypeIdList,\r\n        string memory _organizationAddress,\r\n        string memory _customJsonData,\r\n        bool _isActive\r\n    ) public {\r\n        Organization storage obj = dataMap[objId];\r\n        obj.organizationTypeIdList = _organizationTypeIdList;\r\n        obj.organizationAddress = _organizationAddress;\r\n        obj.name = _name;\r\n        obj.isActive = _isActive;\r\n        obj.customJsonData = _customJsonData;\r\n\r\n        emit Updated(objId);\r\n    }\r\n\r\n    function getById(bytes32 objId)\r\n        public\r\n        view\r\n        returns (\r\n            bytes32 id,\r\n            string memory name,\r\n            bytes32[] memory organizationTypeIdList,\r\n            bool isActive,\r\n            string memory customJsonData\r\n        )\r\n    {\r\n        Organization storage obj = dataMap[objId];\r\n        return (\r\n            obj.organizationId,\r\n            obj.name,\r\n            obj.organizationTypeIdList,\r\n            obj.isActive,\r\n            obj.customJsonData\r\n        );\r\n    }\r\n\r\n    function getAll() public view returns (bytes32[] memory ids) {\r\n        return (dataList);\r\n    }\r\n}\r\n",
  "sourcePath": "D:/GitHub/supplychain_blockchain/tat_contract/contracts/OrganizationContract.sol",
  "compiler": {
    "name": "solc",
    "version": "0.7.4+commit.3f05b770.Emscripten.clang"
  },
  "schemaVersion": "3.3.2",
  "updatedAt": "2021-03-05T09:48:32.980Z",
  "networkType": "ethereum",
  "devdoc": {
    "kind": "dev",
    "methods": {},
    "version": 1
  },
  "userdoc": {
    "kind": "user",
    "methods": {},
    "version": 1
  }
}