{
  "contract_address": "0xCF17fcb55187b647Cc75a9E63e5650dBB2BcC419",
  "contractName": "OrganizationTypeContract",
  "abi": [
    {
      "anonymous": false,
      "inputs": [
        {
          "indexed": false,
          "internalType": "bytes32",
          "name": "objId",
          "type": "bytes32"
        }
      ],
      "name": "Created",
      "type": "event"
    },
    {
      "anonymous": false,
      "inputs": [
        {
          "indexed": false,
          "internalType": "bytes32",
          "name": "objId",
          "type": "bytes32"
        }
      ],
      "name": "Updated",
      "type": "event"
    },
    {
      "inputs": [
        {
          "internalType": "uint256",
          "name": "",
          "type": "uint256"
        }
      ],
      "name": "dataList",
      "outputs": [
        {
          "internalType": "bytes32",
          "name": "",
          "type": "bytes32"
        }
      ],
      "stateMutability": "view",
      "type": "function",
      "constant": true
    },
    {
      "inputs": [
        {
          "internalType": "bytes32",
          "name": "",
          "type": "bytes32"
        }
      ],
      "name": "dataMap",
      "outputs": [
        {
          "internalType": "bytes32",
          "name": "organizationTypeId",
          "type": "bytes32"
        },
        {
          "internalType": "string",
          "name": "name",
          "type": "string"
        },
        {
          "internalType": "bool",
          "name": "isActive",
          "type": "bool"
        },
        {
          "internalType": "string",
          "name": "customJsonData",
          "type": "string"
        }
      ],
      "stateMutability": "view",
      "type": "function",
      "constant": true
    },
    {
      "inputs": [],
      "name": "version",
      "outputs": [
        {
          "internalType": "uint256",
          "name": "",
          "type": "uint256"
        }
      ],
      "stateMutability": "view",
      "type": "function",
      "constant": true
    },
    {
      "inputs": [
        {
          "internalType": "string",
          "name": "_name",
          "type": "string"
        },
        {
          "internalType": "string",
          "name": "_customJsonData",
          "type": "string"
        }
      ],
      "name": "create",
      "outputs": [
        {
          "internalType": "bytes32",
          "name": "objId",
          "type": "bytes32"
        }
      ],
      "stateMutability": "nonpayable",
      "type": "function"
    },
    {
      "inputs": [
        {
          "internalType": "bytes32",
          "name": "objId",
          "type": "bytes32"
        },
        {
          "internalType": "string",
          "name": "_name",
          "type": "string"
        },
        {
          "internalType": "string",
          "name": "_customJsonData",
          "type": "string"
        },
        {
          "internalType": "bool",
          "name": "_isActive",
          "type": "bool"
        }
      ],
      "name": "update",
      "outputs": [],
      "stateMutability": "nonpayable",
      "type": "function"
    },
    {
      "inputs": [
        {
          "internalType": "bytes32",
          "name": "objId",
          "type": "bytes32"
        }
      ],
      "name": "getById",
      "outputs": [
        {
          "internalType": "bytes32",
          "name": "id",
          "type": "bytes32"
        },
        {
          "internalType": "string",
          "name": "name",
          "type": "string"
        },
        {
          "internalType": "string",
          "name": "customJsonData",
          "type": "string"
        }
      ],
      "stateMutability": "view",
      "type": "function",
      "constant": true
    },
    {
      "inputs": [],
      "name": "getAll",
      "outputs": [
        {
          "internalType": "bytes32[]",
          "name": "ids",
          "type": "bytes32[]"
        }
      ],
      "stateMutability": "view",
      "type": "function",
      "constant": true
    }
  ],
  "bytecode": "0x6080604052600160005534801561001557600080fd5b50610c3c806100256000396000f3fe608060405234801561001057600080fd5b506004361061007d5760003560e01c806353ed51431161005b57806353ed51431461042557806354fd4d5014610484578063af4a74cf146104a2578063d8c72d5d146104e45761007d565b8063198e2b8a146100825780632dff0d0d146101e857806346bcad6214610302575b600080fd5b6101d26004803603604081101561009857600080fd5b81019080803590602001906401000000008111156100b557600080fd5b8201836020820111156100c757600080fd5b803590602001918460018302840111640100000000831117156100e957600080fd5b91908080601f016020809104026020016040519081016040528093929190818152602001838380828437600081840152601f19601f8201169050808301925050505050505091929192908035906020019064010000000081111561014c57600080fd5b82018360208201111561015e57600080fd5b8035906020019184600183028401116401000000008311171561018057600080fd5b91908080601f016020809104026020016040519081016040528093929190818152602001838380828437600081840152601f19601f82011690508083019250505050505050919291929050505061064c565b6040518082815260200191505060405180910390f35b610214600480360360208110156101fe57600080fd5b810190808035906020019092919050505061075a565b604051808481526020018060200180602001838103835285818151815260200191508051906020019080838360005b8381101561025e578082015181840152602081019050610243565b50505050905090810190601f16801561028b5780820380516001836020036101000a031916815260200191505b50838103825284818151815260200191508051906020019080838360005b838110156102c45780820151818401526020810190506102a9565b50505050905090810190601f1680156102f15780820380516001836020036101000a031916815260200191505b509550505050505060405180910390f35b61032e6004803603602081101561031857600080fd5b81019080803590602001909291905050506108c9565b6040518085815260200180602001841515815260200180602001838103835286818151815260200191508051906020019080838360005b83811015610380578082015181840152602081019050610365565b50505050905090810190601f1680156103ad5780820380516001836020036101000a031916815260200191505b50838103825284818151815260200191508051906020019080838360005b838110156103e65780820151818401526020810190506103cb565b50505050905090810190601f1680156104135780820380516001836020036101000a031916815260200191505b50965050505050505060405180910390f35b61042d610a36565b6040518080602001828103825283818151815260200191508051906020019060200280838360005b83811015610470578082015181840152602081019050610455565b505050509050019250505060405180910390f35b61048c610a8e565b6040518082815260200191505060405180910390f35b6104ce600480360360208110156104b857600080fd5b8101908080359060200190929190505050610a94565b6040518082815260200191505060405180910390f35b61064a600480360360808110156104fa57600080fd5b81019080803590602001909291908035906020019064010000000081111561052157600080fd5b82018360208201111561053357600080fd5b8035906020019184600183028401116401000000008311171561055557600080fd5b91908080601f016020809104026020016040519081016040528093929190818152602001838380828437600081840152601f19601f820116905080830192505050505050509192919290803590602001906401000000008111156105b857600080fd5b8201836020820111156105ca57600080fd5b803590602001918460018302840111640100000000831117156105ec57600080fd5b91908080601f016020809104026020016040519081016040528093929190818152602001838380828437600081840152601f19601f820116905080830192505050505050509192919290803515159060200190929190505050610ab8565b005b60008042446040516020018083815260200182815260200192505050604051602081830303815290604052805190602001209050600060016000838152602001908152602001600020905081816000018190555060018160020160006101000a81548160ff021916908315150217905550848160010190805190602001906106d5929190610b5b565b50838160030190805190602001906106ee929190610b5b565b5060028290806001815401808255809150506001900390600052602060002001600090919091909150557f102d25c49d33fcdb8976a3f2744e0785c98d9e43b88364859e6aec4ae82eff5c826040518082815260200191505060405180910390a1819250505092915050565b6000606080600060016000868152602001908152602001600020905080600001548160010182600301818054600181600116156101000203166002900480601f0160208091040260200160405190810160405280929190818152602001828054600181600116156101000203166002900480156108185780601f106107ed57610100808354040283529160200191610818565b820191906000526020600020905b8154815290600101906020018083116107fb57829003601f168201915b50505050509150808054600181600116156101000203166002900480601f0160208091040260200160405190810160405280929190818152602001828054600181600116156101000203166002900480156108b45780601f10610889576101008083540402835291602001916108b4565b820191906000526020600020905b81548152906001019060200180831161089757829003601f168201915b50505050509050935093509350509193909250565b6001602052806000526040600020600091509050806000015490806001018054600181600116156101000203166002900480601f01602080910402602001604051908101604052809291908181526020018280546001816001161561010002031660029004801561097b5780601f106109505761010080835404028352916020019161097b565b820191906000526020600020905b81548152906001019060200180831161095e57829003601f168201915b5050505050908060020160009054906101000a900460ff1690806003018054600181600116156101000203166002900480601f016020809104026020016040519081016040528092919081815260200182805460018160011615610100020316600290048015610a2c5780601f10610a0157610100808354040283529160200191610a2c565b820191906000526020600020905b815481529060010190602001808311610a0f57829003601f168201915b5050505050905084565b60606002805480602002602001604051908101604052809291908181526020018280548015610a8457602002820191906000526020600020905b815481526020019060010190808311610a70575b5050505050905090565b60005481565b60028181548110610aa457600080fd5b906000526020600020016000915090505481565b600060016000868152602001908152602001600020905083816001019080519060200190610ae7929190610b5b565b50818160020160006101000a81548160ff02191690831515021790555082816003019080519060200190610b1c929190610b5b565b507fae7f59c2ef152eb4d4f56fcc655f53926d60b7e58e08ec8c79387e25adbf3331856040518082815260200191505060405180910390a15050505050565b828054600181600116156101000203166002900490600052602060002090601f016020900481019282610b915760008555610bd8565b82601f10610baa57805160ff1916838001178555610bd8565b82800160010185558215610bd8579182015b82811115610bd7578251825591602001919060010190610bbc565b5b509050610be59190610be9565b5090565b5b80821115610c02576000816000905550600101610bea565b509056fea26469706673582212203048327c13e85a3dec6e1373c28685c57a711665ee1c47e2bc8d45884c865fb864736f6c63430007040033",
  "immutableReferences": {},
  "source": "pragma solidity ^0.7.4;\r\n\r\ncontract OrganizationTypeContract {\r\n    uint256 public version = 1;\r\n    struct OrganizationType {\r\n        bytes32 organizationTypeId;\r\n        string name;\r\n        bool isActive;\r\n        string customJsonData;\r\n    }\r\n    mapping(bytes32 => OrganizationType) public dataMap;\r\n    bytes32[] public dataList;\r\n\r\n    event Created(bytes32 objId);\r\n    event Updated(bytes32 objId);\r\n\r\n    function create(string memory _name, string memory _customJsonData)\r\n        public\r\n        returns (bytes32 objId)\r\n    {\r\n        bytes32 newId =\r\n            keccak256(abi.encodePacked(block.timestamp, block.difficulty));\r\n\r\n        OrganizationType storage obj = dataMap[newId];\r\n        obj.organizationTypeId = newId;\r\n        obj.isActive = true;\r\n        obj.name = _name;\r\n        obj.customJsonData = _customJsonData;\r\n\r\n        dataList.push(newId);\r\n\r\n        emit Created(newId);\r\n        return (newId);\r\n    }\r\n\r\n    function update(\r\n        bytes32 objId,\r\n        string memory _name,\r\n        string memory _customJsonData,\r\n        bool _isActive\r\n    ) public {\r\n        OrganizationType storage obj = dataMap[objId];\r\n        obj.name = _name;\r\n        obj.isActive = _isActive;\r\n        obj.customJsonData = _customJsonData;\r\n\r\n        emit Updated(objId);\r\n    }\r\n\r\n    function getById(bytes32 objId)\r\n        public\r\n        view\r\n        returns (\r\n            bytes32 id,\r\n            string memory name,\r\n            string memory customJsonData\r\n        )\r\n    {\r\n        OrganizationType storage obj = dataMap[objId];\r\n        return (obj.organizationTypeId, obj.name, obj.customJsonData);\r\n    }\r\n\r\n    function getAll() public view returns (bytes32[] memory ids) {\r\n        return (dataList);\r\n    }\r\n}\r\n",
  "sourcePath": "D:/GitHub/supplychain_blockchain/tat_contract/contracts/OrganizationTypeContract.sol",
  "compiler": {
    "name": "solc",
    "version": "0.7.4+commit.3f05b770.Emscripten.clang"
  },
  "schemaVersion": "3.3.2",
  "updatedAt": "2021-03-05T09:48:32.984Z",
  "networkType": "ethereum",
  "devdoc": {
    "kind": "dev",
    "methods": {},
    "version": 1
  },
  "userdoc": {
    "kind": "user",
    "methods": {},
    "version": 1
  }
}