{
  "contractName": "OrganizationContract",
  "abi": [
    {
      "anonymous": false,
      "inputs": [
        {
          "indexed": false,
          "internalType": "bytes32",
          "name": "objId",
          "type": "bytes32"
        }
      ],
      "name": "Created",
      "type": "event"
    },
    {
      "anonymous": false,
      "inputs": [
        {
          "indexed": false,
          "internalType": "bytes32",
          "name": "objId",
          "type": "bytes32"
        }
      ],
      "name": "Updated",
      "type": "event"
    },
    {
      "inputs": [
        {
          "internalType": "uint256",
          "name": "",
          "type": "uint256"
        }
      ],
      "name": "dataList",
      "outputs": [
        {
          "internalType": "bytes32",
          "name": "",
          "type": "bytes32"
        }
      ],
      "stateMutability": "view",
      "type": "function"
    },
    {
      "inputs": [
        {
          "internalType": "bytes32",
          "name": "",
          "type": "bytes32"
        }
      ],
      "name": "dataMap",
      "outputs": [
        {
          "internalType": "bytes32",
          "name": "organizationId",
          "type": "bytes32"
        },
        {
          "internalType": "string",
          "name": "name",
          "type": "string"
        },
        {
          "internalType": "string",
          "name": "organizationAddress",
          "type": "string"
        },
        {
          "internalType": "bool",
          "name": "isActive",
          "type": "bool"
        },
        {
          "internalType": "string",
          "name": "customJsonData",
          "type": "string"
        }
      ],
      "stateMutability": "view",
      "type": "function"
    },
    {
      "inputs": [],
      "name": "version",
      "outputs": [
        {
          "internalType": "uint256",
          "name": "",
          "type": "uint256"
        }
      ],
      "stateMutability": "view",
      "type": "function"
    },
    {
      "inputs": [
        {
          "internalType": "string",
          "name": "_name",
          "type": "string"
        },
        {
          "internalType": "bytes32[]",
          "name": "_organizationTypeIdList",
          "type": "bytes32[]"
        },
        {
          "internalType": "string",
          "name": "_organizationAddress",
          "type": "string"
        },
        {
          "internalType": "string",
          "name": "_customJsonData",
          "type": "string"
        }
      ],
      "name": "create",
      "outputs": [
        {
          "internalType": "bytes32",
          "name": "objId",
          "type": "bytes32"
        }
      ],
      "stateMutability": "nonpayable",
      "type": "function"
    },
    {
      "inputs": [
        {
          "internalType": "bytes32",
          "name": "objId",
          "type": "bytes32"
        },
        {
          "internalType": "string",
          "name": "_name",
          "type": "string"
        },
        {
          "internalType": "bytes32[]",
          "name": "_organizationTypeIdList",
          "type": "bytes32[]"
        },
        {
          "internalType": "string",
          "name": "_organizationAddress",
          "type": "string"
        },
        {
          "internalType": "string",
          "name": "_customJsonData",
          "type": "string"
        },
        {
          "internalType": "bool",
          "name": "_isActive",
          "type": "bool"
        }
      ],
      "name": "update",
      "outputs": [],
      "stateMutability": "nonpayable",
      "type": "function"
    },
    {
      "inputs": [
        {
          "internalType": "bytes32",
          "name": "objId",
          "type": "bytes32"
        }
      ],
      "name": "getById",
      "outputs": [
        {
          "internalType": "bytes32",
          "name": "id",
          "type": "bytes32"
        },
        {
          "internalType": "string",
          "name": "name",
          "type": "string"
        },
        {
          "internalType": "bytes32[]",
          "name": "organizationTypeIdList",
          "type": "bytes32[]"
        },
        {
          "internalType": "bool",
          "name": "isActive",
          "type": "bool"
        },
        {
          "internalType": "string",
          "name": "customJsonData",
          "type": "string"
        }
      ],
      "stateMutability": "view",
      "type": "function"
    },
    {
      "inputs": [],
      "name": "getAll",
      "outputs": [
        {
          "internalType": "bytes32[]",
          "name": "ids",
          "type": "bytes32[]"
        }
      ],
      "stateMutability": "view",
      "type": "function"
    },
    {
      "inputs": [
        {
          "internalType": "bytes32",
          "name": "objId",
          "type": "bytes32"
        },
        {
          "internalType": "bool",
          "name": "_isActive",
          "type": "bool"
        }
      ],
      "name": "activate",
      "outputs": [],
      "stateMutability": "nonpayable",
      "type": "function"
    }
  ],
  "bytecode": "0x6080604052600160005534801561001557600080fd5b506111df806100256000396000f3fe608060405234801561001057600080fd5b50600436106100885760003560e01c8063af4a74cf1161005b578063af4a74cf14610404578063c876257914610446578063d6ffaa5914610480578063dc01405d1461071357610088565b80632dff0d0d1461008d57806346bcad62146101f857806353ed51431461038757806354fd4d50146103e6575b600080fd5b6100b9600480360360208110156100a357600080fd5b81019080803590602001909291905050506109a4565b604051808681526020018060200180602001851515815260200180602001848103845288818151815260200191508051906020019080838360005b8381101561010f5780820151818401526020810190506100f4565b50505050905090810190601f16801561013c5780820380516001836020036101000a031916815260200191505b50848103835287818151815260200191508051906020019060200280838360005b8381101561017857808201518184015260208101905061015d565b50505050905001848103825285818151815260200191508051906020019080838360005b838110156101b757808201518184015260208101905061019c565b50505050905090810190601f1680156101e45780820380516001836020036101000a031916815260200191505b509850505050505050505060405180910390f35b6102246004803603602081101561020e57600080fd5b8101908080359060200190929190505050610b85565b604051808681526020018060200180602001851515815260200180602001848103845288818151815260200191508051906020019080838360005b8381101561027a57808201518184015260208101905061025f565b50505050905090810190601f1680156102a75780820380516001836020036101000a031916815260200191505b50848103835287818151815260200191508051906020019080838360005b838110156102e05780820151818401526020810190506102c5565b50505050905090810190601f16801561030d5780820380516001836020036101000a031916815260200191505b50848103825285818151815260200191508051906020019080838360005b8381101561034657808201518184015260208101905061032b565b50505050905090810190601f1680156103735780820380516001836020036101000a031916815260200191505b509850505050505050505060405180910390f35b61038f610d90565b6040518080602001828103825283818151815260200191508051906020019060200280838360005b838110156103d25780820151818401526020810190506103b7565b505050509050019250505060405180910390f35b6103ee610de8565b6040518082815260200191505060405180910390f35b6104306004803603602081101561041a57600080fd5b8101908080359060200190929190505050610dee565b6040518082815260200191505060405180910390f35b61047e6004803603604081101561045c57600080fd5b8101908080359060200190929190803515159060200190929190505050610e12565b005b610711600480360360c081101561049657600080fd5b8101908080359060200190929190803590602001906401000000008111156104bd57600080fd5b8201836020820111156104cf57600080fd5b803590602001918460018302840111640100000000831117156104f157600080fd5b91908080601f016020809104026020016040519081016040528093929190818152602001838380828437600081840152601f19601f8201169050808301925050505050505091929192908035906020019064010000000081111561055457600080fd5b82018360208201111561056657600080fd5b8035906020019184602083028401116401000000008311171561058857600080fd5b919080806020026020016040519081016040528093929190818152602001838360200280828437600081840152601f19601f820116905080830192505050505050509192919290803590602001906401000000008111156105e857600080fd5b8201836020820111156105fa57600080fd5b8035906020019184600183028401116401000000008311171561061c57600080fd5b91908080601f016020809104026020016040519081016040528093929190818152602001838380828437600081840152601f19601f8201169050808301925050505050505091929192908035906020019064010000000081111561067f57600080fd5b82018360208201111561069157600080fd5b803590602001918460018302840111640100000000831117156106b357600080fd5b91908080601f016020809104026020016040519081016040528093929190818152602001838380828437600081840152601f19601f820116905080830192505050505050509192919290803515159060200190929190505050610e7b565b005b61098e6004803603608081101561072957600080fd5b810190808035906020019064010000000081111561074657600080fd5b82018360208201111561075857600080fd5b8035906020019184600183028401116401000000008311171561077a57600080fd5b91908080601f016020809104026020016040519081016040528093929190818152602001838380828437600081840152601f19601f820116905080830192505050505050509192919290803590602001906401000000008111156107dd57600080fd5b8201836020820111156107ef57600080fd5b8035906020019184602083028401116401000000008311171561081157600080fd5b919080806020026020016040519081016040528093929190818152602001838360200280828437600081840152601f19601f8201169050808301925050505050505091929192908035906020019064010000000081111561087157600080fd5b82018360208201111561088357600080fd5b803590602001918460018302840111640100000000831117156108a557600080fd5b91908080601f016020809104026020016040519081016040528093929190818152602001838380828437600081840152601f19601f8201169050808301925050505050505091929192908035906020019064010000000081111561090857600080fd5b82018360208201111561091a57600080fd5b8035906020019184600183028401116401000000008311171561093c57600080fd5b91908080601f016020809104026020016040519081016040528093929190818152602001838380828437600081840152601f19601f820116905080830192505050505050509192919290505050610f52565b6040518082815260200191505060405180910390f35b6000606080600060606000600160008881526020019081526020016000209050806000015481600101826002018360040160009054906101000a900460ff1684600501838054600181600116156101000203166002900480601f016020809104026020016040519081016040528092919081815260200182805460018160011615610100020316600290048015610a7c5780601f10610a5157610100808354040283529160200191610a7c565b820191906000526020600020905b815481529060010190602001808311610a5f57829003601f168201915b5050505050935082805480602002602001604051908101604052809291908181526020018280548015610ace57602002820191906000526020600020905b815481526020019060010190808311610aba575b50505050509250808054600181600116156101000203166002900480601f016020809104026020016040519081016040528092919081815260200182805460018160011615610100020316600290048015610b6a5780601f10610b3f57610100808354040283529160200191610b6a565b820191906000526020600020905b815481529060010190602001808311610b4d57829003601f168201915b50505050509050955095509550955095505091939590929450565b6001602052806000526040600020600091509050806000015490806001018054600181600116156101000203166002900480601f016020809104026020016040519081016040528092919081815260200182805460018160011615610100020316600290048015610c375780601f10610c0c57610100808354040283529160200191610c37565b820191906000526020600020905b815481529060010190602001808311610c1a57829003601f168201915b505050505090806003018054600181600116156101000203166002900480601f016020809104026020016040519081016040528092919081815260200182805460018160011615610100020316600290048015610cd55780601f10610caa57610100808354040283529160200191610cd5565b820191906000526020600020905b815481529060010190602001808311610cb857829003601f168201915b5050505050908060040160009054906101000a900460ff1690806005018054600181600116156101000203166002900480601f016020809104026020016040519081016040528092919081815260200182805460018160011615610100020316600290048015610d865780601f10610d5b57610100808354040283529160200191610d86565b820191906000526020600020905b815481529060010190602001808311610d6957829003601f168201915b5050505050905085565b60606002805480602002602001604051908101604052809291908181526020018280548015610dde57602002820191906000526020600020905b815481526020019060010190808311610dca575b5050505050905090565b60005481565b60028181548110610dfe57600080fd5b906000526020600020016000915090505481565b806001600084815260200190815260200160002060040160006101000a81548160ff0219169083151502179055507fae7f59c2ef152eb4d4f56fcc655f53926d60b7e58e08ec8c79387e25adbf3331826040518082815260200191505060405180910390a15050565b600060016000888152602001908152602001600020905084816002019080519060200190610eaa929190611094565b5083816003019080519060200190610ec39291906110e1565b5085816001019080519060200190610edc9291906110e1565b50818160040160006101000a81548160ff02191690831515021790555082816005019080519060200190610f119291906110e1565b507fae7f59c2ef152eb4d4f56fcc655f53926d60b7e58e08ec8c79387e25adbf3331876040518082815260200191505060405180910390a150505050505050565b60008042446040516020018083815260200182815260200192505050604051602081830303815290604052805190602001209050600060016000838152602001908152602001600020905081816000018190555085816002019080519060200190610fbe929190611094565b5060018160040160006101000a81548160ff02191690831515021790555084816003019080519060200190610ff49291906110e1565b508681600101908051906020019061100d9291906110e1565b50838160050190805190602001906110269291906110e1565b5060028290806001815401808255809150506001900390600052602060002001600090919091909150557f102d25c49d33fcdb8976a3f2744e0785c98d9e43b88364859e6aec4ae82eff5c826040518082815260200191505060405180910390a18192505050949350505050565b8280548282559060005260206000209081019282156110d0579160200282015b828111156110cf5782518255916020019190600101906110b4565b5b5090506110dd919061116f565b5090565b828054600181600116156101000203166002900490600052602060002090601f016020900481019282611117576000855561115e565b82601f1061113057805160ff191683800117855561115e565b8280016001018555821561115e579182015b8281111561115d578251825591602001919060010190611142565b5b50905061116b919061118c565b5090565b5b80821115611188576000816000905550600101611170565b5090565b5b808211156111a557600081600090555060010161118d565b509056fea264697066735822122042d495f8b0e29da5ed665ca0972892710566efd3bad0b190c163019055cc53be64736f6c63430007040033",
  "immutableReferences": {},
  "source": "pragma solidity ^0.7.4;\r\n\r\ncontract OrganizationContract {\r\n    uint256 public version = 1;\r\n\r\n    event Created(bytes32 objId);\r\n    event Updated(bytes32 objId);\r\n\r\n    struct Organization {\r\n        bytes32 organizationId;\r\n        string name;\r\n        bytes32[] organizationTypeIdList;\r\n        string organizationAddress;\r\n        bool isActive;\r\n        string customJsonData;\r\n    }\r\n    mapping(bytes32 => Organization) public dataMap;\r\n    bytes32[] public dataList;\r\n\r\n    /*\r\n        Organization\r\n    */\r\n    function create(\r\n        string memory _name,\r\n        bytes32[] memory _organizationTypeIdList,\r\n        string memory _organizationAddress,\r\n        string memory _customJsonData\r\n    ) public returns (bytes32 objId) {\r\n        bytes32 newId =\r\n            keccak256(abi.encodePacked(block.timestamp, block.difficulty));\r\n\r\n        Organization storage obj = dataMap[newId];\r\n        obj.organizationId = newId;\r\n        obj.organizationTypeIdList = _organizationTypeIdList;\r\n        obj.isActive = true;\r\n        obj.organizationAddress = _organizationAddress;\r\n        obj.name = _name;\r\n        obj.customJsonData = _customJsonData;\r\n\r\n        dataList.push(newId);\r\n\r\n        emit Created(newId);\r\n        return (newId);\r\n    }\r\n\r\n    function update(\r\n        bytes32 objId,\r\n        string memory _name,\r\n        bytes32[] memory _organizationTypeIdList,\r\n        string memory _organizationAddress,\r\n        string memory _customJsonData,\r\n        bool _isActive\r\n    ) public {\r\n        Organization storage obj = dataMap[objId];\r\n        obj.organizationTypeIdList = _organizationTypeIdList;\r\n        obj.organizationAddress = _organizationAddress;\r\n        obj.name = _name;\r\n        obj.isActive = _isActive;\r\n        obj.customJsonData = _customJsonData;\r\n\r\n        emit Updated(objId);\r\n    }\r\n\r\n    function getById(bytes32 objId)\r\n        public\r\n        view\r\n        returns (\r\n            bytes32 id,\r\n            string memory name,\r\n            bytes32[] memory organizationTypeIdList,\r\n            bool isActive,\r\n            string memory customJsonData\r\n        )\r\n    {\r\n        Organization storage obj = dataMap[objId];\r\n        return (\r\n            obj.organizationId,\r\n            obj.name,\r\n            obj.organizationTypeIdList,\r\n            obj.isActive,\r\n            obj.customJsonData\r\n        );\r\n    }\r\n\r\n    function getAll() public view returns (bytes32[] memory ids) {\r\n        return (dataList);\r\n    }\r\n\r\n    function activate(bytes32 objId, bool _isActive) public {\r\n        dataMap[objId].isActive = _isActive;\r\n        emit Updated(objId);\r\n    }\r\n}\r\n",
  "sourcePath": "D:/GitHub/supplychain_blockchain/tat_contract/contracts/OrganizationContract.sol",
  "compiler": {
    "name": "solc",
    "version": "0.7.4+commit.3f05b770.Emscripten.clang"
  },
  "schemaVersion": "3.3.2",
  "updatedAt": "2021-03-09T04:07:53.253Z",
  "devdoc": {
    "kind": "dev",
    "methods": {},
    "version": 1
  },
  "userdoc": {
    "kind": "user",
    "methods": {},
    "version": 1
  }
}