{
  "contractName": "ProfileContract",
  "abi": [
    {
      "anonymous": false,
      "inputs": [
        {
          "indexed": false,
          "internalType": "bytes32",
          "name": "objId",
          "type": "bytes32"
        }
      ],
      "name": "Created",
      "type": "event"
    },
    {
      "anonymous": false,
      "inputs": [
        {
          "indexed": false,
          "internalType": "bytes32",
          "name": "objId",
          "type": "bytes32"
        }
      ],
      "name": "Updated",
      "type": "event"
    },
    {
      "inputs": [
        {
          "internalType": "uint256",
          "name": "",
          "type": "uint256"
        }
      ],
      "name": "dataList",
      "outputs": [
        {
          "internalType": "bytes32",
          "name": "",
          "type": "bytes32"
        }
      ],
      "stateMutability": "view",
      "type": "function",
      "constant": true
    },
    {
      "inputs": [
        {
          "internalType": "bytes32",
          "name": "",
          "type": "bytes32"
        }
      ],
      "name": "dataMap",
      "outputs": [
        {
          "internalType": "bytes32",
          "name": "profileId",
          "type": "bytes32"
        },
        {
          "internalType": "string",
          "name": "name",
          "type": "string"
        },
        {
          "internalType": "string",
          "name": "email",
          "type": "string"
        },
        {
          "internalType": "string",
          "name": "passwordHash",
          "type": "string"
        },
        {
          "internalType": "string",
          "name": "phone",
          "type": "string"
        },
        {
          "internalType": "bytes32",
          "name": "organizationId",
          "type": "bytes32"
        },
        {
          "internalType": "bool",
          "name": "isActive",
          "type": "bool"
        },
        {
          "internalType": "string",
          "name": "customJsonData",
          "type": "string"
        }
      ],
      "stateMutability": "view",
      "type": "function",
      "constant": true
    },
    {
      "inputs": [],
      "name": "version",
      "outputs": [
        {
          "internalType": "uint256",
          "name": "",
          "type": "uint256"
        }
      ],
      "stateMutability": "view",
      "type": "function",
      "constant": true
    },
    {
      "inputs": [
        {
          "internalType": "string",
          "name": "_name",
          "type": "string"
        },
        {
          "internalType": "string",
          "name": "_email",
          "type": "string"
        },
        {
          "internalType": "string",
          "name": "_passwordHash",
          "type": "string"
        },
        {
          "internalType": "string",
          "name": "_phone",
          "type": "string"
        },
        {
          "internalType": "bytes32[]",
          "name": "_roleId",
          "type": "bytes32[]"
        },
        {
          "internalType": "bytes32",
          "name": "_organizationId",
          "type": "bytes32"
        },
        {
          "internalType": "string",
          "name": "_customJsonData",
          "type": "string"
        }
      ],
      "name": "create",
      "outputs": [
        {
          "internalType": "bytes32",
          "name": "objId",
          "type": "bytes32"
        }
      ],
      "stateMutability": "nonpayable",
      "type": "function"
    },
    {
      "inputs": [
        {
          "internalType": "bytes32",
          "name": "objId",
          "type": "bytes32"
        },
        {
          "internalType": "string",
          "name": "_name",
          "type": "string"
        },
        {
          "internalType": "string",
          "name": "_email",
          "type": "string"
        },
        {
          "internalType": "string",
          "name": "_passwordHash",
          "type": "string"
        },
        {
          "internalType": "string",
          "name": "_phone",
          "type": "string"
        },
        {
          "internalType": "bytes32[]",
          "name": "_roleId",
          "type": "bytes32[]"
        },
        {
          "internalType": "bytes32",
          "name": "_organizationId",
          "type": "bytes32"
        },
        {
          "internalType": "string",
          "name": "_customJsonData",
          "type": "string"
        },
        {
          "internalType": "bool",
          "name": "_isActive",
          "type": "bool"
        }
      ],
      "name": "update",
      "outputs": [],
      "stateMutability": "nonpayable",
      "type": "function"
    },
    {
      "inputs": [
        {
          "internalType": "bytes32",
          "name": "objId",
          "type": "bytes32"
        }
      ],
      "name": "getById",
      "outputs": [
        {
          "internalType": "bytes32",
          "name": "id",
          "type": "bytes32"
        },
        {
          "internalType": "string",
          "name": "name",
          "type": "string"
        },
        {
          "internalType": "string",
          "name": "email",
          "type": "string"
        },
        {
          "internalType": "string",
          "name": "passwordHash",
          "type": "string"
        },
        {
          "internalType": "string",
          "name": "phone",
          "type": "string"
        },
        {
          "internalType": "bytes32[]",
          "name": "roleId",
          "type": "bytes32[]"
        },
        {
          "internalType": "bytes32",
          "name": "organizationId",
          "type": "bytes32"
        },
        {
          "internalType": "bool",
          "name": "isActive",
          "type": "bool"
        },
        {
          "internalType": "string",
          "name": "customJsonData",
          "type": "string"
        }
      ],
      "stateMutability": "view",
      "type": "function",
      "constant": true
    },
    {
      "inputs": [],
      "name": "getAll",
      "outputs": [
        {
          "internalType": "bytes32[]",
          "name": "ids",
          "type": "bytes32[]"
        }
      ],
      "stateMutability": "view",
      "type": "function",
      "constant": true
    }
  ],
  "bytecode": "0x6080604052600160005534801561001557600080fd5b50611981806100256000396000f3fe608060405234801561001057600080fd5b506004361061007d5760003560e01c806354fd4d501161005b57806354fd4d50146106055780636e8bb05414610623578063af4a74cf146109ec578063c973869314610a2e5761007d565b80632dff0d0d1461008257806346bcad621461033857806353ed5143146105a6575b600080fd5b6100ae6004803603602081101561009857600080fd5b8101908080359060200190929190505050610dfa565b604051808a8152602001806020018060200180602001806020018060200189815260200188151581526020018060200187810387528f818151815260200191508051906020019080838360005b838110156101165780820151818401526020810190506100fb565b50505050905090810190601f1680156101435780820380516001836020036101000a031916815260200191505b5087810386528e818151815260200191508051906020019080838360005b8381101561017c578082015181840152602081019050610161565b50505050905090810190601f1680156101a95780820380516001836020036101000a031916815260200191505b5087810385528d818151815260200191508051906020019080838360005b838110156101e25780820151818401526020810190506101c7565b50505050905090810190601f16801561020f5780820380516001836020036101000a031916815260200191505b5087810384528c818151815260200191508051906020019080838360005b8381101561024857808201518184015260208101905061022d565b50505050905090810190601f1680156102755780820380516001836020036101000a031916815260200191505b5087810383528b818151815260200191508051906020019060200280838360005b838110156102b1578082015181840152602081019050610296565b50505050905001878103825288818151815260200191508051906020019080838360005b838110156102f05780820151818401526020810190506102d5565b50505050905090810190601f16801561031d5780820380516001836020036101000a031916815260200191505b509f5050505050505050505050505050505060405180910390f35b6103646004803603602081101561034e57600080fd5b81019080803590602001909291905050506111d2565b604051808981526020018060200180602001806020018060200188815260200187151581526020018060200186810386528d818151815260200191508051906020019080838360005b838110156103c85780820151818401526020810190506103ad565b50505050905090810190601f1680156103f55780820380516001836020036101000a031916815260200191505b5086810385528c818151815260200191508051906020019080838360005b8381101561042e578082015181840152602081019050610413565b50505050905090810190601f16801561045b5780820380516001836020036101000a031916815260200191505b5086810384528b818151815260200191508051906020019080838360005b83811015610494578082015181840152602081019050610479565b50505050905090810190601f1680156104c15780820380516001836020036101000a031916815260200191505b5086810383528a818151815260200191508051906020019080838360005b838110156104fa5780820151818401526020810190506104df565b50505050905090810190601f1680156105275780820380516001836020036101000a031916815260200191505b50868103825287818151815260200191508051906020019080838360005b83811015610560578082015181840152602081019050610545565b50505050905090810190601f16801561058d5780820380516001836020036101000a031916815260200191505b509d505050505050505050505050505060405180910390f35b6105ae61151f565b6040518080602001828103825283818151815260200191508051906020019060200280838360005b838110156105f15780820151818401526020810190506105d6565b505050509050019250505060405180910390f35b61060d611577565b6040518082815260200191505060405180910390f35b6109d6600480360360e081101561063957600080fd5b810190808035906020019064010000000081111561065657600080fd5b82018360208201111561066857600080fd5b8035906020019184600183028401116401000000008311171561068a57600080fd5b91908080601f016020809104026020016040519081016040528093929190818152602001838380828437600081840152601f19601f820116905080830192505050505050509192919290803590602001906401000000008111156106ed57600080fd5b8201836020820111156106ff57600080fd5b8035906020019184600183028401116401000000008311171561072157600080fd5b91908080601f016020809104026020016040519081016040528093929190818152602001838380828437600081840152601f19601f8201169050808301925050505050505091929192908035906020019064010000000081111561078457600080fd5b82018360208201111561079657600080fd5b803590602001918460018302840111640100000000831117156107b857600080fd5b91908080601f016020809104026020016040519081016040528093929190818152602001838380828437600081840152601f19601f8201169050808301925050505050505091929192908035906020019064010000000081111561081b57600080fd5b82018360208201111561082d57600080fd5b8035906020019184600183028401116401000000008311171561084f57600080fd5b91908080601f016020809104026020016040519081016040528093929190818152602001838380828437600081840152601f19601f820116905080830192505050505050509192919290803590602001906401000000008111156108b257600080fd5b8201836020820111156108c457600080fd5b803590602001918460208302840111640100000000831117156108e657600080fd5b919080806020026020016040519081016040528093929190818152602001838360200280828437600081840152601f19601f820116905080830192505050505050509192919290803590602001909291908035906020019064010000000081111561095057600080fd5b82018360208201111561096257600080fd5b8035906020019184600183028401116401000000008311171561098457600080fd5b91908080601f016020809104026020016040519081016040528093929190818152602001838380828437600081840152601f19601f82011690508083019250505050505050919291929050505061157d565b6040518082815260200191505060405180910390f35b610a1860048036036020811015610a0257600080fd5b81019080803590602001909291905050506116fd565b6040518082815260200191505060405180910390f35b610df86004803603610120811015610a4557600080fd5b810190808035906020019092919080359060200190640100000000811115610a6c57600080fd5b820183602082011115610a7e57600080fd5b80359060200191846001830284011164010000000083111715610aa057600080fd5b91908080601f016020809104026020016040519081016040528093929190818152602001838380828437600081840152601f19601f82011690508083019250505050505050919291929080359060200190640100000000811115610b0357600080fd5b820183602082011115610b1557600080fd5b80359060200191846001830284011164010000000083111715610b3757600080fd5b91908080601f016020809104026020016040519081016040528093929190818152602001838380828437600081840152601f19601f82011690508083019250505050505050919291929080359060200190640100000000811115610b9a57600080fd5b820183602082011115610bac57600080fd5b80359060200191846001830284011164010000000083111715610bce57600080fd5b91908080601f016020809104026020016040519081016040528093929190818152602001838380828437600081840152601f19601f82011690508083019250505050505050919291929080359060200190640100000000811115610c3157600080fd5b820183602082011115610c4357600080fd5b80359060200191846001830284011164010000000083111715610c6557600080fd5b91908080601f016020809104026020016040519081016040528093929190818152602001838380828437600081840152601f19601f82011690508083019250505050505050919291929080359060200190640100000000811115610cc857600080fd5b820183602082011115610cda57600080fd5b80359060200191846020830284011164010000000083111715610cfc57600080fd5b919080806020026020016040519081016040528093929190818152602001838360200280828437600081840152601f19601f8201169050808301925050505050505091929192908035906020019092919080359060200190640100000000811115610d6657600080fd5b820183602082011115610d7857600080fd5b80359060200191846001830284011164010000000083111715610d9a57600080fd5b91908080601f016020809104026020016040519081016040528093929190818152602001838380828437600081840152601f19601f820116905080830192505050505050509192919290803515159060200190929190505050611721565b005b6000606080606080606060008060606000600160008c815260200190815260200160002090508060000154816001018260020183600301846004018560050186600601548760070160009054906101000a900460ff1688600801878054600181600116156101000203166002900480601f016020809104026020016040519081016040528092919081815260200182805460018160011615610100020316600290048015610ee95780601f10610ebe57610100808354040283529160200191610ee9565b820191906000526020600020905b815481529060010190602001808311610ecc57829003601f168201915b50505050509750868054600181600116156101000203166002900480601f016020809104026020016040519081016040528092919081815260200182805460018160011615610100020316600290048015610f855780601f10610f5a57610100808354040283529160200191610f85565b820191906000526020600020905b815481529060010190602001808311610f6857829003601f168201915b50505050509650858054600181600116156101000203166002900480601f0160208091040260200160405190810160405280929190818152602001828054600181600116156101000203166002900480156110215780601f10610ff657610100808354040283529160200191611021565b820191906000526020600020905b81548152906001019060200180831161100457829003601f168201915b50505050509550848054600181600116156101000203166002900480601f0160208091040260200160405190810160405280929190818152602001828054600181600116156101000203166002900480156110bd5780601f10611092576101008083540402835291602001916110bd565b820191906000526020600020905b8154815290600101906020018083116110a057829003601f168201915b505050505094508380548060200260200160405190810160405280929190818152602001828054801561110f57602002820191906000526020600020905b8154815260200190600101908083116110fb575b50505050509350808054600181600116156101000203166002900480601f0160208091040260200160405190810160405280929190818152602001828054600181600116156101000203166002900480156111ab5780601f10611180576101008083540402835291602001916111ab565b820191906000526020600020905b81548152906001019060200180831161118e57829003601f168201915b50505050509050995099509950995099509950995099509950509193959799909294969850565b6001602052806000526040600020600091509050806000015490806001018054600181600116156101000203166002900480601f0160208091040260200160405190810160405280929190818152602001828054600181600116156101000203166002900480156112845780601f1061125957610100808354040283529160200191611284565b820191906000526020600020905b81548152906001019060200180831161126757829003601f168201915b505050505090806002018054600181600116156101000203166002900480601f0160208091040260200160405190810160405280929190818152602001828054600181600116156101000203166002900480156113225780601f106112f757610100808354040283529160200191611322565b820191906000526020600020905b81548152906001019060200180831161130557829003601f168201915b505050505090806003018054600181600116156101000203166002900480601f0160208091040260200160405190810160405280929190818152602001828054600181600116156101000203166002900480156113c05780601f10611395576101008083540402835291602001916113c0565b820191906000526020600020905b8154815290600101906020018083116113a357829003601f168201915b505050505090806004018054600181600116156101000203166002900480601f01602080910402602001604051908101604052809291908181526020018280546001816001161561010002031660029004801561145e5780601f106114335761010080835404028352916020019161145e565b820191906000526020600020905b81548152906001019060200180831161144157829003601f168201915b5050505050908060060154908060070160009054906101000a900460ff1690806008018054600181600116156101000203166002900480601f0160208091040260200160405190810160405280929190818152602001828054600181600116156101000203166002900480156115155780601f106114ea57610100808354040283529160200191611515565b820191906000526020600020905b8154815290600101906020018083116114f857829003601f168201915b5050505050905088565b6060600280548060200260200160405190810160405280929190818152602001828054801561156d57602002820191906000526020600020905b815481526020019060010190808311611559575b5050505050905090565b60005481565b600080424460405160200180838152602001828152602001925050506040516020818303038152906040528051906020012090506000600160008381526020019081526020016000209050818160000181905550898160010190805190602001906115e9929190611836565b5088816002019080519060200190611602929190611836565b508781600301908051906020019061161b929190611836565b5086816004019080519060200190611634929190611836565b508581600501908051906020019061164d9291906118c4565b5084816006018190555060018160070160006101000a81548160ff0219169083151502179055508381600801908051906020019061168c929190611836565b5060028290806001815401808255809150506001900390600052602060002001600090919091909150557f102d25c49d33fcdb8976a3f2744e0785c98d9e43b88364859e6aec4ae82eff5c826040518082815260200191505060405180910390a18192505050979650505050505050565b6002818154811061170d57600080fd5b906000526020600020016000915090505481565b6000600160008b8152602001908152602001600020905088816001019080519060200190611750929190611836565b5087816002019080519060200190611769929190611836565b5086816003019080519060200190611782929190611836565b508581600401908051906020019061179b929190611836565b50848160050190805190602001906117b49291906118c4565b50838160060181905550818160070160006101000a81548160ff021916908315150217905550828160080190805190602001906117f2929190611836565b507fae7f59c2ef152eb4d4f56fcc655f53926d60b7e58e08ec8c79387e25adbf33318a6040518082815260200191505060405180910390a150505050505050505050565b828054600181600116156101000203166002900490600052602060002090601f01602090048101928261186c57600085556118b3565b82601f1061188557805160ff19168380011785556118b3565b828001600101855582156118b3579182015b828111156118b2578251825591602001919060010190611897565b5b5090506118c09190611911565b5090565b828054828255906000526020600020908101928215611900579160200282015b828111156118ff5782518255916020019190600101906118e4565b5b50905061190d919061192e565b5090565b5b8082111561192a576000816000905550600101611912565b5090565b5b8082111561194757600081600090555060010161192f565b509056fea2646970667358221220d118dc393be6fde325ac3373ebbdc2f3ce1314f8a4f13d3814ccbe33d084ff0e64736f6c63430007040033",
  "immutableReferences": {},
  "source": "pragma solidity ^0.7.4;\r\n\r\ncontract ProfileContract {\r\n    uint256 public version = 1;\r\n    struct Profile {\r\n        bytes32 profileId;\r\n        string name;\r\n        string email;\r\n        string passwordHash;\r\n        string phone;\r\n        bytes32[] roleId;\r\n        bytes32 organizationId;\r\n        bool isActive;\r\n        string customJsonData;\r\n    }\r\n\r\n    mapping(bytes32 => Profile) public dataMap;\r\n    bytes32[] public dataList;\r\n\r\n    event Created(bytes32 objId);\r\n    event Updated(bytes32 objId);\r\n\r\n    function create(\r\n        string memory _name,\r\n        string memory _email,\r\n        string memory _passwordHash,\r\n        string memory _phone,\r\n        bytes32[] memory _roleId,\r\n        bytes32 _organizationId,\r\n        string memory _customJsonData\r\n    ) public returns (bytes32 objId) {\r\n        bytes32 newId =\r\n            keccak256(abi.encodePacked(block.timestamp, block.difficulty));\r\n\r\n        Profile storage obj = dataMap[newId];\r\n        obj.profileId = newId;\r\n        obj.name = _name;\r\n        obj.email = _email;\r\n        obj.passwordHash = _passwordHash;\r\n        obj.phone = _phone;\r\n        obj.roleId = _roleId;\r\n        obj.organizationId = _organizationId;\r\n        obj.isActive = true;\r\n        obj.customJsonData = _customJsonData;\r\n\r\n        dataList.push(newId);\r\n\r\n        emit Created(newId);\r\n        return (newId);\r\n    }\r\n\r\n    function update(\r\n        bytes32 objId,\r\n        string memory _name,\r\n        string memory _email,\r\n        string memory _passwordHash,\r\n        string memory _phone,\r\n        bytes32[] memory _roleId,\r\n        bytes32 _organizationId,\r\n        string memory _customJsonData,\r\n        bool _isActive\r\n    ) public {\r\n        Profile storage obj = dataMap[objId];\r\n        obj.name = _name;\r\n        obj.email = _email;\r\n        obj.passwordHash = _passwordHash;\r\n        obj.phone = _phone;\r\n        obj.roleId = _roleId;\r\n        obj.organizationId = _organizationId;\r\n        obj.isActive = _isActive;\r\n        obj.customJsonData = _customJsonData;\r\n\r\n        emit Updated(objId);\r\n    }\r\n\r\n    function getById(bytes32 objId)\r\n        public\r\n        view\r\n        returns (\r\n            bytes32 id,\r\n            string memory name,\r\n            string memory email,\r\n            string memory passwordHash,\r\n            string memory phone,\r\n            bytes32[] memory roleId,\r\n            bytes32 organizationId,\r\n            bool isActive,\r\n            string memory customJsonData\r\n        )\r\n    {\r\n        Profile storage obj = dataMap[objId];\r\n        return (\r\n            obj.profileId,\r\n            obj.name,\r\n            obj.email,\r\n            obj.passwordHash,\r\n            obj.phone,\r\n            obj.roleId,\r\n            obj.organizationId,\r\n            obj.isActive,\r\n            obj.customJsonData\r\n        );\r\n    }\r\n\r\n    function getAll() public view returns (bytes32[] memory ids) {\r\n        return (dataList);\r\n    }\r\n}\r\n",
  "sourcePath": "D:/GitHub/supplychain_blockchain/tat_contract/contracts/ProfileContract.sol",
  "compiler": {
    "name": "solc",
    "version": "0.7.4+commit.3f05b770.Emscripten.clang"
  },
  "schemaVersion": "3.3.2",
  "updatedAt": "2021-03-05T09:48:32.991Z",
  "networkType": "ethereum",
  "devdoc": {
    "kind": "dev",
    "methods": {},
    "version": 1
  },
  "userdoc": {
    "kind": "user",
    "methods": {},
    "version": 1
  }
}