{
  "contractName": "TrackHistoryContract",
  "abi": [
    {
      "anonymous": false,
      "inputs": [
        {
          "indexed": false,
          "internalType": "bytes32",
          "name": "objId",
          "type": "bytes32"
        }
      ],
      "name": "Created",
      "type": "event"
    },
    {
      "anonymous": false,
      "inputs": [
        {
          "indexed": false,
          "internalType": "bytes32",
          "name": "objId",
          "type": "bytes32"
        }
      ],
      "name": "Updated",
      "type": "event"
    },
    {
      "inputs": [
        {
          "internalType": "uint256",
          "name": "",
          "type": "uint256"
        }
      ],
      "name": "dataList",
      "outputs": [
        {
          "internalType": "bytes32",
          "name": "",
          "type": "bytes32"
        }
      ],
      "stateMutability": "view",
      "type": "function",
      "constant": true
    },
    {
      "inputs": [
        {
          "internalType": "bytes32",
          "name": "",
          "type": "bytes32"
        }
      ],
      "name": "dataMap",
      "outputs": [
        {
          "internalType": "bytes32",
          "name": "trackHistoryId",
          "type": "bytes32"
        },
        {
          "internalType": "bytes32",
          "name": "productId",
          "type": "bytes32"
        },
        {
          "internalType": "bytes32",
          "name": "activityId",
          "type": "bytes32"
        },
        {
          "internalType": "bytes32",
          "name": "profileId",
          "type": "bytes32"
        },
        {
          "internalType": "bytes32",
          "name": "areaId",
          "type": "bytes32"
        },
        {
          "internalType": "string",
          "name": "gps",
          "type": "string"
        },
        {
          "internalType": "string",
          "name": "remarks",
          "type": "string"
        },
        {
          "internalType": "bool",
          "name": "isActive",
          "type": "bool"
        },
        {
          "internalType": "string",
          "name": "customJsonData",
          "type": "string"
        }
      ],
      "stateMutability": "view",
      "type": "function",
      "constant": true
    },
    {
      "inputs": [
        {
          "internalType": "bytes32",
          "name": "_productId",
          "type": "bytes32"
        },
        {
          "internalType": "bytes32",
          "name": "_activityId",
          "type": "bytes32"
        },
        {
          "internalType": "bytes32",
          "name": "_profileId",
          "type": "bytes32"
        },
        {
          "internalType": "bytes32",
          "name": "_areaId",
          "type": "bytes32"
        },
        {
          "internalType": "string",
          "name": "_gps",
          "type": "string"
        },
        {
          "internalType": "string",
          "name": "_remarks",
          "type": "string"
        },
        {
          "internalType": "string",
          "name": "_customJsonData",
          "type": "string"
        }
      ],
      "name": "create",
      "outputs": [
        {
          "internalType": "bytes32",
          "name": "objId",
          "type": "bytes32"
        }
      ],
      "stateMutability": "nonpayable",
      "type": "function"
    },
    {
      "inputs": [
        {
          "internalType": "bytes32",
          "name": "objId",
          "type": "bytes32"
        },
        {
          "internalType": "bytes32",
          "name": "_productId",
          "type": "bytes32"
        },
        {
          "internalType": "bytes32",
          "name": "_activityId",
          "type": "bytes32"
        },
        {
          "internalType": "bytes32",
          "name": "_profileId",
          "type": "bytes32"
        },
        {
          "internalType": "bytes32",
          "name": "_areaId",
          "type": "bytes32"
        },
        {
          "internalType": "string",
          "name": "_gps",
          "type": "string"
        },
        {
          "internalType": "string",
          "name": "_remarks",
          "type": "string"
        },
        {
          "internalType": "string",
          "name": "_customJsonData",
          "type": "string"
        },
        {
          "internalType": "bool",
          "name": "_isActive",
          "type": "bool"
        }
      ],
      "name": "update",
      "outputs": [],
      "stateMutability": "nonpayable",
      "type": "function"
    },
    {
      "inputs": [
        {
          "internalType": "bytes32",
          "name": "objId",
          "type": "bytes32"
        }
      ],
      "name": "getById",
      "outputs": [
        {
          "internalType": "bytes32",
          "name": "id",
          "type": "bytes32"
        },
        {
          "internalType": "bytes32",
          "name": "productId",
          "type": "bytes32"
        },
        {
          "internalType": "bytes32",
          "name": "activityId",
          "type": "bytes32"
        },
        {
          "internalType": "bytes32",
          "name": "profileId",
          "type": "bytes32"
        },
        {
          "internalType": "bytes32",
          "name": "areaId",
          "type": "bytes32"
        },
        {
          "internalType": "string",
          "name": "gps",
          "type": "string"
        },
        {
          "internalType": "string",
          "name": "remarks",
          "type": "string"
        },
        {
          "internalType": "bool",
          "name": "isActive",
          "type": "bool"
        },
        {
          "internalType": "string",
          "name": "customJsonData",
          "type": "string"
        }
      ],
      "stateMutability": "view",
      "type": "function",
      "constant": true
    },
    {
      "inputs": [],
      "name": "getAll",
      "outputs": [
        {
          "internalType": "bytes32[]",
          "name": "ids",
          "type": "bytes32[]"
        }
      ],
      "stateMutability": "view",
      "type": "function",
      "constant": true
    }
  ],
  "bytecode": "0x608060405234801561001057600080fd5b506110b7806100206000396000f3fe608060405234801561001057600080fd5b50600436106100625760003560e01c80632dff0d0d1461006757806346bcad621461021257806346e5e50c146103bd57806353ed5143146105e2578063af4a74cf14610641578063e88089dc14610683575b600080fd5b6100936004803603602081101561007d57600080fd5b81019080803590602001909291905050506108ab565b604051808a81526020018981526020018881526020018781526020018681526020018060200180602001851515815260200180602001848103845288818151815260200191508051906020019080838360005b838110156101015780820151818401526020810190506100e6565b50505050905090810190601f16801561012e5780820380516001836020036101000a031916815260200191505b50848103835287818151815260200191508051906020019080838360005b8381101561016757808201518184015260208101905061014c565b50505050905090810190601f1680156101945780820380516001836020036101000a031916815260200191505b50848103825285818151815260200191508051906020019080838360005b838110156101cd5780820151818401526020810190506101b2565b50505050905090810190601f1680156101fa5780820380516001836020036101000a031916815260200191505b509c5050505050505050505050505060405180910390f35b61023e6004803603602081101561022857600080fd5b8101908080359060200190929190505050610afb565b604051808a81526020018981526020018881526020018781526020018681526020018060200180602001851515815260200180602001848103845288818151815260200191508051906020019080838360005b838110156102ac578082015181840152602081019050610291565b50505050905090810190601f1680156102d95780820380516001836020036101000a031916815260200191505b50848103835287818151815260200191508051906020019080838360005b838110156103125780820151818401526020810190506102f7565b50505050905090810190601f16801561033f5780820380516001836020036101000a031916815260200191505b50848103825285818151815260200191508051906020019080838360005b8381101561037857808201518184015260208101905061035d565b50505050905090810190601f1680156103a55780820380516001836020036101000a031916815260200191505b509c5050505050505050505050505060405180910390f35b6105cc600480360360e08110156103d357600080fd5b81019080803590602001909291908035906020019092919080359060200190929190803590602001909291908035906020019064010000000081111561041857600080fd5b82018360208201111561042a57600080fd5b8035906020019184600183028401116401000000008311171561044c57600080fd5b91908080601f016020809104026020016040519081016040528093929190818152602001838380828437600081840152601f19601f820116905080830192505050505050509192919290803590602001906401000000008111156104af57600080fd5b8201836020820111156104c157600080fd5b803590602001918460018302840111640100000000831117156104e357600080fd5b91908080601f016020809104026020016040519081016040528093929190818152602001838380828437600081840152601f19601f8201169050808301925050505050505091929192908035906020019064010000000081111561054657600080fd5b82018360208201111561055857600080fd5b8035906020019184600183028401116401000000008311171561057a57600080fd5b91908080601f016020809104026020016040519081016040528093929190818152602001838380828437600081840152601f19601f820116905080830192505050505050509192919290505050610d1e565b6040518082815260200191505060405180910390f35b6105ea610e6d565b6040518080602001828103825283818151815260200191508051906020019060200280838360005b8381101561062d578082015181840152602081019050610612565b505050509050019250505060405180910390f35b61066d6004803603602081101561065757600080fd5b8101908080359060200190929190505050610ec5565b6040518082815260200191505060405180910390f35b6108a9600480360361012081101561069a57600080fd5b810190808035906020019092919080359060200190929190803590602001909291908035906020019092919080359060200190929190803590602001906401000000008111156106e957600080fd5b8201836020820111156106fb57600080fd5b8035906020019184600183028401116401000000008311171561071d57600080fd5b91908080601f016020809104026020016040519081016040528093929190818152602001838380828437600081840152601f19601f8201169050808301925050505050505091929192908035906020019064010000000081111561078057600080fd5b82018360208201111561079257600080fd5b803590602001918460018302840111640100000000831117156107b457600080fd5b91908080601f016020809104026020016040519081016040528093929190818152602001838380828437600081840152601f19601f8201169050808301925050505050505091929192908035906020019064010000000081111561081757600080fd5b82018360208201111561082957600080fd5b8035906020019184600183028401116401000000008311171561084b57600080fd5b91908080601f016020809104026020016040519081016040528093929190818152602001838380828437600081840152601f19601f820116905080830192505050505050509192919290803515159060200190929190505050610ee9565b005b60008060008060006060806000606060008060008c815260200190815260200160002090508060000154816001015482600201548360030154846004015485600501866006018760070160009054906101000a900460ff1688600801838054600181600116156101000203166002900480601f01602080910402602001604051908101604052809291908181526020018280546001816001161561010002031660029004801561099c5780601f106109715761010080835404028352916020019161099c565b820191906000526020600020905b81548152906001019060200180831161097f57829003601f168201915b50505050509350828054600181600116156101000203166002900480601f016020809104026020016040519081016040528092919081815260200182805460018160011615610100020316600290048015610a385780601f10610a0d57610100808354040283529160200191610a38565b820191906000526020600020905b815481529060010190602001808311610a1b57829003601f168201915b50505050509250808054600181600116156101000203166002900480601f016020809104026020016040519081016040528092919081815260200182805460018160011615610100020316600290048015610ad45780601f10610aa957610100808354040283529160200191610ad4565b820191906000526020600020905b815481529060010190602001808311610ab757829003601f168201915b50505050509050995099509950995099509950995099509950509193959799909294969850565b6000602052806000526040600020600091509050806000015490806001015490806002015490806003015490806004015490806005018054600181600116156101000203166002900480601f016020809104026020016040519081016040528092919081815260200182805460018160011615610100020316600290048015610bc55780601f10610b9a57610100808354040283529160200191610bc5565b820191906000526020600020905b815481529060010190602001808311610ba857829003601f168201915b505050505090806006018054600181600116156101000203166002900480601f016020809104026020016040519081016040528092919081815260200182805460018160011615610100020316600290048015610c635780601f10610c3857610100808354040283529160200191610c63565b820191906000526020600020905b815481529060010190602001808311610c4657829003601f168201915b5050505050908060070160009054906101000a900460ff1690806008018054600181600116156101000203166002900480601f016020809104026020016040519081016040528092919081815260200182805460018160011615610100020316600290048015610d145780601f10610ce957610100808354040283529160200191610d14565b820191906000526020600020905b815481529060010190602001808311610cf757829003601f168201915b5050505050905089565b600080424460405160200180838152602001828152602001925050506040516020818303038152906040528051906020012090506000806000838152602001908152602001600020905081816000018190555089816001018190555088816002018190555087816003018190555086816004018190555085816005019080519060200190610dad929190610fd6565b5084816006019080519060200190610dc6929190610fd6565b5060018160070160006101000a81548160ff02191690831515021790555083816008019080519060200190610dfc929190610fd6565b5060018290806001815401808255809150506001900390600052602060002001600090919091909150557f102d25c49d33fcdb8976a3f2744e0785c98d9e43b88364859e6aec4ae82eff5c826040518082815260200191505060405180910390a18192505050979650505050505050565b60606001805480602002602001604051908101604052809291908181526020018280548015610ebb57602002820191906000526020600020905b815481526020019060010190808311610ea7575b5050505050905090565b60018181548110610ed557600080fd5b906000526020600020016000915090505481565b60008060008b8152602001908152602001600020905088816001018190555087816002018190555086816003018190555088816001018190555085816004018190555084816005019080519060200190610f44929190610fd6565b5083816006019080519060200190610f5d929190610fd6565b50818160070160006101000a81548160ff02191690831515021790555082816008019080519060200190610f92929190610fd6565b507fae7f59c2ef152eb4d4f56fcc655f53926d60b7e58e08ec8c79387e25adbf33318a6040518082815260200191505060405180910390a150505050505050505050565b828054600181600116156101000203166002900490600052602060002090601f01602090048101928261100c5760008555611053565b82601f1061102557805160ff1916838001178555611053565b82800160010185558215611053579182015b82811115611052578251825591602001919060010190611037565b5b5090506110609190611064565b5090565b5b8082111561107d576000816000905550600101611065565b509056fea2646970667358221220ae55f7e575fc6afbe2cc099bb6bfffb69bdae6628d97d856a853808f473ecfa764736f6c63430007040033",
  "immutableReferences": {},
  "source": "pragma solidity ^0.7.4;\r\n\r\ncontract TrackHistoryContract {\r\n    struct TrackHistory {\r\n        bytes32 trackHistoryId;\r\n        bytes32 productId;\r\n        bytes32 activityId;\r\n        bytes32 profileId;\r\n        bytes32 areaId;\r\n        string gps;\r\n        string remarks;\r\n        bool isActive;\r\n        string customJsonData;\r\n    }\r\n\r\n    mapping(bytes32 => TrackHistory) public dataMap;\r\n    bytes32[] public dataList;\r\n\r\n    event Created(bytes32 objId);\r\n    event Updated(bytes32 objId);\r\n\r\n    function create(\r\n        bytes32 _productId,\r\n        bytes32 _activityId,\r\n        bytes32 _profileId,\r\n        bytes32 _areaId,\r\n        string memory _gps,\r\n        string memory _remarks,\r\n        string memory _customJsonData\r\n    ) public returns (bytes32 objId) {\r\n        bytes32 newId =\r\n            keccak256(abi.encodePacked(block.timestamp, block.difficulty));\r\n\r\n        TrackHistory storage obj = dataMap[newId];\r\n        obj.trackHistoryId = newId;\r\n        obj.productId = _productId;\r\n        obj.activityId = _activityId;\r\n        obj.profileId = _profileId;\r\n        obj.areaId = _areaId;\r\n        obj.gps = _gps;\r\n        obj.remarks = _remarks;\r\n        obj.isActive = true;\r\n        obj.customJsonData = _customJsonData;\r\n\r\n        dataList.push(newId);\r\n\r\n        emit Created(newId);\r\n        return (newId);\r\n    }\r\n\r\n    function update(\r\n        bytes32 objId,\r\n        bytes32 _productId,\r\n        bytes32 _activityId,\r\n        bytes32 _profileId,\r\n        bytes32 _areaId,\r\n        string memory _gps,\r\n        string memory _remarks,\r\n        string memory _customJsonData,\r\n        bool _isActive\r\n    ) public {\r\n        TrackHistory storage obj = dataMap[objId];\r\n        obj.productId = _productId;\r\n        obj.activityId = _activityId;\r\n        obj.profileId = _profileId;\r\n        obj.productId = _productId;\r\n        obj.areaId = _areaId;\r\n        obj.gps = _gps;\r\n        obj.remarks = _remarks;\r\n        obj.isActive = _isActive;\r\n        obj.customJsonData = _customJsonData;\r\n\r\n        emit Updated(objId);\r\n    }\r\n\r\n    function getById(bytes32 objId)\r\n        public\r\n        view\r\n        returns (\r\n            bytes32 id,\r\n            bytes32 productId,\r\n            bytes32 activityId,\r\n            bytes32 profileId,\r\n            bytes32 areaId,\r\n            string memory gps,\r\n            string memory remarks,\r\n            bool isActive,\r\n            string memory customJsonData\r\n        )\r\n    {\r\n        TrackHistory storage obj = dataMap[objId];\r\n        return (\r\n            obj.trackHistoryId,\r\n            obj.productId,\r\n            obj.activityId,\r\n            obj.profileId,\r\n            obj.areaId,\r\n            obj.gps,\r\n            obj.remarks,\r\n            obj.isActive,\r\n            obj.customJsonData\r\n        );\r\n    }\r\n\r\n    function getAll() public view returns (bytes32[] memory ids) {\r\n        return (dataList);\r\n    }\r\n}\r\n",
  "sourcePath": "D:/GitHub/supplychain_blockchain/tat_contract/contracts/TrackHistoryContract.sol",
  "compiler": {
    "name": "solc",
    "version": "0.7.4+commit.3f05b770.Emscripten.clang"
  },
  "schemaVersion": "3.3.2",
  "updatedAt": "2021-03-05T09:48:32.999Z",
  "networkType": "ethereum",
  "devdoc": {
    "kind": "dev",
    "methods": {},
    "version": 1
  },
  "userdoc": {
    "kind": "user",
    "methods": {},
    "version": 1
  }
}