{
    "contractName": "Auth",
    "abi": [
        {
            "inputs": [],
            "stateMutability": "nonpayable",
            "type": "constructor"
        },
        {
            "inputs": [
                {
                    "internalType": "address",
                    "name": "user",
                    "type": "address"
                }
            ],
            "name": "isAdministrator",
            "outputs": [
                {
                    "internalType": "bool",
                    "name": "",
                    "type": "bool"
                }
            ],
            "stateMutability": "view",
            "type": "function"
        }
    ],
    "bytecode": "6080604052348015600f57600080fd5b50600080546001600160a01b0319163317905560ae806100306000396000f3fe6080604052348015600f57600080fd5b506004361060285760003560e01c80630a2eb30114602d575b600080fd5b605060048036036020811015604157600080fd5b50356001600160a01b03166064565b604080519115158252519081900360200190f35b6000546001600160a01b039081169116149056fea26469706673582212207d38f06f3b22958e4d4a8c036107c50407918aa5ca7334031463ef62372beb9d64736f6c63430007040033",
    "sourcePath": "d:/GitHub/supplychain_blockchain/tat_contract/contracts/access-control/Auth.sol",
    "compiler": {
        "name": "solc",
        "version": "0.7.4+commit.3f05b770"
    },
    "functionHashes": {
        "isAdministrator(address)": "0a2eb301"
    },
    "gasEstimates": {
        "creation": {
            "codeDepositCost": "34800",
            "executionCost": "20922",
            "totalCost": "55722"
        },
        "external": {
            "isAdministrator(address)": "1075"
        }
    }
}