{
    "contractName": "ActivityContract",
    "abi": [
        {
            "anonymous": false,
            "inputs": [
                {
                    "indexed": false,
                    "internalType": "bytes32",
                    "name": "objId",
                    "type": "bytes32"
                }
            ],
            "name": "Created",
            "type": "event"
        },
        {
            "anonymous": false,
            "inputs": [
                {
                    "indexed": false,
                    "internalType": "bytes32",
                    "name": "objId",
                    "type": "bytes32"
                }
            ],
            "name": "Updated",
            "type": "event"
        },
        {
            "inputs": [
                {
                    "internalType": "string",
                    "name": "_name",
                    "type": "string"
                },
                {
                    "internalType": "bytes32",
                    "name": "_organizationTypeId",
                    "type": "bytes32"
                },
                {
                    "internalType": "string",
                    "name": "_customJsonData",
                    "type": "string"
                }
            ],
            "name": "create",
            "outputs": [
                {
                    "internalType": "bytes32",
                    "name": "objId",
                    "type": "bytes32"
                }
            ],
            "stateMutability": "nonpayable",
            "type": "function"
        },
        {
            "inputs": [
                {
                    "internalType": "uint256",
                    "name": "",
                    "type": "uint256"
                }
            ],
            "name": "dataList",
            "outputs": [
                {
                    "internalType": "bytes32",
                    "name": "",
                    "type": "bytes32"
                }
            ],
            "stateMutability": "view",
            "type": "function"
        },
        {
            "inputs": [
                {
                    "internalType": "bytes32",
                    "name": "",
                    "type": "bytes32"
                }
            ],
            "name": "dataMap",
            "outputs": [
                {
                    "internalType": "bytes32",
                    "name": "activityId",
                    "type": "bytes32"
                },
                {
                    "internalType": "string",
                    "name": "name",
                    "type": "string"
                },
                {
                    "internalType": "bytes32",
                    "name": "organizationTypeId",
                    "type": "bytes32"
                },
                {
                    "internalType": "bool",
                    "name": "isActive",
                    "type": "bool"
                },
                {
                    "internalType": "string",
                    "name": "customJsonData",
                    "type": "string"
                }
            ],
            "stateMutability": "view",
            "type": "function"
        },
        {
            "inputs": [],
            "name": "getAll",
            "outputs": [
                {
                    "internalType": "bytes32[]",
                    "name": "ids",
                    "type": "bytes32[]"
                }
            ],
            "stateMutability": "view",
            "type": "function"
        },
        {
            "inputs": [
                {
                    "internalType": "bytes32",
                    "name": "objId",
                    "type": "bytes32"
                }
            ],
            "name": "getById",
            "outputs": [
                {
                    "internalType": "bytes32",
                    "name": "id",
                    "type": "bytes32"
                },
                {
                    "internalType": "string",
                    "name": "name",
                    "type": "string"
                },
                {
                    "internalType": "bytes32",
                    "name": "organizationTypeId",
                    "type": "bytes32"
                },
                {
                    "internalType": "bool",
                    "name": "isActive",
                    "type": "bool"
                },
                {
                    "internalType": "string",
                    "name": "customJsonData",
                    "type": "string"
                }
            ],
            "stateMutability": "view",
            "type": "function"
        },
        {
            "inputs": [
                {
                    "internalType": "bytes32",
                    "name": "objId",
                    "type": "bytes32"
                },
                {
                    "internalType": "string",
                    "name": "_name",
                    "type": "string"
                },
                {
                    "internalType": "bytes32",
                    "name": "_organizationTypeId",
                    "type": "bytes32"
                },
                {
                    "internalType": "string",
                    "name": "_customJsonData",
                    "type": "string"
                },
                {
                    "internalType": "bool",
                    "name": "_isActive",
                    "type": "bool"
                }
            ],
            "name": "update",
            "outputs": [],
            "stateMutability": "nonpayable",
            "type": "function"
        },
        {
            "inputs": [],
            "name": "version",
            "outputs": [
                {
                    "internalType": "uint256",
                    "name": "",
                    "type": "uint256"
                }
            ],
            "stateMutability": "view",
            "type": "function"
        }
    ],
    "bytecode": "6080604052600160005534801561001557600080fd5b50610a2d806100256000396000f3fe608060405234801561001057600080fd5b506004361061007d5760003560e01c806354fd4d501161005b57806354fd4d50146102095780639e59163c14610223578063af4a74cf14610354578063f716bc25146103715761007d565b80632dff0d0d1461008257806346bcad621461019457806353ed5143146101b1575b600080fd5b61009f6004803603602081101561009857600080fd5b50356104ad565b6040518086815260200180602001858152602001841515815260200180602001838103835287818151815260200191508051906020019080838360005b838110156100f45781810151838201526020016100dc565b50505050905090810190601f1680156101215780820380516001836020036101000a031916815260200191505b50838103825284518152845160209182019186019080838360005b8381101561015457818101518382015260200161013c565b50505050905090810190601f1680156101815780820380516001836020036101000a031916815260200191505b5097505050505050505060405180910390f35b61009f600480360360208110156101aa57600080fd5b503561060d565b6101b9610757565b60408051602080825283518183015283519192839290830191858101910280838360005b838110156101f55781810151838201526020016101dd565b505050509050019250505060405180910390f35b6102116107af565b60408051918252519081900360200190f35b6102116004803603606081101561023957600080fd5b810190602081018135600160201b81111561025357600080fd5b82018360208201111561026557600080fd5b803590602001918460018302840111600160201b8311171561028657600080fd5b91908080601f01602080910402602001604051908101604052809392919081815260200183838082843760009201919091525092958435959094909350604081019250602001359050600160201b8111156102e057600080fd5b8201836020820111156102f257600080fd5b803590602001918460018302840111600160201b8311171561031357600080fd5b91908080601f0160208091040260200160405190810160405280939291908181526020018383808284376000920191909152509295506107b5945050505050565b6102116004803603602081101561036a57600080fd5b50356108a7565b6104ab600480360360a081101561038757600080fd5b81359190810190604081016020820135600160201b8111156103a857600080fd5b8201836020820111156103ba57600080fd5b803590602001918460018302840111600160201b831117156103db57600080fd5b91908080601f01602080910402602001604051908101604052809392919081815260200183838082843760009201919091525092958435959094909350604081019250602001359050600160201b81111561043557600080fd5b82018360208201111561044757600080fd5b803590602001918460018302840111600160201b8311171561046857600080fd5b91908080601f01602080910402602001604051908101604052809392919081815260200183838082843760009201919091525092955050505035151590506108c8565b005b600081815260016020818152604080842080546002808301546003840154848801805487516101009a8216159a909a02600019011693909304601f8101889004880289018801909652858852606097899788978a979695949360ff16926004880192909186918301828280156105645780601f1061053957610100808354040283529160200191610564565b820191906000526020600020905b81548152906001019060200180831161054757829003601f168201915b5050845460408051602060026001851615610100026000190190941693909304601f8101849004840282018401909252818152959950869450925084019050828280156105f25780601f106105c7576101008083540402835291602001916105f2565b820191906000526020600020905b8154815290600101906020018083116105d557829003601f168201915b50505050509050955095509550955095505091939590929450565b600160208181526000928352604092839020805481840180548651600296821615610100026000190190911695909504601f810185900485028601850190965285855290949193929091908301828280156106a95780601f1061067e576101008083540402835291602001916106a9565b820191906000526020600020905b81548152906001019060200180831161068c57829003601f168201915b5050505060028381015460038501546004860180546040805160206101006001851615026000190190931696909604601f81018390048302870183019091528086529697939660ff909316955092939290919083018282801561074d5780601f106107225761010080835404028352916020019161074d565b820191906000526020600020905b81548152906001019060200180831161073057829003601f168201915b5050505050905085565b606060028054806020026020016040519081016040528092919081815260200182805480156107a557602002820191906000526020600020905b815481526020019060010190808311610791575b5050505050905090565b60005481565b60408051426020808301919091524482840152825180830384018152606090920183528151918101919091206000818152600180845293812082815587519194929390926108099290840191890190610956565b506002810185905560038101805460ff1916600117905583516108359060048301906020870190610956565b50600280546001810182556000919091527f405787fa12a823e0f2b7631cc41b3ba8828b3321ca811111fa75cd3aa3bb5ace018290556040805183815290517f102d25c49d33fcdb8976a3f2744e0785c98d9e43b88364859e6aec4ae82eff5c9181900360200190a150949350505050565b600281815481106108b757600080fd5b600091825260209091200154905081565b600085815260016020818152604090922060028101869055865190926108f49284019190880190610956565b5060038101805460ff1916831515179055825161091a9060048301906020860190610956565b506040805187815290517fae7f59c2ef152eb4d4f56fcc655f53926d60b7e58e08ec8c79387e25adbf33319181900360200190a1505050505050565b828054600181600116156101000203166002900490600052602060002090601f01602090048101928261098c57600085556109d2565b82601f106109a557805160ff19168380011785556109d2565b828001600101855582156109d2579182015b828111156109d25782518255916020019190600101906109b7565b506109de9291506109e2565b5090565b5b808211156109de57600081556001016109e356fea264697066735822122099b16a0188f5942d7757173cdc649ef612f5aa995f7d3b3d001dadf48ae581ed64736f6c63430007040033",
    "sourcePath": "d:/GitHub/supplychain_blockchain/tat_contract/contracts/ActivityContract.sol",
    "compiler": {
        "name": "solc",
        "version": "0.7.4+commit.3f05b770"
    },
    "functionHashes": {
        "create(string,bytes32,string)": "9e59163c",
        "dataList(uint256)": "af4a74cf",
        "dataMap(bytes32)": "46bcad62",
        "getAll()": "53ed5143",
        "getById(bytes32)": "2dff0d0d",
        "update(bytes32,string,bytes32,string,bool)": "f716bc25",
        "version()": "54fd4d50"
    },
    "gasEstimates": {
        "creation": {
            "codeDepositCost": "521000",
            "executionCost": "20562",
            "totalCost": "541562"
        },
        "external": {
            "create(string,bytes32,string)": "infinite",
            "dataList(uint256)": "1975",
            "dataMap(bytes32)": "infinite",
            "getAll()": "infinite",
            "getById(bytes32)": "infinite",
            "update(bytes32,string,bytes32,string,bool)": "infinite",
            "version()": "998"
        }
    }
}