{
    "contractName": "AreaContract",
    "abi": [
        {
            "anonymous": false,
            "inputs": [
                {
                    "indexed": false,
                    "internalType": "bytes32",
                    "name": "objId",
                    "type": "bytes32"
                }
            ],
            "name": "Created",
            "type": "event"
        },
        {
            "anonymous": false,
            "inputs": [
                {
                    "indexed": false,
                    "internalType": "bytes32",
                    "name": "objId",
                    "type": "bytes32"
                }
            ],
            "name": "Updated",
            "type": "event"
        },
        {
            "inputs": [
                {
                    "internalType": "string",
                    "name": "_name",
                    "type": "string"
                },
                {
                    "internalType": "bytes32",
                    "name": "_organizationId",
                    "type": "bytes32"
                },
                {
                    "internalType": "string",
                    "name": "_customJsonData",
                    "type": "string"
                }
            ],
            "name": "create",
            "outputs": [
                {
                    "internalType": "bytes32",
                    "name": "objId",
                    "type": "bytes32"
                }
            ],
            "stateMutability": "nonpayable",
            "type": "function"
        },
        {
            "inputs": [
                {
                    "internalType": "uint256",
                    "name": "",
                    "type": "uint256"
                }
            ],
            "name": "dataList",
            "outputs": [
                {
                    "internalType": "bytes32",
                    "name": "",
                    "type": "bytes32"
                }
            ],
            "stateMutability": "view",
            "type": "function"
        },
        {
            "inputs": [
                {
                    "internalType": "bytes32",
                    "name": "",
                    "type": "bytes32"
                }
            ],
            "name": "dataMap",
            "outputs": [
                {
                    "internalType": "bytes32",
                    "name": "areaId",
                    "type": "bytes32"
                },
                {
                    "internalType": "string",
                    "name": "name",
                    "type": "string"
                },
                {
                    "internalType": "bytes32",
                    "name": "organizationId",
                    "type": "bytes32"
                },
                {
                    "internalType": "bool",
                    "name": "isActive",
                    "type": "bool"
                },
                {
                    "internalType": "string",
                    "name": "customJsonData",
                    "type": "string"
                }
            ],
            "stateMutability": "view",
            "type": "function"
        },
        {
            "inputs": [
                {
                    "internalType": "bytes32",
                    "name": "objId",
                    "type": "bytes32"
                }
            ],
            "name": "getById",
            "outputs": [
                {
                    "internalType": "bytes32",
                    "name": "id",
                    "type": "bytes32"
                },
                {
                    "internalType": "string",
                    "name": "name",
                    "type": "string"
                },
                {
                    "internalType": "bytes32",
                    "name": "organizationId",
                    "type": "bytes32"
                },
                {
                    "internalType": "bool",
                    "name": "isActive",
                    "type": "bool"
                },
                {
                    "internalType": "string",
                    "name": "customJsonData",
                    "type": "string"
                }
            ],
            "stateMutability": "view",
            "type": "function"
        },
        {
            "inputs": [
                {
                    "internalType": "bytes32",
                    "name": "objId",
                    "type": "bytes32"
                },
                {
                    "internalType": "string",
                    "name": "_name",
                    "type": "string"
                },
                {
                    "internalType": "bytes32",
                    "name": "_organizationId",
                    "type": "bytes32"
                },
                {
                    "internalType": "string",
                    "name": "_customJsonData",
                    "type": "string"
                },
                {
                    "internalType": "bool",
                    "name": "_isActive",
                    "type": "bool"
                }
            ],
            "name": "update",
            "outputs": [],
            "stateMutability": "nonpayable",
            "type": "function"
        }
    ],
    "bytecode": "608060405234801561001057600080fd5b50610947806100206000396000f3fe608060405234801561001057600080fd5b50600436106100575760003560e01c80632dff0d0d1461005c57806346bcad621461016e5780639e59163c1461018b578063af4a74cf146102ce578063f716bc25146102eb575b600080fd5b6100796004803603602081101561007257600080fd5b5035610427565b6040518086815260200180602001858152602001841515815260200180602001838103835287818151815260200191508051906020019080838360005b838110156100ce5781810151838201526020016100b6565b50505050905090810190601f1680156100fb5780820380516001836020036101000a031916815260200191505b50838103825284518152845160209182019186019080838360005b8381101561012e578181015183820152602001610116565b50505050905090810190601f16801561015b5780820380516001836020036101000a031916815260200191505b5097505050505050505060405180910390f35b6100796004803603602081101561018457600080fd5b503561058b565b6102bc600480360360608110156101a157600080fd5b810190602081018135600160201b8111156101bb57600080fd5b8201836020820111156101cd57600080fd5b803590602001918460018302840111600160201b831117156101ee57600080fd5b91908080601f01602080910402602001604051908101604052809392919081815260200183838082843760009201919091525092958435959094909350604081019250602001359050600160201b81111561024857600080fd5b82018360208201111561025a57600080fd5b803590602001918460018302840111600160201b8311171561027b57600080fd5b91908080601f0160208091040260200160405190810160405280939291908181526020018383808284376000920191909152509295506106d3945050505050565b60408051918252519081900360200190f35b6102bc600480360360208110156102e457600080fd5b50356107c2565b610425600480360360a081101561030157600080fd5b81359190810190604081016020820135600160201b81111561032257600080fd5b82018360208201111561033457600080fd5b803590602001918460018302840111600160201b8311171561035557600080fd5b91908080601f01602080910402602001604051908101604052809392919081815260200183838082843760009201919091525092958435959094909350604081019250602001359050600160201b8111156103af57600080fd5b8201836020820111156103c157600080fd5b803590602001918460018302840111600160201b831117156103e257600080fd5b91908080601f01602080910402602001604051908101604052809392919081815260200183838082843760009201919091525092955050505035151590506107e3565b005b600081815260208181526040808320805460028083015460038401546001808601805488516101009382161593909302600019011694909404601f8101899004890282018901909752868152606097899788978a97909690959094909360ff90911692600488019286918301828280156104e25780601f106104b7576101008083540402835291602001916104e2565b820191906000526020600020905b8154815290600101906020018083116104c557829003601f168201915b5050845460408051602060026001851615610100026000190190941693909304601f8101849004840282018401909252818152959950869450925084019050828280156105705780601f1061054557610100808354040283529160200191610570565b820191906000526020600020905b81548152906001019060200180831161055357829003601f168201915b50505050509050955095509550955095505091939590929450565b600060208181529181526040908190208054600180830180548551600293821615610100026000190190911692909204601f81018790048702830187019095528482529194929390928301828280156106255780601f106105fa57610100808354040283529160200191610625565b820191906000526020600020905b81548152906001019060200180831161060857829003601f168201915b5050505060028381015460038501546004860180546040805160206101006001851615026000190190931696909604601f81018390048302870183019091528086529697939660ff90931695509293929091908301828280156106c95780601f1061069e576101008083540402835291602001916106c9565b820191906000526020600020905b8154815290600101906020018083116106ac57829003601f168201915b5050505050905085565b6040805142602080830191909152448284015282518083038401815260609092018352815191810191909120600081815280835292832081815586519192909161072591600184019190890190610870565b506002810185905560038101805460ff1916600117905583516107519060048301906020870190610870565b506001805480820182556000919091527fb10e2d527612073b26eecdfd717e6a320cf44b4afac2b0732d9fcbe2b7fa0cf6018290556040805183815290517f102d25c49d33fcdb8976a3f2744e0785c98d9e43b88364859e6aec4ae82eff5c9181900360200190a150949350505050565b600181815481106107d257600080fd5b600091825260209091200154905081565b600085815260208181526040909120600281018590558551909161080e916001840191880190610870565b5060038101805460ff191683151517905582516108349060048301906020860190610870565b506040805187815290517fae7f59c2ef152eb4d4f56fcc655f53926d60b7e58e08ec8c79387e25adbf33319181900360200190a1505050505050565b828054600181600116156101000203166002900490600052602060002090601f0160209004810192826108a657600085556108ec565b82601f106108bf57805160ff19168380011785556108ec565b828001600101855582156108ec579182015b828111156108ec5782518255916020019190600101906108d1565b506108f89291506108fc565b5090565b5b808211156108f857600081556001016108fd56fea26469706673582212207a554bbdc5caf33cdf2f74aaeb25fdad450df203ee01151922d765c749dcf69864736f6c63430007040033",
    "sourcePath": "d:/GitHub/supplychain_blockchain/tat_contract/contracts/AreaContract.sol",
    "compiler": {
        "name": "solc",
        "version": "0.7.4+commit.3f05b770"
    },
    "functionHashes": {
        "create(string,bytes32,string)": "9e59163c",
        "dataList(uint256)": "af4a74cf",
        "dataMap(bytes32)": "46bcad62",
        "getById(bytes32)": "2dff0d0d",
        "update(bytes32,string,bytes32,string,bool)": "f716bc25"
    },
    "gasEstimates": {
        "creation": {
            "codeDepositCost": "475000",
            "executionCost": "511",
            "totalCost": "475511"
        },
        "external": {
            "create(string,bytes32,string)": "infinite",
            "dataList(uint256)": "1975",
            "dataMap(bytes32)": "infinite",
            "getById(bytes32)": "infinite",
            "update(bytes32,string,bytes32,string,bool)": "infinite"
        }
    }
}