{
    "contractName": "CategoryContract",
    "abi": [
        {
            "anonymous": false,
            "inputs": [
                {
                    "indexed": false,
                    "internalType": "bytes32",
                    "name": "objId",
                    "type": "bytes32"
                }
            ],
            "name": "Created",
            "type": "event"
        },
        {
            "anonymous": false,
            "inputs": [
                {
                    "indexed": false,
                    "internalType": "bytes32",
                    "name": "objId",
                    "type": "bytes32"
                }
            ],
            "name": "Updated",
            "type": "event"
        },
        {
            "inputs": [
                {
                    "internalType": "string",
                    "name": "_name",
                    "type": "string"
                },
                {
                    "internalType": "string",
                    "name": "_customJsonData",
                    "type": "string"
                }
            ],
            "name": "create",
            "outputs": [
                {
                    "internalType": "bytes32",
                    "name": "objId",
                    "type": "bytes32"
                }
            ],
            "stateMutability": "nonpayable",
            "type": "function"
        },
        {
            "inputs": [
                {
                    "internalType": "uint256",
                    "name": "",
                    "type": "uint256"
                }
            ],
            "name": "dataList",
            "outputs": [
                {
                    "internalType": "bytes32",
                    "name": "",
                    "type": "bytes32"
                }
            ],
            "stateMutability": "view",
            "type": "function"
        },
        {
            "inputs": [
                {
                    "internalType": "bytes32",
                    "name": "",
                    "type": "bytes32"
                }
            ],
            "name": "dataMap",
            "outputs": [
                {
                    "internalType": "bytes32",
                    "name": "categoryId",
                    "type": "bytes32"
                },
                {
                    "internalType": "string",
                    "name": "name",
                    "type": "string"
                },
                {
                    "internalType": "bool",
                    "name": "isActive",
                    "type": "bool"
                },
                {
                    "internalType": "string",
                    "name": "customJsonData",
                    "type": "string"
                }
            ],
            "stateMutability": "view",
            "type": "function"
        },
        {
            "inputs": [
                {
                    "internalType": "bytes32",
                    "name": "objId",
                    "type": "bytes32"
                }
            ],
            "name": "getById",
            "outputs": [
                {
                    "internalType": "bytes32",
                    "name": "id",
                    "type": "bytes32"
                },
                {
                    "internalType": "string",
                    "name": "name",
                    "type": "string"
                },
                {
                    "internalType": "bool",
                    "name": "isActive",
                    "type": "bool"
                },
                {
                    "internalType": "string",
                    "name": "customJsonData",
                    "type": "string"
                }
            ],
            "stateMutability": "view",
            "type": "function"
        },
        {
            "inputs": [
                {
                    "internalType": "bytes32",
                    "name": "objId",
                    "type": "bytes32"
                },
                {
                    "internalType": "string",
                    "name": "_name",
                    "type": "string"
                },
                {
                    "internalType": "string",
                    "name": "_customJsonData",
                    "type": "string"
                },
                {
                    "internalType": "bool",
                    "name": "_isActive",
                    "type": "bool"
                }
            ],
            "name": "update",
            "outputs": [],
            "stateMutability": "nonpayable",
            "type": "function"
        },
        {
            "inputs": [],
            "name": "version",
            "outputs": [
                {
                    "internalType": "uint256",
                    "name": "",
                    "type": "uint256"
                }
            ],
            "stateMutability": "view",
            "type": "function"
        }
    ],
    "bytecode": "6080604052600160005534801561001557600080fd5b50610926806100256000396000f3fe608060405234801561001057600080fd5b50600436106100625760003560e01c8063198e2b8a146100675780632dff0d0d146101a257806346bcad62146102ad57806354fd4d50146102ca578063af4a74cf146102d2578063d8c72d5d146102ef575b600080fd5b6101906004803603604081101561007d57600080fd5b810190602081018135600160201b81111561009757600080fd5b8201836020820111156100a957600080fd5b803590602001918460018302840111600160201b831117156100ca57600080fd5b91908080601f0160208091040260200160405190810160405280939291908181526020018383808284376000920191909152509295949360208101935035915050600160201b81111561011c57600080fd5b82018360208201111561012e57600080fd5b803590602001918460018302840111600160201b8311171561014f57600080fd5b91908080601f016020809104026020016040519081016040528093929190818152602001838380828437600092019190915250929550610423945050505050565b60408051918252519081900360200190f35b6101bf600480360360208110156101b857600080fd5b503561050d565b6040518085815260200180602001841515815260200180602001838103835286818151815260200191508051906020019080838360005b8381101561020e5781810151838201526020016101f6565b50505050905090810190601f16801561023b5780820380516001836020036101000a031916815260200191505b50838103825284518152845160209182019186019080838360005b8381101561026e578181015183820152602001610256565b50505050905090810190601f16801561029b5780820380516001836020036101000a031916815260200191505b50965050505050505060405180910390f35b6101bf600480360360208110156102c357600080fd5b5035610660565b6101906107a2565b610190600480360360208110156102e857600080fd5b50356107a8565b6104216004803603608081101561030557600080fd5b81359190810190604081016020820135600160201b81111561032657600080fd5b82018360208201111561033857600080fd5b803590602001918460018302840111600160201b8311171561035957600080fd5b91908080601f0160208091040260200160405190810160405280939291908181526020018383808284376000920191909152509295949360208101935035915050600160201b8111156103ab57600080fd5b8201836020820111156103bd57600080fd5b803590602001918460018302840111600160201b831117156103de57600080fd5b91908080601f01602080910402602001604051908101604052809392919081815260200183838082843760009201919091525092955050505035151590506107c9565b005b6040805142602080830191909152448284015282518083038401815260609092018352815191810191909120600081815260018084529381208281558651919492939092610477929084019188019061084f565b5060028101805460ff19166001179055835161049c906003830190602087019061084f565b50600280546001810182556000919091527f405787fa12a823e0f2b7631cc41b3ba8828b3321ca811111fa75cd3aa3bb5ace018290556040805183815290517f102d25c49d33fcdb8976a3f2744e0785c98d9e43b88364859e6aec4ae82eff5c9181900360200190a1509392505050565b60008181526001602081815260408084208054600280830154838701805486516101009982161599909902600019011692909204601f81018790048702880187019095528487526060968896889660ff909316926003870192918591908301828280156105bb5780601f10610590576101008083540402835291602001916105bb565b820191906000526020600020905b81548152906001019060200180831161059e57829003601f168201915b5050845460408051602060026001851615610100026000190190941693909304601f8101849004840282018401909252818152959850869450925084019050828280156106495780601f1061061e57610100808354040283529160200191610649565b820191906000526020600020905b81548152906001019060200180831161062c57829003601f168201915b505050505090509450945094509450509193509193565b600160208181526000928352604092839020805481840180548651600296821615610100026000190190911695909504601f810185900485028601850190965285855290949193929091908301828280156106fc5780601f106106d1576101008083540402835291602001916106fc565b820191906000526020600020905b8154815290600101906020018083116106df57829003601f168201915b505050506002838101546003850180546040805160206101006001851615026000190190931695909504601f8101839004830286018301909152808552959660ff909316959294509091908301828280156107985780601f1061076d57610100808354040283529160200191610798565b820191906000526020600020905b81548152906001019060200180831161077b57829003601f168201915b5050505050905084565b60005481565b600281815481106107b857600080fd5b600091825260209091200154905081565b6000848152600160208181526040909220855190926107ee928401919087019061084f565b5060028101805460ff19168315151790558251610814906003830190602086019061084f565b506040805186815290517fae7f59c2ef152eb4d4f56fcc655f53926d60b7e58e08ec8c79387e25adbf33319181900360200190a15050505050565b828054600181600116156101000203166002900490600052602060002090601f01602090048101928261088557600085556108cb565b82601f1061089e57805160ff19168380011785556108cb565b828001600101855582156108cb579182015b828111156108cb5782518255916020019190600101906108b0565b506108d79291506108db565b5090565b5b808211156108d757600081556001016108dc56fea264697066735822122074f4765613c5b2552a514d7d4305bbd5280aa346bb03441a89555131690603e364736f6c63430007040033",
    "sourcePath": "d:/GitHub/supplychain_blockchain/tat_contract/contracts/CategoryContract.sol",
    "compiler": {
        "name": "solc",
        "version": "0.7.4+commit.3f05b770"
    },
    "functionHashes": {
        "create(string,string)": "198e2b8a",
        "dataList(uint256)": "af4a74cf",
        "dataMap(bytes32)": "46bcad62",
        "getById(bytes32)": "2dff0d0d",
        "update(bytes32,string,string,bool)": "d8c72d5d",
        "version()": "54fd4d50"
    },
    "gasEstimates": {
        "creation": {
            "codeDepositCost": "468400",
            "executionCost": "20511",
            "totalCost": "488911"
        },
        "external": {
            "create(string,string)": "infinite",
            "dataList(uint256)": "1997",
            "dataMap(bytes32)": "infinite",
            "getById(bytes32)": "infinite",
            "update(bytes32,string,string,bool)": "infinite",
            "version()": "1042"
        }
    }
}