{
    "contractName": "OrganizationTypeContract",
    "abi": [
        {
            "anonymous": false,
            "inputs": [
                {
                    "indexed": false,
                    "internalType": "bytes32",
                    "name": "objId",
                    "type": "bytes32"
                }
            ],
            "name": "Created",
            "type": "event"
        },
        {
            "anonymous": false,
            "inputs": [
                {
                    "indexed": false,
                    "internalType": "bytes32",
                    "name": "objId",
                    "type": "bytes32"
                }
            ],
            "name": "Updated",
            "type": "event"
        },
        {
            "inputs": [
                {
                    "internalType": "string",
                    "name": "_name",
                    "type": "string"
                },
                {
                    "internalType": "string",
                    "name": "_customJsonData",
                    "type": "string"
                }
            ],
            "name": "create",
            "outputs": [
                {
                    "internalType": "bytes32",
                    "name": "objId",
                    "type": "bytes32"
                }
            ],
            "stateMutability": "nonpayable",
            "type": "function"
        },
        {
            "inputs": [
                {
                    "internalType": "uint256",
                    "name": "",
                    "type": "uint256"
                }
            ],
            "name": "dataList",
            "outputs": [
                {
                    "internalType": "bytes32",
                    "name": "",
                    "type": "bytes32"
                }
            ],
            "stateMutability": "view",
            "type": "function"
        },
        {
            "inputs": [
                {
                    "internalType": "bytes32",
                    "name": "",
                    "type": "bytes32"
                }
            ],
            "name": "dataMap",
            "outputs": [
                {
                    "internalType": "bytes32",
                    "name": "organizationTypeId",
                    "type": "bytes32"
                },
                {
                    "internalType": "string",
                    "name": "name",
                    "type": "string"
                },
                {
                    "internalType": "bool",
                    "name": "isActive",
                    "type": "bool"
                },
                {
                    "internalType": "string",
                    "name": "customJsonData",
                    "type": "string"
                }
            ],
            "stateMutability": "view",
            "type": "function"
        },
        {
            "inputs": [
                {
                    "internalType": "bytes32",
                    "name": "objId",
                    "type": "bytes32"
                }
            ],
            "name": "getById",
            "outputs": [
                {
                    "internalType": "bytes32",
                    "name": "id",
                    "type": "bytes32"
                },
                {
                    "internalType": "string",
                    "name": "name",
                    "type": "string"
                },
                {
                    "internalType": "string",
                    "name": "customJsonData",
                    "type": "string"
                }
            ],
            "stateMutability": "view",
            "type": "function"
        },
        {
            "inputs": [
                {
                    "internalType": "bytes32",
                    "name": "objId",
                    "type": "bytes32"
                },
                {
                    "internalType": "string",
                    "name": "_name",
                    "type": "string"
                },
                {
                    "internalType": "string",
                    "name": "_customJsonData",
                    "type": "string"
                },
                {
                    "internalType": "bool",
                    "name": "_isActive",
                    "type": "bool"
                }
            ],
            "name": "update",
            "outputs": [],
            "stateMutability": "nonpayable",
            "type": "function"
        }
    ],
    "bytecode": "608060405234801561001057600080fd5b506109e1806100206000396000f3fe608060405234801561001057600080fd5b50600436106100575760003560e01c8063198e2b8a1461005c5780632dff0d0d1461019757806346bcad6214610299578063af4a74cf146103a4578063d8c72d5d146103c1575b600080fd5b6101856004803603604081101561007257600080fd5b810190602081018135600160201b81111561008c57600080fd5b82018360208201111561009e57600080fd5b803590602001918460018302840111600160201b831117156100bf57600080fd5b91908080601f0160208091040260200160405190810160405280939291908181526020018383808284376000920191909152509295949360208101935035915050600160201b81111561011157600080fd5b82018360208201111561012357600080fd5b803590602001918460018302840111600160201b8311171561014457600080fd5b91908080601f0160208091040260200160405190810160405280939291908181526020018383808284376000920191909152509295506104f5945050505050565b60408051918252519081900360200190f35b6101b4600480360360208110156101ad57600080fd5b50356105dd565b604051808481526020018060200180602001838103835285818151815260200191508051906020019080838360005b838110156101fb5781810151838201526020016101e3565b50505050905090810190601f1680156102285780820380516001836020036101000a031916815260200191505b50838103825284518152845160209182019186019080838360005b8381101561025b578181015183820152602001610243565b50505050905090810190601f1680156102885780820380516001836020036101000a031916815260200191505b509550505050505060405180910390f35b6102b6600480360360208110156102af57600080fd5b5035610724565b6040518085815260200180602001841515815260200180602001838103835286818151815260200191508051906020019080838360005b838110156103055781810151838201526020016102ed565b50505050905090810190601f1680156103325780820380516001836020036101000a031916815260200191505b50838103825284518152845160209182019186019080838360005b8381101561036557818101518382015260200161034d565b50505050905090810190601f1680156103925780820380516001836020036101000a031916815260200191505b50965050505050505060405180910390f35b610185600480360360208110156103ba57600080fd5b5035610864565b6104f3600480360360808110156103d757600080fd5b81359190810190604081016020820135600160201b8111156103f857600080fd5b82018360208201111561040a57600080fd5b803590602001918460018302840111600160201b8311171561042b57600080fd5b91908080601f0160208091040260200160405190810160405280939291908181526020018383808284376000920191909152509295949360208101935035915050600160201b81111561047d57600080fd5b82018360208201111561048f57600080fd5b803590602001918460018302840111600160201b831117156104b057600080fd5b91908080601f0160208091040260200160405190810160405280939291908181526020018383808284376000920191909152509295505050503515159050610885565b005b6040805142602080830191909152448284015282518083038401815260609092018352815191810191909120600081815280835292832081815560028101805460ff19166001908117909155865192939192610557929184019188019061090a565b50835161056d906003830190602087019061090a565b506001805480820182556000919091527fb10e2d527612073b26eecdfd717e6a320cf44b4afac2b0732d9fcbe2b7fa0cf6018290556040805183815290517f102d25c49d33fcdb8976a3f2744e0785c98d9e43b88364859e6aec4ae82eff5c9181900360200190a1509392505050565b6000818152602081815260408083208054600180830180548551600293821615610100026000190190911692909204601f810187900487028301870190955284825260609586959192600386019290918491908301828280156106815780601f1061065657610100808354040283529160200191610681565b820191906000526020600020905b81548152906001019060200180831161066457829003601f168201915b5050845460408051602060026001851615610100026000190190941693909304601f81018490048402820184019092528181529597508694509250840190508282801561070f5780601f106106e45761010080835404028352916020019161070f565b820191906000526020600020905b8154815290600101906020018083116106f257829003601f168201915b50505050509050935093509350509193909250565b600060208181529181526040908190208054600180830180548551600293821615610100026000190190911692909204601f81018790048702830187019095528482529194929390928301828280156107be5780601f10610793576101008083540402835291602001916107be565b820191906000526020600020905b8154815290600101906020018083116107a157829003601f168201915b505050506002838101546003850180546040805160206101006001851615026000190190931695909504601f8101839004830286018301909152808552959660ff9093169592945090919083018282801561085a5780601f1061082f5761010080835404028352916020019161085a565b820191906000526020600020905b81548152906001019060200180831161083d57829003601f168201915b5050505050905084565b6001818154811061087457600080fd5b600091825260209091200154905081565b600084815260208181526040909120845190916108a991600184019187019061090a565b5060028101805460ff191683151517905582516108cf906003830190602086019061090a565b506040805186815290517fae7f59c2ef152eb4d4f56fcc655f53926d60b7e58e08ec8c79387e25adbf33319181900360200190a15050505050565b828054600181600116156101000203166002900490600052602060002090601f0160209004810192826109405760008555610986565b82601f1061095957805160ff1916838001178555610986565b82800160010185558215610986579182015b8281111561098657825182559160200191906001019061096b565b50610992929150610996565b5090565b5b80821115610992576000815560010161099756fea2646970667358221220e0879455b0dba0b45bdcd74ca6adb4f57c0512b8df364b95c80fb8d9072ee79364736f6c63430007040033",
    "sourcePath": "d:/GitHub/supplychain_blockchain/tat_contract/contracts/OrganizationTypeContract.sol",
    "compiler": {
        "name": "solc",
        "version": "0.7.4+commit.3f05b770"
    },
    "functionHashes": {
        "create(string,string)": "198e2b8a",
        "dataList(uint256)": "af4a74cf",
        "dataMap(bytes32)": "46bcad62",
        "getById(bytes32)": "2dff0d0d",
        "update(bytes32,string,string,bool)": "d8c72d5d"
    },
    "gasEstimates": {
        "creation": {
            "codeDepositCost": "505800",
            "executionCost": "543",
            "totalCost": "506343"
        },
        "external": {
            "create(string,string)": "infinite",
            "dataList(uint256)": "1975",
            "dataMap(bytes32)": "infinite",
            "getById(bytes32)": "infinite",
            "update(bytes32,string,string,bool)": "infinite"
        }
    }
}