{
    "contractName": "OrganizationContract",
    "abi": [
        {
            "anonymous": false,
            "inputs": [
                {
                    "indexed": false,
                    "internalType": "bytes32",
                    "name": "objId",
                    "type": "bytes32"
                }
            ],
            "name": "Created",
            "type": "event"
        },
        {
            "anonymous": false,
            "inputs": [
                {
                    "indexed": false,
                    "internalType": "bytes32",
                    "name": "objId",
                    "type": "bytes32"
                }
            ],
            "name": "Updated",
            "type": "event"
        },
        {
            "inputs": [
                {
                    "internalType": "string",
                    "name": "_name",
                    "type": "string"
                },
                {
                    "internalType": "bytes32[]",
                    "name": "_organizationTypeIdList",
                    "type": "bytes32[]"
                },
                {
                    "internalType": "string",
                    "name": "_organizationAddress",
                    "type": "string"
                },
                {
                    "internalType": "string",
                    "name": "_customJsonData",
                    "type": "string"
                }
            ],
            "name": "create",
            "outputs": [
                {
                    "internalType": "bytes32",
                    "name": "objId",
                    "type": "bytes32"
                }
            ],
            "stateMutability": "nonpayable",
            "type": "function"
        },
        {
            "inputs": [
                {
                    "internalType": "uint256",
                    "name": "",
                    "type": "uint256"
                }
            ],
            "name": "dataList",
            "outputs": [
                {
                    "internalType": "bytes32",
                    "name": "",
                    "type": "bytes32"
                }
            ],
            "stateMutability": "view",
            "type": "function"
        },
        {
            "inputs": [
                {
                    "internalType": "bytes32",
                    "name": "",
                    "type": "bytes32"
                }
            ],
            "name": "dataMap",
            "outputs": [
                {
                    "internalType": "bytes32",
                    "name": "organizationId",
                    "type": "bytes32"
                },
                {
                    "internalType": "string",
                    "name": "name",
                    "type": "string"
                },
                {
                    "internalType": "string",
                    "name": "organizationAddress",
                    "type": "string"
                },
                {
                    "internalType": "bool",
                    "name": "isActive",
                    "type": "bool"
                },
                {
                    "internalType": "string",
                    "name": "customJsonData",
                    "type": "string"
                }
            ],
            "stateMutability": "view",
            "type": "function"
        },
        {
            "inputs": [
                {
                    "internalType": "bytes32",
                    "name": "objId",
                    "type": "bytes32"
                }
            ],
            "name": "getById",
            "outputs": [
                {
                    "internalType": "bytes32",
                    "name": "id",
                    "type": "bytes32"
                },
                {
                    "internalType": "string",
                    "name": "name",
                    "type": "string"
                },
                {
                    "internalType": "bytes32[]",
                    "name": "organizationTypeIdList",
                    "type": "bytes32[]"
                },
                {
                    "internalType": "bool",
                    "name": "isActive",
                    "type": "bool"
                },
                {
                    "internalType": "string",
                    "name": "customJsonData",
                    "type": "string"
                }
            ],
            "stateMutability": "view",
            "type": "function"
        },
        {
            "inputs": [
                {
                    "internalType": "bytes32",
                    "name": "objId",
                    "type": "bytes32"
                },
                {
                    "internalType": "string",
                    "name": "_name",
                    "type": "string"
                },
                {
                    "internalType": "bytes32[]",
                    "name": "_organizationTypeIdList",
                    "type": "bytes32[]"
                },
                {
                    "internalType": "string",
                    "name": "_organizationAddress",
                    "type": "string"
                },
                {
                    "internalType": "string",
                    "name": "_customJsonData",
                    "type": "string"
                },
                {
                    "internalType": "bool",
                    "name": "_isActive",
                    "type": "bool"
                }
            ],
            "name": "update",
            "outputs": [],
            "stateMutability": "nonpayable",
            "type": "function"
        },
        {
            "inputs": [],
            "name": "version",
            "outputs": [
                {
                    "internalType": "uint8",
                    "name": "",
                    "type": "uint8"
                }
            ],
            "stateMutability": "view",
            "type": "function"
        }
    ],
    "bytecode": "60806040526000805460ff1916600117905534801561001d57600080fd5b50610e268061002d6000396000f3fe608060405234801561001057600080fd5b50600436106100625760003560e01c80632dff0d0d1461006757806346bcad62146101b657806354fd4d50146102e3578063af4a74cf14610301578063d6ffaa5914610330578063dc01405d1461056b575b600080fd5b6100846004803603602081101561007d57600080fd5b503561079b565b604051808681526020018060200180602001851515815260200180602001848103845288818151815260200191508051906020019080838360005b838110156100d75781810151838201526020016100bf565b50505050905090810190601f1680156101045780820380516001836020036101000a031916815260200191505b508481038352875181528751602091820191808a01910280838360005b83811015610139578181015183820152602001610121565b50505050905001848103825285818151815260200191508051906020019080838360005b8381101561017557818101518382015260200161015d565b50505050905090810190601f1680156101a25780820380516001836020036101000a031916815260200191505b509850505050505050505060405180910390f35b6101d3600480360360208110156101cc57600080fd5b503561094e565b604051808681526020018060200180602001851515815260200180602001848103845288818151815260200191508051906020019080838360005b8381101561022657818101518382015260200161020e565b50505050905090810190601f1680156102535780820380516001836020036101000a031916815260200191505b50848103835287518152875160209182019189019080838360005b8381101561028657818101518382015260200161026e565b50505050905090810190601f1680156102b35780820380516001836020036101000a031916815260200191505b5084810382528551815285516020918201918701908083836000831561017557818101518382015260200161015d565b6102eb610b1f565b6040805160ff9092168252519081900360200190f35b61031e6004803603602081101561031757600080fd5b5035610b28565b60408051918252519081900360200190f35b610569600480360360c081101561034657600080fd5b81359190810190604081016020820135600160201b81111561036757600080fd5b82018360208201111561037957600080fd5b803590602001918460018302840111600160201b8311171561039a57600080fd5b91908080601f0160208091040260200160405190810160405280939291908181526020018383808284376000920191909152509295949360208101935035915050600160201b8111156103ec57600080fd5b8201836020820111156103fe57600080fd5b803590602001918460208302840111600160201b8311171561041f57600080fd5b9190808060200260200160405190810160405280939291908181526020018383602002808284376000920191909152509295949360208101935035915050600160201b81111561046e57600080fd5b82018360208201111561048057600080fd5b803590602001918460018302840111600160201b831117156104a157600080fd5b91908080601f0160208091040260200160405190810160405280939291908181526020018383808284376000920191909152509295949360208101935035915050600160201b8111156104f357600080fd5b82018360208201111561050557600080fd5b803590602001918460018302840111600160201b8311171561052657600080fd5b91908080601f0160208091040260200160405190810160405280939291908181526020018383808284376000920191909152509295505050503515159050610b49565b005b61031e6004803603608081101561058157600080fd5b810190602081018135600160201b81111561059b57600080fd5b8201836020820111156105ad57600080fd5b803590602001918460018302840111600160201b831117156105ce57600080fd5b91908080601f0160208091040260200160405190810160405280939291908181526020018383808284376000920191909152509295949360208101935035915050600160201b81111561062057600080fd5b82018360208201111561063257600080fd5b803590602001918460208302840111600160201b8311171561065357600080fd5b9190808060200260200160405190810160405280939291908181526020018383602002808284376000920191909152509295949360208101935035915050600160201b8111156106a257600080fd5b8201836020820111156106b457600080fd5b803590602001918460018302840111600160201b831117156106d557600080fd5b91908080601f0160208091040260200160405190810160405280939291908181526020018383808284376000920191909152509295949360208101935035915050600160201b81111561072757600080fd5b82018360208201111561073957600080fd5b803590602001918460018302840111600160201b8311171561075a57600080fd5b91908080601f016020809104026020016040519081016040528093929190818152602001838380828437600092019190915250929550610bfe945050505050565b60008181526001602081815260408084208054600482015482860180548551601f60026000199a841615610100029a909a0190921689900491820188900488028101880190965280865260609788978a97899796959287019360ff9093169260058801928691908301828280156108535780601f1061082857610100808354040283529160200191610853565b820191906000526020600020905b81548152906001019060200180831161083657829003601f168201915b50505050509350828054806020026020016040519081016040528092919081815260200182805480156108a557602002820191906000526020600020905b815481526020019060010190808311610891575b5050845460408051602060026001851615610100026000190190941693909304601f8101849004840282018401909252818152959850869450925084019050828280156109335780601f1061090857610100808354040283529160200191610933565b820191906000526020600020905b81548152906001019060200180831161091657829003601f168201915b50505050509050955095509550955095505091939590929450565b600160208181526000928352604092839020805481840180548651600296821615610100026000190190911695909504601f810185900485028601850190965285855290949193929091908301828280156109ea5780601f106109bf576101008083540402835291602001916109ea565b820191906000526020600020905b8154815290600101906020018083116109cd57829003601f168201915b5050505060038301805460408051602060026001851615610100026000190190941693909304601f8101849004840282018401909252818152949594935090830182828015610a7a5780601f10610a4f57610100808354040283529160200191610a7a565b820191906000526020600020905b815481529060010190602001808311610a5d57829003601f168201915b50505050600483015460058401805460408051602060026101006001861615026000190190941693909304601f8101849004840282018401909252818152959660ff9094169593945090830182828015610b155780601f10610aea57610100808354040283529160200191610b15565b820191906000526020600020905b815481529060010190602001808311610af857829003601f168201915b5050505050905085565b60005460ff1681565b60028181548110610b3857600080fd5b600091825260209091200154905081565b600086815260016020908152604090912085519091610b6f916002840191880190610d15565b508351610b859060038301906020870190610d60565b508551610b9b9060018301906020890190610d60565b5060048101805460ff19168315151790558251610bc19060058301906020860190610d60565b506040805188815290517fae7f59c2ef152eb4d4f56fcc655f53926d60b7e58e08ec8c79387e25adbf33319181900360200190a150505050505050565b6040805142602080830191909152448284015282518083038401815260609092018352815191810191909120600081815260018352928320818155865191929091610c5191600284019190890190610d15565b5060048101805460ff191660011790558451610c769060038301906020880190610d60565b508651610c8c90600183019060208a0190610d60565b508351610ca29060058301906020870190610d60565b50600280546001810182556000919091527f405787fa12a823e0f2b7631cc41b3ba8828b3321ca811111fa75cd3aa3bb5ace018290556040805183815290517f102d25c49d33fcdb8976a3f2744e0785c98d9e43b88364859e6aec4ae82eff5c9181900360200190a15095945050505050565b828054828255906000526020600020908101928215610d50579160200282015b82811115610d50578251825591602001919060010190610d35565b50610d5c929150610ddb565b5090565b828054600181600116156101000203166002900490600052602060002090601f016020900481019282610d965760008555610d50565b82601f10610daf57805160ff1916838001178555610d50565b82800160010185558215610d505791820182811115610d50578251825591602001919060010190610d35565b5b80821115610d5c5760008155600101610ddc56fea2646970667358221220c300239b7e5bcb9a7d9052ce6ae62533f725f25dd28f94e89d83ec8142d8c53664736f6c63430007040033",
    "sourcePath": "d:/GitHub/supplychain_blockchain/tat_contract/contracts/OrganizationContract.sol",
    "compiler": {
        "name": "solc",
        "version": "0.7.4+commit.3f05b770"
    },
    "functionHashes": {
        "create(string,bytes32[],string,string)": "dc01405d",
        "dataList(uint256)": "af4a74cf",
        "dataMap(bytes32)": "46bcad62",
        "getById(bytes32)": "2dff0d0d",
        "update(bytes32,string,bytes32[],string,string,bool)": "d6ffaa59",
        "version()": "54fd4d50"
    },
    "gasEstimates": {
        "creation": {
            "codeDepositCost": "724400",
            "executionCost": "21584",
            "totalCost": "745984"
        },
        "external": {
            "create(string,bytes32[],string,string)": "infinite",
            "dataList(uint256)": "1975",
            "dataMap(bytes32)": "infinite",
            "getById(bytes32)": "infinite",
            "update(bytes32,string,bytes32[],string,string,bool)": "infinite",
            "version()": "1035"
        }
    }
}