{
    "contractName": "Organization",
    "abi": [
        {
            "anonymous": false,
            "inputs": [
                {
                    "indexed": false,
                    "internalType": "bytes32",
                    "name": "objId",
                    "type": "bytes32"
                }
            ],
            "name": "OrganizationCreated",
            "type": "event"
        },
        {
            "anonymous": false,
            "inputs": [
                {
                    "indexed": false,
                    "internalType": "bytes32",
                    "name": "objId",
                    "type": "bytes32"
                }
            ],
            "name": "OrganizationUpdated",
            "type": "event"
        },
        {
            "inputs": [
                {
                    "internalType": "string",
                    "name": "_name",
                    "type": "string"
                },
                {
                    "internalType": "bytes32[]",
                    "name": "_organizationTypeIdList",
                    "type": "bytes32[]"
                },
                {
                    "internalType": "string",
                    "name": "_organizationAddress",
                    "type": "string"
                },
                {
                    "internalType": "string",
                    "name": "_customJsonData",
                    "type": "string"
                }
            ],
            "name": "createOrganization",
            "outputs": [
                {
                    "internalType": "bytes32",
                    "name": "objId",
                    "type": "bytes32"
                }
            ],
            "stateMutability": "nonpayable",
            "type": "function"
        },
        {
            "inputs": [
                {
                    "internalType": "bytes32",
                    "name": "objId",
                    "type": "bytes32"
                }
            ],
            "name": "getOrganizationById",
            "outputs": [
                {
                    "internalType": "bytes32",
                    "name": "id",
                    "type": "bytes32"
                },
                {
                    "internalType": "string",
                    "name": "name",
                    "type": "string"
                },
                {
                    "internalType": "bytes32[]",
                    "name": "organizationTypeIdList",
                    "type": "bytes32[]"
                },
                {
                    "internalType": "bool",
                    "name": "isActive",
                    "type": "bool"
                },
                {
                    "internalType": "string",
                    "name": "customJsonData",
                    "type": "string"
                }
            ],
            "stateMutability": "view",
            "type": "function"
        },
        {
            "inputs": [
                {
                    "internalType": "uint256",
                    "name": "",
                    "type": "uint256"
                }
            ],
            "name": "organizationIds",
            "outputs": [
                {
                    "internalType": "bytes32",
                    "name": "",
                    "type": "bytes32"
                }
            ],
            "stateMutability": "view",
            "type": "function"
        },
        {
            "inputs": [
                {
                    "internalType": "bytes32",
                    "name": "",
                    "type": "bytes32"
                }
            ],
            "name": "organizationMap",
            "outputs": [
                {
                    "internalType": "bytes32",
                    "name": "organizationId",
                    "type": "bytes32"
                },
                {
                    "internalType": "string",
                    "name": "name",
                    "type": "string"
                },
                {
                    "internalType": "string",
                    "name": "organizationAddress",
                    "type": "string"
                },
                {
                    "internalType": "bool",
                    "name": "isActive",
                    "type": "bool"
                },
                {
                    "internalType": "string",
                    "name": "customJsonData",
                    "type": "string"
                }
            ],
            "stateMutability": "view",
            "type": "function"
        },
        {
            "inputs": [
                {
                    "internalType": "bytes32",
                    "name": "objId",
                    "type": "bytes32"
                },
                {
                    "internalType": "string",
                    "name": "_name",
                    "type": "string"
                },
                {
                    "internalType": "bytes32[]",
                    "name": "_organizationTypeIdList",
                    "type": "bytes32[]"
                },
                {
                    "internalType": "string",
                    "name": "_organizationAddress",
                    "type": "string"
                },
                {
                    "internalType": "string",
                    "name": "_customJsonData",
                    "type": "string"
                },
                {
                    "internalType": "bool",
                    "name": "_isActive",
                    "type": "bool"
                }
            ],
            "name": "updateOrganization",
            "outputs": [],
            "stateMutability": "nonpayable",
            "type": "function"
        },
        {
            "inputs": [],
            "name": "version",
            "outputs": [
                {
                    "internalType": "uint8",
                    "name": "",
                    "type": "uint8"
                }
            ],
            "stateMutability": "view",
            "type": "function"
        }
    ],
    "bytecode": "60806040526000805460ff1916600117905534801561001d57600080fd5b50610e268061002d6000396000f3fe608060405234801561001057600080fd5b50600436106100625760003560e01c8063111c47791461006757806350b33f80146102a257806354fd4d50146102d15780639a017e0a146102ef578063ab1a607c1461043e578063e02ed0281461066e575b600080fd5b6102a0600480360360c081101561007d57600080fd5b81359190810190604081016020820135600160201b81111561009e57600080fd5b8201836020820111156100b057600080fd5b803590602001918460018302840111600160201b831117156100d157600080fd5b91908080601f0160208091040260200160405190810160405280939291908181526020018383808284376000920191909152509295949360208101935035915050600160201b81111561012357600080fd5b82018360208201111561013557600080fd5b803590602001918460208302840111600160201b8311171561015657600080fd5b9190808060200260200160405190810160405280939291908181526020018383602002808284376000920191909152509295949360208101935035915050600160201b8111156101a557600080fd5b8201836020820111156101b757600080fd5b803590602001918460018302840111600160201b831117156101d857600080fd5b91908080601f0160208091040260200160405190810160405280939291908181526020018383808284376000920191909152509295949360208101935035915050600160201b81111561022a57600080fd5b82018360208201111561023c57600080fd5b803590602001918460018302840111600160201b8311171561025d57600080fd5b91908080601f016020809104026020016040519081016040528093929190818152602001838380828437600092019190915250929550505050351515905061079b565b005b6102bf600480360360208110156102b857600080fd5b5035610850565b60408051918252519081900360200190f35b6102d9610871565b6040805160ff9092168252519081900360200190f35b61030c6004803603602081101561030557600080fd5b503561087a565b604051808681526020018060200180602001851515815260200180602001848103845288818151815260200191508051906020019080838360005b8381101561035f578181015183820152602001610347565b50505050905090810190601f16801561038c5780820380516001836020036101000a031916815260200191505b508481038352875181528751602091820191808a01910280838360005b838110156103c15781810151838201526020016103a9565b50505050905001848103825285818151815260200191508051906020019080838360005b838110156103fd5781810151838201526020016103e5565b50505050905090810190601f16801561042a5780820380516001836020036101000a031916815260200191505b509850505050505050505060405180910390f35b6102bf6004803603608081101561045457600080fd5b810190602081018135600160201b81111561046e57600080fd5b82018360208201111561048057600080fd5b803590602001918460018302840111600160201b831117156104a157600080fd5b91908080601f0160208091040260200160405190810160405280939291908181526020018383808284376000920191909152509295949360208101935035915050600160201b8111156104f357600080fd5b82018360208201111561050557600080fd5b803590602001918460208302840111600160201b8311171561052657600080fd5b9190808060200260200160405190810160405280939291908181526020018383602002808284376000920191909152509295949360208101935035915050600160201b81111561057557600080fd5b82018360208201111561058757600080fd5b803590602001918460018302840111600160201b831117156105a857600080fd5b91908080601f0160208091040260200160405190810160405280939291908181526020018383808284376000920191909152509295949360208101935035915050600160201b8111156105fa57600080fd5b82018360208201111561060c57600080fd5b803590602001918460018302840111600160201b8311171561062d57600080fd5b91908080601f016020809104026020016040519081016040528093929190818152602001838380828437600092019190915250929550610a2d945050505050565b61068b6004803603602081101561068457600080fd5b5035610b44565b604051808681526020018060200180602001851515815260200180602001848103845288818151815260200191508051906020019080838360005b838110156106de5781810151838201526020016106c6565b50505050905090810190601f16801561070b5780820380516001836020036101000a031916815260200191505b50848103835287518152875160209182019189019080838360005b8381101561073e578181015183820152602001610726565b50505050905090810190601f16801561076b5780820380516001836020036101000a031916815260200191505b508481038252855181528551602091820191870190808383600083156103fd5781810151838201526020016103e5565b6000868152600160209081526040909120855190916107c1916002840191880190610d15565b5083516107d79060038301906020870190610d60565b5085516107ed9060018301906020890190610d60565b5060048101805460ff191683151517905582516108139060058301906020860190610d60565b506040805188815290517f81cd5cff107d9c8214b96b0fd16f800e4a820213e366cd2b3bec86e730dbcfc69181900360200190a150505050505050565b6002818154811061086057600080fd5b600091825260209091200154905081565b60005460ff1681565b60008181526001602081815260408084208054600482015482860180548551601f60026000199a841615610100029a909a0190921689900491820188900488028101880190965280865260609788978a97899796959287019360ff9093169260058801928691908301828280156109325780601f1061090757610100808354040283529160200191610932565b820191906000526020600020905b81548152906001019060200180831161091557829003601f168201915b505050505093508280548060200260200160405190810160405280929190818152602001828054801561098457602002820191906000526020600020905b815481526020019060010190808311610970575b5050845460408051602060026001851615610100026000190190941693909304601f810184900484028201840190925281815295985086945092508401905082828015610a125780601f106109e757610100808354040283529160200191610a12565b820191906000526020600020905b8154815290600101906020018083116109f557829003601f168201915b50505050509050955095509550955095505091939590929450565b6040805142602080830191909152448284015282518083038401815260609092018352815191810191909120600081815260018352928320818155865191929091610a8091600284019190890190610d15565b5060048101805460ff191660011790558451610aa59060038301906020880190610d60565b508651610abb90600183019060208a0190610d60565b508351610ad19060058301906020870190610d60565b50600280546001810182556000919091527f405787fa12a823e0f2b7631cc41b3ba8828b3321ca811111fa75cd3aa3bb5ace018290556040805183815290517f0e7857bfbd020070a2c8d2fe38c788de1e6adc88cb46f60cf6ec7cd385e81db19181900360200190a15095945050505050565b600160208181526000928352604092839020805481840180548651600296821615610100026000190190911695909504601f81018590048502860185019096528585529094919392909190830182828015610be05780601f10610bb557610100808354040283529160200191610be0565b820191906000526020600020905b815481529060010190602001808311610bc357829003601f168201915b5050505060038301805460408051602060026001851615610100026000190190941693909304601f8101849004840282018401909252818152949594935090830182828015610c705780601f10610c4557610100808354040283529160200191610c70565b820191906000526020600020905b815481529060010190602001808311610c5357829003601f168201915b50505050600483015460058401805460408051602060026101006001861615026000190190941693909304601f8101849004840282018401909252818152959660ff9094169593945090830182828015610d0b5780601f10610ce057610100808354040283529160200191610d0b565b820191906000526020600020905b815481529060010190602001808311610cee57829003601f168201915b5050505050905085565b828054828255906000526020600020908101928215610d50579160200282015b82811115610d50578251825591602001919060010190610d35565b50610d5c929150610ddb565b5090565b828054600181600116156101000203166002900490600052602060002090601f016020900481019282610d965760008555610d50565b82601f10610daf57805160ff1916838001178555610d50565b82800160010185558215610d505791820182811115610d50578251825591602001919060010190610d35565b5b80821115610d5c5760008155600101610ddc56fea2646970667358221220802c611e026d90713d907a57f59ec005364a699b8786a977376f3f33f7a3997264736f6c63430007040033",
    "sourcePath": "d:/GitHub/supplychain_blockchain/tat_contract/contracts/Organziation.sol",
    "compiler": {
        "name": "solc",
        "version": "0.7.4+commit.3f05b770"
    },
    "functionHashes": {
        "createOrganization(string,bytes32[],string,string)": "ab1a607c",
        "getOrganizationById(bytes32)": "9a017e0a",
        "organizationIds(uint256)": "50b33f80",
        "organizationMap(bytes32)": "e02ed028",
        "updateOrganization(bytes32,string,bytes32[],string,string,bool)": "111c4779",
        "version()": "54fd4d50"
    },
    "gasEstimates": {
        "creation": {
            "codeDepositCost": "724400",
            "executionCost": "21584",
            "totalCost": "745984"
        },
        "external": {
            "createOrganization(string,bytes32[],string,string)": "infinite",
            "getOrganizationById(bytes32)": "infinite",
            "organizationIds(uint256)": "1931",
            "organizationMap(bytes32)": "infinite",
            "updateOrganization(bytes32,string,bytes32[],string,string,bool)": "infinite",
            "version()": "1035"
        }
    }
}