{
    "contractName": "ProductContract",
    "abi": [
        {
            "anonymous": false,
            "inputs": [
                {
                    "indexed": false,
                    "internalType": "bytes32",
                    "name": "objId",
                    "type": "bytes32"
                }
            ],
            "name": "Created",
            "type": "event"
        },
        {
            "anonymous": false,
            "inputs": [
                {
                    "indexed": false,
                    "internalType": "bytes32",
                    "name": "objId",
                    "type": "bytes32"
                }
            ],
            "name": "Updated",
            "type": "event"
        },
        {
            "inputs": [
                {
                    "internalType": "string",
                    "name": "_name",
                    "type": "string"
                },
                {
                    "internalType": "bytes32",
                    "name": "_categoryId",
                    "type": "bytes32"
                },
                {
                    "internalType": "string",
                    "name": "_description",
                    "type": "string"
                },
                {
                    "internalType": "bytes32[]",
                    "name": "_certificationIdList",
                    "type": "bytes32[]"
                },
                {
                    "internalType": "string",
                    "name": "_customJsonData",
                    "type": "string"
                }
            ],
            "name": "create",
            "outputs": [
                {
                    "internalType": "bytes32",
                    "name": "objId",
                    "type": "bytes32"
                }
            ],
            "stateMutability": "nonpayable",
            "type": "function"
        },
        {
            "inputs": [
                {
                    "internalType": "uint256",
                    "name": "",
                    "type": "uint256"
                }
            ],
            "name": "dataList",
            "outputs": [
                {
                    "internalType": "bytes32",
                    "name": "",
                    "type": "bytes32"
                }
            ],
            "stateMutability": "view",
            "type": "function"
        },
        {
            "inputs": [
                {
                    "internalType": "bytes32",
                    "name": "",
                    "type": "bytes32"
                }
            ],
            "name": "dataMap",
            "outputs": [
                {
                    "internalType": "bytes32",
                    "name": "productId",
                    "type": "bytes32"
                },
                {
                    "internalType": "bytes32",
                    "name": "categoryId",
                    "type": "bytes32"
                },
                {
                    "internalType": "string",
                    "name": "name",
                    "type": "string"
                },
                {
                    "internalType": "string",
                    "name": "description",
                    "type": "string"
                },
                {
                    "internalType": "bool",
                    "name": "isActive",
                    "type": "bool"
                },
                {
                    "internalType": "string",
                    "name": "customJsonData",
                    "type": "string"
                }
            ],
            "stateMutability": "view",
            "type": "function"
        },
        {
            "inputs": [
                {
                    "internalType": "bytes32",
                    "name": "objId",
                    "type": "bytes32"
                }
            ],
            "name": "getById",
            "outputs": [
                {
                    "internalType": "bytes32",
                    "name": "id",
                    "type": "bytes32"
                },
                {
                    "internalType": "bytes32",
                    "name": "categoryId",
                    "type": "bytes32"
                },
                {
                    "internalType": "string",
                    "name": "name",
                    "type": "string"
                },
                {
                    "internalType": "string",
                    "name": "description",
                    "type": "string"
                },
                {
                    "internalType": "bytes32[]",
                    "name": "certicationIdList",
                    "type": "bytes32[]"
                },
                {
                    "internalType": "bool",
                    "name": "isActive",
                    "type": "bool"
                },
                {
                    "internalType": "string",
                    "name": "customJsonData",
                    "type": "string"
                }
            ],
            "stateMutability": "view",
            "type": "function"
        },
        {
            "inputs": [
                {
                    "internalType": "bytes32",
                    "name": "objId",
                    "type": "bytes32"
                },
                {
                    "internalType": "string",
                    "name": "_name",
                    "type": "string"
                },
                {
                    "internalType": "bytes32",
                    "name": "_categoryId",
                    "type": "bytes32"
                },
                {
                    "internalType": "string",
                    "name": "_description",
                    "type": "string"
                },
                {
                    "internalType": "bytes32[]",
                    "name": "_certificationIdList",
                    "type": "bytes32[]"
                },
                {
                    "internalType": "string",
                    "name": "_customJsonData",
                    "type": "string"
                },
                {
                    "internalType": "bool",
                    "name": "_isActive",
                    "type": "bool"
                }
            ],
            "name": "update",
            "outputs": [],
            "stateMutability": "nonpayable",
            "type": "function"
        },
        {
            "inputs": [],
            "name": "version",
            "outputs": [
                {
                    "internalType": "uint256",
                    "name": "",
                    "type": "uint256"
                }
            ],
            "stateMutability": "view",
            "type": "function"
        }
    ],
    "bytecode": "6080604052600160005534801561001557600080fd5b50610fc2806100256000396000f3fe608060405234801561001057600080fd5b50600436106100625760003560e01c80631097fb8a146100675780632dff0d0d146102b157806346bcad621461046d57806354fd4d50146105e557806386fdf6a4146105ed578063af4a74cf14610830575b600080fd5b61029f600480360360a081101561007d57600080fd5b810190602081018135600160201b81111561009757600080fd5b8201836020820111156100a957600080fd5b803590602001918460018302840111600160201b831117156100ca57600080fd5b91908080601f01602080910402602001604051908101604052809392919081815260200183838082843760009201919091525092958435959094909350604081019250602001359050600160201b81111561012457600080fd5b82018360208201111561013657600080fd5b803590602001918460018302840111600160201b8311171561015757600080fd5b91908080601f0160208091040260200160405190810160405280939291908181526020018383808284376000920191909152509295949360208101935035915050600160201b8111156101a957600080fd5b8201836020820111156101bb57600080fd5b803590602001918460208302840111600160201b831117156101dc57600080fd5b9190808060200260200160405190810160405280939291908181526020018383602002808284376000920191909152509295949360208101935035915050600160201b81111561022b57600080fd5b82018360208201111561023d57600080fd5b803590602001918460018302840111600160201b8311171561025e57600080fd5b91908080601f01602080910402602001604051908101604052809392919081815260200183838082843760009201919091525092955061084d945050505050565b60408051918252519081900360200190f35b6102ce600480360360208110156102c757600080fd5b503561096d565b6040518088815260200187815260200180602001806020018060200186151581526020018060200185810385528a818151815260200191508051906020019080838360005b8381101561032b578181015183820152602001610313565b50505050905090810190601f1680156103585780820380516001836020036101000a031916815260200191505b5085810384528951815289516020918201918b019080838360005b8381101561038b578181015183820152602001610373565b50505050905090810190601f1680156103b85780820380516001836020036101000a031916815260200191505b508581038352885181528851602091820191808b01910280838360005b838110156103ed5781810151838201526020016103d5565b50505050905001858103825286818151815260200191508051906020019080838360005b83811015610429578181015183820152602001610411565b50505050905090810190601f1680156104565780820380516001836020036101000a031916815260200191505b509b50505050505050505050505060405180910390f35b61048a6004803603602081101561048357600080fd5b5035610be0565b604051808781526020018681526020018060200180602001851515815260200180602001848103845288818151815260200191508051906020019080838360005b838110156104e35781810151838201526020016104cb565b50505050905090810190601f1680156105105780820380516001836020036101000a031916815260200191505b50848103835287518152875160209182019189019080838360005b8381101561054357818101518382015260200161052b565b50505050905090810190601f1680156105705780820380516001836020036101000a031916815260200191505b50848103825285518152855160209182019187019080838360005b838110156105a357818101518382015260200161058b565b50505050905090810190601f1680156105d05780820380516001836020036101000a031916815260200191505b50995050505050505050505060405180910390f35b61029f610dcd565b61082e600480360360e081101561060357600080fd5b81359190810190604081016020820135600160201b81111561062457600080fd5b82018360208201111561063657600080fd5b803590602001918460018302840111600160201b8311171561065757600080fd5b91908080601f01602080910402602001604051908101604052809392919081815260200183838082843760009201919091525092958435959094909350604081019250602001359050600160201b8111156106b157600080fd5b8201836020820111156106c357600080fd5b803590602001918460018302840111600160201b831117156106e457600080fd5b91908080601f0160208091040260200160405190810160405280939291908181526020018383808284376000920191909152509295949360208101935035915050600160201b81111561073657600080fd5b82018360208201111561074857600080fd5b803590602001918460208302840111600160201b8311171561076957600080fd5b9190808060200260200160405190810160405280939291908181526020018383602002808284376000920191909152509295949360208101935035915050600160201b8111156107b857600080fd5b8201836020820111156107ca57600080fd5b803590602001918460018302840111600160201b831117156107eb57600080fd5b91908080601f0160208091040260200160405190810160405280939291908181526020018383808284376000920191909152509295505050503515159050610dd3565b005b61029f6004803603602081101561084657600080fd5b5035610e90565b60408051426020808301919091524482840152825180830384018152606090920183528151918101919091206000818152600183529283208181558851919290916108a0916002840191908b0190610eb1565b5085516108b69060038301906020890190610eb1565b5084516108cc9060048301906020880190610f3d565b50600180820188905560058201805460ff1916909117905583516108f99060068301906020870190610eb1565b50600280546001810182556000919091527f405787fa12a823e0f2b7631cc41b3ba8828b3321ca811111fa75cd3aa3bb5ace018290556040805183815290517f102d25c49d33fcdb8976a3f2744e0785c98d9e43b88364859e6aec4ae82eff5c9181900360200190a1509695505050505050565b6000806060806060600060606000600160008a81526020019081526020016000209050806000015481600101548260020183600301846004018560050160009054906101000a900460ff1686600601848054600181600116156101000203166002900480601f016020809104026020016040519081016040528092919081815260200182805460018160011615610100020316600290048015610a515780601f10610a2657610100808354040283529160200191610a51565b820191906000526020600020905b815481529060010190602001808311610a3457829003601f168201915b5050875460408051602060026001851615610100026000190190941693909304601f8101849004840282018401909252818152959a5089945092508401905082828015610adf5780601f10610ab457610100808354040283529160200191610adf565b820191906000526020600020905b815481529060010190602001808311610ac257829003601f168201915b5050505050935082805480602002602001604051908101604052809291908181526020018280548015610b3157602002820191906000526020600020905b815481526020019060010190808311610b1d575b5050845460408051602060026001851615610100026000190190941693909304601f810184900484028201840190925281815295985086945092508401905082828015610bbf5780601f10610b9457610100808354040283529160200191610bbf565b820191906000526020600020905b815481529060010190602001808311610ba257829003601f168201915b50505050509050975097509750975097509750975050919395979092949650565b6001602052806000526040600020600091509050806000015490806001015490806002018054600181600116156101000203166002900480601f016020809104026020016040519081016040528092919081815260200182805460018160011615610100020316600290048015610c985780601f10610c6d57610100808354040283529160200191610c98565b820191906000526020600020905b815481529060010190602001808311610c7b57829003601f168201915b5050505060038301805460408051602060026001851615610100026000190190941693909304601f8101849004840282018401909252818152949594935090830182828015610d285780601f10610cfd57610100808354040283529160200191610d28565b820191906000526020600020905b815481529060010190602001808311610d0b57829003601f168201915b50505050600583015460068401805460408051602060026101006001861615026000190190941693909304601f8101849004840282018401909252818152959660ff9094169593945090830182828015610dc35780601f10610d9857610100808354040283529160200191610dc3565b820191906000526020600020905b815481529060010190602001808311610da657829003601f168201915b5050505050905086565b60005481565b600087815260016020908152604090912087519091610df99160028401918a0190610eb1565b50600181018690558451610e169060038301906020880190610eb1565b508351610e2c9060048301906020870190610f3d565b5060058101805460ff19168315151790558251610e529060068301906020860190610eb1565b506040805189815290517fae7f59c2ef152eb4d4f56fcc655f53926d60b7e58e08ec8c79387e25adbf33319181900360200190a15050505050505050565b60028181548110610ea057600080fd5b600091825260209091200154905081565b828054600181600116156101000203166002900490600052602060002090601f016020900481019282610ee75760008555610f2d565b82601f10610f0057805160ff1916838001178555610f2d565b82800160010185558215610f2d579182015b82811115610f2d578251825591602001919060010190610f12565b50610f39929150610f77565b5090565b828054828255906000526020600020908101928215610f2d5791602002820182811115610f2d578251825591602001919060010190610f12565b5b80821115610f395760008155600101610f7856fea2646970667358221220b9bb43a31aa1a17fbed12a4d062c32da31dd2b01ad295cc7858a110f8951c5f364736f6c63430007040033",
    "sourcePath": "d:/GitHub/supplychain_blockchain/tat_contract/contracts/ProductContract.sol",
    "compiler": {
        "name": "solc",
        "version": "0.7.4+commit.3f05b770"
    },
    "functionHashes": {
        "create(string,bytes32,string,bytes32[],string)": "1097fb8a",
        "dataList(uint256)": "af4a74cf",
        "dataMap(bytes32)": "46bcad62",
        "getById(bytes32)": "2dff0d0d",
        "update(bytes32,string,bytes32,string,bytes32[],string,bool)": "86fdf6a4",
        "version()": "54fd4d50"
    },
    "gasEstimates": {
        "creation": {
            "codeDepositCost": "806800",
            "executionCost": "20850",
            "totalCost": "827650"
        },
        "external": {
            "create(string,bytes32,string,bytes32[],string)": "infinite",
            "dataList(uint256)": "2019",
            "dataMap(bytes32)": "infinite",
            "getById(bytes32)": "infinite",
            "update(bytes32,string,bytes32,string,bytes32[],string,bool)": "infinite",
            "version()": "1042"
        }
    }
}