{
    "contractName": "SupplyChain",
    "abi": [
        {
            "anonymous": false,
            "inputs": [
                {
                    "indexed": false,
                    "internalType": "bytes32",
                    "name": "objId",
                    "type": "bytes32"
                }
            ],
            "name": "ActivityCreated",
            "type": "event"
        },
        {
            "anonymous": false,
            "inputs": [
                {
                    "indexed": false,
                    "internalType": "bytes32",
                    "name": "objId",
                    "type": "bytes32"
                }
            ],
            "name": "ActivityUpdated",
            "type": "event"
        },
        {
            "anonymous": false,
            "inputs": [
                {
                    "indexed": false,
                    "internalType": "bytes32",
                    "name": "objId",
                    "type": "bytes32"
                }
            ],
            "name": "AreaCreated",
            "type": "event"
        },
        {
            "anonymous": false,
            "inputs": [
                {
                    "indexed": false,
                    "internalType": "bytes32",
                    "name": "objId",
                    "type": "bytes32"
                }
            ],
            "name": "AreaUpdated",
            "type": "event"
        },
        {
            "anonymous": false,
            "inputs": [
                {
                    "indexed": false,
                    "internalType": "bytes32",
                    "name": "objId",
                    "type": "bytes32"
                }
            ],
            "name": "CategoryCreated",
            "type": "event"
        },
        {
            "anonymous": false,
            "inputs": [
                {
                    "indexed": false,
                    "internalType": "bytes32",
                    "name": "objId",
                    "type": "bytes32"
                }
            ],
            "name": "CategoryUpdated",
            "type": "event"
        },
        {
            "anonymous": false,
            "inputs": [
                {
                    "indexed": false,
                    "internalType": "bytes32",
                    "name": "objId",
                    "type": "bytes32"
                }
            ],
            "name": "OrganizationCreated",
            "type": "event"
        },
        {
            "anonymous": false,
            "inputs": [
                {
                    "indexed": false,
                    "internalType": "bytes32",
                    "name": "objId",
                    "type": "bytes32"
                }
            ],
            "name": "OrganizationTypeCreated",
            "type": "event"
        },
        {
            "anonymous": false,
            "inputs": [
                {
                    "indexed": false,
                    "internalType": "bytes32",
                    "name": "objId",
                    "type": "bytes32"
                }
            ],
            "name": "OrganizationTypeUpdated",
            "type": "event"
        },
        {
            "anonymous": false,
            "inputs": [
                {
                    "indexed": false,
                    "internalType": "bytes32",
                    "name": "objId",
                    "type": "bytes32"
                }
            ],
            "name": "OrganizationUpdated",
            "type": "event"
        },
        {
            "inputs": [
                {
                    "internalType": "uint256",
                    "name": "",
                    "type": "uint256"
                }
            ],
            "name": "activityIds",
            "outputs": [
                {
                    "internalType": "bytes32",
                    "name": "",
                    "type": "bytes32"
                }
            ],
            "stateMutability": "view",
            "type": "function"
        },
        {
            "inputs": [
                {
                    "internalType": "bytes32",
                    "name": "",
                    "type": "bytes32"
                }
            ],
            "name": "activityMap",
            "outputs": [
                {
                    "internalType": "bytes32",
                    "name": "activityId",
                    "type": "bytes32"
                },
                {
                    "internalType": "string",
                    "name": "name",
                    "type": "string"
                },
                {
                    "internalType": "bytes32",
                    "name": "organizationTypeId",
                    "type": "bytes32"
                },
                {
                    "internalType": "bool",
                    "name": "isActive",
                    "type": "bool"
                },
                {
                    "internalType": "string",
                    "name": "customJsonData",
                    "type": "string"
                }
            ],
            "stateMutability": "view",
            "type": "function"
        },
        {
            "inputs": [
                {
                    "internalType": "uint256",
                    "name": "",
                    "type": "uint256"
                }
            ],
            "name": "areaIds",
            "outputs": [
                {
                    "internalType": "bytes32",
                    "name": "",
                    "type": "bytes32"
                }
            ],
            "stateMutability": "view",
            "type": "function"
        },
        {
            "inputs": [
                {
                    "internalType": "bytes32",
                    "name": "",
                    "type": "bytes32"
                }
            ],
            "name": "areaMap",
            "outputs": [
                {
                    "internalType": "bytes32",
                    "name": "areaId",
                    "type": "bytes32"
                },
                {
                    "internalType": "string",
                    "name": "name",
                    "type": "string"
                },
                {
                    "internalType": "bytes32",
                    "name": "organizationId",
                    "type": "bytes32"
                },
                {
                    "internalType": "bool",
                    "name": "isActive",
                    "type": "bool"
                },
                {
                    "internalType": "string",
                    "name": "customJsonData",
                    "type": "string"
                }
            ],
            "stateMutability": "view",
            "type": "function"
        },
        {
            "inputs": [
                {
                    "internalType": "uint256",
                    "name": "",
                    "type": "uint256"
                }
            ],
            "name": "categoryIds",
            "outputs": [
                {
                    "internalType": "bytes32",
                    "name": "",
                    "type": "bytes32"
                }
            ],
            "stateMutability": "view",
            "type": "function"
        },
        {
            "inputs": [
                {
                    "internalType": "bytes32",
                    "name": "",
                    "type": "bytes32"
                }
            ],
            "name": "categoryMap",
            "outputs": [
                {
                    "internalType": "bytes32",
                    "name": "categoryId",
                    "type": "bytes32"
                },
                {
                    "internalType": "string",
                    "name": "name",
                    "type": "string"
                },
                {
                    "internalType": "bool",
                    "name": "isActive",
                    "type": "bool"
                },
                {
                    "internalType": "string",
                    "name": "customJsonData",
                    "type": "string"
                }
            ],
            "stateMutability": "view",
            "type": "function"
        },
        {
            "inputs": [
                {
                    "internalType": "uint256",
                    "name": "",
                    "type": "uint256"
                }
            ],
            "name": "certificationIds",
            "outputs": [
                {
                    "internalType": "bytes32",
                    "name": "",
                    "type": "bytes32"
                }
            ],
            "stateMutability": "view",
            "type": "function"
        },
        {
            "inputs": [
                {
                    "internalType": "bytes32",
                    "name": "",
                    "type": "bytes32"
                }
            ],
            "name": "certificationMap",
            "outputs": [
                {
                    "internalType": "bytes32",
                    "name": "certificationId",
                    "type": "bytes32"
                },
                {
                    "internalType": "string",
                    "name": "name",
                    "type": "string"
                },
                {
                    "internalType": "string",
                    "name": "certificateUrl",
                    "type": "string"
                }
            ],
            "stateMutability": "view",
            "type": "function"
        },
        {
            "inputs": [
                {
                    "internalType": "string",
                    "name": "_name",
                    "type": "string"
                },
                {
                    "internalType": "bytes32",
                    "name": "_organizationTypeId",
                    "type": "bytes32"
                },
                {
                    "internalType": "string",
                    "name": "_customJsonData",
                    "type": "string"
                }
            ],
            "name": "createActivity",
            "outputs": [
                {
                    "internalType": "bytes32",
                    "name": "objId",
                    "type": "bytes32"
                }
            ],
            "stateMutability": "nonpayable",
            "type": "function"
        },
        {
            "inputs": [
                {
                    "internalType": "string",
                    "name": "_name",
                    "type": "string"
                },
                {
                    "internalType": "bytes32",
                    "name": "_organizationId",
                    "type": "bytes32"
                },
                {
                    "internalType": "string",
                    "name": "_customJsonData",
                    "type": "string"
                }
            ],
            "name": "createArea",
            "outputs": [
                {
                    "internalType": "bytes32",
                    "name": "objId",
                    "type": "bytes32"
                }
            ],
            "stateMutability": "nonpayable",
            "type": "function"
        },
        {
            "inputs": [
                {
                    "internalType": "string",
                    "name": "_name",
                    "type": "string"
                },
                {
                    "internalType": "string",
                    "name": "_customJsonData",
                    "type": "string"
                }
            ],
            "name": "createCategory",
            "outputs": [
                {
                    "internalType": "bytes32",
                    "name": "objId",
                    "type": "bytes32"
                }
            ],
            "stateMutability": "nonpayable",
            "type": "function"
        },
        {
            "inputs": [
                {
                    "internalType": "string",
                    "name": "_name",
                    "type": "string"
                },
                {
                    "internalType": "bytes32[]",
                    "name": "_organizationTypeIdList",
                    "type": "bytes32[]"
                },
                {
                    "internalType": "string",
                    "name": "_organizationAddress",
                    "type": "string"
                },
                {
                    "internalType": "string",
                    "name": "_customJsonData",
                    "type": "string"
                }
            ],
            "name": "createOrganization",
            "outputs": [
                {
                    "internalType": "bytes32",
                    "name": "objId",
                    "type": "bytes32"
                }
            ],
            "stateMutability": "nonpayable",
            "type": "function"
        },
        {
            "inputs": [
                {
                    "internalType": "string",
                    "name": "_name",
                    "type": "string"
                },
                {
                    "internalType": "string",
                    "name": "_customJsonData",
                    "type": "string"
                }
            ],
            "name": "createOrganizationType",
            "outputs": [
                {
                    "internalType": "bytes32",
                    "name": "objId",
                    "type": "bytes32"
                }
            ],
            "stateMutability": "nonpayable",
            "type": "function"
        },
        {
            "inputs": [
                {
                    "internalType": "bytes32",
                    "name": "objId",
                    "type": "bytes32"
                }
            ],
            "name": "getActivityById",
            "outputs": [
                {
                    "internalType": "bytes32",
                    "name": "id",
                    "type": "bytes32"
                },
                {
                    "internalType": "string",
                    "name": "name",
                    "type": "string"
                },
                {
                    "internalType": "bytes32",
                    "name": "organizationTypeId",
                    "type": "bytes32"
                },
                {
                    "internalType": "bool",
                    "name": "isActive",
                    "type": "bool"
                },
                {
                    "internalType": "string",
                    "name": "customJsonData",
                    "type": "string"
                }
            ],
            "stateMutability": "view",
            "type": "function"
        },
        {
            "inputs": [
                {
                    "internalType": "bytes32",
                    "name": "objId",
                    "type": "bytes32"
                }
            ],
            "name": "getAreaById",
            "outputs": [
                {
                    "internalType": "bytes32",
                    "name": "id",
                    "type": "bytes32"
                },
                {
                    "internalType": "string",
                    "name": "name",
                    "type": "string"
                },
                {
                    "internalType": "bytes32",
                    "name": "organizationId",
                    "type": "bytes32"
                },
                {
                    "internalType": "bool",
                    "name": "isActive",
                    "type": "bool"
                },
                {
                    "internalType": "string",
                    "name": "customJsonData",
                    "type": "string"
                }
            ],
            "stateMutability": "view",
            "type": "function"
        },
        {
            "inputs": [
                {
                    "internalType": "bytes32",
                    "name": "objId",
                    "type": "bytes32"
                }
            ],
            "name": "getCategoryById",
            "outputs": [
                {
                    "internalType": "bytes32",
                    "name": "id",
                    "type": "bytes32"
                },
                {
                    "internalType": "string",
                    "name": "name",
                    "type": "string"
                },
                {
                    "internalType": "bool",
                    "name": "isActive",
                    "type": "bool"
                },
                {
                    "internalType": "string",
                    "name": "customJsonData",
                    "type": "string"
                }
            ],
            "stateMutability": "view",
            "type": "function"
        },
        {
            "inputs": [],
            "name": "getInfo",
            "outputs": [
                {
                    "internalType": "string",
                    "name": "",
                    "type": "string"
                }
            ],
            "stateMutability": "view",
            "type": "function"
        },
        {
            "inputs": [
                {
                    "internalType": "bytes32",
                    "name": "objId",
                    "type": "bytes32"
                }
            ],
            "name": "getOrganizationById",
            "outputs": [
                {
                    "internalType": "bytes32",
                    "name": "id",
                    "type": "bytes32"
                },
                {
                    "internalType": "string",
                    "name": "name",
                    "type": "string"
                },
                {
                    "internalType": "bytes32[]",
                    "name": "organizationTypeIdList",
                    "type": "bytes32[]"
                },
                {
                    "internalType": "bool",
                    "name": "isActive",
                    "type": "bool"
                },
                {
                    "internalType": "string",
                    "name": "customJsonData",
                    "type": "string"
                }
            ],
            "stateMutability": "view",
            "type": "function"
        },
        {
            "inputs": [
                {
                    "internalType": "bytes32",
                    "name": "objId",
                    "type": "bytes32"
                }
            ],
            "name": "getOrganizationTypeById",
            "outputs": [
                {
                    "internalType": "bytes32",
                    "name": "id",
                    "type": "bytes32"
                },
                {
                    "internalType": "string",
                    "name": "name",
                    "type": "string"
                },
                {
                    "internalType": "string",
                    "name": "customJsonData",
                    "type": "string"
                }
            ],
            "stateMutability": "view",
            "type": "function"
        },
        {
            "inputs": [
                {
                    "internalType": "uint256",
                    "name": "",
                    "type": "uint256"
                }
            ],
            "name": "organizationIds",
            "outputs": [
                {
                    "internalType": "bytes32",
                    "name": "",
                    "type": "bytes32"
                }
            ],
            "stateMutability": "view",
            "type": "function"
        },
        {
            "inputs": [
                {
                    "internalType": "bytes32",
                    "name": "",
                    "type": "bytes32"
                }
            ],
            "name": "organizationMap",
            "outputs": [
                {
                    "internalType": "bytes32",
                    "name": "organizationId",
                    "type": "bytes32"
                },
                {
                    "internalType": "string",
                    "name": "name",
                    "type": "string"
                },
                {
                    "internalType": "string",
                    "name": "organizationAddress",
                    "type": "string"
                },
                {
                    "internalType": "bool",
                    "name": "isActive",
                    "type": "bool"
                },
                {
                    "internalType": "string",
                    "name": "customJsonData",
                    "type": "string"
                }
            ],
            "stateMutability": "view",
            "type": "function"
        },
        {
            "inputs": [
                {
                    "internalType": "uint256",
                    "name": "",
                    "type": "uint256"
                }
            ],
            "name": "organizationTypeIds",
            "outputs": [
                {
                    "internalType": "bytes32",
                    "name": "",
                    "type": "bytes32"
                }
            ],
            "stateMutability": "view",
            "type": "function"
        },
        {
            "inputs": [
                {
                    "internalType": "bytes32",
                    "name": "",
                    "type": "bytes32"
                }
            ],
            "name": "organizationTypeMap",
            "outputs": [
                {
                    "internalType": "bytes32",
                    "name": "organizationTypeId",
                    "type": "bytes32"
                },
                {
                    "internalType": "string",
                    "name": "name",
                    "type": "string"
                },
                {
                    "internalType": "bool",
                    "name": "isActive",
                    "type": "bool"
                },
                {
                    "internalType": "string",
                    "name": "customJsonData",
                    "type": "string"
                }
            ],
            "stateMutability": "view",
            "type": "function"
        },
        {
            "inputs": [
                {
                    "internalType": "uint256",
                    "name": "",
                    "type": "uint256"
                }
            ],
            "name": "productIds",
            "outputs": [
                {
                    "internalType": "bytes32",
                    "name": "",
                    "type": "bytes32"
                }
            ],
            "stateMutability": "view",
            "type": "function"
        },
        {
            "inputs": [
                {
                    "internalType": "bytes32",
                    "name": "",
                    "type": "bytes32"
                }
            ],
            "name": "productMap",
            "outputs": [
                {
                    "internalType": "bytes32",
                    "name": "productId",
                    "type": "bytes32"
                },
                {
                    "internalType": "bytes32",
                    "name": "categoryId",
                    "type": "bytes32"
                },
                {
                    "internalType": "string",
                    "name": "name",
                    "type": "string"
                },
                {
                    "internalType": "string",
                    "name": "description",
                    "type": "string"
                }
            ],
            "stateMutability": "view",
            "type": "function"
        },
        {
            "inputs": [
                {
                    "internalType": "bytes32",
                    "name": "",
                    "type": "bytes32"
                }
            ],
            "name": "profileMap",
            "outputs": [
                {
                    "internalType": "bytes32",
                    "name": "profieId",
                    "type": "bytes32"
                },
                {
                    "internalType": "string",
                    "name": "name",
                    "type": "string"
                },
                {
                    "internalType": "string",
                    "name": "email",
                    "type": "string"
                },
                {
                    "internalType": "string",
                    "name": "passwordHash",
                    "type": "string"
                },
                {
                    "internalType": "string",
                    "name": "phone",
                    "type": "string"
                },
                {
                    "internalType": "bytes32",
                    "name": "organizationId",
                    "type": "bytes32"
                }
            ],
            "stateMutability": "view",
            "type": "function"
        },
        {
            "inputs": [
                {
                    "internalType": "uint256",
                    "name": "",
                    "type": "uint256"
                }
            ],
            "name": "roleIds",
            "outputs": [
                {
                    "internalType": "bytes32",
                    "name": "",
                    "type": "bytes32"
                }
            ],
            "stateMutability": "view",
            "type": "function"
        },
        {
            "inputs": [
                {
                    "internalType": "bytes32",
                    "name": "",
                    "type": "bytes32"
                }
            ],
            "name": "roleMap",
            "outputs": [
                {
                    "internalType": "bytes32",
                    "name": "roleId",
                    "type": "bytes32"
                },
                {
                    "internalType": "string",
                    "name": "name",
                    "type": "string"
                }
            ],
            "stateMutability": "view",
            "type": "function"
        },
        {
            "inputs": [
                {
                    "internalType": "string",
                    "name": "_info",
                    "type": "string"
                }
            ],
            "name": "setInfo",
            "outputs": [],
            "stateMutability": "nonpayable",
            "type": "function"
        },
        {
            "inputs": [
                {
                    "internalType": "uint256",
                    "name": "",
                    "type": "uint256"
                }
            ],
            "name": "trackHistoryIds",
            "outputs": [
                {
                    "internalType": "bytes32",
                    "name": "",
                    "type": "bytes32"
                }
            ],
            "stateMutability": "view",
            "type": "function"
        },
        {
            "inputs": [
                {
                    "internalType": "bytes32",
                    "name": "",
                    "type": "bytes32"
                }
            ],
            "name": "trackHistoryMap",
            "outputs": [
                {
                    "internalType": "bytes32",
                    "name": "trackHistoryId",
                    "type": "bytes32"
                },
                {
                    "internalType": "bytes32",
                    "name": "productId",
                    "type": "bytes32"
                },
                {
                    "internalType": "bytes32",
                    "name": "activityid",
                    "type": "bytes32"
                },
                {
                    "internalType": "bytes32",
                    "name": "profileId",
                    "type": "bytes32"
                },
                {
                    "internalType": "bytes32",
                    "name": "areaId",
                    "type": "bytes32"
                },
                {
                    "internalType": "string",
                    "name": "gps",
                    "type": "string"
                },
                {
                    "internalType": "string",
                    "name": "remarks",
                    "type": "string"
                }
            ],
            "stateMutability": "view",
            "type": "function"
        },
        {
            "inputs": [
                {
                    "internalType": "bytes32",
                    "name": "objId",
                    "type": "bytes32"
                },
                {
                    "internalType": "string",
                    "name": "_name",
                    "type": "string"
                },
                {
                    "internalType": "bytes32",
                    "name": "_organizationTypeId",
                    "type": "bytes32"
                },
                {
                    "internalType": "string",
                    "name": "_customJsonData",
                    "type": "string"
                },
                {
                    "internalType": "bool",
                    "name": "_isActive",
                    "type": "bool"
                }
            ],
            "name": "updateActivity",
            "outputs": [],
            "stateMutability": "nonpayable",
            "type": "function"
        },
        {
            "inputs": [
                {
                    "internalType": "bytes32",
                    "name": "objId",
                    "type": "bytes32"
                },
                {
                    "internalType": "string",
                    "name": "_name",
                    "type": "string"
                },
                {
                    "internalType": "bytes32",
                    "name": "_organizationId",
                    "type": "bytes32"
                },
                {
                    "internalType": "string",
                    "name": "_customJsonData",
                    "type": "string"
                },
                {
                    "internalType": "bool",
                    "name": "_isActive",
                    "type": "bool"
                }
            ],
            "name": "updateArea",
            "outputs": [],
            "stateMutability": "nonpayable",
            "type": "function"
        },
        {
            "inputs": [
                {
                    "internalType": "bytes32",
                    "name": "objId",
                    "type": "bytes32"
                },
                {
                    "internalType": "string",
                    "name": "_name",
                    "type": "string"
                },
                {
                    "internalType": "string",
                    "name": "_customJsonData",
                    "type": "string"
                },
                {
                    "internalType": "bool",
                    "name": "_isActive",
                    "type": "bool"
                }
            ],
            "name": "updateCategory",
            "outputs": [],
            "stateMutability": "nonpayable",
            "type": "function"
        },
        {
            "inputs": [
                {
                    "internalType": "bytes32",
                    "name": "objId",
                    "type": "bytes32"
                },
                {
                    "internalType": "string",
                    "name": "_name",
                    "type": "string"
                },
                {
                    "internalType": "bytes32[]",
                    "name": "_organizationTypeIdList",
                    "type": "bytes32[]"
                },
                {
                    "internalType": "string",
                    "name": "_organizationAddress",
                    "type": "string"
                },
                {
                    "internalType": "string",
                    "name": "_customJsonData",
                    "type": "string"
                },
                {
                    "internalType": "bool",
                    "name": "_isActive",
                    "type": "bool"
                }
            ],
            "name": "updateOrganization",
            "outputs": [],
            "stateMutability": "nonpayable",
            "type": "function"
        },
        {
            "inputs": [
                {
                    "internalType": "bytes32",
                    "name": "objId",
                    "type": "bytes32"
                },
                {
                    "internalType": "string",
                    "name": "_name",
                    "type": "string"
                },
                {
                    "internalType": "string",
                    "name": "_customJsonData",
                    "type": "string"
                },
                {
                    "internalType": "bool",
                    "name": "_isActive",
                    "type": "bool"
                }
            ],
            "name": "updateOrganizationType",
            "outputs": [],
            "stateMutability": "nonpayable",
            "type": "function"
        },
        {
            "inputs": [],
            "name": "version",
            "outputs": [
                {
                    "internalType": "string",
                    "name": "",
                    "type": "string"
                }
            ],
            "stateMutability": "view",
            "type": "function"
        }
    ],
    "bytecode": "60c06040526007608081905266312e302e302e3160c81b60a09081526200002a91601491906200003f565b503480156200003857600080fd5b50620000eb565b828054600181600116156101000203166002900490600052602060002090601f016020900481019282620000775760008555620000c2565b82601f106200009257805160ff1916838001178555620000c2565b82800160010185558215620000c2579182015b82811115620000c2578251825591602001919060010190620000a5565b50620000d0929150620000d4565b5090565b5b80821115620000d05760008155600101620000d5565b6138e680620000fb6000396000f3fe608060405234801561001057600080fd5b50600436106102265760003560e01c80637149164011610130578063ab1a607c116100b8578063d63098dd1161007c578063d63098dd146119ee578063e02ed02814611a0b578063e85bf15714611b38578063e8d7226914611b55578063ea2ad7da14611c8657610226565b8063ab1a607c1461163e578063b15612991461186e578063b224b4e91461188b578063b59d5cfd146119b4578063cb51bba9146119d157610226565b806392bbaf40116100ff57806392bbaf40146112e0578063937f6e77146112fd578063986deb9a146113a157806398ed240c146113be5780639a017e0a146114ef57610226565b8063714916401461114f5780637bcb20b01461116c5780638599e25e1461118957806386ed1913146111a657610226565b80633df9601a116101b35780635a9b0b89116101825780635a9b0b8914610c9b5780635ba8c29414610ca35780636aa6443b14610e785780636c72bcb314610ee35780636e5ca08e1461101d57610226565b80633df9601a14610ac657806350b33f8014610be457806351a7293314610c0157806354fd4d5014610c1e57610226565b8063100b6ba2116101fa578063100b6ba214610531578063111c47791461063a5780632499c6a61461087557806331a3fc6e146109a7578063395c211114610aa957610226565b80621f5bd21461022b578063037f6ab41461033d5780630a1bb26a146104785780630f0d3da514610495575b600080fd5b6102486004803603602081101561024157600080fd5b5035611ca3565b6040518086815260200180602001858152602001841515815260200180602001838103835287818151815260200191508051906020019080838360005b8381101561029d578181015183820152602001610285565b50505050905090810190601f1680156102ca5780820380516001836020036101000a031916815260200191505b50838103825284518152845160209182019186019080838360005b838110156102fd5781810151838201526020016102e5565b50505050905090810190601f16801561032a5780820380516001836020036101000a031916815260200191505b5097505050505050505060405180910390f35b6104666004803603604081101561035357600080fd5b810190602081018135600160201b81111561036d57600080fd5b82018360208201111561037f57600080fd5b803590602001918460018302840111600160201b831117156103a057600080fd5b91908080601f0160208091040260200160405190810160405280939291908181526020018383808284376000920191909152509295949360208101935035915050600160201b8111156103f257600080fd5b82018360208201111561040457600080fd5b803590602001918460018302840111600160201b8311171561042557600080fd5b91908080601f016020809104026020016040519081016040528093929190818152602001838380828437600092019190915250929550611e07945050505050565b60408051918252519081900360200190f35b6104666004803603602081101561048e57600080fd5b5035611ef0565b6104b2600480360360208110156104ab57600080fd5b5035611f11565b6040518083815260200180602001828103825283818151815260200191508051906020019080838360005b838110156104f55781810151838201526020016104dd565b50505050905090810190601f1680156105225780820380516001836020036101000a031916815260200191505b50935050505060405180910390f35b61054e6004803603602081101561054757600080fd5b5035611fb8565b604051808581526020018481526020018060200180602001838103835285818151815260200191508051906020019080838360005b8381101561059b578181015183820152602001610583565b50505050905090810190601f1680156105c85780820380516001836020036101000a031916815260200191505b50838103825284518152845160209182019186019080838360005b838110156105fb5781810151838201526020016105e3565b50505050905090810190601f1680156106285780820380516001836020036101000a031916815260200191505b50965050505050505060405180910390f35b610873600480360360c081101561065057600080fd5b81359190810190604081016020820135600160201b81111561067157600080fd5b82018360208201111561068357600080fd5b803590602001918460018302840111600160201b831117156106a457600080fd5b91908080601f0160208091040260200160405190810160405280939291908181526020018383808284376000920191909152509295949360208101935035915050600160201b8111156106f657600080fd5b82018360208201111561070857600080fd5b803590602001918460208302840111600160201b8311171561072957600080fd5b9190808060200260200160405190810160405280939291908181526020018383602002808284376000920191909152509295949360208101935035915050600160201b81111561077857600080fd5b82018360208201111561078a57600080fd5b803590602001918460018302840111600160201b831117156107ab57600080fd5b91908080601f0160208091040260200160405190810160405280939291908181526020018383808284376000920191909152509295949360208101935035915050600160201b8111156107fd57600080fd5b82018360208201111561080f57600080fd5b803590602001918460018302840111600160201b8311171561083057600080fd5b91908080601f01602080910402602001604051908101604052809392919081815260200183838082843760009201919091525092955050505035151590506120f1565b005b6108736004803603608081101561088b57600080fd5b81359190810190604081016020820135600160201b8111156108ac57600080fd5b8201836020820111156108be57600080fd5b803590602001918460018302840111600160201b831117156108df57600080fd5b91908080601f0160208091040260200160405190810160405280939291908181526020018383808284376000920191909152509295949360208101935035915050600160201b81111561093157600080fd5b82018360208201111561094357600080fd5b803590602001918460018302840111600160201b8311171561096457600080fd5b91908080601f01602080910402602001604051908101604052809392919081815260200183838082843760009201919091525092955050505035151590506121a4565b6109c4600480360360208110156109bd57600080fd5b503561222a565b604051808481526020018060200180602001838103835285818151815260200191508051906020019080838360005b83811015610a0b5781810151838201526020016109f3565b50505050905090810190601f168015610a385780820380516001836020036101000a031916815260200191505b50838103825284518152845160209182019186019080838360005b83811015610a6b578181015183820152602001610a53565b50505050905090810190601f168015610a985780820380516001836020036101000a031916815260200191505b509550505050505060405180910390f35b61046660048036036020811015610abf57600080fd5b5035612363565b610ae360048036036020811015610adc57600080fd5b5035612373565b604051808881526020018781526020018681526020018581526020018481526020018060200180602001838103835285818151815260200191508051906020019080838360005b83811015610b42578181015183820152602001610b2a565b50505050905090810190601f168015610b6f5780820380516001836020036101000a031916815260200191505b50838103825284518152845160209182019186019080838360005b83811015610ba2578181015183820152602001610b8a565b50505050905090810190601f168015610bcf5780820380516001836020036101000a031916815260200191505b50995050505050505050505060405180910390f35b61046660048036036020811015610bfa57600080fd5b50356124d7565b61024860048036036020811015610c1757600080fd5b50356124e7565b610c26612577565b6040805160208082528351818301528351919283929083019185019080838360005b83811015610c60578181015183820152602001610c48565b50505050905090810190601f168015610c8d5780820380516001836020036101000a031916815260200191505b509250505060405180910390f35b610c26612605565b610cc060048036036020811015610cb957600080fd5b503561269b565b604051808781526020018060200180602001806020018060200186815260200185810385528a818151815260200191508051906020019080838360005b83811015610d15578181015183820152602001610cfd565b50505050905090810190601f168015610d425780820380516001836020036101000a031916815260200191505b5085810384528951815289516020918201918b019080838360005b83811015610d75578181015183820152602001610d5d565b50505050905090810190601f168015610da25780820380516001836020036101000a031916815260200191505b5085810383528851815288516020918201918a019080838360005b83811015610dd5578181015183820152602001610dbd565b50505050905090810190601f168015610e025780820380516001836020036101000a031916815260200191505b50858103825287518152875160209182019189019080838360005b83811015610e35578181015183820152602001610e1d565b50505050905090810190601f168015610e625780820380516001836020036101000a031916815260200191505b509a505050505050505050505060405180910390f35b610e9560048036036020811015610e8e57600080fd5b50356128fa565b6040518085815260200180602001841515815260200180602001838103835286818151815260200191508051906020019080838360008381101561059b578181015183820152602001610583565b610873600480360360a0811015610ef957600080fd5b81359190810190604081016020820135600160201b811115610f1a57600080fd5b820183602082011115610f2c57600080fd5b803590602001918460018302840111600160201b83111715610f4d57600080fd5b91908080601f01602080910402602001604051908101604052809392919081815260200183838082843760009201919091525092958435959094909350604081019250602001359050600160201b811115610fa757600080fd5b820183602082011115610fb957600080fd5b803590602001918460018302840111600160201b83111715610fda57600080fd5b91908080601f0160208091040260200160405190810160405280939291908181526020018383808284376000920191909152509295505050503515159050612a08565b6108736004803603608081101561103357600080fd5b81359190810190604081016020820135600160201b81111561105457600080fd5b82018360208201111561106657600080fd5b803590602001918460018302840111600160201b8311171561108757600080fd5b91908080601f0160208091040260200160405190810160405280939291908181526020018383808284376000920191909152509295949360208101935035915050600160201b8111156110d957600080fd5b8201836020820111156110eb57600080fd5b803590602001918460018302840111600160201b8311171561110c57600080fd5b91908080601f0160208091040260200160405190810160405280939291908181526020018383808284376000920191909152509295505050503515159050612a96565b6102486004803603602081101561116557600080fd5b5035612b1d565b6104666004803603602081101561118257600080fd5b5035612c68565b6109c46004803603602081101561119f57600080fd5b5035612c78565b610873600480360360a08110156111bc57600080fd5b81359190810190604081016020820135600160201b8111156111dd57600080fd5b8201836020820111156111ef57600080fd5b803590602001918460018302840111600160201b8311171561121057600080fd5b91908080601f01602080910402602001604051908101604052809392919081815260200183838082843760009201919091525092958435959094909350604081019250602001359050600160201b81111561126a57600080fd5b82018360208201111561127c57600080fd5b803590602001918460018302840111600160201b8311171561129d57600080fd5b91908080601f0160208091040260200160405190810160405280939291908181526020018383808284376000920191909152509295505050503515159050612dc1565b610466600480360360208110156112f657600080fd5b5035612e50565b6108736004803603602081101561131357600080fd5b810190602081018135600160201b81111561132d57600080fd5b82018360208201111561133f57600080fd5b803590602001918460018302840111600160201b8311171561136057600080fd5b91908080601f016020809104026020016040519081016040528093929190818152602001838380828437600092019190915250929550612e60945050505050565b610466600480360360208110156113b757600080fd5b5035612e77565b610466600480360360608110156113d457600080fd5b810190602081018135600160201b8111156113ee57600080fd5b82018360208201111561140057600080fd5b803590602001918460018302840111600160201b8311171561142157600080fd5b91908080601f01602080910402602001604051908101604052809392919081815260200183838082843760009201919091525092958435959094909350604081019250602001359050600160201b81111561147b57600080fd5b82018360208201111561148d57600080fd5b803590602001918460018302840111600160201b831117156114ae57600080fd5b91908080601f016020809104026020016040519081016040528093929190818152602001838380828437600092019190915250929550612e87945050505050565b61150c6004803603602081101561150557600080fd5b5035612f78565b604051808681526020018060200180602001851515815260200180602001848103845288818151815260200191508051906020019080838360005b8381101561155f578181015183820152602001611547565b50505050905090810190601f16801561158c5780820380516001836020036101000a031916815260200191505b508481038352875181528751602091820191808a01910280838360005b838110156115c15781810151838201526020016115a9565b50505050905001848103825285818151815260200191508051906020019080838360005b838110156115fd5781810151838201526020016115e5565b50505050905090810190601f16801561162a5780820380516001836020036101000a031916815260200191505b509850505050505050505060405180910390f35b6104666004803603608081101561165457600080fd5b810190602081018135600160201b81111561166e57600080fd5b82018360208201111561168057600080fd5b803590602001918460018302840111600160201b831117156116a157600080fd5b91908080601f0160208091040260200160405190810160405280939291908181526020018383808284376000920191909152509295949360208101935035915050600160201b8111156116f357600080fd5b82018360208201111561170557600080fd5b803590602001918460208302840111600160201b8311171561172657600080fd5b9190808060200260200160405190810160405280939291908181526020018383602002808284376000920191909152509295949360208101935035915050600160201b81111561177557600080fd5b82018360208201111561178757600080fd5b803590602001918460018302840111600160201b831117156117a857600080fd5b91908080601f0160208091040260200160405190810160405280939291908181526020018383808284376000920191909152509295949360208101935035915050600160201b8111156117fa57600080fd5b82018360208201111561180c57600080fd5b803590602001918460018302840111600160201b8311171561182d57600080fd5b91908080601f0160208091040260200160405190810160405280939291908181526020018383808284376000920191909152509295506130e4945050505050565b610e956004803603602081101561188457600080fd5b50356131fa565b610466600480360360408110156118a157600080fd5b810190602081018135600160201b8111156118bb57600080fd5b8201836020820111156118cd57600080fd5b803590602001918460018302840111600160201b831117156118ee57600080fd5b91908080601f0160208091040260200160405190810160405280939291908181526020018383808284376000920191909152509295949360208101935035915050600160201b81111561194057600080fd5b82018360208201111561195257600080fd5b803590602001918460018302840111600160201b8311171561197357600080fd5b91908080601f01602080910402602001604051908101604052809392919081815260200183838082843760009201919091525092955061326b945050505050565b610248600480360360208110156119ca57600080fd5b5035613354565b610466600480360360208110156119e757600080fd5b50356133c4565b61046660048036036020811015611a0457600080fd5b50356133d4565b611a2860048036036020811015611a2157600080fd5b50356133e4565b604051808681526020018060200180602001851515815260200180602001848103845288818151815260200191508051906020019080838360005b83811015611a7b578181015183820152602001611a63565b50505050905090810190601f168015611aa85780820380516001836020036101000a031916815260200191505b50848103835287518152875160209182019189019080838360005b83811015611adb578181015183820152602001611ac3565b50505050905090810190601f168015611b085780820380516001836020036101000a031916815260200191505b508481038252855181528551602091820191870190808383600083156115fd5781810151838201526020016115e5565b61046660048036036020811015611b4e57600080fd5b503561357e565b61046660048036036060811015611b6b57600080fd5b810190602081018135600160201b811115611b8557600080fd5b820183602082011115611b9757600080fd5b803590602001918460018302840111600160201b83111715611bb857600080fd5b91908080601f01602080910402602001604051908101604052809392919081815260200183838082843760009201919091525092958435959094909350604081019250602001359050600160201b811115611c1257600080fd5b820183602082011115611c2457600080fd5b803590602001918460018302840111600160201b83111715611c4557600080fd5b91908080601f01602080910402602001604051908101604052809392919081815260200183838082843760009201919091525092955061358e945050505050565b610e9560048036036020811015611c9c57600080fd5b503561367f565b60008181526003602081815260408084208054600280830154958301546001808501805487516101009382161593909302600019011693909304601f8101889004880282018801909652858152606097899788978a97969594929360ff90931692600488019290918691830182828015611d5e5780601f10611d3357610100808354040283529160200191611d5e565b820191906000526020600020905b815481529060010190602001808311611d4157829003601f168201915b5050845460408051602060026001851615610100026000190190941693909304601f810184900484028201840190925281815295995086945092508401905082828015611dec5780601f10611dc157610100808354040283529160200191611dec565b820191906000526020600020905b815481529060010190602001808311611dcf57829003601f168201915b50505050509050955095509550955095505091939590929450565b60408051426020808301919091524482840152825180830384018152606090920183528151918101919091206000818152600180845293812082815560028101805460ff1916861790558651919492939092611e6992908401918801906137d5565b508351611e7f90600383019060208701906137d5565b50600b80546001810182556000919091527f0175b7a638427703f0dbe7bb9bbf987a2551717b34e79f33b5b1008d1fa01db9018290556040805183815290517f419c23ff814e3967d54e8426b09e6bb4cfe5682b082e396c591e97bcad447ba99181900360200190a1509392505050565b600b8181548110611f0057600080fd5b600091825260209091200154905081565b6006602090815260009182526040918290208054600180830180548651600293821615610100026000190190911692909204601f810186900486028301860190965285825291949293909290830182828015611fae5780601f10611f8357610100808354040283529160200191611fae565b820191906000526020600020905b815481529060010190602001808311611f9157829003601f168201915b5050505050905082565b60056020908152600091825260409182902080546001808301546002808501805488519481161561010002600019011691909104601f8101879004870284018701909752868352929590949192918301828280156120575780601f1061202c57610100808354040283529160200191612057565b820191906000526020600020905b81548152906001019060200180831161203a57829003601f168201915b5050505060038301805460408051602060026001851615610100026000190190941693909304601f81018490048402820184019092528181529495949350908301828280156120e75780601f106120bc576101008083540402835291602001916120e7565b820191906000526020600020905b8154815290600101906020018083116120ca57829003601f168201915b5050505050905084565b60008681526020818152604090912085519091612115916002840191880190613861565b50835161212b90600383019060208701906137d5565b50855161214190600183019060208901906137d5565b5060048101805460ff1916831515179055825161216790600583019060208601906137d5565b506040805188815290517f81cd5cff107d9c8214b96b0fd16f800e4a820213e366cd2b3bec86e730dbcfc69181900360200190a150505050505050565b6000848152600160208181526040909220855190926121c992840191908701906137d5565b5060028101805460ff191683151517905582516121ef90600383019060208601906137d5565b506040805186815290517f4c9c025c66604acf9c898ba08849a696a99176a0d78bdf6ac5111e11e14b59aa9181900360200190a15050505050565b6008602090815260009182526040918290208054600180830180548651600293821615610100026000190190911692909204601f8101869004860283018601909652858252919492939092908301828280156122c75780601f1061229c576101008083540402835291602001916122c7565b820191906000526020600020905b8154815290600101906020018083116122aa57829003601f168201915b50505060028085018054604080516020601f60001961010060018716150201909416959095049283018590048502810185019091528181529596959450909250908301828280156123595780601f1061232e57610100808354040283529160200191612359565b820191906000526020600020905b81548152906001019060200180831161233c57829003601f168201915b5050505050905083565b60118181548110611f0057600080fd5b6009602052806000526040600020600091509050806000015490806001015490806002015490806003015490806004015490806005018054600181600116156101000203166002900480601f01602080910402602001604051908101604052809291908181526020018280546001816001161561010002031660029004801561243d5780601f106124125761010080835404028352916020019161243d565b820191906000526020600020905b81548152906001019060200180831161242057829003601f168201915b5050505060068301805460408051602060026001851615610100026000190190941693909304601f81018490048402820184019092528181529495949350908301828280156124cd5780601f106124a2576101008083540402835291602001916124cd565b820191906000526020600020905b8154815290600101906020018083116124b057829003601f168201915b5050505050905087565b600a8181548110611f0057600080fd5b600081815260026020818152604080842080548185015460038301546001808501805487516101009382161593909302600019011698909804601f8101889004880282018801909652858152606097899788978a9796959294929360ff90931692600488019290918691830182828015611d5e5780601f10611d3357610100808354040283529160200191611d5e565b6014805460408051602060026001851615610100026000190190941693909304601f810184900484028201840190925281815292918301828280156125fd5780601f106125d2576101008083540402835291602001916125fd565b820191906000526020600020905b8154815290600101906020018083116125e057829003601f168201915b505050505081565b60138054604080516020601f60026000196101006001881615020190951694909404938401819004810282018101909252828152606093909290918301828280156126915780601f1061266657610100808354040283529160200191612691565b820191906000526020600020905b81548152906001019060200180831161267457829003601f168201915b5050505050905090565b6007602090815260009182526040918290208054600180830180548651600293821615610100026000190190911692909204601f8101869004860283018601909652858252919492939092908301828280156127385780601f1061270d57610100808354040283529160200191612738565b820191906000526020600020905b81548152906001019060200180831161271b57829003601f168201915b50505060028085018054604080516020601f60001961010060018716150201909416959095049283018590048502810185019091528181529596959450909250908301828280156127ca5780601f1061279f576101008083540402835291602001916127ca565b820191906000526020600020905b8154815290600101906020018083116127ad57829003601f168201915b5050505060038301805460408051602060026001851615610100026000190190941693909304601f810184900484028201840190925281815294959493509083018282801561285a5780601f1061282f5761010080835404028352916020019161285a565b820191906000526020600020905b81548152906001019060200180831161283d57829003601f168201915b5050505060048301805460408051602060026001851615610100026000190190941693909304601f81018490048402820184019092528181529495949350908301828280156128ea5780601f106128bf576101008083540402835291602001916128ea565b820191906000526020600020905b8154815290600101906020018083116128cd57829003601f168201915b5050505050908060060154905086565b6004602090815260009182526040918290208054600180830180548651600293821615610100026000190190911692909204601f8101869004860283018601909652858252919492939092908301828280156129975780601f1061296c57610100808354040283529160200191612997565b820191906000526020600020905b81548152906001019060200180831161297a57829003601f168201915b505050506002838101546003850180546040805160206101006001851615026000190190931695909504601f8101839004830286018301909152808552959660ff909316959294509091908301828280156120e75780601f106120bc576101008083540402835291602001916120e7565b600085815260026020818152604090922090810185905585519091612a349160018401918801906137d5565b5060038101805460ff19168315151790558251612a5a90600483019060208601906137d5565b506040805187815290517f8a3906be51b7d1f5c0fde5bcd51a0f4c663bafa8250b79158f62136c0d00f2379181900360200190a1505050505050565b600084815260046020908152604090912084519091612abc9160018401918701906137d5565b5060028101805460ff19168315151790558251612ae290600383019060208601906137d5565b506040805186815290517fb17d425d710652ed2b5d27f04807e9015c9b0b3af2fe3434ccf17197f338c7fd9181900360200190a15050505050565b6003602090815260009182526040918290208054600180830180548651600293821615610100026000190190911692909204601f810186900486028301860190965285825291949293909290830182828015612bba5780601f10612b8f57610100808354040283529160200191612bba565b820191906000526020600020905b815481529060010190602001808311612b9d57829003601f168201915b5050505060028381015460038501546004860180546040805160206101006001851615026000190190931696909604601f81018390048302870183019091528086529697939660ff9093169550929392909190830182828015612c5e5780601f10612c3357610100808354040283529160200191612c5e565b820191906000526020600020905b815481529060010190602001808311612c4157829003601f168201915b5050505050905085565b600d8181548110611f0057600080fd5b6000818152600160208181526040808420805481850180548451600297821615610100026000190190911696909604601f810186900486028701860190945283865260609586959394929391926003860192849190830182828015612d1e5780601f10612cf357610100808354040283529160200191612d1e565b820191906000526020600020905b815481529060010190602001808311612d0157829003601f168201915b5050845460408051602060026001851615610100026000190190941693909304601f810184900484028201840190925281815295975086945092508401905082828015612dac5780601f10612d8157610100808354040283529160200191612dac565b820191906000526020600020905b815481529060010190602001808311612d8f57829003601f168201915b50505050509050935093509350509193909250565b60008581526003602090815260409091206002810185905585519091612dee9160018401918801906137d5565b5060038101805460ff19168315151790558251612e1490600483019060208601906137d5565b506040805187815290517f45b26663d51e9e501c400d7363e3289b674ae39502c715178017fd129d69fe379181900360200190a1505050505050565b60128181548110611f0057600080fd5b8051612e739060139060208401906137d5565b5050565b60108181548110611f0057600080fd5b6040805142602080830191909152448284015282518083038401815260609092018352815191810191909120600081815260038352928320818155865191929091612eda916001840191908901906137d5565b506002810185905560038101805460ff191660011790558351612f0690600483019060208701906137d5565b50600d80546001810182556000919091527fd7b6990105719101dabeb77144f2a3385c8033acd3af97e9423a695e81ad1eb5018290556040805183815290517f7994ff4618f2947c574817607d7facebfdf8912b3656ac7f8d441caf7c555c9a9181900360200190a150949350505050565b600081815260208181526040808320805460048201546001808401805486516002610100948316159490940260001901909116839004601f810189900489028201890190975286815260609788978a9789979096909587019360ff909116926005880192869183018282801561302f5780601f106130045761010080835404028352916020019161302f565b820191906000526020600020905b81548152906001019060200180831161301257829003601f168201915b505050505093508280548060200260200160405190810160405280929190818152602001828054801561308157602002820191906000526020600020905b81548152602001906001019080831161306d575b5050845460408051602060026001851615610100026000190190941693909304601f810184900484028201840190925281815295985086945092508401905082828015611dec5780601f10611dc157610100808354040283529160200191611dec565b6040805142602080830191909152448284015282518083038401815260609092018352815191810191909120600081815280835292832081815586519192909161313691600284019190890190613861565b5060048101805460ff19166001179055845161315b90600383019060208801906137d5565b50865161317190600183019060208a01906137d5565b50835161318790600583019060208701906137d5565b50600a80546001810182556000919091527fc65a7bb8d6351c1cf70c95a316cc6a92839c986682d98bc35f958f4883f9d2a8018290556040805183815290517f0e7857bfbd020070a2c8d2fe38c788de1e6adc88cb46f60cf6ec7cd385e81db19181900360200190a15095945050505050565b600160208181526000928352604092839020805481840180548651600296821615610100026000190190911695909504601f810185900485028601850190965285855290949193929091908301828280156129975780601f1061296c57610100808354040283529160200191612997565b60408051426020808301919091524482840152825180830384018152606090920183528151918101919091206000818152600483529283208181558551919290916132be916001840191908801906137d5565b5060028101805460ff1916600117905583516132e390600383019060208701906137d5565b50600e80546001810182556000919091527fbb7b4a454dc3493923482f07822329ed19e8244eff582cc204f8554c3620c3fd018290556040805183815290517fceaa9780dd69d57f7477f4eeb327451530ffdc7e551797e9c9eac2f6c6e1705c9181900360200190a1509392505050565b60026020818152600092835260409283902080546001808301805487519281161561010002600019011695909504601f8101859004850282018501909652858152909491939092909190830182828015612bba5780601f10612b8f57610100808354040283529160200191612bba565b600f8181548110611f0057600080fd5b600e8181548110611f0057600080fd5b600060208181529181526040908190208054600180830180548551600293821615610100026000190190911692909204601f810187900487028301870190955284825291949293909283018282801561347e5780601f106134535761010080835404028352916020019161347e565b820191906000526020600020905b81548152906001019060200180831161346157829003601f168201915b5050505060038301805460408051602060026001851615610100026000190190941693909304601f810184900484028201840190925281815294959493509083018282801561350e5780601f106134e35761010080835404028352916020019161350e565b820191906000526020600020905b8154815290600101906020018083116134f157829003601f168201915b50505050600483015460058401805460408051602060026101006001861615026000190190941693909304601f8101849004840282018401909252818152959660ff9094169593945090830182828015612c5e5780601f10612c3357610100808354040283529160200191612c5e565b600c8181548110611f0057600080fd5b60408051426020808301919091524482840152825180830384018152606090920183528151918101919091206000818152600283529283208181558651919290916135e1916001840191908901906137d5565b506002810185905560038101805460ff19166001179055835161360d90600483019060208701906137d5565b50600c80546001810182556000919091527fdf6966c971051c3d54ec59162606531493a51404a002842f56009d7e5cf4a8c7018290556040805183815290517f8c7030962ef212931d701bb102293b6046a82938c9fa09296a6ee14c53f14ee69181900360200190a150949350505050565b600081815260046020908152604080832080546002808301546001808501805487516101009382161593909302600019011693909304601f81018890048802820188019096528581526060968896889695949360ff16926003870192909185918301828280156137305780601f1061370557610100808354040283529160200191613730565b820191906000526020600020905b81548152906001019060200180831161371357829003601f168201915b5050845460408051602060026001851615610100026000190190941693909304601f8101849004840282018401909252818152959850869450925084019050828280156137be5780601f10613793576101008083540402835291602001916137be565b820191906000526020600020905b8154815290600101906020018083116137a157829003601f168201915b505050505090509450945094509450509193509193565b828054600181600116156101000203166002900490600052602060002090601f01602090048101928261380b5760008555613851565b82601f1061382457805160ff1916838001178555613851565b82800160010185558215613851579182015b82811115613851578251825591602001919060010190613836565b5061385d92915061389b565b5090565b8280548282559060005260206000209081019282156138515791602002820182811115613851578251825591602001919060010190613836565b5b8082111561385d576000815560010161389c56fea26469706673582212200d3db347f0c1cf69900dfedf72b7876e44e608757c4684bdcdaa5629634d92c464736f6c63430007040033",
    "sourcePath": "d:/GitHub/supplychain_blockchain/tat_contract/contracts/SupplyChain.sol",
    "compiler": {
        "name": "solc",
        "version": "0.7.4+commit.3f05b770"
    },
    "functionHashes": {
        "activityIds(uint256)": "e85bf157",
        "activityMap(bytes32)": "b59d5cfd",
        "areaIds(uint256)": "7bcb20b0",
        "areaMap(bytes32)": "71491640",
        "categoryIds(uint256)": "d63098dd",
        "categoryMap(bytes32)": "6aa6443b",
        "certificationIds(uint256)": "395c2111",
        "certificationMap(bytes32)": "31a3fc6e",
        "createActivity(string,bytes32,string)": "e8d72269",
        "createArea(string,bytes32,string)": "98ed240c",
        "createCategory(string,string)": "b224b4e9",
        "createOrganization(string,bytes32[],string,string)": "ab1a607c",
        "createOrganizationType(string,string)": "037f6ab4",
        "getActivityById(bytes32)": "51a72933",
        "getAreaById(bytes32)": "001f5bd2",
        "getCategoryById(bytes32)": "ea2ad7da",
        "getInfo()": "5a9b0b89",
        "getOrganizationById(bytes32)": "9a017e0a",
        "getOrganizationTypeById(bytes32)": "8599e25e",
        "organizationIds(uint256)": "50b33f80",
        "organizationMap(bytes32)": "e02ed028",
        "organizationTypeIds(uint256)": "0a1bb26a",
        "organizationTypeMap(bytes32)": "b1561299",
        "productIds(uint256)": "cb51bba9",
        "productMap(bytes32)": "100b6ba2",
        "profileMap(bytes32)": "5ba8c294",
        "roleIds(uint256)": "986deb9a",
        "roleMap(bytes32)": "0f0d3da5",
        "setInfo(string)": "937f6e77",
        "trackHistoryIds(uint256)": "92bbaf40",
        "trackHistoryMap(bytes32)": "3df9601a",
        "updateActivity(bytes32,string,bytes32,string,bool)": "6c72bcb3",
        "updateArea(bytes32,string,bytes32,string,bool)": "86ed1913",
        "updateCategory(bytes32,string,string,bool)": "6e5ca08e",
        "updateOrganization(bytes32,string,bytes32[],string,string,bool)": "111c4779",
        "updateOrganizationType(bytes32,string,string,bool)": "2499c6a6",
        "version()": "54fd4d50"
    },
    "gasEstimates": {
        "creation": {
            "codeDepositCost": "2913200",
            "executionCost": "infinite",
            "totalCost": "infinite"
        },
        "external": {
            "activityIds(uint256)": "2019",
            "activityMap(bytes32)": "infinite",
            "areaIds(uint256)": "1999",
            "areaMap(bytes32)": "infinite",
            "categoryIds(uint256)": "1975",
            "categoryMap(bytes32)": "infinite",
            "certificationIds(uint256)": "2065",
            "certificationMap(bytes32)": "infinite",
            "createActivity(string,bytes32,string)": "infinite",
            "createArea(string,bytes32,string)": "infinite",
            "createCategory(string,string)": "infinite",
            "createOrganization(string,bytes32[],string,string)": "infinite",
            "createOrganizationType(string,string)": "infinite",
            "getActivityById(bytes32)": "infinite",
            "getAreaById(bytes32)": "infinite",
            "getCategoryById(bytes32)": "infinite",
            "getInfo()": "infinite",
            "getOrganizationById(bytes32)": "infinite",
            "getOrganizationTypeById(bytes32)": "infinite",
            "organizationIds(uint256)": "1999",
            "organizationMap(bytes32)": "infinite",
            "organizationTypeIds(uint256)": "2022",
            "organizationTypeMap(bytes32)": "infinite",
            "productIds(uint256)": "2064",
            "productMap(bytes32)": "infinite",
            "profileMap(bytes32)": "infinite",
            "roleIds(uint256)": "2020",
            "roleMap(bytes32)": "infinite",
            "setInfo(string)": "infinite",
            "trackHistoryIds(uint256)": "1976",
            "trackHistoryMap(bytes32)": "infinite",
            "updateActivity(bytes32,string,bytes32,string,bool)": "infinite",
            "updateArea(bytes32,string,bytes32,string,bool)": "infinite",
            "updateCategory(bytes32,string,string,bool)": "infinite",
            "updateOrganization(bytes32,string,bytes32[],string,string,bool)": "infinite",
            "updateOrganizationType(bytes32,string,string,bool)": "infinite",
            "version()": "infinite"
        }
    }
}