{
    "contractName": "SupplyChainModel",
    "abi": [
        {
            "inputs": [
                {
                    "internalType": "uint256",
                    "name": "",
                    "type": "uint256"
                }
            ],
            "name": "activityIds",
            "outputs": [
                {
                    "internalType": "bytes",
                    "name": "",
                    "type": "bytes"
                }
            ],
            "stateMutability": "view",
            "type": "function"
        },
        {
            "inputs": [
                {
                    "internalType": "bytes32",
                    "name": "",
                    "type": "bytes32"
                }
            ],
            "name": "activityMap",
            "outputs": [
                {
                    "internalType": "bytes32",
                    "name": "activityId",
                    "type": "bytes32"
                },
                {
                    "internalType": "string",
                    "name": "name",
                    "type": "string"
                },
                {
                    "internalType": "bytes32",
                    "name": "organizationTypeId",
                    "type": "bytes32"
                }
            ],
            "stateMutability": "view",
            "type": "function"
        },
        {
            "inputs": [
                {
                    "internalType": "uint256",
                    "name": "",
                    "type": "uint256"
                }
            ],
            "name": "areaIds",
            "outputs": [
                {
                    "internalType": "bytes",
                    "name": "",
                    "type": "bytes"
                }
            ],
            "stateMutability": "view",
            "type": "function"
        },
        {
            "inputs": [
                {
                    "internalType": "bytes32",
                    "name": "",
                    "type": "bytes32"
                }
            ],
            "name": "areaMap",
            "outputs": [
                {
                    "internalType": "bytes32",
                    "name": "areaId",
                    "type": "bytes32"
                },
                {
                    "internalType": "string",
                    "name": "name",
                    "type": "string"
                },
                {
                    "internalType": "bytes32",
                    "name": "organizationId",
                    "type": "bytes32"
                }
            ],
            "stateMutability": "view",
            "type": "function"
        },
        {
            "inputs": [
                {
                    "internalType": "uint256",
                    "name": "",
                    "type": "uint256"
                }
            ],
            "name": "categoryIds",
            "outputs": [
                {
                    "internalType": "bytes",
                    "name": "",
                    "type": "bytes"
                }
            ],
            "stateMutability": "view",
            "type": "function"
        },
        {
            "inputs": [
                {
                    "internalType": "bytes32",
                    "name": "",
                    "type": "bytes32"
                }
            ],
            "name": "categoryMap",
            "outputs": [
                {
                    "internalType": "bytes32",
                    "name": "categoryId",
                    "type": "bytes32"
                },
                {
                    "internalType": "string",
                    "name": "name",
                    "type": "string"
                }
            ],
            "stateMutability": "view",
            "type": "function"
        },
        {
            "inputs": [
                {
                    "internalType": "uint256",
                    "name": "",
                    "type": "uint256"
                }
            ],
            "name": "certificationIds",
            "outputs": [
                {
                    "internalType": "bytes",
                    "name": "",
                    "type": "bytes"
                }
            ],
            "stateMutability": "view",
            "type": "function"
        },
        {
            "inputs": [
                {
                    "internalType": "bytes32",
                    "name": "",
                    "type": "bytes32"
                }
            ],
            "name": "certificationMap",
            "outputs": [
                {
                    "internalType": "bytes32",
                    "name": "certificationId",
                    "type": "bytes32"
                },
                {
                    "internalType": "string",
                    "name": "name",
                    "type": "string"
                },
                {
                    "internalType": "string",
                    "name": "certificateUrl",
                    "type": "string"
                }
            ],
            "stateMutability": "view",
            "type": "function"
        },
        {
            "inputs": [
                {
                    "internalType": "uint256",
                    "name": "",
                    "type": "uint256"
                }
            ],
            "name": "organizationIds",
            "outputs": [
                {
                    "internalType": "bytes",
                    "name": "",
                    "type": "bytes"
                }
            ],
            "stateMutability": "view",
            "type": "function"
        },
        {
            "inputs": [
                {
                    "internalType": "bytes32",
                    "name": "",
                    "type": "bytes32"
                }
            ],
            "name": "organizationMap",
            "outputs": [
                {
                    "internalType": "bytes32",
                    "name": "organizationId",
                    "type": "bytes32"
                },
                {
                    "internalType": "string",
                    "name": "name",
                    "type": "string"
                },
                {
                    "internalType": "string",
                    "name": "organizationAddress",
                    "type": "string"
                }
            ],
            "stateMutability": "view",
            "type": "function"
        },
        {
            "inputs": [
                {
                    "internalType": "uint256",
                    "name": "",
                    "type": "uint256"
                }
            ],
            "name": "organizationTypeIds",
            "outputs": [
                {
                    "internalType": "bytes",
                    "name": "",
                    "type": "bytes"
                }
            ],
            "stateMutability": "view",
            "type": "function"
        },
        {
            "inputs": [
                {
                    "internalType": "bytes32",
                    "name": "",
                    "type": "bytes32"
                }
            ],
            "name": "organizationTypeMap",
            "outputs": [
                {
                    "internalType": "bytes32",
                    "name": "organizationTypeId",
                    "type": "bytes32"
                },
                {
                    "internalType": "string",
                    "name": "name",
                    "type": "string"
                }
            ],
            "stateMutability": "view",
            "type": "function"
        },
        {
            "inputs": [
                {
                    "internalType": "uint256",
                    "name": "",
                    "type": "uint256"
                }
            ],
            "name": "productIds",
            "outputs": [
                {
                    "internalType": "bytes",
                    "name": "",
                    "type": "bytes"
                }
            ],
            "stateMutability": "view",
            "type": "function"
        },
        {
            "inputs": [
                {
                    "internalType": "bytes32",
                    "name": "",
                    "type": "bytes32"
                }
            ],
            "name": "productMap",
            "outputs": [
                {
                    "internalType": "bytes32",
                    "name": "productId",
                    "type": "bytes32"
                },
                {
                    "internalType": "bytes32",
                    "name": "categoryId",
                    "type": "bytes32"
                },
                {
                    "internalType": "string",
                    "name": "name",
                    "type": "string"
                },
                {
                    "internalType": "string",
                    "name": "description",
                    "type": "string"
                }
            ],
            "stateMutability": "view",
            "type": "function"
        },
        {
            "inputs": [
                {
                    "internalType": "bytes32",
                    "name": "",
                    "type": "bytes32"
                }
            ],
            "name": "profileMap",
            "outputs": [
                {
                    "internalType": "bytes32",
                    "name": "profieId",
                    "type": "bytes32"
                },
                {
                    "internalType": "string",
                    "name": "name",
                    "type": "string"
                },
                {
                    "internalType": "string",
                    "name": "email",
                    "type": "string"
                },
                {
                    "internalType": "string",
                    "name": "passwordHash",
                    "type": "string"
                },
                {
                    "internalType": "string",
                    "name": "phone",
                    "type": "string"
                },
                {
                    "internalType": "bytes32",
                    "name": "organizationId",
                    "type": "bytes32"
                }
            ],
            "stateMutability": "view",
            "type": "function"
        },
        {
            "inputs": [
                {
                    "internalType": "uint256",
                    "name": "",
                    "type": "uint256"
                }
            ],
            "name": "roleIds",
            "outputs": [
                {
                    "internalType": "bytes",
                    "name": "",
                    "type": "bytes"
                }
            ],
            "stateMutability": "view",
            "type": "function"
        },
        {
            "inputs": [
                {
                    "internalType": "bytes32",
                    "name": "",
                    "type": "bytes32"
                }
            ],
            "name": "roleMap",
            "outputs": [
                {
                    "internalType": "bytes32",
                    "name": "roleId",
                    "type": "bytes32"
                },
                {
                    "internalType": "string",
                    "name": "name",
                    "type": "string"
                }
            ],
            "stateMutability": "view",
            "type": "function"
        },
        {
            "inputs": [
                {
                    "internalType": "uint256",
                    "name": "",
                    "type": "uint256"
                }
            ],
            "name": "trackHistoryIds",
            "outputs": [
                {
                    "internalType": "bytes",
                    "name": "",
                    "type": "bytes"
                }
            ],
            "stateMutability": "view",
            "type": "function"
        },
        {
            "inputs": [
                {
                    "internalType": "bytes32",
                    "name": "",
                    "type": "bytes32"
                }
            ],
            "name": "trackHistoryMap",
            "outputs": [
                {
                    "internalType": "bytes32",
                    "name": "trackHistoryId",
                    "type": "bytes32"
                },
                {
                    "internalType": "bytes32",
                    "name": "productId",
                    "type": "bytes32"
                },
                {
                    "internalType": "bytes32",
                    "name": "activityid",
                    "type": "bytes32"
                },
                {
                    "internalType": "bytes32",
                    "name": "profileId",
                    "type": "bytes32"
                },
                {
                    "internalType": "bytes32",
                    "name": "areaId",
                    "type": "bytes32"
                },
                {
                    "internalType": "string",
                    "name": "gps",
                    "type": "string"
                },
                {
                    "internalType": "string",
                    "name": "remarks",
                    "type": "string"
                }
            ],
            "stateMutability": "view",
            "type": "function"
        }
    ],
    "bytecode": "608060405234801561001057600080fd5b5061148b806100206000396000f3fe608060405234801561001057600080fd5b50600436106101215760003560e01c806371491640116100ad578063b59d5cfd11610071578063b59d5cfd146108c0578063cb51bba9146108dd578063d63098dd146108fa578063e02ed02814610917578063e85bf1571461093457610121565b806371491640146107a95780637bcb20b01461084c57806392bbaf4014610869578063986deb9a14610886578063b1561299146108a357610121565b8063395c2111116100f4578063395c21111461045f5780633df9601a1461047c57806350b33f801461059a5780635ba8c294146105b75780636aa6443b1461078c57610121565b80630a1bb26a146101265780630f0d3da5146101b8578063100b6ba21461025457806331a3fc6e1461035d575b600080fd5b6101436004803603602081101561013c57600080fd5b5035610951565b6040805160208082528351818301528351919283929083019185019080838360005b8381101561017d578181015183820152602001610165565b50505050905090810190601f1680156101aa5780820380516001836020036101000a031916815260200191505b509250505060405180910390f35b6101d5600480360360208110156101ce57600080fd5b50356109fa565b6040518083815260200180602001828103825283818151815260200191508051906020019080838360005b83811015610218578181015183820152602001610200565b50505050905090810190601f1680156102455780820380516001836020036101000a031916815260200191505b50935050505060405180910390f35b6102716004803603602081101561026a57600080fd5b5035610aa1565b604051808581526020018481526020018060200180602001838103835285818151815260200191508051906020019080838360005b838110156102be5781810151838201526020016102a6565b50505050905090810190601f1680156102eb5780820380516001836020036101000a031916815260200191505b50838103825284518152845160209182019186019080838360005b8381101561031e578181015183820152602001610306565b50505050905090810190601f16801561034b5780820380516001836020036101000a031916815260200191505b50965050505050505060405180910390f35b61037a6004803603602081101561037357600080fd5b5035610bda565b604051808481526020018060200180602001838103835285818151815260200191508051906020019080838360005b838110156103c15781810151838201526020016103a9565b50505050905090810190601f1680156103ee5780820380516001836020036101000a031916815260200191505b50838103825284518152845160209182019186019080838360005b83811015610421578181015183820152602001610409565b50505050905090810190601f16801561044e5780820380516001836020036101000a031916815260200191505b509550505050505060405180910390f35b6101436004803603602081101561047557600080fd5b5035610d13565b6104996004803603602081101561049257600080fd5b5035610d23565b604051808881526020018781526020018681526020018581526020018481526020018060200180602001838103835285818151815260200191508051906020019080838360005b838110156104f85781810151838201526020016104e0565b50505050905090810190601f1680156105255780820380516001836020036101000a031916815260200191505b50838103825284518152845160209182019186019080838360005b83811015610558578181015183820152602001610540565b50505050905090810190601f1680156105855780820380516001836020036101000a031916815260200191505b50995050505050505050505060405180910390f35b610143600480360360208110156105b057600080fd5b5035610e87565b6105d4600480360360208110156105cd57600080fd5b5035610e97565b604051808781526020018060200180602001806020018060200186815260200185810385528a818151815260200191508051906020019080838360005b83811015610629578181015183820152602001610611565b50505050905090810190601f1680156106565780820380516001836020036101000a031916815260200191505b5085810384528951815289516020918201918b019080838360005b83811015610689578181015183820152602001610671565b50505050905090810190601f1680156106b65780820380516001836020036101000a031916815260200191505b5085810383528851815288516020918201918a019080838360005b838110156106e95781810151838201526020016106d1565b50505050905090810190601f1680156107165780820380516001836020036101000a031916815260200191505b50858103825287518152875160209182019189019080838360005b83811015610749578181015183820152602001610731565b50505050905090810190601f1680156107765780820380516001836020036101000a031916815260200191505b509a505050505050505050505060405180910390f35b6101d5600480360360208110156107a257600080fd5b50356110f6565b6107c6600480360360208110156107bf57600080fd5b5035611168565b6040518084815260200180602001838152602001828103825284818151815260200191508051906020019080838360005b8381101561080f5781810151838201526020016107f7565b50505050905090810190601f16801561083c5780820380516001836020036101000a031916815260200191505b5094505050505060405180910390f35b6101436004803603602081101561086257600080fd5b5035611215565b6101436004803603602081101561087f57600080fd5b5035611225565b6101436004803603602081101561089c57600080fd5b5035611235565b6101d5600480360360208110156108b957600080fd5b5035611245565b6107c6600480360360208110156108d657600080fd5b50356112b6565b610143600480360360208110156108f357600080fd5b5035611326565b6101436004803603602081101561091057600080fd5b5035611336565b61037a6004803603602081101561092d57600080fd5b5035611346565b6101436004803603602081101561094a57600080fd5b5035611445565b600b818154811061096157600080fd5b600091825260209182902001805460408051601f60026000196101006001871615020190941693909304928301859004850281018501909152818152935090918301828280156109f25780601f106109c7576101008083540402835291602001916109f2565b820191906000526020600020905b8154815290600101906020018083116109d557829003601f168201915b505050505081565b6006602090815260009182526040918290208054600180830180548651600293821615610100026000190190911692909204601f810186900486028301860190965285825291949293909290830182828015610a975780601f10610a6c57610100808354040283529160200191610a97565b820191906000526020600020905b815481529060010190602001808311610a7a57829003601f168201915b5050505050905082565b60056020908152600091825260409182902080546001808301546002808501805488519481161561010002600019011691909104601f810187900487028401870190975286835292959094919291830182828015610b405780601f10610b1557610100808354040283529160200191610b40565b820191906000526020600020905b815481529060010190602001808311610b2357829003601f168201915b5050505060038301805460408051602060026001851615610100026000190190941693909304601f8101849004840282018401909252818152949594935090830182828015610bd05780601f10610ba557610100808354040283529160200191610bd0565b820191906000526020600020905b815481529060010190602001808311610bb357829003601f168201915b5050505050905084565b6008602090815260009182526040918290208054600180830180548651600293821615610100026000190190911692909204601f810186900486028301860190965285825291949293909290830182828015610c775780601f10610c4c57610100808354040283529160200191610c77565b820191906000526020600020905b815481529060010190602001808311610c5a57829003601f168201915b50505060028085018054604080516020601f6000196101006001871615020190941695909504928301859004850281018501909152818152959695945090925090830182828015610d095780601f10610cde57610100808354040283529160200191610d09565b820191906000526020600020905b815481529060010190602001808311610cec57829003601f168201915b5050505050905083565b6011818154811061096157600080fd5b6009602052806000526040600020600091509050806000015490806001015490806002015490806003015490806004015490806005018054600181600116156101000203166002900480601f016020809104026020016040519081016040528092919081815260200182805460018160011615610100020316600290048015610ded5780601f10610dc257610100808354040283529160200191610ded565b820191906000526020600020905b815481529060010190602001808311610dd057829003601f168201915b5050505060068301805460408051602060026001851615610100026000190190941693909304601f8101849004840282018401909252818152949594935090830182828015610e7d5780601f10610e5257610100808354040283529160200191610e7d565b820191906000526020600020905b815481529060010190602001808311610e6057829003601f168201915b5050505050905087565b600a818154811061096157600080fd5b6007602090815260009182526040918290208054600180830180548651600293821615610100026000190190911692909204601f810186900486028301860190965285825291949293909290830182828015610f345780601f10610f0957610100808354040283529160200191610f34565b820191906000526020600020905b815481529060010190602001808311610f1757829003601f168201915b50505060028085018054604080516020601f6000196101006001871615020190941695909504928301859004850281018501909152818152959695945090925090830182828015610fc65780601f10610f9b57610100808354040283529160200191610fc6565b820191906000526020600020905b815481529060010190602001808311610fa957829003601f168201915b5050505060038301805460408051602060026001851615610100026000190190941693909304601f81018490048402820184019092528181529495949350908301828280156110565780601f1061102b57610100808354040283529160200191611056565b820191906000526020600020905b81548152906001019060200180831161103957829003601f168201915b5050505060048301805460408051602060026001851615610100026000190190941693909304601f81018490048402820184019092528181529495949350908301828280156110e65780601f106110bb576101008083540402835291602001916110e6565b820191906000526020600020905b8154815290600101906020018083116110c957829003601f168201915b5050505050908060060154905086565b6004602090815260009182526040918290208054600180830180548651600293821615610100026000190190911692909204601f810186900486028301860190965285825291949293909290830182828015610a975780601f10610a6c57610100808354040283529160200191610a97565b6003602090815260009182526040918290208054600180830180548651600293821615610100026000190190911692909204601f8101869004860283018601909652858252919492939092908301828280156112055780601f106111da57610100808354040283529160200191611205565b820191906000526020600020905b8154815290600101906020018083116111e857829003601f168201915b5050505050908060020154905083565b600d818154811061096157600080fd5b6012818154811061096157600080fd5b6010818154811061096157600080fd5b600160208181526000928352604092839020805481840180548651600296821615610100026000190190911695909504601f81018590048502860185019096528585529094919392909190830182828015610a975780601f10610a6c57610100808354040283529160200191610a97565b60026020818152600092835260409283902080546001808301805487519281161561010002600019011695909504601f81018590048502820185019096528581529094919390929091908301828280156112055780601f106111da57610100808354040283529160200191611205565b600f818154811061096157600080fd5b600e818154811061096157600080fd5b600060208181529181526040908190208054600180830180548551600293821615610100026000190190911692909204601f81018790048702830187019095528482529194929390928301828280156113e05780601f106113b5576101008083540402835291602001916113e0565b820191906000526020600020905b8154815290600101906020018083116113c357829003601f168201915b5050505060038301805460408051602060026001851615610100026000190190941693909304601f8101849004840282018401909252818152949594935090830182828015610d095780601f10610cde57610100808354040283529160200191610d09565b600c818154811061096157600080fdfea264697066735822122021731b71acf52b3d49ab990559343e38fd358106ca5a40319f2bde5321dd70dc64736f6c63430007040033",
    "sourcePath": "d:/GitHub/supplychain_blockchain/tat_contract/contracts/SupplyChainModel.sol",
    "compiler": {
        "name": "solc",
        "version": "0.7.4+commit.3f05b770"
    },
    "functionHashes": {
        "activityIds(uint256)": "e85bf157",
        "activityMap(bytes32)": "b59d5cfd",
        "areaIds(uint256)": "7bcb20b0",
        "areaMap(bytes32)": "71491640",
        "categoryIds(uint256)": "d63098dd",
        "categoryMap(bytes32)": "6aa6443b",
        "certificationIds(uint256)": "395c2111",
        "certificationMap(bytes32)": "31a3fc6e",
        "organizationIds(uint256)": "50b33f80",
        "organizationMap(bytes32)": "e02ed028",
        "organizationTypeIds(uint256)": "0a1bb26a",
        "organizationTypeMap(bytes32)": "b1561299",
        "productIds(uint256)": "cb51bba9",
        "productMap(bytes32)": "100b6ba2",
        "profileMap(bytes32)": "5ba8c294",
        "roleIds(uint256)": "986deb9a",
        "roleMap(bytes32)": "0f0d3da5",
        "trackHistoryIds(uint256)": "92bbaf40",
        "trackHistoryMap(bytes32)": "3df9601a"
    },
    "gasEstimates": {
        "creation": {
            "codeDepositCost": "1051800",
            "executionCost": "1094",
            "totalCost": "1052894"
        },
        "external": {
            "activityIds(uint256)": "infinite",
            "activityMap(bytes32)": "infinite",
            "areaIds(uint256)": "infinite",
            "areaMap(bytes32)": "infinite",
            "categoryIds(uint256)": "infinite",
            "categoryMap(bytes32)": "infinite",
            "certificationIds(uint256)": "infinite",
            "certificationMap(bytes32)": "infinite",
            "organizationIds(uint256)": "infinite",
            "organizationMap(bytes32)": "infinite",
            "organizationTypeIds(uint256)": "infinite",
            "organizationTypeMap(bytes32)": "infinite",
            "productIds(uint256)": "infinite",
            "productMap(bytes32)": "infinite",
            "profileMap(bytes32)": "infinite",
            "roleIds(uint256)": "infinite",
            "roleMap(bytes32)": "infinite",
            "trackHistoryIds(uint256)": "infinite",
            "trackHistoryMap(bytes32)": "infinite"
        }
    }
}