{
    "contractName": "SupplyChain",
    "abi": [
        {
            "anonymous": false,
            "inputs": [
                {
                    "indexed": false,
                    "internalType": "bytes32",
                    "name": "objId",
                    "type": "bytes32"
                }
            ],
            "name": "ActivityCreated",
            "type": "event"
        },
        {
            "anonymous": false,
            "inputs": [
                {
                    "indexed": false,
                    "internalType": "bytes32",
                    "name": "objId",
                    "type": "bytes32"
                }
            ],
            "name": "ActivityUpdated",
            "type": "event"
        },
        {
            "anonymous": false,
            "inputs": [
                {
                    "indexed": false,
                    "internalType": "bytes32",
                    "name": "objId",
                    "type": "bytes32"
                }
            ],
            "name": "AreaCreated",
            "type": "event"
        },
        {
            "anonymous": false,
            "inputs": [
                {
                    "indexed": false,
                    "internalType": "bytes32",
                    "name": "objId",
                    "type": "bytes32"
                }
            ],
            "name": "AreaUpdated",
            "type": "event"
        },
        {
            "anonymous": false,
            "inputs": [
                {
                    "indexed": false,
                    "internalType": "bytes32",
                    "name": "objId",
                    "type": "bytes32"
                }
            ],
            "name": "CategoryCreated",
            "type": "event"
        },
        {
            "anonymous": false,
            "inputs": [
                {
                    "indexed": false,
                    "internalType": "bytes32",
                    "name": "objId",
                    "type": "bytes32"
                }
            ],
            "name": "CategoryUpdated",
            "type": "event"
        },
        {
            "anonymous": false,
            "inputs": [
                {
                    "indexed": false,
                    "internalType": "bytes32",
                    "name": "objId",
                    "type": "bytes32"
                }
            ],
            "name": "CertificationCreated",
            "type": "event"
        },
        {
            "anonymous": false,
            "inputs": [
                {
                    "indexed": false,
                    "internalType": "bytes32",
                    "name": "objId",
                    "type": "bytes32"
                }
            ],
            "name": "CertificationUpdated",
            "type": "event"
        },
        {
            "anonymous": false,
            "inputs": [
                {
                    "indexed": false,
                    "internalType": "bytes32",
                    "name": "objId",
                    "type": "bytes32"
                }
            ],
            "name": "OrganizationCreated",
            "type": "event"
        },
        {
            "anonymous": false,
            "inputs": [
                {
                    "indexed": false,
                    "internalType": "bytes32",
                    "name": "objId",
                    "type": "bytes32"
                }
            ],
            "name": "OrganizationTypeCreated",
            "type": "event"
        },
        {
            "anonymous": false,
            "inputs": [
                {
                    "indexed": false,
                    "internalType": "bytes32",
                    "name": "objId",
                    "type": "bytes32"
                }
            ],
            "name": "OrganizationTypeUpdated",
            "type": "event"
        },
        {
            "anonymous": false,
            "inputs": [
                {
                    "indexed": false,
                    "internalType": "bytes32",
                    "name": "objId",
                    "type": "bytes32"
                }
            ],
            "name": "OrganizationUpdated",
            "type": "event"
        },
        {
            "anonymous": false,
            "inputs": [
                {
                    "indexed": false,
                    "internalType": "bytes32",
                    "name": "objId",
                    "type": "bytes32"
                }
            ],
            "name": "ProductCreated",
            "type": "event"
        },
        {
            "anonymous": false,
            "inputs": [
                {
                    "indexed": false,
                    "internalType": "bytes32",
                    "name": "objId",
                    "type": "bytes32"
                }
            ],
            "name": "ProductUpdated",
            "type": "event"
        },
        {
            "anonymous": false,
            "inputs": [
                {
                    "indexed": false,
                    "internalType": "bytes32",
                    "name": "objId",
                    "type": "bytes32"
                }
            ],
            "name": "ProfileCreated",
            "type": "event"
        },
        {
            "anonymous": false,
            "inputs": [
                {
                    "indexed": false,
                    "internalType": "bytes32",
                    "name": "objId",
                    "type": "bytes32"
                }
            ],
            "name": "ProfileUpdated",
            "type": "event"
        },
        {
            "anonymous": false,
            "inputs": [
                {
                    "indexed": false,
                    "internalType": "bytes32",
                    "name": "objId",
                    "type": "bytes32"
                }
            ],
            "name": "RoleCreated",
            "type": "event"
        },
        {
            "anonymous": false,
            "inputs": [
                {
                    "indexed": false,
                    "internalType": "bytes32",
                    "name": "objId",
                    "type": "bytes32"
                }
            ],
            "name": "RoleUpdated",
            "type": "event"
        },
        {
            "anonymous": false,
            "inputs": [
                {
                    "indexed": false,
                    "internalType": "bytes32",
                    "name": "objId",
                    "type": "bytes32"
                }
            ],
            "name": "TrackHistoryCreated",
            "type": "event"
        },
        {
            "anonymous": false,
            "inputs": [
                {
                    "indexed": false,
                    "internalType": "bytes32",
                    "name": "objId",
                    "type": "bytes32"
                }
            ],
            "name": "TrackHistoryUpdated",
            "type": "event"
        },
        {
            "inputs": [
                {
                    "internalType": "uint256",
                    "name": "",
                    "type": "uint256"
                }
            ],
            "name": "activityIds",
            "outputs": [
                {
                    "internalType": "bytes32",
                    "name": "",
                    "type": "bytes32"
                }
            ],
            "stateMutability": "view",
            "type": "function"
        },
        {
            "inputs": [
                {
                    "internalType": "bytes32",
                    "name": "",
                    "type": "bytes32"
                }
            ],
            "name": "activityMap",
            "outputs": [
                {
                    "internalType": "bytes32",
                    "name": "activityId",
                    "type": "bytes32"
                },
                {
                    "internalType": "string",
                    "name": "name",
                    "type": "string"
                },
                {
                    "internalType": "bytes32",
                    "name": "organizationTypeId",
                    "type": "bytes32"
                },
                {
                    "internalType": "bool",
                    "name": "isActive",
                    "type": "bool"
                },
                {
                    "internalType": "string",
                    "name": "customJsonData",
                    "type": "string"
                }
            ],
            "stateMutability": "view",
            "type": "function"
        },
        {
            "inputs": [
                {
                    "internalType": "uint256",
                    "name": "",
                    "type": "uint256"
                }
            ],
            "name": "areaIds",
            "outputs": [
                {
                    "internalType": "bytes32",
                    "name": "",
                    "type": "bytes32"
                }
            ],
            "stateMutability": "view",
            "type": "function"
        },
        {
            "inputs": [
                {
                    "internalType": "bytes32",
                    "name": "",
                    "type": "bytes32"
                }
            ],
            "name": "areaMap",
            "outputs": [
                {
                    "internalType": "bytes32",
                    "name": "areaId",
                    "type": "bytes32"
                },
                {
                    "internalType": "string",
                    "name": "name",
                    "type": "string"
                },
                {
                    "internalType": "bytes32",
                    "name": "organizationId",
                    "type": "bytes32"
                },
                {
                    "internalType": "bool",
                    "name": "isActive",
                    "type": "bool"
                },
                {
                    "internalType": "string",
                    "name": "customJsonData",
                    "type": "string"
                }
            ],
            "stateMutability": "view",
            "type": "function"
        },
        {
            "inputs": [
                {
                    "internalType": "uint256",
                    "name": "",
                    "type": "uint256"
                }
            ],
            "name": "categoryIds",
            "outputs": [
                {
                    "internalType": "bytes32",
                    "name": "",
                    "type": "bytes32"
                }
            ],
            "stateMutability": "view",
            "type": "function"
        },
        {
            "inputs": [
                {
                    "internalType": "bytes32",
                    "name": "",
                    "type": "bytes32"
                }
            ],
            "name": "categoryMap",
            "outputs": [
                {
                    "internalType": "bytes32",
                    "name": "categoryId",
                    "type": "bytes32"
                },
                {
                    "internalType": "string",
                    "name": "name",
                    "type": "string"
                },
                {
                    "internalType": "bool",
                    "name": "isActive",
                    "type": "bool"
                },
                {
                    "internalType": "string",
                    "name": "customJsonData",
                    "type": "string"
                }
            ],
            "stateMutability": "view",
            "type": "function"
        },
        {
            "inputs": [
                {
                    "internalType": "uint256",
                    "name": "",
                    "type": "uint256"
                }
            ],
            "name": "certificationIds",
            "outputs": [
                {
                    "internalType": "bytes32",
                    "name": "",
                    "type": "bytes32"
                }
            ],
            "stateMutability": "view",
            "type": "function"
        },
        {
            "inputs": [
                {
                    "internalType": "bytes32",
                    "name": "",
                    "type": "bytes32"
                }
            ],
            "name": "certificationMap",
            "outputs": [
                {
                    "internalType": "bytes32",
                    "name": "certificationId",
                    "type": "bytes32"
                },
                {
                    "internalType": "string",
                    "name": "name",
                    "type": "string"
                },
                {
                    "internalType": "string",
                    "name": "certificateUrl",
                    "type": "string"
                },
                {
                    "internalType": "bool",
                    "name": "isActive",
                    "type": "bool"
                },
                {
                    "internalType": "string",
                    "name": "customJsonData",
                    "type": "string"
                }
            ],
            "stateMutability": "view",
            "type": "function"
        },
        {
            "inputs": [
                {
                    "internalType": "string",
                    "name": "_name",
                    "type": "string"
                },
                {
                    "internalType": "bytes32",
                    "name": "_organizationTypeId",
                    "type": "bytes32"
                },
                {
                    "internalType": "string",
                    "name": "_customJsonData",
                    "type": "string"
                }
            ],
            "name": "createActivity",
            "outputs": [
                {
                    "internalType": "bytes32",
                    "name": "objId",
                    "type": "bytes32"
                }
            ],
            "stateMutability": "nonpayable",
            "type": "function"
        },
        {
            "inputs": [
                {
                    "internalType": "string",
                    "name": "_name",
                    "type": "string"
                },
                {
                    "internalType": "bytes32",
                    "name": "_organizationId",
                    "type": "bytes32"
                },
                {
                    "internalType": "string",
                    "name": "_customJsonData",
                    "type": "string"
                }
            ],
            "name": "createArea",
            "outputs": [
                {
                    "internalType": "bytes32",
                    "name": "objId",
                    "type": "bytes32"
                }
            ],
            "stateMutability": "nonpayable",
            "type": "function"
        },
        {
            "inputs": [
                {
                    "internalType": "string",
                    "name": "_name",
                    "type": "string"
                },
                {
                    "internalType": "string",
                    "name": "_customJsonData",
                    "type": "string"
                }
            ],
            "name": "createCategory",
            "outputs": [
                {
                    "internalType": "bytes32",
                    "name": "objId",
                    "type": "bytes32"
                }
            ],
            "stateMutability": "nonpayable",
            "type": "function"
        },
        {
            "inputs": [
                {
                    "internalType": "string",
                    "name": "_name",
                    "type": "string"
                },
                {
                    "internalType": "string",
                    "name": "_certificationUrl",
                    "type": "string"
                },
                {
                    "internalType": "string",
                    "name": "_customJsonData",
                    "type": "string"
                }
            ],
            "name": "createCertification",
            "outputs": [
                {
                    "internalType": "bytes32",
                    "name": "objId",
                    "type": "bytes32"
                }
            ],
            "stateMutability": "nonpayable",
            "type": "function"
        },
        {
            "inputs": [
                {
                    "internalType": "string",
                    "name": "_name",
                    "type": "string"
                },
                {
                    "internalType": "bytes32[]",
                    "name": "_organizationTypeIdList",
                    "type": "bytes32[]"
                },
                {
                    "internalType": "string",
                    "name": "_organizationAddress",
                    "type": "string"
                },
                {
                    "internalType": "string",
                    "name": "_customJsonData",
                    "type": "string"
                }
            ],
            "name": "createOrganization",
            "outputs": [
                {
                    "internalType": "bytes32",
                    "name": "objId",
                    "type": "bytes32"
                }
            ],
            "stateMutability": "nonpayable",
            "type": "function"
        },
        {
            "inputs": [
                {
                    "internalType": "string",
                    "name": "_name",
                    "type": "string"
                },
                {
                    "internalType": "string",
                    "name": "_customJsonData",
                    "type": "string"
                }
            ],
            "name": "createOrganizationType",
            "outputs": [
                {
                    "internalType": "bytes32",
                    "name": "objId",
                    "type": "bytes32"
                }
            ],
            "stateMutability": "nonpayable",
            "type": "function"
        },
        {
            "inputs": [
                {
                    "internalType": "string",
                    "name": "_name",
                    "type": "string"
                },
                {
                    "internalType": "bytes32",
                    "name": "_categoryId",
                    "type": "bytes32"
                },
                {
                    "internalType": "string",
                    "name": "_description",
                    "type": "string"
                },
                {
                    "internalType": "bytes32[]",
                    "name": "_certificationIdList",
                    "type": "bytes32[]"
                },
                {
                    "internalType": "string",
                    "name": "_customJsonData",
                    "type": "string"
                }
            ],
            "name": "createProduct",
            "outputs": [
                {
                    "internalType": "bytes32",
                    "name": "objId",
                    "type": "bytes32"
                }
            ],
            "stateMutability": "nonpayable",
            "type": "function"
        },
        {
            "inputs": [
                {
                    "internalType": "string",
                    "name": "_name",
                    "type": "string"
                },
                {
                    "internalType": "string",
                    "name": "_email",
                    "type": "string"
                },
                {
                    "internalType": "string",
                    "name": "_passwordHash",
                    "type": "string"
                },
                {
                    "internalType": "string",
                    "name": "_phone",
                    "type": "string"
                },
                {
                    "internalType": "bytes32[]",
                    "name": "_roleId",
                    "type": "bytes32[]"
                },
                {
                    "internalType": "bytes32",
                    "name": "_organizationId",
                    "type": "bytes32"
                },
                {
                    "internalType": "string",
                    "name": "_customJsonData",
                    "type": "string"
                }
            ],
            "name": "createProfile",
            "outputs": [
                {
                    "internalType": "bytes32",
                    "name": "objId",
                    "type": "bytes32"
                }
            ],
            "stateMutability": "nonpayable",
            "type": "function"
        },
        {
            "inputs": [
                {
                    "internalType": "string",
                    "name": "_name",
                    "type": "string"
                },
                {
                    "internalType": "string",
                    "name": "_customJsonData",
                    "type": "string"
                }
            ],
            "name": "createRole",
            "outputs": [
                {
                    "internalType": "bytes32",
                    "name": "objId",
                    "type": "bytes32"
                }
            ],
            "stateMutability": "nonpayable",
            "type": "function"
        },
        {
            "inputs": [
                {
                    "internalType": "bytes32",
                    "name": "_trackHistoryId",
                    "type": "bytes32"
                },
                {
                    "internalType": "bytes32",
                    "name": "_productId",
                    "type": "bytes32"
                },
                {
                    "internalType": "bytes32",
                    "name": "_activityId",
                    "type": "bytes32"
                },
                {
                    "internalType": "bytes32",
                    "name": "_profileId",
                    "type": "bytes32"
                },
                {
                    "internalType": "bytes32",
                    "name": "_areaId",
                    "type": "bytes32"
                },
                {
                    "internalType": "string",
                    "name": "_gps",
                    "type": "string"
                },
                {
                    "internalType": "string",
                    "name": "_remarks",
                    "type": "string"
                },
                {
                    "internalType": "string",
                    "name": "_customJsonData",
                    "type": "string"
                }
            ],
            "name": "createTrackHistory",
            "outputs": [
                {
                    "internalType": "bytes32",
                    "name": "objId",
                    "type": "bytes32"
                }
            ],
            "stateMutability": "nonpayable",
            "type": "function"
        },
        {
            "inputs": [
                {
                    "internalType": "bytes32",
                    "name": "objId",
                    "type": "bytes32"
                }
            ],
            "name": "getActivityById",
            "outputs": [
                {
                    "internalType": "bytes32",
                    "name": "id",
                    "type": "bytes32"
                },
                {
                    "internalType": "string",
                    "name": "name",
                    "type": "string"
                },
                {
                    "internalType": "bytes32",
                    "name": "organizationTypeId",
                    "type": "bytes32"
                },
                {
                    "internalType": "bool",
                    "name": "isActive",
                    "type": "bool"
                },
                {
                    "internalType": "string",
                    "name": "customJsonData",
                    "type": "string"
                }
            ],
            "stateMutability": "view",
            "type": "function"
        },
        {
            "inputs": [
                {
                    "internalType": "bytes32",
                    "name": "objId",
                    "type": "bytes32"
                }
            ],
            "name": "getAreaById",
            "outputs": [
                {
                    "internalType": "bytes32",
                    "name": "id",
                    "type": "bytes32"
                },
                {
                    "internalType": "string",
                    "name": "name",
                    "type": "string"
                },
                {
                    "internalType": "bytes32",
                    "name": "organizationId",
                    "type": "bytes32"
                },
                {
                    "internalType": "bool",
                    "name": "isActive",
                    "type": "bool"
                },
                {
                    "internalType": "string",
                    "name": "customJsonData",
                    "type": "string"
                }
            ],
            "stateMutability": "view",
            "type": "function"
        },
        {
            "inputs": [
                {
                    "internalType": "bytes32",
                    "name": "objId",
                    "type": "bytes32"
                }
            ],
            "name": "getCategoryById",
            "outputs": [
                {
                    "internalType": "bytes32",
                    "name": "id",
                    "type": "bytes32"
                },
                {
                    "internalType": "string",
                    "name": "name",
                    "type": "string"
                },
                {
                    "internalType": "bool",
                    "name": "isActive",
                    "type": "bool"
                },
                {
                    "internalType": "string",
                    "name": "customJsonData",
                    "type": "string"
                }
            ],
            "stateMutability": "view",
            "type": "function"
        },
        {
            "inputs": [
                {
                    "internalType": "bytes32",
                    "name": "objId",
                    "type": "bytes32"
                }
            ],
            "name": "getCertificationById",
            "outputs": [
                {
                    "internalType": "bytes32",
                    "name": "id",
                    "type": "bytes32"
                },
                {
                    "internalType": "string",
                    "name": "name",
                    "type": "string"
                },
                {
                    "internalType": "string",
                    "name": "certificateUrl",
                    "type": "string"
                },
                {
                    "internalType": "bool",
                    "name": "isActive",
                    "type": "bool"
                },
                {
                    "internalType": "string",
                    "name": "customJsonData",
                    "type": "string"
                }
            ],
            "stateMutability": "view",
            "type": "function"
        },
        {
            "inputs": [],
            "name": "getInfo",
            "outputs": [
                {
                    "internalType": "string",
                    "name": "",
                    "type": "string"
                }
            ],
            "stateMutability": "view",
            "type": "function"
        },
        {
            "inputs": [
                {
                    "internalType": "bytes32",
                    "name": "objId",
                    "type": "bytes32"
                }
            ],
            "name": "getOrganizationById",
            "outputs": [
                {
                    "internalType": "bytes32",
                    "name": "id",
                    "type": "bytes32"
                },
                {
                    "internalType": "string",
                    "name": "name",
                    "type": "string"
                },
                {
                    "internalType": "bytes32[]",
                    "name": "organizationTypeIdList",
                    "type": "bytes32[]"
                },
                {
                    "internalType": "bool",
                    "name": "isActive",
                    "type": "bool"
                },
                {
                    "internalType": "string",
                    "name": "customJsonData",
                    "type": "string"
                }
            ],
            "stateMutability": "view",
            "type": "function"
        },
        {
            "inputs": [
                {
                    "internalType": "bytes32",
                    "name": "objId",
                    "type": "bytes32"
                }
            ],
            "name": "getOrganizationTypeById",
            "outputs": [
                {
                    "internalType": "bytes32",
                    "name": "id",
                    "type": "bytes32"
                },
                {
                    "internalType": "string",
                    "name": "name",
                    "type": "string"
                },
                {
                    "internalType": "string",
                    "name": "customJsonData",
                    "type": "string"
                }
            ],
            "stateMutability": "view",
            "type": "function"
        },
        {
            "inputs": [
                {
                    "internalType": "bytes32",
                    "name": "objId",
                    "type": "bytes32"
                }
            ],
            "name": "getProductById",
            "outputs": [
                {
                    "internalType": "bytes32",
                    "name": "id",
                    "type": "bytes32"
                },
                {
                    "internalType": "bytes32",
                    "name": "categoryId",
                    "type": "bytes32"
                },
                {
                    "internalType": "string",
                    "name": "name",
                    "type": "string"
                },
                {
                    "internalType": "string",
                    "name": "description",
                    "type": "string"
                },
                {
                    "internalType": "bytes32[]",
                    "name": "certicationIdList",
                    "type": "bytes32[]"
                },
                {
                    "internalType": "bool",
                    "name": "isActive",
                    "type": "bool"
                },
                {
                    "internalType": "string",
                    "name": "customJsonData",
                    "type": "string"
                }
            ],
            "stateMutability": "view",
            "type": "function"
        },
        {
            "inputs": [
                {
                    "internalType": "bytes32",
                    "name": "objId",
                    "type": "bytes32"
                }
            ],
            "name": "getProfileById",
            "outputs": [
                {
                    "internalType": "bytes32",
                    "name": "id",
                    "type": "bytes32"
                },
                {
                    "internalType": "string",
                    "name": "name",
                    "type": "string"
                },
                {
                    "internalType": "string",
                    "name": "email",
                    "type": "string"
                },
                {
                    "internalType": "string",
                    "name": "passwordHash",
                    "type": "string"
                },
                {
                    "internalType": "string",
                    "name": "phone",
                    "type": "string"
                },
                {
                    "internalType": "bytes32[]",
                    "name": "roleId",
                    "type": "bytes32[]"
                },
                {
                    "internalType": "bytes32",
                    "name": "organizationId",
                    "type": "bytes32"
                },
                {
                    "internalType": "bool",
                    "name": "isActive",
                    "type": "bool"
                },
                {
                    "internalType": "string",
                    "name": "customJsonData",
                    "type": "string"
                }
            ],
            "stateMutability": "view",
            "type": "function"
        },
        {
            "inputs": [
                {
                    "internalType": "bytes32",
                    "name": "objId",
                    "type": "bytes32"
                }
            ],
            "name": "getRoleById",
            "outputs": [
                {
                    "internalType": "bytes32",
                    "name": "id",
                    "type": "bytes32"
                },
                {
                    "internalType": "string",
                    "name": "name",
                    "type": "string"
                },
                {
                    "internalType": "bool",
                    "name": "isActive",
                    "type": "bool"
                },
                {
                    "internalType": "string",
                    "name": "customJsonData",
                    "type": "string"
                }
            ],
            "stateMutability": "view",
            "type": "function"
        },
        {
            "inputs": [
                {
                    "internalType": "bytes32",
                    "name": "objId",
                    "type": "bytes32"
                }
            ],
            "name": "getTrackHistoryById",
            "outputs": [
                {
                    "internalType": "bytes32",
                    "name": "id",
                    "type": "bytes32"
                },
                {
                    "internalType": "bytes32",
                    "name": "productId",
                    "type": "bytes32"
                },
                {
                    "internalType": "bytes32",
                    "name": "activityId",
                    "type": "bytes32"
                },
                {
                    "internalType": "bytes32",
                    "name": "profileId",
                    "type": "bytes32"
                },
                {
                    "internalType": "bytes32",
                    "name": "areaId",
                    "type": "bytes32"
                },
                {
                    "internalType": "string",
                    "name": "gps",
                    "type": "string"
                },
                {
                    "internalType": "string",
                    "name": "remarks",
                    "type": "string"
                },
                {
                    "internalType": "bool",
                    "name": "isActive",
                    "type": "bool"
                },
                {
                    "internalType": "string",
                    "name": "customJsonData",
                    "type": "string"
                }
            ],
            "stateMutability": "view",
            "type": "function"
        },
        {
            "inputs": [
                {
                    "internalType": "uint256",
                    "name": "",
                    "type": "uint256"
                }
            ],
            "name": "organizationIds",
            "outputs": [
                {
                    "internalType": "bytes32",
                    "name": "",
                    "type": "bytes32"
                }
            ],
            "stateMutability": "view",
            "type": "function"
        },
        {
            "inputs": [
                {
                    "internalType": "bytes32",
                    "name": "",
                    "type": "bytes32"
                }
            ],
            "name": "organizationMap",
            "outputs": [
                {
                    "internalType": "bytes32",
                    "name": "organizationId",
                    "type": "bytes32"
                },
                {
                    "internalType": "string",
                    "name": "name",
                    "type": "string"
                },
                {
                    "internalType": "string",
                    "name": "organizationAddress",
                    "type": "string"
                },
                {
                    "internalType": "bool",
                    "name": "isActive",
                    "type": "bool"
                },
                {
                    "internalType": "string",
                    "name": "customJsonData",
                    "type": "string"
                }
            ],
            "stateMutability": "view",
            "type": "function"
        },
        {
            "inputs": [
                {
                    "internalType": "uint256",
                    "name": "",
                    "type": "uint256"
                }
            ],
            "name": "organizationTypeIds",
            "outputs": [
                {
                    "internalType": "bytes32",
                    "name": "",
                    "type": "bytes32"
                }
            ],
            "stateMutability": "view",
            "type": "function"
        },
        {
            "inputs": [
                {
                    "internalType": "bytes32",
                    "name": "",
                    "type": "bytes32"
                }
            ],
            "name": "organizationTypeMap",
            "outputs": [
                {
                    "internalType": "bytes32",
                    "name": "organizationTypeId",
                    "type": "bytes32"
                },
                {
                    "internalType": "string",
                    "name": "name",
                    "type": "string"
                },
                {
                    "internalType": "bool",
                    "name": "isActive",
                    "type": "bool"
                },
                {
                    "internalType": "string",
                    "name": "customJsonData",
                    "type": "string"
                }
            ],
            "stateMutability": "view",
            "type": "function"
        },
        {
            "inputs": [
                {
                    "internalType": "uint256",
                    "name": "",
                    "type": "uint256"
                }
            ],
            "name": "productIds",
            "outputs": [
                {
                    "internalType": "bytes32",
                    "name": "",
                    "type": "bytes32"
                }
            ],
            "stateMutability": "view",
            "type": "function"
        },
        {
            "inputs": [
                {
                    "internalType": "bytes32",
                    "name": "",
                    "type": "bytes32"
                }
            ],
            "name": "productMap",
            "outputs": [
                {
                    "internalType": "bytes32",
                    "name": "productId",
                    "type": "bytes32"
                },
                {
                    "internalType": "bytes32",
                    "name": "categoryId",
                    "type": "bytes32"
                },
                {
                    "internalType": "string",
                    "name": "name",
                    "type": "string"
                },
                {
                    "internalType": "string",
                    "name": "description",
                    "type": "string"
                },
                {
                    "internalType": "bool",
                    "name": "isActive",
                    "type": "bool"
                },
                {
                    "internalType": "string",
                    "name": "customJsonData",
                    "type": "string"
                }
            ],
            "stateMutability": "view",
            "type": "function"
        },
        {
            "inputs": [
                {
                    "internalType": "uint256",
                    "name": "",
                    "type": "uint256"
                }
            ],
            "name": "profileIds",
            "outputs": [
                {
                    "internalType": "bytes32",
                    "name": "",
                    "type": "bytes32"
                }
            ],
            "stateMutability": "view",
            "type": "function"
        },
        {
            "inputs": [
                {
                    "internalType": "bytes32",
                    "name": "",
                    "type": "bytes32"
                }
            ],
            "name": "profileMap",
            "outputs": [
                {
                    "internalType": "bytes32",
                    "name": "profileId",
                    "type": "bytes32"
                },
                {
                    "internalType": "string",
                    "name": "name",
                    "type": "string"
                },
                {
                    "internalType": "string",
                    "name": "email",
                    "type": "string"
                },
                {
                    "internalType": "string",
                    "name": "passwordHash",
                    "type": "string"
                },
                {
                    "internalType": "string",
                    "name": "phone",
                    "type": "string"
                },
                {
                    "internalType": "bytes32",
                    "name": "organizationId",
                    "type": "bytes32"
                },
                {
                    "internalType": "bool",
                    "name": "isActive",
                    "type": "bool"
                },
                {
                    "internalType": "string",
                    "name": "customJsonData",
                    "type": "string"
                }
            ],
            "stateMutability": "view",
            "type": "function"
        },
        {
            "inputs": [
                {
                    "internalType": "uint256",
                    "name": "",
                    "type": "uint256"
                }
            ],
            "name": "roleIds",
            "outputs": [
                {
                    "internalType": "bytes32",
                    "name": "",
                    "type": "bytes32"
                }
            ],
            "stateMutability": "view",
            "type": "function"
        },
        {
            "inputs": [
                {
                    "internalType": "bytes32",
                    "name": "",
                    "type": "bytes32"
                }
            ],
            "name": "roleMap",
            "outputs": [
                {
                    "internalType": "bytes32",
                    "name": "roleId",
                    "type": "bytes32"
                },
                {
                    "internalType": "string",
                    "name": "name",
                    "type": "string"
                },
                {
                    "internalType": "bool",
                    "name": "isActive",
                    "type": "bool"
                },
                {
                    "internalType": "string",
                    "name": "customJsonData",
                    "type": "string"
                }
            ],
            "stateMutability": "view",
            "type": "function"
        },
        {
            "inputs": [
                {
                    "internalType": "string",
                    "name": "_info",
                    "type": "string"
                }
            ],
            "name": "setInfo",
            "outputs": [],
            "stateMutability": "nonpayable",
            "type": "function"
        },
        {
            "inputs": [
                {
                    "internalType": "uint256",
                    "name": "",
                    "type": "uint256"
                }
            ],
            "name": "trackHistoryIds",
            "outputs": [
                {
                    "internalType": "bytes32",
                    "name": "",
                    "type": "bytes32"
                }
            ],
            "stateMutability": "view",
            "type": "function"
        },
        {
            "inputs": [
                {
                    "internalType": "bytes32",
                    "name": "",
                    "type": "bytes32"
                }
            ],
            "name": "trackHistoryMap",
            "outputs": [
                {
                    "internalType": "bytes32",
                    "name": "trackHistoryId",
                    "type": "bytes32"
                },
                {
                    "internalType": "bytes32",
                    "name": "productId",
                    "type": "bytes32"
                },
                {
                    "internalType": "bytes32",
                    "name": "activityId",
                    "type": "bytes32"
                },
                {
                    "internalType": "bytes32",
                    "name": "profileId",
                    "type": "bytes32"
                },
                {
                    "internalType": "bytes32",
                    "name": "areaId",
                    "type": "bytes32"
                },
                {
                    "internalType": "string",
                    "name": "gps",
                    "type": "string"
                },
                {
                    "internalType": "string",
                    "name": "remarks",
                    "type": "string"
                },
                {
                    "internalType": "bool",
                    "name": "isActive",
                    "type": "bool"
                },
                {
                    "internalType": "string",
                    "name": "customJsonData",
                    "type": "string"
                }
            ],
            "stateMutability": "view",
            "type": "function"
        },
        {
            "inputs": [
                {
                    "internalType": "bytes32",
                    "name": "objId",
                    "type": "bytes32"
                },
                {
                    "internalType": "string",
                    "name": "_name",
                    "type": "string"
                },
                {
                    "internalType": "bytes32",
                    "name": "_organizationTypeId",
                    "type": "bytes32"
                },
                {
                    "internalType": "string",
                    "name": "_customJsonData",
                    "type": "string"
                },
                {
                    "internalType": "bool",
                    "name": "_isActive",
                    "type": "bool"
                }
            ],
            "name": "updateActivity",
            "outputs": [],
            "stateMutability": "nonpayable",
            "type": "function"
        },
        {
            "inputs": [
                {
                    "internalType": "bytes32",
                    "name": "objId",
                    "type": "bytes32"
                },
                {
                    "internalType": "string",
                    "name": "_name",
                    "type": "string"
                },
                {
                    "internalType": "bytes32",
                    "name": "_organizationId",
                    "type": "bytes32"
                },
                {
                    "internalType": "string",
                    "name": "_customJsonData",
                    "type": "string"
                },
                {
                    "internalType": "bool",
                    "name": "_isActive",
                    "type": "bool"
                }
            ],
            "name": "updateArea",
            "outputs": [],
            "stateMutability": "nonpayable",
            "type": "function"
        },
        {
            "inputs": [
                {
                    "internalType": "bytes32",
                    "name": "objId",
                    "type": "bytes32"
                },
                {
                    "internalType": "string",
                    "name": "_name",
                    "type": "string"
                },
                {
                    "internalType": "string",
                    "name": "_customJsonData",
                    "type": "string"
                },
                {
                    "internalType": "bool",
                    "name": "_isActive",
                    "type": "bool"
                }
            ],
            "name": "updateCategory",
            "outputs": [],
            "stateMutability": "nonpayable",
            "type": "function"
        },
        {
            "inputs": [
                {
                    "internalType": "bytes32",
                    "name": "objId",
                    "type": "bytes32"
                },
                {
                    "internalType": "string",
                    "name": "_name",
                    "type": "string"
                },
                {
                    "internalType": "string",
                    "name": "_certificationUrl",
                    "type": "string"
                },
                {
                    "internalType": "string",
                    "name": "_customJsonData",
                    "type": "string"
                },
                {
                    "internalType": "bool",
                    "name": "_isActive",
                    "type": "bool"
                }
            ],
            "name": "updateCertification",
            "outputs": [],
            "stateMutability": "nonpayable",
            "type": "function"
        },
        {
            "inputs": [
                {
                    "internalType": "bytes32",
                    "name": "objId",
                    "type": "bytes32"
                },
                {
                    "internalType": "string",
                    "name": "_name",
                    "type": "string"
                },
                {
                    "internalType": "bytes32[]",
                    "name": "_organizationTypeIdList",
                    "type": "bytes32[]"
                },
                {
                    "internalType": "string",
                    "name": "_organizationAddress",
                    "type": "string"
                },
                {
                    "internalType": "string",
                    "name": "_customJsonData",
                    "type": "string"
                },
                {
                    "internalType": "bool",
                    "name": "_isActive",
                    "type": "bool"
                }
            ],
            "name": "updateOrganization",
            "outputs": [],
            "stateMutability": "nonpayable",
            "type": "function"
        },
        {
            "inputs": [
                {
                    "internalType": "bytes32",
                    "name": "objId",
                    "type": "bytes32"
                },
                {
                    "internalType": "string",
                    "name": "_name",
                    "type": "string"
                },
                {
                    "internalType": "string",
                    "name": "_customJsonData",
                    "type": "string"
                },
                {
                    "internalType": "bool",
                    "name": "_isActive",
                    "type": "bool"
                }
            ],
            "name": "updateOrganizationType",
            "outputs": [],
            "stateMutability": "nonpayable",
            "type": "function"
        },
        {
            "inputs": [
                {
                    "internalType": "bytes32",
                    "name": "objId",
                    "type": "bytes32"
                },
                {
                    "internalType": "string",
                    "name": "_name",
                    "type": "string"
                },
                {
                    "internalType": "bytes32",
                    "name": "_categoryId",
                    "type": "bytes32"
                },
                {
                    "internalType": "string",
                    "name": "_description",
                    "type": "string"
                },
                {
                    "internalType": "bytes32[]",
                    "name": "_certificationIdList",
                    "type": "bytes32[]"
                },
                {
                    "internalType": "string",
                    "name": "_customJsonData",
                    "type": "string"
                },
                {
                    "internalType": "bool",
                    "name": "_isActive",
                    "type": "bool"
                }
            ],
            "name": "updateProduct",
            "outputs": [],
            "stateMutability": "nonpayable",
            "type": "function"
        },
        {
            "inputs": [
                {
                    "internalType": "bytes32",
                    "name": "objId",
                    "type": "bytes32"
                },
                {
                    "internalType": "string",
                    "name": "_name",
                    "type": "string"
                },
                {
                    "internalType": "string",
                    "name": "_email",
                    "type": "string"
                },
                {
                    "internalType": "string",
                    "name": "_passwordHash",
                    "type": "string"
                },
                {
                    "internalType": "string",
                    "name": "_phone",
                    "type": "string"
                },
                {
                    "internalType": "bytes32[]",
                    "name": "_roleId",
                    "type": "bytes32[]"
                },
                {
                    "internalType": "bytes32",
                    "name": "_organizationId",
                    "type": "bytes32"
                },
                {
                    "internalType": "string",
                    "name": "_customJsonData",
                    "type": "string"
                },
                {
                    "internalType": "bool",
                    "name": "_isActive",
                    "type": "bool"
                }
            ],
            "name": "updateProfile",
            "outputs": [],
            "stateMutability": "nonpayable",
            "type": "function"
        },
        {
            "inputs": [
                {
                    "internalType": "bytes32",
                    "name": "objId",
                    "type": "bytes32"
                },
                {
                    "internalType": "string",
                    "name": "_name",
                    "type": "string"
                },
                {
                    "internalType": "string",
                    "name": "_customJsonData",
                    "type": "string"
                },
                {
                    "internalType": "bool",
                    "name": "_isActive",
                    "type": "bool"
                }
            ],
            "name": "updateRole",
            "outputs": [],
            "stateMutability": "nonpayable",
            "type": "function"
        },
        {
            "inputs": [
                {
                    "internalType": "bytes32",
                    "name": "objId",
                    "type": "bytes32"
                },
                {
                    "internalType": "bytes32",
                    "name": "_productId",
                    "type": "bytes32"
                },
                {
                    "internalType": "bytes32",
                    "name": "_activityId",
                    "type": "bytes32"
                },
                {
                    "internalType": "bytes32",
                    "name": "_profileId",
                    "type": "bytes32"
                },
                {
                    "internalType": "bytes32",
                    "name": "_areaId",
                    "type": "bytes32"
                },
                {
                    "internalType": "string",
                    "name": "_gps",
                    "type": "string"
                },
                {
                    "internalType": "string",
                    "name": "_remarks",
                    "type": "string"
                },
                {
                    "internalType": "string",
                    "name": "_customJsonData",
                    "type": "string"
                },
                {
                    "internalType": "bool",
                    "name": "_isActive",
                    "type": "bool"
                }
            ],
            "name": "updateTrackHistory",
            "outputs": [],
            "stateMutability": "nonpayable",
            "type": "function"
        },
        {
            "inputs": [],
            "name": "version",
            "outputs": [
                {
                    "internalType": "string",
                    "name": "",
                    "type": "string"
                }
            ],
            "stateMutability": "view",
            "type": "function"
        }
    ],
    "bytecode": "60c06040526007608081905266312e302e302e3160c81b60a09081526200002a91601591906200003f565b503480156200003857600080fd5b50620000eb565b828054600181600116156101000203166002900490600052602060002090601f016020900481019282620000775760008555620000c2565b82601f106200009257805160ff1916838001178555620000c2565b82800160010185558215620000c2579182015b82811115620000c2578251825591602001919060010190620000a5565b50620000d0929150620000d4565b5090565b5b80821115620000d05760008155600101620000d5565b6169bd80620000fb6000396000f3fe608060405234801561001057600080fd5b50600436106103265760003560e01c80637bcb20b0116101b8578063b224b4e911610104578063d63098dd116100a2578063e85bf1571161007c578063e85bf1571461350f578063e8d722691461352c578063ea2ad7da1461365d578063ee2a11ee1461367a57610326565b8063d63098dd146134b8578063d911f553146134d5578063e02ed028146134f257610326565b8063bdd1a133116100de578063bdd1a13314613114578063c7213d8114613131578063cb51bba914613372578063d2192dbf1461338f57610326565b8063b224b4e914612fb1578063b59d5cfd146130da578063b64e9f59146130f757610326565b8063937f6e77116101715780639a017e0a1161014b5780639a017e0a14612a215780639f71bcdc14612b2c578063ab1a607c14612d64578063b156129914612f9457610326565b8063937f6e771461282f578063986deb9a146128d357806398ed240c146128f057610326565b80637bcb20b0146123ce5780637dce56ad146123eb5780637e71caf4146125b95780638599e25e146125d657806386ed1913146126d857806392bbaf401461281257610326565b806350b33f80116102775780635dbfeeda116102305780636aa6443b1161020a5780636aa6443b146121285780636c72bcb3146121455780636e5ca08e1461227f57806371491640146123b157610326565b80635dbfeeda14611a5a5780635ea5770314611c2a5780636a18a8ea14611de657610326565b806350b33f801461140b57806351a729331461142857806354fd4d50146114455780635936f96e146114c25780635a9b0b891461180e5780635ba8c2941461181657610326565b8063111c4779116102e4578063395c2111116102be578063395c211114610f8157806339e7d4cd14610f9e5780633df9601a146110d05780634fdf1dc11461125d57610326565b8063111c477914610aa35780632499c6a614610cde57806331a3fc6e14610e1057610326565b80621f5bd21461032b5780630114cf0a1461043d578063037f6ab4146106c85780630a1bb26a146108035780630f0d3da514610820578063100b6ba21461092b575b600080fd5b6103486004803603602081101561034157600080fd5b5035613831565b6040518086815260200180602001858152602001841515815260200180602001838103835287818151815260200191508051906020019080838360005b8381101561039d578181015183820152602001610385565b50505050905090810190601f1680156103ca5780820380516001836020036101000a031916815260200191505b50838103825284518152845160209182019186019080838360005b838110156103fd5781810151838201526020016103e5565b50505050905090810190601f16801561042a5780820380516001836020036101000a031916815260200191505b5097505050505050505060405180910390f35b61045a6004803603602081101561045357600080fd5b5035613995565b604051808a8152602001806020018060200180602001806020018060200189815260200188151581526020018060200187810387528f818151815260200191508051906020019080838360005b838110156104bf5781810151838201526020016104a7565b50505050905090810190601f1680156104ec5780820380516001836020036101000a031916815260200191505b5087810386528e818151815260200191508051906020019080838360005b8381101561052257818101518382015260200161050a565b50505050905090810190601f16801561054f5780820380516001836020036101000a031916815260200191505b5087810385528d5181528d516020918201918f019080838360005b8381101561058257818101518382015260200161056a565b50505050905090810190601f1680156105af5780820380516001836020036101000a031916815260200191505b5087810384528c5181528c516020918201918e019080838360005b838110156105e25781810151838201526020016105ca565b50505050905090810190601f16801561060f5780820380516001836020036101000a031916815260200191505b5087810383528b5181528b51602091820191808e01910280838360005b8381101561064457818101518382015260200161062c565b50505050905001878103825288818151815260200191508051906020019080838360005b83811015610680578181015183820152602001610668565b50505050905090810190601f1680156106ad5780820380516001836020036101000a031916815260200191505b509f5050505050505050505050505050505060405180910390f35b6107f1600480360360408110156106de57600080fd5b810190602081018135600160201b8111156106f857600080fd5b82018360208201111561070a57600080fd5b803590602001918460018302840111600160201b8311171561072b57600080fd5b91908080601f0160208091040260200160405190810160405280939291908181526020018383808284376000920191909152509295949360208101935035915050600160201b81111561077d57600080fd5b82018360208201111561078f57600080fd5b803590602001918460018302840111600160201b831117156107b057600080fd5b91908080601f016020809104026020016040519081016040528093929190818152602001838380828437600092019190915250929550613d35945050505050565b60408051918252519081900360200190f35b6107f16004803603602081101561081957600080fd5b5035613e1e565b61083d6004803603602081101561083657600080fd5b5035613e3f565b6040518085815260200180602001841515815260200180602001838103835286818151815260200191508051906020019080838360005b8381101561088c578181015183820152602001610874565b50505050905090810190601f1680156108b95780820380516001836020036101000a031916815260200191505b50838103825284518152845160209182019186019080838360005b838110156108ec5781810151838201526020016108d4565b50505050905090810190601f1680156109195780820380516001836020036101000a031916815260200191505b50965050505050505060405180910390f35b6109486004803603602081101561094157600080fd5b5035613f82565b604051808781526020018681526020018060200180602001851515815260200180602001848103845288818151815260200191508051906020019080838360005b838110156109a1578181015183820152602001610989565b50505050905090810190601f1680156109ce5780820380516001836020036101000a031916815260200191505b50848103835287518152875160209182019189019080838360005b83811015610a015781810151838201526020016109e9565b50505050905090810190601f168015610a2e5780820380516001836020036101000a031916815260200191505b50848103825285518152855160209182019187019080838360005b83811015610a61578181015183820152602001610a49565b50505050905090810190601f168015610a8e5780820380516001836020036101000a031916815260200191505b50995050505050505050505060405180910390f35b610cdc600480360360c0811015610ab957600080fd5b81359190810190604081016020820135600160201b811115610ada57600080fd5b820183602082011115610aec57600080fd5b803590602001918460018302840111600160201b83111715610b0d57600080fd5b91908080601f0160208091040260200160405190810160405280939291908181526020018383808284376000920191909152509295949360208101935035915050600160201b811115610b5f57600080fd5b820183602082011115610b7157600080fd5b803590602001918460208302840111600160201b83111715610b9257600080fd5b9190808060200260200160405190810160405280939291908181526020018383602002808284376000920191909152509295949360208101935035915050600160201b811115610be157600080fd5b820183602082011115610bf357600080fd5b803590602001918460018302840111600160201b83111715610c1457600080fd5b91908080601f0160208091040260200160405190810160405280939291908181526020018383808284376000920191909152509295949360208101935035915050600160201b811115610c6657600080fd5b820183602082011115610c7857600080fd5b803590602001918460018302840111600160201b83111715610c9957600080fd5b91908080601f0160208091040260200160405190810160405280939291908181526020018383808284376000920191909152509295505050503515159050614156565b005b610cdc60048036036080811015610cf457600080fd5b81359190810190604081016020820135600160201b811115610d1557600080fd5b820183602082011115610d2757600080fd5b803590602001918460018302840111600160201b83111715610d4857600080fd5b91908080601f0160208091040260200160405190810160405280939291908181526020018383808284376000920191909152509295949360208101935035915050600160201b811115610d9a57600080fd5b820183602082011115610dac57600080fd5b803590602001918460018302840111600160201b83111715610dcd57600080fd5b91908080601f0160208091040260200160405190810160405280939291908181526020018383808284376000920191909152509295505050503515159050614209565b610e2d60048036036020811015610e2657600080fd5b503561428f565b604051808681526020018060200180602001851515815260200180602001848103845288818151815260200191508051906020019080838360005b83811015610e80578181015183820152602001610e68565b50505050905090810190601f168015610ead5780820380516001836020036101000a031916815260200191505b50848103835287518152875160209182019189019080838360005b83811015610ee0578181015183820152602001610ec8565b50505050905090810190601f168015610f0d5780820380516001836020036101000a031916815260200191505b50848103825285518152855160209182019187019080838360005b83811015610f40578181015183820152602001610f28565b50505050905090810190601f168015610f6d5780820380516001836020036101000a031916815260200191505b509850505050505050505060405180910390f35b6107f160048036036020811015610f9757600080fd5b5035614463565b610cdc60048036036080811015610fb457600080fd5b81359190810190604081016020820135600160201b811115610fd557600080fd5b820183602082011115610fe757600080fd5b803590602001918460018302840111600160201b8311171561100857600080fd5b91908080601f0160208091040260200160405190810160405280939291908181526020018383808284376000920191909152509295949360208101935035915050600160201b81111561105a57600080fd5b82018360208201111561106c57600080fd5b803590602001918460018302840111600160201b8311171561108d57600080fd5b91908080601f0160208091040260200160405190810160405280939291908181526020018383808284376000920191909152509295505050503515159050614473565b6110ed600480360360208110156110e657600080fd5b50356144fa565b604051808a81526020018981526020018881526020018781526020018681526020018060200180602001851515815260200180602001848103845288818151815260200191508051906020019080838360005b83811015611158578181015183820152602001611140565b50505050905090810190601f1680156111855780820380516001836020036101000a031916815260200191505b50848103835287518152875160209182019189019080838360005b838110156111b85781810151838201526020016111a0565b50505050905090810190601f1680156111e55780820380516001836020036101000a031916815260200191505b50848103825285518152855160209182019187019080838360005b83811015611218578181015183820152602001611200565b50505050905090810190601f1680156112455780820380516001836020036101000a031916815260200191505b509c5050505050505050505050505060405180910390f35b6107f16004803603606081101561127357600080fd5b810190602081018135600160201b81111561128d57600080fd5b82018360208201111561129f57600080fd5b803590602001918460018302840111600160201b831117156112c057600080fd5b91908080601f0160208091040260200160405190810160405280939291908181526020018383808284376000920191909152509295949360208101935035915050600160201b81111561131257600080fd5b82018360208201111561132457600080fd5b803590602001918460018302840111600160201b8311171561134557600080fd5b91908080601f0160208091040260200160405190810160405280939291908181526020018383808284376000920191909152509295949360208101935035915050600160201b81111561139757600080fd5b8201836020820111156113a957600080fd5b803590602001918460018302840111600160201b831117156113ca57600080fd5b91908080601f0160208091040260200160405190810160405280939291908181526020018383808284376000920191909152509295506146f9945050505050565b6107f16004803603602081101561142157600080fd5b50356147f9565b6103486004803603602081101561143e57600080fd5b5035614809565b61144d614899565b6040805160208082528351818301528351919283929083019185019080838360005b8381101561148757818101518382015260200161146f565b50505050905090810190601f1680156114b45780820380516001836020036101000a031916815260200191505b509250505060405180910390f35b610cdc60048036036101208110156114d957600080fd5b81359190810190604081016020820135600160201b8111156114fa57600080fd5b82018360208201111561150c57600080fd5b803590602001918460018302840111600160201b8311171561152d57600080fd5b91908080601f0160208091040260200160405190810160405280939291908181526020018383808284376000920191909152509295949360208101935035915050600160201b81111561157f57600080fd5b82018360208201111561159157600080fd5b803590602001918460018302840111600160201b831117156115b257600080fd5b91908080601f0160208091040260200160405190810160405280939291908181526020018383808284376000920191909152509295949360208101935035915050600160201b81111561160457600080fd5b82018360208201111561161657600080fd5b803590602001918460018302840111600160201b8311171561163757600080fd5b91908080601f0160208091040260200160405190810160405280939291908181526020018383808284376000920191909152509295949360208101935035915050600160201b81111561168957600080fd5b82018360208201111561169b57600080fd5b803590602001918460018302840111600160201b831117156116bc57600080fd5b91908080601f0160208091040260200160405190810160405280939291908181526020018383808284376000920191909152509295949360208101935035915050600160201b81111561170e57600080fd5b82018360208201111561172057600080fd5b803590602001918460208302840111600160201b8311171561174157600080fd5b91908080602002602001604051908101604052809392919081815260200183836020028082843760009201919091525092958435959094909350604081019250602001359050600160201b81111561179857600080fd5b8201836020820111156117aa57600080fd5b803590602001918460018302840111600160201b831117156117cb57600080fd5b91908080601f0160208091040260200160405190810160405280939291908181526020018383808284376000920191909152509295505050503515159050614927565b61144d614a12565b6118336004803603602081101561182c57600080fd5b5035614aa8565b604051808981526020018060200180602001806020018060200188815260200187151581526020018060200186810386528d818151815260200191508051906020019080838360005b8381101561189457818101518382015260200161187c565b50505050905090810190601f1680156118c15780820380516001836020036101000a031916815260200191505b5086810385528c5181528c516020918201918e019080838360005b838110156118f45781810151838201526020016118dc565b50505050905090810190601f1680156119215780820380516001836020036101000a031916815260200191505b5086810384528b5181528b516020918201918d019080838360005b8381101561195457818101518382015260200161193c565b50505050905090810190601f1680156119815780820380516001836020036101000a031916815260200191505b5086810383528a5181528a516020918201918c019080838360005b838110156119b457818101518382015260200161199c565b50505050905090810190601f1680156119e15780820380516001836020036101000a031916815260200191505b50868103825287518152875160209182019189019080838360005b83811015611a145781810151838201526020016119fc565b50505050905090810190601f168015611a415780820380516001836020036101000a031916815260200191505b509d505050505050505050505050505060405180910390f35b610cdc6004803603610120811015611a7157600080fd5b8135916020810135916040820135916060810135916080820135919081019060c0810160a0820135600160201b811115611aaa57600080fd5b820183602082011115611abc57600080fd5b803590602001918460018302840111600160201b83111715611add57600080fd5b91908080601f0160208091040260200160405190810160405280939291908181526020018383808284376000920191909152509295949360208101935035915050600160201b811115611b2f57600080fd5b820183602082011115611b4157600080fd5b803590602001918460018302840111600160201b83111715611b6257600080fd5b91908080601f0160208091040260200160405190810160405280939291908181526020018383808284376000920191909152509295949360208101935035915050600160201b811115611bb457600080fd5b820183602082011115611bc657600080fd5b803590602001918460018302840111600160201b83111715611be757600080fd5b91908080601f0160208091040260200160405190810160405280939291908181526020018383808284376000920191909152509295505050503515159050614da1565b611c4760048036036020811015611c4057600080fd5b5035614e5f565b6040518088815260200187815260200180602001806020018060200186151581526020018060200185810385528a818151815260200191508051906020019080838360005b83811015611ca4578181015183820152602001611c8c565b50505050905090810190601f168015611cd15780820380516001836020036101000a031916815260200191505b5085810384528951815289516020918201918b019080838360005b83811015611d04578181015183820152602001611cec565b50505050905090810190601f168015611d315780820380516001836020036101000a031916815260200191505b508581038352885181528851602091820191808b01910280838360005b83811015611d66578181015183820152602001611d4e565b50505050905001858103825286818151815260200191508051906020019080838360005b83811015611da2578181015183820152602001611d8a565b50505050905090810190601f168015611dcf5780820380516001836020036101000a031916815260200191505b509b50505050505050505050505060405180910390f35b6107f1600480360360e0811015611dfc57600080fd5b810190602081018135600160201b811115611e1657600080fd5b820183602082011115611e2857600080fd5b803590602001918460018302840111600160201b83111715611e4957600080fd5b91908080601f0160208091040260200160405190810160405280939291908181526020018383808284376000920191909152509295949360208101935035915050600160201b811115611e9b57600080fd5b820183602082011115611ead57600080fd5b803590602001918460018302840111600160201b83111715611ece57600080fd5b91908080601f0160208091040260200160405190810160405280939291908181526020018383808284376000920191909152509295949360208101935035915050600160201b811115611f2057600080fd5b820183602082011115611f3257600080fd5b803590602001918460018302840111600160201b83111715611f5357600080fd5b91908080601f0160208091040260200160405190810160405280939291908181526020018383808284376000920191909152509295949360208101935035915050600160201b811115611fa557600080fd5b820183602082011115611fb757600080fd5b803590602001918460018302840111600160201b83111715611fd857600080fd5b91908080601f0160208091040260200160405190810160405280939291908181526020018383808284376000920191909152509295949360208101935035915050600160201b81111561202a57600080fd5b82018360208201111561203c57600080fd5b803590602001918460208302840111600160201b8311171561205d57600080fd5b91908080602002602001604051908101604052809392919081815260200183836020028082843760009201919091525092958435959094909350604081019250602001359050600160201b8111156120b457600080fd5b8201836020820111156120c657600080fd5b803590602001918460018302840111600160201b831117156120e757600080fd5b91908080601f0160208091040260200160405190810160405280939291908181526020018383808284376000920191909152509295506150b7945050505050565b61083d6004803603602081101561213e57600080fd5b5035615204565b610cdc600480360360a081101561215b57600080fd5b81359190810190604081016020820135600160201b81111561217c57600080fd5b82018360208201111561218e57600080fd5b803590602001918460018302840111600160201b831117156121af57600080fd5b91908080601f01602080910402602001604051908101604052809392919081815260200183838082843760009201919091525092958435959094909350604081019250602001359050600160201b81111561220957600080fd5b82018360208201111561221b57600080fd5b803590602001918460018302840111600160201b8311171561223c57600080fd5b91908080601f0160208091040260200160405190810160405280939291908181526020018383808284376000920191909152509295505050503515159050615276565b610cdc6004803603608081101561229557600080fd5b81359190810190604081016020820135600160201b8111156122b657600080fd5b8201836020820111156122c857600080fd5b803590602001918460018302840111600160201b831117156122e957600080fd5b91908080601f0160208091040260200160405190810160405280939291908181526020018383808284376000920191909152509295949360208101935035915050600160201b81111561233b57600080fd5b82018360208201111561234d57600080fd5b803590602001918460018302840111600160201b8311171561236e57600080fd5b91908080601f0160208091040260200160405190810160405280939291908181526020018383808284376000920191909152509295505050503515159050615304565b610348600480360360208110156123c757600080fd5b503561538b565b6107f1600480360360208110156123e457600080fd5b50356154a1565b6107f1600480360361010081101561240257600080fd5b8135916020810135916040820135916060810135916080820135919081019060c0810160a0820135600160201b81111561243b57600080fd5b82018360208201111561244d57600080fd5b803590602001918460018302840111600160201b8311171561246e57600080fd5b91908080601f0160208091040260200160405190810160405280939291908181526020018383808284376000920191909152509295949360208101935035915050600160201b8111156124c057600080fd5b8201836020820111156124d257600080fd5b803590602001918460018302840111600160201b831117156124f357600080fd5b91908080601f0160208091040260200160405190810160405280939291908181526020018383808284376000920191909152509295949360208101935035915050600160201b81111561254557600080fd5b82018360208201111561255757600080fd5b803590602001918460018302840111600160201b8311171561257857600080fd5b91908080601f0160208091040260200160405190810160405280939291908181526020018383808284376000920191909152509295506154b1945050505050565b6110ed600480360360208110156125cf57600080fd5b50356155d2565b6125f3600480360360208110156125ec57600080fd5b50356157b5565b604051808481526020018060200180602001838103835285818151815260200191508051906020019080838360005b8381101561263a578181015183820152602001612622565b50505050905090810190601f1680156126675780820380516001836020036101000a031916815260200191505b50838103825284518152845160209182019186019080838360005b8381101561269a578181015183820152602001612682565b50505050905090810190601f1680156126c75780820380516001836020036101000a031916815260200191505b509550505050505060405180910390f35b610cdc600480360360a08110156126ee57600080fd5b81359190810190604081016020820135600160201b81111561270f57600080fd5b82018360208201111561272157600080fd5b803590602001918460018302840111600160201b8311171561274257600080fd5b91908080601f01602080910402602001604051908101604052809392919081815260200183838082843760009201919091525092958435959094909350604081019250602001359050600160201b81111561279c57600080fd5b8201836020820111156127ae57600080fd5b803590602001918460018302840111600160201b831117156127cf57600080fd5b91908080601f01602080910402602001604051908101604052809392919081815260200183838082843760009201919091525092955050505035151590506158fe565b6107f16004803603602081101561282857600080fd5b503561598d565b610cdc6004803603602081101561284557600080fd5b810190602081018135600160201b81111561285f57600080fd5b82018360208201111561287157600080fd5b803590602001918460018302840111600160201b8311171561289257600080fd5b91908080601f01602080910402602001604051908101604052809392919081815260200183838082843760009201919091525092955061599d945050505050565b6107f1600480360360208110156128e957600080fd5b50356159b4565b6107f16004803603606081101561290657600080fd5b810190602081018135600160201b81111561292057600080fd5b82018360208201111561293257600080fd5b803590602001918460018302840111600160201b8311171561295357600080fd5b91908080601f01602080910402602001604051908101604052809392919081815260200183838082843760009201919091525092958435959094909350604081019250602001359050600160201b8111156129ad57600080fd5b8201836020820111156129bf57600080fd5b803590602001918460018302840111600160201b831117156129e057600080fd5b91908080601f0160208091040260200160405190810160405280939291908181526020018383808284376000920191909152509295506159c4945050505050565b612a3e60048036036020811015612a3757600080fd5b5035615ab5565b604051808681526020018060200180602001851515815260200180602001848103845288818151815260200191508051906020019080838360005b83811015612a91578181015183820152602001612a79565b50505050905090810190601f168015612abe5780820380516001836020036101000a031916815260200191505b508481038352875181528751602091820191808a01910280838360005b83811015612af3578181015183820152602001612adb565b50505050919091018581038352865181528651602091820192509087019080838360008315610f40578181015183820152602001610f28565b6107f1600480360360a0811015612b4257600080fd5b810190602081018135600160201b811115612b5c57600080fd5b820183602082011115612b6e57600080fd5b803590602001918460018302840111600160201b83111715612b8f57600080fd5b91908080601f01602080910402602001604051908101604052809392919081815260200183838082843760009201919091525092958435959094909350604081019250602001359050600160201b811115612be957600080fd5b820183602082011115612bfb57600080fd5b803590602001918460018302840111600160201b83111715612c1c57600080fd5b91908080601f0160208091040260200160405190810160405280939291908181526020018383808284376000920191909152509295949360208101935035915050600160201b811115612c6e57600080fd5b820183602082011115612c8057600080fd5b803590602001918460208302840111600160201b83111715612ca157600080fd5b9190808060200260200160405190810160405280939291908181526020018383602002808284376000920191909152509295949360208101935035915050600160201b811115612cf057600080fd5b820183602082011115612d0257600080fd5b803590602001918460018302840111600160201b83111715612d2357600080fd5b91908080601f016020809104026020016040519081016040528093929190818152602001838380828437600092019190915250929550615c21945050505050565b6107f160048036036080811015612d7a57600080fd5b810190602081018135600160201b811115612d9457600080fd5b820183602082011115612da657600080fd5b803590602001918460018302840111600160201b83111715612dc757600080fd5b91908080601f0160208091040260200160405190810160405280939291908181526020018383808284376000920191909152509295949360208101935035915050600160201b811115612e1957600080fd5b820183602082011115612e2b57600080fd5b803590602001918460208302840111600160201b83111715612e4c57600080fd5b9190808060200260200160405190810160405280939291908181526020018383602002808284376000920191909152509295949360208101935035915050600160201b811115612e9b57600080fd5b820183602082011115612ead57600080fd5b803590602001918460018302840111600160201b83111715612ece57600080fd5b91908080601f0160208091040260200160405190810160405280939291908181526020018383808284376000920191909152509295949360208101935035915050600160201b811115612f2057600080fd5b820183602082011115612f3257600080fd5b803590602001918460018302840111600160201b83111715612f5357600080fd5b91908080601f016020809104026020016040519081016040528093929190818152602001838380828437600092019190915250929550615d41945050505050565b61083d60048036036020811015612faa57600080fd5b5035615e57565b6107f160048036036040811015612fc757600080fd5b810190602081018135600160201b811115612fe157600080fd5b820183602082011115612ff357600080fd5b803590602001918460018302840111600160201b8311171561301457600080fd5b91908080601f0160208091040260200160405190810160405280939291908181526020018383808284376000920191909152509295949360208101935035915050600160201b81111561306657600080fd5b82018360208201111561307857600080fd5b803590602001918460018302840111600160201b8311171561309957600080fd5b91908080601f016020809104026020016040519081016040528093929190818152602001838380828437600092019190915250929550615ec8945050505050565b610348600480360360208110156130f057600080fd5b5035615fb1565b6107f16004803603602081101561310d57600080fd5b5035616021565b61083d6004803603602081101561312a57600080fd5b5035616031565b610cdc600480360360e081101561314757600080fd5b81359190810190604081016020820135600160201b81111561316857600080fd5b82018360208201111561317a57600080fd5b803590602001918460018302840111600160201b8311171561319b57600080fd5b91908080601f01602080910402602001604051908101604052809392919081815260200183838082843760009201919091525092958435959094909350604081019250602001359050600160201b8111156131f557600080fd5b82018360208201111561320757600080fd5b803590602001918460018302840111600160201b8311171561322857600080fd5b91908080601f0160208091040260200160405190810160405280939291908181526020018383808284376000920191909152509295949360208101935035915050600160201b81111561327a57600080fd5b82018360208201111561328c57600080fd5b803590602001918460208302840111600160201b831117156132ad57600080fd5b9190808060200260200160405190810160405280939291908181526020018383602002808284376000920191909152509295949360208101935035915050600160201b8111156132fc57600080fd5b82018360208201111561330e57600080fd5b803590602001918460018302840111600160201b8311171561332f57600080fd5b91908080601f0160208091040260200160405190810160405280939291908181526020018383808284376000920191909152509295505050503515159050616187565b6107f16004803603602081101561338857600080fd5b5035616244565b6107f1600480360360408110156133a557600080fd5b810190602081018135600160201b8111156133bf57600080fd5b8201836020820111156133d157600080fd5b803590602001918460018302840111600160201b831117156133f257600080fd5b91908080601f0160208091040260200160405190810160405280939291908181526020018383808284376000920191909152509295949360208101935035915050600160201b81111561344457600080fd5b82018360208201111561345657600080fd5b803590602001918460018302840111600160201b8311171561347757600080fd5b91908080601f016020809104026020016040519081016040528093929190818152602001838380828437600092019190915250929550616254945050505050565b6107f1600480360360208110156134ce57600080fd5b503561633d565b610e2d600480360360208110156134eb57600080fd5b503561634d565b610e2d6004803603602081101561350857600080fd5b50356164ed565b6107f16004803603602081101561352557600080fd5b5035616687565b6107f16004803603606081101561354257600080fd5b810190602081018135600160201b81111561355c57600080fd5b82018360208201111561356e57600080fd5b803590602001918460018302840111600160201b8311171561358f57600080fd5b91908080601f01602080910402602001604051908101604052809392919081815260200183838082843760009201919091525092958435959094909350604081019250602001359050600160201b8111156135e957600080fd5b8201836020820111156135fb57600080fd5b803590602001918460018302840111600160201b8311171561361c57600080fd5b91908080601f016020809104026020016040519081016040528093929190818152602001838380828437600092019190915250929550616697945050505050565b61083d6004803603602081101561367357600080fd5b5035616788565b610cdc600480360360a081101561369057600080fd5b81359190810190604081016020820135600160201b8111156136b157600080fd5b8201836020820111156136c357600080fd5b803590602001918460018302840111600160201b831117156136e457600080fd5b91908080601f0160208091040260200160405190810160405280939291908181526020018383808284376000920191909152509295949360208101935035915050600160201b81111561373657600080fd5b82018360208201111561374857600080fd5b803590602001918460018302840111600160201b8311171561376957600080fd5b91908080601f0160208091040260200160405190810160405280939291908181526020018383808284376000920191909152509295949360208101935035915050600160201b8111156137bb57600080fd5b8201836020820111156137cd57600080fd5b803590602001918460018302840111600160201b831117156137ee57600080fd5b91908080601f016020809104026020016040519081016040528093929190818152602001838380828437600092019190915250929550505050351515905061680e565b60008181526003602081815260408084208054600280830154958301546001808501805487516101009382161593909302600019011693909304601f8101889004880282018801909652858152606097899788978a97969594929360ff909316926004880192909186918301828280156138ec5780601f106138c1576101008083540402835291602001916138ec565b820191906000526020600020905b8154815290600101906020018083116138cf57829003601f168201915b5050845460408051602060026001851615610100026000190190941693909304601f81018490048402820184019092528181529599508694509250840190508282801561397a5780601f1061394f5761010080835404028352916020019161397a565b820191906000526020600020905b81548152906001019060200180831161395d57829003601f168201915b50505050509050955095509550955095505091939590929450565b6000606080606080606060008060606000600760008c815260200190815260200160002090508060000154816001018260020183600301846004018560050186600601548760070160009054906101000a900460ff1688600801878054600181600116156101000203166002900480601f016020809104026020016040519081016040528092919081815260200182805460018160011615610100020316600290048015613a845780601f10613a5957610100808354040283529160200191613a84565b820191906000526020600020905b815481529060010190602001808311613a6757829003601f168201915b50508a5460408051602060026001851615610100026000190190941693909304601f8101849004840282018401909252818152959d508c945092508401905082828015613b125780601f10613ae757610100808354040283529160200191613b12565b820191906000526020600020905b815481529060010190602001808311613af557829003601f168201915b5050895460408051602060026001851615610100026000190190941693909304601f8101849004840282018401909252818152959c508b945092508401905082828015613ba05780601f10613b7557610100808354040283529160200191613ba0565b820191906000526020600020905b815481529060010190602001808311613b8357829003601f168201915b5050885460408051602060026001851615610100026000190190941693909304601f8101849004840282018401909252818152959b508a945092508401905082828015613c2e5780601f10613c0357610100808354040283529160200191613c2e565b820191906000526020600020905b815481529060010190602001808311613c1157829003601f168201915b5050505050945083805480602002602001604051908101604052809291908181526020018280548015613c8057602002820191906000526020600020905b815481526020019060010190808311613c6c575b5050845460408051602060026001851615610100026000190190941693909304601f810184900484028201840190925281815295995086945092508401905082828015613d0e5780601f10613ce357610100808354040283529160200191613d0e565b820191906000526020600020905b815481529060010190602001808311613cf157829003601f168201915b50505050509050995099509950995099509950995099509950509193959799909294969850565b60408051426020808301919091524482840152825180830384018152606090920183528151918101919091206000818152600180845293812082815560028101805460ff1916861790558651919492939092613d9792908401918801906168ac565b508351613dad90600383019060208701906168ac565b50600b80546001810182556000919091527f0175b7a638427703f0dbe7bb9bbf987a2551717b34e79f33b5b1008d1fa01db9018290556040805183815290517f419c23ff814e3967d54e8426b09e6bb4cfe5682b082e396c591e97bcad447ba99181900360200190a1509392505050565b600b8181548110613e2e57600080fd5b600091825260209091200154905081565b6006602090815260009182526040918290208054600180830180548651600293821615610100026000190190911692909204601f810186900486028301860190965285825291949293909290830182828015613edc5780601f10613eb157610100808354040283529160200191613edc565b820191906000526020600020905b815481529060010190602001808311613ebf57829003601f168201915b505050506002838101546003850180546040805160206101006001851615026000190190931695909504601f8101839004830286018301909152808552959660ff90931695929450909190830182828015613f785780601f10613f4d57610100808354040283529160200191613f78565b820191906000526020600020905b815481529060010190602001808311613f5b57829003601f168201915b5050505050905084565b60056020908152600091825260409182902080546001808301546002808501805488519481161561010002600019011691909104601f8101879004870284018701909752868352929590949192918301828280156140215780601f10613ff657610100808354040283529160200191614021565b820191906000526020600020905b81548152906001019060200180831161400457829003601f168201915b5050505060038301805460408051602060026001851615610100026000190190941693909304601f81018490048402820184019092528181529495949350908301828280156140b15780601f10614086576101008083540402835291602001916140b1565b820191906000526020600020905b81548152906001019060200180831161409457829003601f168201915b50505050600583015460068401805460408051602060026101006001861615026000190190941693909304601f8101849004840282018401909252818152959660ff909416959394509083018282801561414c5780601f106141215761010080835404028352916020019161414c565b820191906000526020600020905b81548152906001019060200180831161412f57829003601f168201915b5050505050905086565b6000868152602081815260409091208551909161417a916002840191880190616938565b50835161419090600383019060208701906168ac565b5085516141a690600183019060208901906168ac565b5060048101805460ff191683151517905582516141cc90600583019060208601906168ac565b506040805188815290517f81cd5cff107d9c8214b96b0fd16f800e4a820213e366cd2b3bec86e730dbcfc69181900360200190a150505050505050565b60008481526001602081815260409092208551909261422e92840191908701906168ac565b5060028101805460ff1916831515179055825161425490600383019060208601906168ac565b506040805186815290517f4c9c025c66604acf9c898ba08849a696a99176a0d78bdf6ac5111e11e14b59aa9181900360200190a15050505050565b6008602090815260009182526040918290208054600180830180548651600293821615610100026000190190911692909204601f81018690048602830186019096528582529194929390929083018282801561432c5780601f106143015761010080835404028352916020019161432c565b820191906000526020600020905b81548152906001019060200180831161430f57829003601f168201915b50505060028085018054604080516020601f60001961010060018716150201909416959095049283018590048502810185019091528181529596959450909250908301828280156143be5780601f10614393576101008083540402835291602001916143be565b820191906000526020600020905b8154815290600101906020018083116143a157829003601f168201915b50505050600383015460048401805460408051602060026101006001861615026000190190941693909304601f8101849004840282018401909252818152959660ff90941695939450908301828280156144595780601f1061442e57610100808354040283529160200191614459565b820191906000526020600020905b81548152906001019060200180831161443c57829003601f168201915b5050505050905085565b60128181548110613e2e57600080fd5b6000848152600660209081526040909120845190916144999160018401918701906168ac565b5060028101805460ff191683151517905582516144bf90600383019060208601906168ac565b506040805186815290517f5e293651729dbde44d92d54c33bc997eac7c3742e57f302f71336f176a39e4ab9181900360200190a15050505050565b6009602052806000526040600020600091509050806000015490806001015490806002015490806003015490806004015490806005018054600181600116156101000203166002900480601f0160208091040260200160405190810160405280929190818152602001828054600181600116156101000203166002900480156145c45780601f10614599576101008083540402835291602001916145c4565b820191906000526020600020905b8154815290600101906020018083116145a757829003601f168201915b5050505060068301805460408051602060026001851615610100026000190190941693909304601f81018490048402820184019092528181529495949350908301828280156146545780601f1061462957610100808354040283529160200191614654565b820191906000526020600020905b81548152906001019060200180831161463757829003601f168201915b50505050600783015460088401805460408051602060026101006001861615026000190190941693909304601f8101849004840282018401909252818152959660ff90941695939450908301828280156146ef5780601f106146c4576101008083540402835291602001916146ef565b820191906000526020600020905b8154815290600101906020018083116146d257829003601f168201915b5050505050905089565b604080514260208083019190915244828401528251808303840181526060909201835281519181019190912060008181526008835292832081815586519192909161474c916001840191908901906168ac565b50845161476290600283019060208801906168ac565b5060038101805460ff19166001179055835161478790600483019060208701906168ac565b50601280546001810182556000919091527fbb8a6a4669ba250d26cd7a459eca9d215f8307e33aebe50379bc5a3617ec3444018290556040805183815290517f6956a71484c646076551330ff66644c57e2bba15c81bbed91f80fa243c74a8879181900360200190a150949350505050565b600a8181548110613e2e57600080fd5b600081815260026020818152604080842080548185015460038301546001808501805487516101009382161593909302600019011698909804601f8101889004880282018801909652858152606097899788978a9796959294929360ff909316926004880192909186918301828280156138ec5780601f106138c1576101008083540402835291602001916138ec565b6015805460408051602060026001851615610100026000190190941693909304601f8101849004840282018401909252818152929183018282801561491f5780601f106148f45761010080835404028352916020019161491f565b820191906000526020600020905b81548152906001019060200180831161490257829003601f168201915b505050505081565b60008981526007602090815260409091208951909161494d9160018401918c01906168ac565b50875161496390600283019060208b01906168ac565b50865161497990600383019060208a01906168ac565b50855161498f90600483019060208901906168ac565b5084516149a59060058301906020880190616938565b506006810184905560078101805460ff191683151517905582516149d290600883019060208601906168ac565b50604080518b815290517fbcc8547d07ccdb27400e2524da86bf5bcc4f0ef2adce334b30a704fd45f6b2539181900360200190a150505050505050505050565b60148054604080516020601f6002600019610100600188161502019095169490940493840181900481028201810190925282815260609390929091830182828015614a9e5780601f10614a7357610100808354040283529160200191614a9e565b820191906000526020600020905b815481529060010190602001808311614a8157829003601f168201915b5050505050905090565b6007602090815260009182526040918290208054600180830180548651600293821615610100026000190190911692909204601f810186900486028301860190965285825291949293909290830182828015614b455780601f10614b1a57610100808354040283529160200191614b45565b820191906000526020600020905b815481529060010190602001808311614b2857829003601f168201915b50505060028085018054604080516020601f6000196101006001871615020190941695909504928301859004850281018501909152818152959695945090925090830182828015614bd75780601f10614bac57610100808354040283529160200191614bd7565b820191906000526020600020905b815481529060010190602001808311614bba57829003601f168201915b5050505060038301805460408051602060026001851615610100026000190190941693909304601f8101849004840282018401909252818152949594935090830182828015614c675780601f10614c3c57610100808354040283529160200191614c67565b820191906000526020600020905b815481529060010190602001808311614c4a57829003601f168201915b5050505060048301805460408051602060026001851615610100026000190190941693909304601f8101849004840282018401909252818152949594935090830182828015614cf75780601f10614ccc57610100808354040283529160200191614cf7565b820191906000526020600020905b815481529060010190602001808311614cda57829003601f168201915b505050506006830154600784015460088501805460408051602060026101006001861615026000190190941693909304601f81018490048402820184019092528181529697949660ff909416955090830182828015614d975780601f10614d6c57610100808354040283529160200191614d97565b820191906000526020600020905b815481529060010190602001808311614d7a57829003601f168201915b5050505050905088565b6000898152600960209081526040909120600181018a905560028101899055600381018890556004810187905585519091614de39160058401918801906168ac565b508351614df990600683019060208701906168ac565b5060078101805460ff19168315151790558251614e1f90600883019060208601906168ac565b50604080518b815290517f756a4458a6731666582902acc2a9947de5acf7e820c3ed211175cb75ee52e4a99181900360200190a150505050505050505050565b60008181526005602081815260408084208054600180830154958301546002808501805487516101009582161595909502600019011691909104601f81018890048802840188019096528583528897606097889788978b97899791969095936003880193600489019360ff9093169260068a019290918791830182828015614f285780601f10614efd57610100808354040283529160200191614f28565b820191906000526020600020905b815481529060010190602001808311614f0b57829003601f168201915b5050875460408051602060026001851615610100026000190190941693909304601f8101849004840282018401909252818152959a5089945092508401905082828015614fb65780601f10614f8b57610100808354040283529160200191614fb6565b820191906000526020600020905b815481529060010190602001808311614f9957829003601f168201915b505050505093508280548060200260200160405190810160405280929190818152602001828054801561500857602002820191906000526020600020905b815481526020019060010190808311614ff4575b5050845460408051602060026001851615610100026000190190941693909304601f8101849004840282018401909252818152959850869450925084019050828280156150965780601f1061506b57610100808354040283529160200191615096565b820191906000526020600020905b81548152906001019060200180831161507957829003601f168201915b50505050509050975097509750975097509750975050919395979092949650565b60408051426020808301919091524482840152825180830384018152606090920183528151918101919091206000818152600783529283208181558a519192909161510a916001840191908d01906168ac565b50885161512090600283019060208c01906168ac565b50875161513690600383019060208b01906168ac565b50865161514c90600483019060208a01906168ac565b5085516151629060058301906020890190616938565b506006810185905560078101805460ff19166001179055835161518e90600883019060208701906168ac565b50601180546001810182556000919091527f31ecc21a745e3968a04e9570e4425bc18fa8019c68028196b546d1669c200c68018290556040805183815290517f98256681d42155ff34804f98e31ebed754d5480b93a9c6dabdc29d053ddb24419181900360200190a15098975050505050505050565b6004602090815260009182526040918290208054600180830180548651600293821615610100026000190190911692909204601f810186900486028301860190965285825291949293909290830182828015613edc5780601f10613eb157610100808354040283529160200191613edc565b6000858152600260208181526040909220908101859055855190916152a29160018401918801906168ac565b5060038101805460ff191683151517905582516152c890600483019060208601906168ac565b506040805187815290517f8a3906be51b7d1f5c0fde5bcd51a0f4c663bafa8250b79158f62136c0d00f2379181900360200190a1505050505050565b60008481526004602090815260409091208451909161532a9160018401918701906168ac565b5060028101805460ff1916831515179055825161535090600383019060208601906168ac565b506040805186815290517fb17d425d710652ed2b5d27f04807e9015c9b0b3af2fe3434ccf17197f338c7fd9181900360200190a15050505050565b6003602090815260009182526040918290208054600180830180548651600293821615610100026000190190911692909204601f8101869004860283018601909652858252919492939092908301828280156154285780601f106153fd57610100808354040283529160200191615428565b820191906000526020600020905b81548152906001019060200180831161540b57829003601f168201915b5050505060028381015460038501546004860180546040805160206101006001851615026000190190931696909604601f81018390048302870183019091528086529697939660ff90931695509293929091908301828280156144595780601f1061442e57610100808354040283529160200191614459565b600d8181548110613e2e57600080fd5b6040805142602080830191909152448284015282518083038401815260609092018352815191810191909120600081815260098352928320818155600181018b9055600281018a90556003810189905560048101889055865191929091615520916005840191908901906168ac565b50845161553690600683019060208801906168ac565b5060078101805460ff19166001179055835161555b90600883019060208701906168ac565b50601380546001810182556000919091527f66de8ffda797e3de9c05e8fc57b3bf0ec28a930d40b0d285d93c06501cf6a090018290556040805183815290517f4e084d8ddee23c9b1f462cb17dda88580da94f2a1333d40707be2ec2ce99bca19181900360200190a1509998505050505050505050565b6000806000806000606080600060606000600960008c815260200190815260200160002090508060000154816001015482600201548360030154846004015485600501866006018760070160009054906101000a900460ff1688600801838054600181600116156101000203166002900480601f0160208091040260200160405190810160405280929190818152602001828054600181600116156101000203166002900480156156c45780601f10615699576101008083540402835291602001916156c4565b820191906000526020600020905b8154815290600101906020018083116156a757829003601f168201915b5050865460408051602060026001851615610100026000190190941693909304601f8101849004840282018401909252818152959950889450925084019050828280156157525780601f1061572757610100808354040283529160200191615752565b820191906000526020600020905b81548152906001019060200180831161573557829003601f168201915b5050845460408051602060026001851615610100026000190190941693909304601f810184900484028201840190925281815295985086945092508401905082828015613d0e5780601f10613ce357610100808354040283529160200191613d0e565b6000818152600160208181526040808420805481850180548451600297821615610100026000190190911696909604601f81018690048602870186019094528386526060958695939492939192600386019284919083018282801561585b5780601f106158305761010080835404028352916020019161585b565b820191906000526020600020905b81548152906001019060200180831161583e57829003601f168201915b5050845460408051602060026001851615610100026000190190941693909304601f8101849004840282018401909252818152959750869450925084019050828280156158e95780601f106158be576101008083540402835291602001916158e9565b820191906000526020600020905b8154815290600101906020018083116158cc57829003601f168201915b50505050509050935093509350509193909250565b6000858152600360209081526040909120600281018590558551909161592b9160018401918801906168ac565b5060038101805460ff1916831515179055825161595190600483019060208601906168ac565b506040805187815290517f45b26663d51e9e501c400d7363e3289b674ae39502c715178017fd129d69fe379181900360200190a1505050505050565b60138181548110613e2e57600080fd5b80516159b09060149060208401906168ac565b5050565b60108181548110613e2e57600080fd5b6040805142602080830191909152448284015282518083038401815260609092018352815191810191909120600081815260038352928320818155865191929091615a17916001840191908901906168ac565b506002810185905560038101805460ff191660011790558351615a4390600483019060208701906168ac565b50600d80546001810182556000919091527fd7b6990105719101dabeb77144f2a3385c8033acd3af97e9423a695e81ad1eb5018290556040805183815290517f7994ff4618f2947c574817607d7facebfdf8912b3656ac7f8d441caf7c555c9a9181900360200190a150949350505050565b600081815260208181526040808320805460048201546001808401805486516002610100948316159490940260001901909116839004601f810189900489028201890190975286815260609788978a9789979096909587019360ff9091169260058801928691830182828015615b6c5780601f10615b4157610100808354040283529160200191615b6c565b820191906000526020600020905b815481529060010190602001808311615b4f57829003601f168201915b5050505050935082805480602002602001604051908101604052809291908181526020018280548015615bbe57602002820191906000526020600020905b815481526020019060010190808311615baa575b5050845460408051602060026001851615610100026000190190941693909304601f81018490048402820184019092528181529598508694509250840190508282801561397a5780601f1061394f5761010080835404028352916020019161397a565b6040805142602080830191909152448284015282518083038401815260609092018352815191810191909120600081815260058352928320818155885191929091615c74916002840191908b01906168ac565b508551615c8a90600383019060208901906168ac565b508451615ca09060048301906020880190616938565b50600180820188905560058201805460ff191690911790558351615ccd90600683019060208701906168ac565b50600f80546001810182556000919091527f8d1108e10bcb7c27dddfc02ed9d693a074039d026cf4ea4240b40f7d581ac802018290556040805183815290517fd72de00ac023ce28bdf5f7f9ce805bb06832bd76131a8e168591b6632164cb089181900360200190a1509695505050505050565b60408051426020808301919091524482840152825180830384018152606090920183528151918101919091206000818152808352928320818155865191929091615d9391600284019190890190616938565b5060048101805460ff191660011790558451615db890600383019060208801906168ac565b508651615dce90600183019060208a01906168ac565b508351615de490600583019060208701906168ac565b50600a80546001810182556000919091527fc65a7bb8d6351c1cf70c95a316cc6a92839c986682d98bc35f958f4883f9d2a8018290556040805183815290517f0e7857bfbd020070a2c8d2fe38c788de1e6adc88cb46f60cf6ec7cd385e81db19181900360200190a15095945050505050565b600160208181526000928352604092839020805481840180548651600296821615610100026000190190911695909504601f81018590048502860185019096528585529094919392909190830182828015613edc5780601f10613eb157610100808354040283529160200191613edc565b6040805142602080830191909152448284015282518083038401815260609092018352815191810191909120600081815260048352928320818155855191929091615f1b916001840191908801906168ac565b5060028101805460ff191660011790558351615f4090600383019060208701906168ac565b50600e80546001810182556000919091527fbb7b4a454dc3493923482f07822329ed19e8244eff582cc204f8554c3620c3fd018290556040805183815290517fceaa9780dd69d57f7477f4eeb327451530ffdc7e551797e9c9eac2f6c6e1705c9181900360200190a1509392505050565b60026020818152600092835260409283902080546001808301805487519281161561010002600019011695909504601f81018590048502820185019096528581529094919390929091908301828280156154285780601f106153fd57610100808354040283529160200191615428565b60118181548110613e2e57600080fd5b600081815260066020908152604080832080546002808301546001808501805487516101009382161593909302600019011693909304601f81018890048802820188019096528581526060968896889695949360ff16926003870192909185918301828280156160e25780601f106160b7576101008083540402835291602001916160e2565b820191906000526020600020905b8154815290600101906020018083116160c557829003601f168201915b5050845460408051602060026001851615610100026000190190941693909304601f8101849004840282018401909252818152959850869450925084019050828280156161705780601f1061614557610100808354040283529160200191616170565b820191906000526020600020905b81548152906001019060200180831161615357829003601f168201915b505050505090509450945094509450509193509193565b6000878152600560209081526040909120875190916161ad9160028401918a01906168ac565b506001810186905584516161ca90600383019060208801906168ac565b5083516161e09060048301906020870190616938565b5060058101805460ff1916831515179055825161620690600683019060208601906168ac565b506040805189815290517fd8f714b0852cafd83ecf70bc951be7f00a73c6fd484df5769f44619534ce14479181900360200190a15050505050505050565b600f8181548110613e2e57600080fd5b60408051426020808301919091524482840152825180830384018152606090920183528151918101919091206000818152600683529283208181558551919290916162a7916001840191908801906168ac565b5060028101805460ff1916600117905583516162cc90600383019060208701906168ac565b50601080546001810182556000919091527f1b6847dc741a1b0cd08d278845f9d819d87b734759afb55fe2de5cb82a9ae672018290556040805183815290517f41ae852bd4986bdb048f0e9fe3e32c8d368d22693a4853f4bb5d6eb35f563f7a9181900360200190a1509392505050565b600e8181548110613e2e57600080fd5b6000818152600860209081526040808320805460038201546001808401805486516002610100948316159490940260001901909116839004601f810189900489028201890190975286815260609788978a9789979096909587019360ff90911692600488019286918301828280156164065780601f106163db57610100808354040283529160200191616406565b820191906000526020600020905b8154815290600101906020018083116163e957829003601f168201915b5050865460408051602060026001851615610100026000190190941693909304601f810184900484028201840190925281815295995088945092508401905082828015615bbe5780601f1061646957610100808354040283529160200191615bbe565b820191906000526020600020905b815481529060010190602001808311616477575050845460408051602060026001851615610100026000190190941693909304601f81018490048402820184019092528181529598508694509250840190508282801561397a5780601f1061394f5761010080835404028352916020019161397a565b600060208181529181526040908190208054600180830180548551600293821615610100026000190190911692909204601f81018790048702830187019095528482529194929390928301828280156165875780601f1061655c57610100808354040283529160200191616587565b820191906000526020600020905b81548152906001019060200180831161656a57829003601f168201915b5050505060038301805460408051602060026001851615610100026000190190941693909304601f81018490048402820184019092528181529495949350908301828280156166175780601f106165ec57610100808354040283529160200191616617565b820191906000526020600020905b8154815290600101906020018083116165fa57829003601f168201915b50505050600483015460058401805460408051602060026101006001861615026000190190941693909304601f8101849004840282018401909252818152959660ff90941695939450908301828280156144595780601f1061442e57610100808354040283529160200191614459565b600c8181548110613e2e57600080fd5b60408051426020808301919091524482840152825180830384018152606090920183528151918101919091206000818152600283529283208181558651919290916166ea916001840191908901906168ac565b506002810185905560038101805460ff19166001179055835161671690600483019060208701906168ac565b50600c80546001810182556000919091527fdf6966c971051c3d54ec59162606531493a51404a002842f56009d7e5cf4a8c7018290556040805183815290517f8c7030962ef212931d701bb102293b6046a82938c9fa09296a6ee14c53f14ee69181900360200190a150949350505050565b600081815260046020908152604080832080546002808301546001808501805487516101009382161593909302600019011693909304601f81018890048802820188019096528581526060968896889695949360ff16926003870192909185918301828280156160e25780601f106160b7576101008083540402835291602001916160e2565b6000858152600860209081526040909120855190916168349160018401918801906168ac565b50835161684a90600283019060208701906168ac565b5060038101805460ff1916831515179055825161687090600483019060208601906168ac565b506040805187815290517f92c15e0894dd3cf13d80c462af158bcca92516d4cf13e2e2763e16d5e99b55289181900360200190a1505050505050565b828054600181600116156101000203166002900490600052602060002090601f0160209004810192826168e25760008555616928565b82601f106168fb57805160ff1916838001178555616928565b82800160010185558215616928579182015b8281111561692857825182559160200191906001019061690d565b50616934929150616972565b5090565b828054828255906000526020600020908101928215616928579160200282018281111561692857825182559160200191906001019061690d565b5b80821115616934576000815560010161697356fea2646970667358221220ba96214efad78942b99ecc331f5ed53a2f775996493abcbc00c0873087f824d364736f6c63430007040033",
    "sourcePath": "d:/GitHub/supplychain_blockchain/tat_contract/contracts/SupplyChain.sol",
    "compiler": {
        "name": "solc",
        "version": "0.7.4+commit.3f05b770"
    },
    "functionHashes": {
        "activityIds(uint256)": "e85bf157",
        "activityMap(bytes32)": "b59d5cfd",
        "areaIds(uint256)": "7bcb20b0",
        "areaMap(bytes32)": "71491640",
        "categoryIds(uint256)": "d63098dd",
        "categoryMap(bytes32)": "6aa6443b",
        "certificationIds(uint256)": "395c2111",
        "certificationMap(bytes32)": "31a3fc6e",
        "createActivity(string,bytes32,string)": "e8d72269",
        "createArea(string,bytes32,string)": "98ed240c",
        "createCategory(string,string)": "b224b4e9",
        "createCertification(string,string,string)": "4fdf1dc1",
        "createOrganization(string,bytes32[],string,string)": "ab1a607c",
        "createOrganizationType(string,string)": "037f6ab4",
        "createProduct(string,bytes32,string,bytes32[],string)": "9f71bcdc",
        "createProfile(string,string,string,string,bytes32[],bytes32,string)": "6a18a8ea",
        "createRole(string,string)": "d2192dbf",
        "createTrackHistory(bytes32,bytes32,bytes32,bytes32,bytes32,string,string,string)": "7dce56ad",
        "getActivityById(bytes32)": "51a72933",
        "getAreaById(bytes32)": "001f5bd2",
        "getCategoryById(bytes32)": "ea2ad7da",
        "getCertificationById(bytes32)": "d911f553",
        "getInfo()": "5a9b0b89",
        "getOrganizationById(bytes32)": "9a017e0a",
        "getOrganizationTypeById(bytes32)": "8599e25e",
        "getProductById(bytes32)": "5ea57703",
        "getProfileById(bytes32)": "0114cf0a",
        "getRoleById(bytes32)": "bdd1a133",
        "getTrackHistoryById(bytes32)": "7e71caf4",
        "organizationIds(uint256)": "50b33f80",
        "organizationMap(bytes32)": "e02ed028",
        "organizationTypeIds(uint256)": "0a1bb26a",
        "organizationTypeMap(bytes32)": "b1561299",
        "productIds(uint256)": "cb51bba9",
        "productMap(bytes32)": "100b6ba2",
        "profileIds(uint256)": "b64e9f59",
        "profileMap(bytes32)": "5ba8c294",
        "roleIds(uint256)": "986deb9a",
        "roleMap(bytes32)": "0f0d3da5",
        "setInfo(string)": "937f6e77",
        "trackHistoryIds(uint256)": "92bbaf40",
        "trackHistoryMap(bytes32)": "3df9601a",
        "updateActivity(bytes32,string,bytes32,string,bool)": "6c72bcb3",
        "updateArea(bytes32,string,bytes32,string,bool)": "86ed1913",
        "updateCategory(bytes32,string,string,bool)": "6e5ca08e",
        "updateCertification(bytes32,string,string,string,bool)": "ee2a11ee",
        "updateOrganization(bytes32,string,bytes32[],string,string,bool)": "111c4779",
        "updateOrganizationType(bytes32,string,string,bool)": "2499c6a6",
        "updateProduct(bytes32,string,bytes32,string,bytes32[],string,bool)": "c7213d81",
        "updateProfile(bytes32,string,string,string,string,bytes32[],bytes32,string,bool)": "5936f96e",
        "updateRole(bytes32,string,string,bool)": "39e7d4cd",
        "updateTrackHistory(bytes32,bytes32,bytes32,bytes32,bytes32,string,string,string,bool)": "5dbfeeda",
        "version()": "54fd4d50"
    },
    "gasEstimates": {
        "creation": {
            "codeDepositCost": "5413800",
            "executionCost": "infinite",
            "totalCost": "infinite"
        },
        "external": {
            "activityIds(uint256)": "1997",
            "activityMap(bytes32)": "infinite",
            "areaIds(uint256)": "1977",
            "areaMap(bytes32)": "infinite",
            "categoryIds(uint256)": "1998",
            "categoryMap(bytes32)": "infinite",
            "certificationIds(uint256)": "1999",
            "certificationMap(bytes32)": "infinite",
            "createActivity(string,bytes32,string)": "infinite",
            "createArea(string,bytes32,string)": "infinite",
            "createCategory(string,string)": "infinite",
            "createCertification(string,string,string)": "infinite",
            "createOrganization(string,bytes32[],string,string)": "infinite",
            "createOrganizationType(string,string)": "infinite",
            "createProduct(string,bytes32,string,bytes32[],string)": "infinite",
            "createProfile(string,string,string,string,bytes32[],bytes32,string)": "infinite",
            "createRole(string,string)": "infinite",
            "createTrackHistory(bytes32,bytes32,bytes32,bytes32,bytes32,string,string,string)": "infinite",
            "getActivityById(bytes32)": "infinite",
            "getAreaById(bytes32)": "infinite",
            "getCategoryById(bytes32)": "infinite",
            "getCertificationById(bytes32)": "infinite",
            "getInfo()": "infinite",
            "getOrganizationById(bytes32)": "infinite",
            "getOrganizationTypeById(bytes32)": "infinite",
            "getProductById(bytes32)": "infinite",
            "getProfileById(bytes32)": "infinite",
            "getRoleById(bytes32)": "infinite",
            "getTrackHistoryById(bytes32)": "infinite",
            "organizationIds(uint256)": "1977",
            "organizationMap(bytes32)": "infinite",
            "organizationTypeIds(uint256)": "2044",
            "organizationTypeMap(bytes32)": "infinite",
            "productIds(uint256)": "2042",
            "productMap(bytes32)": "infinite",
            "profileIds(uint256)": "2043",
            "profileMap(bytes32)": "infinite",
            "roleIds(uint256)": "2021",
            "roleMap(bytes32)": "infinite",
            "setInfo(string)": "infinite",
            "trackHistoryIds(uint256)": "2087",
            "trackHistoryMap(bytes32)": "infinite",
            "updateActivity(bytes32,string,bytes32,string,bool)": "infinite",
            "updateArea(bytes32,string,bytes32,string,bool)": "infinite",
            "updateCategory(bytes32,string,string,bool)": "infinite",
            "updateCertification(bytes32,string,string,string,bool)": "infinite",
            "updateOrganization(bytes32,string,bytes32[],string,string,bool)": "infinite",
            "updateOrganizationType(bytes32,string,string,bool)": "infinite",
            "updateProduct(bytes32,string,bytes32,string,bytes32[],string,bool)": "infinite",
            "updateProfile(bytes32,string,string,string,string,bytes32[],bytes32,string,bool)": "infinite",
            "updateRole(bytes32,string,string,bool)": "infinite",
            "updateTrackHistory(bytes32,bytes32,bytes32,bytes32,bytes32,string,string,string,bool)": "infinite",
            "version()": "infinite"
        }
    }
}