{
    "contractName": "TrackHistoryContract",
    "abi": [
        {
            "anonymous": false,
            "inputs": [
                {
                    "indexed": false,
                    "internalType": "bytes32",
                    "name": "objId",
                    "type": "bytes32"
                }
            ],
            "name": "Created",
            "type": "event"
        },
        {
            "anonymous": false,
            "inputs": [
                {
                    "indexed": false,
                    "internalType": "bytes32",
                    "name": "objId",
                    "type": "bytes32"
                }
            ],
            "name": "Updated",
            "type": "event"
        },
        {
            "inputs": [
                {
                    "internalType": "bytes32",
                    "name": "_productId",
                    "type": "bytes32"
                },
                {
                    "internalType": "bytes32",
                    "name": "_activityId",
                    "type": "bytes32"
                },
                {
                    "internalType": "bytes32",
                    "name": "_profileId",
                    "type": "bytes32"
                },
                {
                    "internalType": "bytes32",
                    "name": "_areaId",
                    "type": "bytes32"
                },
                {
                    "internalType": "string",
                    "name": "_gps",
                    "type": "string"
                },
                {
                    "internalType": "string",
                    "name": "_remarks",
                    "type": "string"
                },
                {
                    "internalType": "string",
                    "name": "_customJsonData",
                    "type": "string"
                }
            ],
            "name": "create",
            "outputs": [
                {
                    "internalType": "bytes32",
                    "name": "objId",
                    "type": "bytes32"
                }
            ],
            "stateMutability": "nonpayable",
            "type": "function"
        },
        {
            "inputs": [
                {
                    "internalType": "uint256",
                    "name": "",
                    "type": "uint256"
                }
            ],
            "name": "dataList",
            "outputs": [
                {
                    "internalType": "bytes32",
                    "name": "",
                    "type": "bytes32"
                }
            ],
            "stateMutability": "view",
            "type": "function"
        },
        {
            "inputs": [
                {
                    "internalType": "bytes32",
                    "name": "",
                    "type": "bytes32"
                }
            ],
            "name": "dataMap",
            "outputs": [
                {
                    "internalType": "bytes32",
                    "name": "trackHistoryId",
                    "type": "bytes32"
                },
                {
                    "internalType": "bytes32",
                    "name": "productId",
                    "type": "bytes32"
                },
                {
                    "internalType": "bytes32",
                    "name": "activityId",
                    "type": "bytes32"
                },
                {
                    "internalType": "bytes32",
                    "name": "profileId",
                    "type": "bytes32"
                },
                {
                    "internalType": "bytes32",
                    "name": "areaId",
                    "type": "bytes32"
                },
                {
                    "internalType": "string",
                    "name": "gps",
                    "type": "string"
                },
                {
                    "internalType": "string",
                    "name": "remarks",
                    "type": "string"
                },
                {
                    "internalType": "bool",
                    "name": "isActive",
                    "type": "bool"
                },
                {
                    "internalType": "string",
                    "name": "customJsonData",
                    "type": "string"
                }
            ],
            "stateMutability": "view",
            "type": "function"
        },
        {
            "inputs": [
                {
                    "internalType": "bytes32",
                    "name": "objId",
                    "type": "bytes32"
                }
            ],
            "name": "getById",
            "outputs": [
                {
                    "internalType": "bytes32",
                    "name": "id",
                    "type": "bytes32"
                },
                {
                    "internalType": "bytes32",
                    "name": "productId",
                    "type": "bytes32"
                },
                {
                    "internalType": "bytes32",
                    "name": "activityId",
                    "type": "bytes32"
                },
                {
                    "internalType": "bytes32",
                    "name": "profileId",
                    "type": "bytes32"
                },
                {
                    "internalType": "bytes32",
                    "name": "areaId",
                    "type": "bytes32"
                },
                {
                    "internalType": "string",
                    "name": "gps",
                    "type": "string"
                },
                {
                    "internalType": "string",
                    "name": "remarks",
                    "type": "string"
                },
                {
                    "internalType": "bool",
                    "name": "isActive",
                    "type": "bool"
                },
                {
                    "internalType": "string",
                    "name": "customJsonData",
                    "type": "string"
                }
            ],
            "stateMutability": "view",
            "type": "function"
        },
        {
            "inputs": [
                {
                    "internalType": "bytes32",
                    "name": "objId",
                    "type": "bytes32"
                },
                {
                    "internalType": "bytes32",
                    "name": "_productId",
                    "type": "bytes32"
                },
                {
                    "internalType": "bytes32",
                    "name": "_activityId",
                    "type": "bytes32"
                },
                {
                    "internalType": "bytes32",
                    "name": "_profileId",
                    "type": "bytes32"
                },
                {
                    "internalType": "bytes32",
                    "name": "_areaId",
                    "type": "bytes32"
                },
                {
                    "internalType": "string",
                    "name": "_gps",
                    "type": "string"
                },
                {
                    "internalType": "string",
                    "name": "_remarks",
                    "type": "string"
                },
                {
                    "internalType": "string",
                    "name": "_customJsonData",
                    "type": "string"
                },
                {
                    "internalType": "bool",
                    "name": "_isActive",
                    "type": "bool"
                }
            ],
            "name": "update",
            "outputs": [],
            "stateMutability": "nonpayable",
            "type": "function"
        }
    ],
    "bytecode": "608060405234801561001057600080fd5b50610cbc806100206000396000f3fe608060405234801561001057600080fd5b50600436106100575760003560e01c80632dff0d0d1461005c57806346bcad62146101e957806346e5e50c14610206578063af4a74cf146103de578063e88089dc146103fb575b600080fd5b6100796004803603602081101561007257600080fd5b50356105cd565b604051808a81526020018981526020018881526020018781526020018681526020018060200180602001851515815260200180602001848103845288818151815260200191508051906020019080838360005b838110156100e45781810151838201526020016100cc565b50505050905090810190601f1680156101115780820380516001836020036101000a031916815260200191505b50848103835287518152875160209182019189019080838360005b8381101561014457818101518382015260200161012c565b50505050905090810190601f1680156101715780820380516001836020036101000a031916815260200191505b50848103825285518152855160209182019187019080838360005b838110156101a457818101518382015260200161018c565b50505050905090810190601f1680156101d15780820380516001836020036101000a031916815260200191505b509c5050505050505050505050505060405180910390f35b610079600480360360208110156101ff57600080fd5b5035610801565b6103cc600480360360e081101561021c57600080fd5b81359160208101359160408201359160608101359181019060a081016080820135600160201b81111561024e57600080fd5b82018360208201111561026057600080fd5b803590602001918460018302840111600160201b8311171561028157600080fd5b91908080601f0160208091040260200160405190810160405280939291908181526020018383808284376000920191909152509295949360208101935035915050600160201b8111156102d357600080fd5b8201836020820111156102e557600080fd5b803590602001918460018302840111600160201b8311171561030657600080fd5b91908080601f0160208091040260200160405190810160405280939291908181526020018383808284376000920191909152509295949360208101935035915050600160201b81111561035857600080fd5b82018360208201111561036a57600080fd5b803590602001918460018302840111600160201b8311171561038b57600080fd5b91908080601f0160208091040260200160405190810160405280939291908181526020018383808284376000920191909152509295506109ea945050505050565b60408051918252519081900360200190f35b6103cc600480360360208110156103f457600080fd5b5035610b08565b6105cb600480360361012081101561041257600080fd5b8135916020810135916040820135916060810135916080820135919081019060c0810160a0820135600160201b81111561044b57600080fd5b82018360208201111561045d57600080fd5b803590602001918460018302840111600160201b8311171561047e57600080fd5b91908080601f0160208091040260200160405190810160405280939291908181526020018383808284376000920191909152509295949360208101935035915050600160201b8111156104d057600080fd5b8201836020820111156104e257600080fd5b803590602001918460018302840111600160201b8311171561050357600080fd5b91908080601f0160208091040260200160405190810160405280939291908181526020018383808284376000920191909152509295949360208101935035915050600160201b81111561055557600080fd5b82018360208201111561056757600080fd5b803590602001918460018302840111600160201b8311171561058857600080fd5b91908080601f0160208091040260200160405190810160405280939291908181526020018383808284376000920191909152509295505050503515159050610b29565b005b60008060008060006060806000606060008060008c815260200190815260200160002090508060000154816001015482600201548360030154846004015485600501866006018760070160009054906101000a900460ff1688600801838054600181600116156101000203166002900480601f0160208091040260200160405190810160405280929190818152602001828054600181600116156101000203166002900480156106be5780601f10610693576101008083540402835291602001916106be565b820191906000526020600020905b8154815290600101906020018083116106a157829003601f168201915b5050865460408051602060026001851615610100026000190190941693909304601f81018490048402820184019092528181529599508894509250840190508282801561074c5780601f106107215761010080835404028352916020019161074c565b820191906000526020600020905b81548152906001019060200180831161072f57829003601f168201915b5050845460408051602060026001851615610100026000190190941693909304601f8101849004840282018401909252818152959850869450925084019050828280156107da5780601f106107af576101008083540402835291602001916107da565b820191906000526020600020905b8154815290600101906020018083116107bd57829003601f168201915b50505050509050995099509950995099509950995099509950509193959799909294969850565b600060208181529181526040908190208054600180830154600280850154600386015460048701546005880180548a519781161561010002600019011694909404601f81018b90048b0287018b019099528886529598939791969095949093909291908301828280156108b55780601f1061088a576101008083540402835291602001916108b5565b820191906000526020600020905b81548152906001019060200180831161089857829003601f168201915b5050505060068301805460408051602060026001851615610100026000190190941693909304601f81018490048402820184019092528181529495949350908301828280156109455780601f1061091a57610100808354040283529160200191610945565b820191906000526020600020905b81548152906001019060200180831161092857829003601f168201915b50505050600783015460088401805460408051602060026101006001861615026000190190941693909304601f8101849004840282018401909252818152959660ff90941695939450908301828280156109e05780601f106109b5576101008083540402835291602001916109e0565b820191906000526020600020905b8154815290600101906020018083116109c357829003601f168201915b5050505050905089565b60408051426020808301919091524482840152825180830384018152606090920183528151918101919091206000818152808352928320818155600181018b9055600281018a90556003810189905560048101889055865191929091610a5891600584019190890190610be5565b508451610a6e9060068301906020880190610be5565b5060078101805460ff191660011790558351610a939060088301906020870190610be5565b506001805480820182556000919091527fb10e2d527612073b26eecdfd717e6a320cf44b4afac2b0732d9fcbe2b7fa0cf6018290556040805183815290517f102d25c49d33fcdb8976a3f2744e0785c98d9e43b88364859e6aec4ae82eff5c9181900360200190a15098975050505050505050565b60018181548110610b1857600080fd5b600091825260209091200154905081565b600089815260208181526040909120600181018a905560028101899055600381018890556004810187905585519091610b69916005840191880190610be5565b508351610b7f9060068301906020870190610be5565b5060078101805460ff19168315151790558251610ba59060088301906020860190610be5565b50604080518b815290517fae7f59c2ef152eb4d4f56fcc655f53926d60b7e58e08ec8c79387e25adbf33319181900360200190a150505050505050505050565b828054600181600116156101000203166002900490600052602060002090601f016020900481019282610c1b5760008555610c61565b82601f10610c3457805160ff1916838001178555610c61565b82800160010185558215610c61579182015b82811115610c61578251825591602001919060010190610c46565b50610c6d929150610c71565b5090565b5b80821115610c6d5760008155600101610c7256fea26469706673582212202984146de932839772d9c573b7c03a73407500aa67a25c9f6f67da662eea5db764736f6c63430007040033",
    "sourcePath": "d:/GitHub/supplychain_blockchain/tat_contract/contracts/TrackHistoryContract.sol",
    "compiler": {
        "name": "solc",
        "version": "0.7.4+commit.3f05b770"
    },
    "functionHashes": {
        "create(bytes32,bytes32,bytes32,bytes32,string,string,string)": "46e5e50c",
        "dataList(uint256)": "af4a74cf",
        "dataMap(bytes32)": "46bcad62",
        "getById(bytes32)": "2dff0d0d",
        "update(bytes32,bytes32,bytes32,bytes32,bytes32,string,string,string,bool)": "e88089dc"
    },
    "gasEstimates": {
        "creation": {
            "codeDepositCost": "652000",
            "executionCost": "683",
            "totalCost": "652683"
        },
        "external": {
            "create(bytes32,bytes32,bytes32,bytes32,string,string,string)": "infinite",
            "dataList(uint256)": "1975",
            "dataMap(bytes32)": "infinite",
            "getById(bytes32)": "infinite",
            "update(bytes32,bytes32,bytes32,bytes32,bytes32,string,string,string,bool)": "infinite"
        }
    }
}