{
    "contractName": "TrailInfoContract",
    "abi": [
        {
            "anonymous": false,
            "inputs": [
                {
                    "indexed": false,
                    "internalType": "bytes32",
                    "name": "objId",
                    "type": "bytes32"
                }
            ],
            "name": "Created",
            "type": "event"
        },
        {
            "anonymous": false,
            "inputs": [
                {
                    "indexed": false,
                    "internalType": "bytes32",
                    "name": "objId",
                    "type": "bytes32"
                }
            ],
            "name": "Updated",
            "type": "event"
        },
        {
            "inputs": [
                {
                    "internalType": "bytes32",
                    "name": "_productId",
                    "type": "bytes32"
                },
                {
                    "internalType": "bytes32",
                    "name": "_activityId",
                    "type": "bytes32"
                },
                {
                    "internalType": "bytes32",
                    "name": "_profileId",
                    "type": "bytes32"
                },
                {
                    "internalType": "bytes32",
                    "name": "_areaId",
                    "type": "bytes32"
                },
                {
                    "internalType": "string",
                    "name": "_gps",
                    "type": "string"
                },
                {
                    "internalType": "string",
                    "name": "_remarks",
                    "type": "string"
                },
                {
                    "internalType": "string",
                    "name": "_customJsonData",
                    "type": "string"
                }
            ],
            "name": "addProductTrail",
            "outputs": [
                {
                    "internalType": "bytes32",
                    "name": "objId",
                    "type": "bytes32"
                }
            ],
            "stateMutability": "nonpayable",
            "type": "function"
        },
        {
            "inputs": [],
            "name": "getProductList",
            "outputs": [
                {
                    "internalType": "bytes32[]",
                    "name": "productList",
                    "type": "bytes32[]"
                }
            ],
            "stateMutability": "view",
            "type": "function"
        },
        {
            "inputs": [
                {
                    "internalType": "bytes32",
                    "name": "_productId",
                    "type": "bytes32"
                },
                {
                    "internalType": "bytes32",
                    "name": "_trailId",
                    "type": "bytes32"
                }
            ],
            "name": "getProductTrail",
            "outputs": [
                {
                    "internalType": "bytes32",
                    "name": "productId",
                    "type": "bytes32"
                },
                {
                    "internalType": "bytes32",
                    "name": "activityId",
                    "type": "bytes32"
                },
                {
                    "internalType": "bytes32",
                    "name": "profileId",
                    "type": "bytes32"
                },
                {
                    "internalType": "bytes32",
                    "name": "areaId",
                    "type": "bytes32"
                },
                {
                    "internalType": "string",
                    "name": "gps",
                    "type": "string"
                },
                {
                    "internalType": "string",
                    "name": "remarks",
                    "type": "string"
                },
                {
                    "internalType": "bool",
                    "name": "isActive",
                    "type": "bool"
                },
                {
                    "internalType": "string",
                    "name": "customJsonData",
                    "type": "string"
                },
                {
                    "internalType": "uint256",
                    "name": "createdDate",
                    "type": "uint256"
                }
            ],
            "stateMutability": "view",
            "type": "function"
        },
        {
            "inputs": [
                {
                    "internalType": "bytes32",
                    "name": "_productId",
                    "type": "bytes32"
                }
            ],
            "name": "getProductTrailList",
            "outputs": [
                {
                    "internalType": "bytes32[]",
                    "name": "productTrailList",
                    "type": "bytes32[]"
                }
            ],
            "stateMutability": "view",
            "type": "function"
        },
        {
            "inputs": [
                {
                    "internalType": "uint256",
                    "name": "",
                    "type": "uint256"
                }
            ],
            "name": "productTrailList",
            "outputs": [
                {
                    "internalType": "bytes32",
                    "name": "",
                    "type": "bytes32"
                }
            ],
            "stateMutability": "view",
            "type": "function"
        }
    ],
    "bytecode": "608060405234801561001057600080fd5b50610a1c806100206000396000f3fe608060405234801561001057600080fd5b50600436106100575760003560e01c8063262e89fa1461005c57806333159aa01461023a57806334d2c0ad146103cd57806375835b6514610425578063f96b86f014610442575b600080fd5b610228600480360360e081101561007257600080fd5b81359160208101359160408201359160608101359181019060a0810160808201356401000000008111156100a557600080fd5b8201836020820111156100b757600080fd5b803590602001918460018302840111640100000000831117156100d957600080fd5b91908080601f016020809104026020016040519081016040528093929190818152602001838380828437600092019190915250929594936020810193503591505064010000000081111561012c57600080fd5b82018360208201111561013e57600080fd5b8035906020019184600183028401116401000000008311171561016057600080fd5b91908080601f01602080910402602001604051908101604052809392919081815260200183838082843760009201919091525092959493602081019350359150506401000000008111156101b357600080fd5b8201836020820111156101c557600080fd5b803590602001918460018302840111640100000000831117156101e757600080fd5b91908080601f01602080910402602001604051908101604052809392919081815260200183838082843760009201919091525092955061045f945050505050565b60408051918252519081900360200190f35b61025d6004803603604081101561025057600080fd5b50803590602001356105d2565b604051808a81526020018981526020018881526020018781526020018060200180602001861515815260200180602001858152602001848103845289818151815260200191508051906020019080838360005b838110156102c85781810151838201526020016102b0565b50505050905090810190601f1680156102f55780820380516001836020036101000a031916815260200191505b5084810383528851815288516020918201918a019080838360005b83811015610328578181015183820152602001610310565b50505050905090810190601f1680156103555780820380516001836020036101000a031916815260200191505b50848103825286518152865160209182019188019080838360005b83811015610388578181015183820152602001610370565b50505050905090810190601f1680156103b55780820380516001836020036101000a031916815260200191505b509c5050505050505050505050505060405180910390f35b6103d5610819565b60408051602080825283518183015283519192839290830191858101910280838360005b838110156104115781810151838201526020016103f9565b505050509050019250505060405180910390f35b6102286004803603602081101561043b57600080fd5b5035610871565b6103d56004803603602081101561045857600080fd5b5035610892565b6000878152602081905260408120888155610479896108f6565b6104b2576001805480820182556000919091527fb10e2d527612073b26eecdfd717e6a320cf44b4afac2b0732d9fcbe2b7fa0cf6018990555b604080514260208083019190915244828401528251808303840181526060909201835281519181019190912060008c8152808352838120828252600190810184529390208181559283018c9055600283018b9055600383018a905560048301899055875190929161052a9160058401918a0190610945565b5085516105409060068301906020890190610945565b5060078101805460ff1916600117905584516105659060088301906020880190610945565b5042600982015560008b815260208181526040808320600201805460018101825590845292829020909201849055815184815291517f102d25c49d33fcdb8976a3f2744e0785c98d9e43b88364859e6aec4ae82eff5c9281900390910190a1509998505050505050505050565b600080600080606080600060606000806000808d815260200190815260200160002060010160008c81526020019081526020016000209050806001015481600201548260030154836004015484600501856006018660070160009054906101000a900460ff16876008018860090154848054600181600116156101000203166002900480601f0160208091040260200160405190810160405280929190818152602001828054600181600116156101000203166002900480156106d65780601f106106ab576101008083540402835291602001916106d6565b820191906000526020600020905b8154815290600101906020018083116106b957829003601f168201915b5050875460408051602060026001851615610100026000190190941693909304601f8101849004840282018401909252818152959a50899450925084019050828280156107645780601f1061073957610100808354040283529160200191610764565b820191906000526020600020905b81548152906001019060200180831161074757829003601f168201915b5050855460408051602060026001851615610100026000190190941693909304601f8101849004840282018401909252818152959950879450925084019050828280156107f25780601f106107c7576101008083540402835291602001916107f2565b820191906000526020600020905b8154815290600101906020018083116107d557829003601f168201915b50505050509150995099509950995099509950995099509950509295985092959850929598565b6060600180548060200260200160405190810160405280929190818152602001828054801561086757602002820191906000526020600020905b815481526020019060010190808311610853575b5050505050905090565b6001818154811061088157600080fd5b600091825260209091200154905081565b600081815260208181526040918290206002018054835181840281018401909452808452606093928301828280156108e957602002820191906000526020600020905b8154815260200190600101908083116108d5575b505050505090505b919050565b6000805b60015481101561093c5760006001828154811061091357fe5b9060005260206000200154905083811415610933576001925050506108f1565b506001016108fa565b50600092915050565b828054600181600116156101000203166002900490600052602060002090601f01602090048101928261097b57600085556109c1565b82601f1061099457805160ff19168380011785556109c1565b828001600101855582156109c1579182015b828111156109c15782518255916020019190600101906109a6565b506109cd9291506109d1565b5090565b5b808211156109cd57600081556001016109d256fea2646970667358221220ca759eaf7e2410e1c16700fc0cbddb6df6ab0df35ec3d8bf8d048363b322a7d764736f6c63430007040033",
    "sourcePath": "d:/GitHub/supplychain_blockchain/tat_contract/contracts/TrailInfoContract.sol",
    "compiler": {
        "name": "solc",
        "version": "0.7.4+commit.3f05b770"
    },
    "functionHashes": {
        "addProductTrail(bytes32,bytes32,bytes32,bytes32,string,string,string)": "262e89fa",
        "getProductList()": "34d2c0ad",
        "getProductTrail(bytes32,bytes32)": "33159aa0",
        "getProductTrailList(bytes32)": "f96b86f0",
        "productTrailList(uint256)": "75835b65"
    },
    "gasEstimates": {
        "creation": {
            "codeDepositCost": "517600",
            "executionCost": "549",
            "totalCost": "518149"
        },
        "external": {
            "addProductTrail(bytes32,bytes32,bytes32,bytes32,string,string,string)": "infinite",
            "getProductList()": "infinite",
            "getProductTrail(bytes32,bytes32)": "infinite",
            "getProductTrailList(bytes32)": "infinite",
            "productTrailList(uint256)": "1975"
        },
        "internal": {
            "isProductExist(bytes32)": "infinite"
        }
    }
}