{
    "contractName": "SupplyChain",
    "abi": [
        {
            "anonymous": false,
            "inputs": [
                {
                    "indexed": false,
                    "internalType": "string",
                    "name": "objectCode",
                    "type": "string"
                },
                {
                    "indexed": false,
                    "internalType": "bytes32",
                    "name": "objId",
                    "type": "bytes32"
                }
            ],
            "name": "OrganizationCreated",
            "type": "event"
        },
        {
            "inputs": [
                {
                    "internalType": "string",
                    "name": "_code",
                    "type": "string"
                },
                {
                    "internalType": "string",
                    "name": "_name",
                    "type": "string"
                },
                {
                    "internalType": "string",
                    "name": "_organization_address",
                    "type": "string"
                }
            ],
            "name": "createOrganization",
            "outputs": [
                {
                    "internalType": "bytes32",
                    "name": "objId",
                    "type": "bytes32"
                }
            ],
            "stateMutability": "nonpayable",
            "type": "function"
        },
        {
            "inputs": [],
            "name": "getInfo",
            "outputs": [
                {
                    "internalType": "string",
                    "name": "",
                    "type": "string"
                }
            ],
            "stateMutability": "view",
            "type": "function"
        },
        {
            "inputs": [
                {
                    "internalType": "bytes32",
                    "name": "objId",
                    "type": "bytes32"
                }
            ],
            "name": "getOrganizationById",
            "outputs": [
                {
                    "internalType": "bytes32",
                    "name": "id",
                    "type": "bytes32"
                },
                {
                    "internalType": "string",
                    "name": "code",
                    "type": "string"
                },
                {
                    "internalType": "string",
                    "name": "ame",
                    "type": "string"
                },
                {
                    "internalType": "string",
                    "name": "organization_address",
                    "type": "string"
                }
            ],
            "stateMutability": "view",
            "type": "function"
        },
        {
            "inputs": [
                {
                    "internalType": "uint256",
                    "name": "",
                    "type": "uint256"
                }
            ],
            "name": "organizationIds",
            "outputs": [
                {
                    "internalType": "bytes",
                    "name": "",
                    "type": "bytes"
                }
            ],
            "stateMutability": "view",
            "type": "function"
        },
        {
            "inputs": [
                {
                    "internalType": "bytes32",
                    "name": "",
                    "type": "bytes32"
                }
            ],
            "name": "organizationMap",
            "outputs": [
                {
                    "internalType": "bytes32",
                    "name": "objId",
                    "type": "bytes32"
                },
                {
                    "internalType": "string",
                    "name": "code",
                    "type": "string"
                },
                {
                    "internalType": "string",
                    "name": "name",
                    "type": "string"
                },
                {
                    "internalType": "string",
                    "name": "organization_address",
                    "type": "string"
                }
            ],
            "stateMutability": "view",
            "type": "function"
        },
        {
            "inputs": [
                {
                    "internalType": "string",
                    "name": "_info",
                    "type": "string"
                }
            ],
            "name": "setInfo",
            "outputs": [],
            "stateMutability": "nonpayable",
            "type": "function"
        },
        {
            "inputs": [],
            "name": "testId",
            "outputs": [
                {
                    "internalType": "bytes32",
                    "name": "objId",
                    "type": "bytes32"
                }
            ],
            "stateMutability": "payable",
            "type": "function"
        }
    ],
    "bytecode": "608060405234801561001057600080fd5b50610ca0806100206000396000f3fe6080604052600436106100705760003560e01c80635a9b0b891161004e5780635a9b0b89146102e9578063937f6e77146102fe5780639a017e0a146103b1578063e02ed0281461052657610070565b806323247b56146100755780633c85ad011461024257806350b33f801461024a575b600080fd5b34801561008157600080fd5b506102306004803603606081101561009857600080fd5b810190602081018135600160201b8111156100b257600080fd5b8201836020820111156100c457600080fd5b803590602001918460018302840111600160201b831117156100e557600080fd5b91908080601f0160208091040260200160405190810160405280939291908181526020018383808284376000920191909152509295949360208101935035915050600160201b81111561013757600080fd5b82018360208201111561014957600080fd5b803590602001918460018302840111600160201b8311171561016a57600080fd5b91908080601f0160208091040260200160405190810160405280939291908181526020018383808284376000920191909152509295949360208101935035915050600160201b8111156101bc57600080fd5b8201836020820111156101ce57600080fd5b803590602001918460018302840111600160201b831117156101ef57600080fd5b91908080601f016020809104026020016040519081016040528093929190818152602001838380828437600092019190915250929550610550945050505050565b60408051918252519081900360200190f35b610230610679565b34801561025657600080fd5b506102746004803603602081101561026d57600080fd5b50356106d6565b6040805160208082528351818301528351919283929083019185019080838360005b838110156102ae578181015183820152602001610296565b50505050905090810190601f1680156102db5780820380516001836020036101000a031916815260200191505b509250505060405180910390f35b3480156102f557600080fd5b5061027461077f565b34801561030a57600080fd5b506103af6004803603602081101561032157600080fd5b810190602081018135600160201b81111561033b57600080fd5b82018360208201111561034d57600080fd5b803590602001918460018302840111600160201b8311171561036e57600080fd5b91908080601f016020809104026020016040519081016040528093929190818152602001838380828437600092019190915250929550610812945050505050565b005b3480156103bd57600080fd5b506103db600480360360208110156103d457600080fd5b5035610829565b60405180858152602001806020018060200180602001848103845287818151815260200191508051906020019080838360005b8381101561042657818101518382015260200161040e565b50505050905090810190601f1680156104535780820380516001836020036101000a031916815260200191505b50848103835286518152865160209182019188019080838360005b8381101561048657818101518382015260200161046e565b50505050905090810190601f1680156104b35780820380516001836020036101000a031916815260200191505b50848103825285518152855160209182019187019080838360005b838110156104e65781810151838201526020016104ce565b50505050905090810190601f1680156105135780820380516001836020036101000a031916815260200191505b5097505050505050505060405180910390f35b34801561053257600080fd5b506103db6004803603602081101561054957600080fd5b5035610a03565b604080514260208083019190915244828401528251808303840181526060909201835281519181019190912060008181528083529283208181558651919290916105a291600184019190890190610bc9565b5084516105b89060028301906020880190610bc9565b5083516105ce9060038301906020870190610bc9565b507fe4bd50963ffbbe6c40e74115b030cb012d2f2ae6f1561362b5466ea3414d69ac86836040518080602001838152602001828103825284818151815260200191508051906020019080838360005b8381101561063557818101518382015260200161061d565b50505050905090810190601f1680156106625780820380516001836020036101000a031916815260200191505b50935050505060405180910390a150949350505050565b60408051426020808301919091524482840152825180830384018152606083018085528151919092012060a0830190935260039081905262185cd960ea1b6080909201918252600092916106d09160029190610bc9565b50905090565b600181815481106106e657600080fd5b600091825260209182902001805460408051601f60026000196101006001871615020190941693909304928301859004850281018501909152818152935090918301828280156107775780601f1061074c57610100808354040283529160200191610777565b820191906000526020600020905b81548152906001019060200180831161075a57829003601f168201915b505050505081565b60028054604080516020601f60001961010060018716150201909416859004938401819004810282018101909252828152606093909290918301828280156108085780601f106107dd57610100808354040283529160200191610808565b820191906000526020600020905b8154815290600101906020018083116107eb57829003601f168201915b5050505050905090565b8051610825906002906020840190610bc9565b5050565b60008181526020818152604080832080546001808301805485516002938216156101000260001901909116839004601f81018890048802820188019096528581526060968796879695948601926003870192909185918301828280156108d05780601f106108a5576101008083540402835291602001916108d0565b820191906000526020600020905b8154815290600101906020018083116108b357829003601f168201915b5050855460408051602060026001851615610100026000190190941693909304601f81018490048402820184019092528181529598508794509250840190508282801561095e5780601f106109335761010080835404028352916020019161095e565b820191906000526020600020905b81548152906001019060200180831161094157829003601f168201915b5050845460408051602060026001851615610100026000190190941693909304601f8101849004840282018401909252818152959750869450925084019050828280156109ec5780601f106109c1576101008083540402835291602001916109ec565b820191906000526020600020905b8154815290600101906020018083116109cf57829003601f168201915b505050505090509450945094509450509193509193565b600060208181529181526040908190208054600180830180548551600293821615610100026000190190911692909204601f8101879004870283018701909552848252919492939092830182828015610a9d5780601f10610a7257610100808354040283529160200191610a9d565b820191906000526020600020905b815481529060010190602001808311610a8057829003601f168201915b50505060028085018054604080516020601f6000196101006001871615020190941695909504928301859004850281018501909152818152959695945090925090830182828015610b2f5780601f10610b0457610100808354040283529160200191610b2f565b820191906000526020600020905b815481529060010190602001808311610b1257829003601f168201915b5050505060038301805460408051602060026001851615610100026000190190941693909304601f8101849004840282018401909252818152949594935090830182828015610bbf5780601f10610b9457610100808354040283529160200191610bbf565b820191906000526020600020905b815481529060010190602001808311610ba257829003601f168201915b5050505050905084565b828054600181600116156101000203166002900490600052602060002090601f016020900481019282610bff5760008555610c45565b82601f10610c1857805160ff1916838001178555610c45565b82800160010185558215610c45579182015b82811115610c45578251825591602001919060010190610c2a565b50610c51929150610c55565b5090565b5b80821115610c515760008155600101610c5656fea26469706673582212207e8877ffd12bfc475f0b492d3b8cd7f376bdb0757a1122f2521a85ffdd06b06664736f6c63430007040033",
    "sourcePath": "d:/GitHub/supplychain_blockchain/tat_contract/contracts_ori/SupplyChain.sol",
    "compiler": {
        "name": "solc",
        "version": "0.7.4+commit.3f05b770"
    },
    "functionHashes": {
        "createOrganization(string,string,string)": "23247b56",
        "getInfo()": "5a9b0b89",
        "getOrganizationById(bytes32)": "9a017e0a",
        "organizationIds(uint256)": "50b33f80",
        "organizationMap(bytes32)": "e02ed028",
        "setInfo(string)": "937f6e77",
        "testId()": "3c85ad01"
    },
    "gasEstimates": {
        "creation": {
            "codeDepositCost": "646400",
            "executionCost": "676",
            "totalCost": "647076"
        },
        "external": {
            "createOrganization(string,string,string)": "infinite",
            "getInfo()": "infinite",
            "getOrganizationById(bytes32)": "infinite",
            "organizationIds(uint256)": "infinite",
            "organizationMap(bytes32)": "infinite",
            "setInfo(string)": "infinite",
            "testId()": "infinite"
        }
    }
}